:020000040800F2
:1000000038280020A1010008A9010008AB01000860
:10001000AD010008AF010008B101000800000000B8
:10002000000000000000000000000000B301000814
:10003000B501000800000000B7010008B901000880
:10004000BB010008BB010008BB010008BB010008A0
:10005000BB010008BB010008BB010008BB01000890
:10006000BB010008BB010008912B0008BB01000880
:10007000BB010008BB010008BB010008BB01000870
:10008000BB010008BB010008BB010008BB01000860
:10009000BB010008BB010008BB010008BB01000850
:1000A000CD440008F1440008BB010008BB01000872
:1000B0001D450008E9450008BB010008BB01000818
:1000C000BB010008BB010008BB010008BB01000820
:1000D000BB010008654B0008C14B0008BB010008CC
:1000E000BB010008BB010008BB010008BB01000800
:1000F000BB010008BB010008BB010008BB010008F0
:10010000BB010008BB010008BB010008BB010008DF
:10011000554B0008BB010008454600087146000821
:10012000BB010008BB010008BB010008BB010008BF
:10013000BB010008BB010008BB010008BB010008AF
:10014000BB010008BB010008BB010008BB0100089F
:10015000BB010008BB010008BB010008914C00086E
:10016000BB010008BB010008BB010008BB0100087F
:10017000BB010008BB010008BB010008BB0100086F
:10018000BB010008BB010008DFF810D000F08CFCB8
:10019000004800474D620008AFF300803828002077
:1001A0000648804706480047FEE7FEE7FEE7FEE711
:1001B000FEE7FEE7FEE7FEE7FEE7FEE76544000830
:1001C0008901000800487047909C000810B504465B
:1001D000FFF7F8FF0068005D00F0010010BD40EA85
:1001E00001039B0703D009E008C9121F08C0042AB5
:1001F000FAD203E011F8013B00F8013B521EF9D29C
:100200007047D2B201E000F8012B491EFBD27047C3
:100210000022F6E710B513460A4604461946FFF7D2
:10022000F0FF204610BDCAB2401E10F8011F8A42DE
:1002300002D00029F9D100207047421C10F8011BA0
:100240000029FBD1801A704710B5002200E0521C33
:10025000835C8C5CA34201D1002BF8D1D8B2E1B20F
:10026000401A10BD034611F8012B00F8012B002A9B
:10027000F9D11846704700000FB400B58DB010A931
:1002800009900B9000914FF0FF300A9000200C90E5
:1002900005480690054807906A4609A80F9900F09E
:1002A000D9FA0DB05DF814FB710800088F0800083A
:1002B0002DE9FF5FD2E901A74FF000089169994647
:1002C0001446DDF838B0464601988847054659EA95
:1002D0000B0005D009E0A169761C01988847054606
:1002E000216A284688470028F5D1681C03D05FEAB8
:1002F000CA7005D015E04FF0FF3004B0BDE8F09FA4
:100300002068011D2160D0F800800AE05FEACA7011
:1003100001D108F8015BA169761C7F1E019888470E
:100320000546002F1ADD681C18D0B9F1000F0DD05A
:10033000E81705EBD060421120F01F0059F8221099
:100340002A1A012090400142E0D107E0BBF1000FE2
:10035000DCD1216A284688470028D7D0E169019876
:100360008847BBF1000F07D1002E05DD5FEACA7098
:1003700002D1002188F80010A068B84203DDBBF16B
:10038000000F03D017B16FF00100B6E73046B4E7B5
:1003900070B5064605F042FA046805460A220021B7
:1003A000304600F085FA2C6070BD2DE9FE4F804686
:1003B00081EA0300C00F0C46009021F0004123F0B9
:1003C0000045B8EB0200A94105D2404621469046BF
:1003D0001C460B46024623F00040104347D0270D31
:1003E000C7F30A00C3F30A510290401A0190402853
:1003F0006BDAC3F3130040F4801B0098924620B1DF
:100400000023D2EB030A63EB0B0B01985946C0F1B2
:100410004002504600F0D8F906460D46504659466F
:10042000019A00F0F0F910EB08006141002487EA1E
:10043000115284EAE7731A4340D0009A62B3019ADA
:10044000012A4FEA075215DC001B61EB02014FF055
:10045000004202EA0752CDE90042001C41F580113A
:1004600032462B4600F0A2FA03B0BDE8F08F4046BA
:100470002146F9E7001B61EB0201001C41F58013E6
:1004800000185B412018A2F5001747EB030140EA72
:10049000D570B6196D4111E06D084FEA360645EA90
:1004A000C0754FEA0752001B61EB0201001C41F5C9
:1004B000801149084FEA30000019514132462B465D
:1004C00003B0BDE8F04F00F062BA0098012240008E
:1004D0000023D0EB020263EBE073009821464FEA61
:1004E000E074B8EB000061EB0401E9E783F000433E
:1004F0005BE781F0004158E72DE9FE4F81EA0304F4
:1005000004F0004421F0004100944FF0000B23F070
:10051000004350EA01045ED052EA03045BD0C3F307
:100520000A54C1F30A552C44A4F2F3340194A0FBFD
:100530000254C1F3130141F48011C3F3130343F4D4
:10054000801301FB024400FB034E840A970A44EA2D
:10055000815447EA8357A4FB076802958D0A05FB7F
:1005600007854FEA932C04FB0C542705029D4FEAA4
:10057000065847EA1637B5EB08056EEB070C870EF1
:10058000920E47EA811742EA8312A7FB0201B6EBFB
:100590000B0164EB00042B0D43EA0C335E1844EBB3
:1005A0001C50DA465146E7FB0201C5F313044FEA3B
:1005B0000B3343EA14534FEA0432019C43EA060327
:1005C000A4F10C040294009CCDE900B400F0EEF913
:1005D00003B0BDE8F08F00200146F9E72DE9F04DAA
:1005E00081EA030404F0004B21F0004514464FF06B
:1005F000000A23F0004150EA050220D054EA01022B
:100600001DD0C5F30A570246C5F31303C1F3130007
:10061000C1F30A5640F4801543F48013A7EB060893
:10062000101BD64608F2FD3873EB050002D308F123
:10063000010801E092185B41B8F1000F03DA0020D5
:100640000146BDE8F08D00204FF480110646844637
:100650000EE0171B73EB050705D3121B63EB0503B5
:1006600006434CEA010C49084FEA300092185B41FE
:1006700050EA0107EDD152EA030012D082EA0400E9
:1006800083EA0501084305D0101BAB4106D20122C5
:10069000002306E000224FF0004302E06FF0010269
:1006A00053101AEB06004CEB085110EB0A0041EB1B
:1006B0000B01BDE8F04D00F06AB90EB5C10F80EA3C
:1006C000E0700844CA07002140F233438DE80E0071
:1006D0000A460B4600F06AF903B000BD00F0004284
:1006E00030F000400AD0C10D01F56071C0F3160072
:1006F00042EA0151C20840071143704700200146F9
:10070000704701F0004330B421F0004150EA01028B
:1007100006D00A0DA2F56072C1F31301002A02DCB3
:1007200030BC00207047440F44EAC104C100E01807
:1007300030BC00EBC25000F0F3B830B50B460146B8
:1007400000202022012409E021FA02F59D4205D370
:1007500003FA02F5491B04FA02F52844151EA2F11A
:100760000102F1DC30BD2DE9F05F05460020924624
:100770009B4688460646814640241BE02846414663
:100780004746224600F02FF853465A46C01A914178
:1007900010D311461846224600F016F82D1A67EBC2
:1007A00001084F4622460120002100F00DF817EB0A
:1007B00000094E41201EA4F10104DFDC4846314609
:1007C0002A464346BDE8F09F202A04DB203A00FA7F
:1007D00002F1002070479140C2F1200320FA03F398
:1007E000194390407047202A04DB203A21FA02F096
:1007F0000021704721FA02F3D040C2F1200291405B
:10080000084319467047202A06DBCB17203A41FAE5
:1008100002F043EAE07306E041FA02F3D040C2F18D
:10082000200291400843194670473A2800D23038D8
:1008300020F02002412A01D3A2F13700884201D3DF
:100840004FF0FF30704700000268114413780160D8
:1008500018467047D1600449516104491162002172
:100860001161114600F032B949080008CD010008B5
:10087000426842B1016811F8013B23B1521EC0E940
:100880000012184670470121C160881E70474268F7
:100890005AB1C368016843B983688B4205D0491EC9
:1008A000521CC0E90012002070474FF0FF30704723
:1008B0002DE9F04791460F4680460446002614F87D
:1008C000015B2DB1FFF77EFC0068405DC007F6D1EB
:1008D0002B2D02D02D2D18D0641E4A4639462046B5
:1008E00000F08CFA27B13968A14201D1C7F8008025
:1008F00071054FF002040BD54042002803DD04F0DF
:100900008DFF0460A007BDE8F08746F48066E4E749
:100910000028F8DA04F082FF04606FF00040F2E78C
:100920000029A8BF7047401C490008BF20F0010003
:10093000704710B4B0FA80FC00FA0CF050EA0104E1
:1009400004BF10BC704749B1CCF1200421FA04F473
:1009500011FA0CF118BF012121430843A3EB0C014C
:10096000CB1D4FEA00614FEA102042BF002010BCAF
:10097000704700EBC35010440029A4BF10BC70475F
:10098000401C490008BF20F0010010BC704710B5A2
:10099000141E73F1000408DA401C41F100019218A2
:1009A0005B411A4301D120F0010010BD2DE9F04D4B
:1009B00092469B4611B1B1FA81F202E0B0FA80F2A0
:1009C00020329046FFF700FF04460F4640EA0A0037
:1009D00041EA0B0153465A46084313D0114653EAE5
:1009E000010019D0C8F140025046FFF7FCFE054651
:1009F0000E46504659464246FFF7E6FE084305D0EC
:100A0000012004E020463946BDE8F08D0020054372
:100A100046EAE0762C4337430A986305E40AA0EBE4
:100A200008000022FD0A44EA47540A3002D500209B
:100A30000146E9E7010510196941DDE9084500199A
:100A40006941BDE8F04DA2E7C1F30A52C1F31301B9
:100A500040F2FF3341F480119A4202DA002001464D
:100A6000704740F233439A42A2F2334202DC5242D0
:100A7000FFF7B9BEFFF7A8BE30B5041E71F1000440
:100A800004DB4FF00044404264EB0101141E73F19B
:100A9000000405DB1C464FF00043524263EB0403A5
:100AA000994208BF904230BD064C074D06E0E06811
:100AB00040F0010394E8070098471034AC42F6D3A5
:100AC000FFF766FBA89C0008C89C00082DE9F34FBF
:100AD0008BB04FF0000801F10C000C464FF0010BF9
:100AE00046460DF1080A019062690121019890477C
:100AF000051E2DD0252D2CD0216A8847C0B16269F2
:100B0000012101989047216A88470028F7D1411EAA
:100B100062690198904700E0761CA1690B988847AC
:100B2000216A88470028F7D1E1690B988847DBE7FD
:100B3000A1690B9888470746A84201D1761CD3E7E4
:100B4000E1690B9888477F1C02D1B8F1000F6FD084
:100B500047E1002762693D463946019890472A28B7
:100B600004D162690121019890470125DFF888923C
:100B70006269012101989047A0F130010A290AD247
:100B80004F45E5DC07EB870100EB4107303FDFD441
:100B900045F01005ECE7E90601D46FF000476C283A
:100BA0000AD04C2814D0682815D06A280DD0742893
:100BB0001CD07A281AD01DE0626901210198904763
:100BC0006C2802D045F0040514E045F002050DE064
:100BD00045F020050AE062690121019890476828E4
:100BE00002D045F0080505E045F400656269012181
:100BF00001989047C4E9015765283DD019DC582871
:100C00007AD00CDC452837D004DC252826D04128B2
:100C100031D131E046282FD047282CD12CE05B2859
:100C200077D0612828D063287CD0642823D15AE06B
:100C3000D1E06F2848D008DC66281DD067281BD07B
:100C4000692821D06E2816D127E0702845D0732856
:100C500068D0752847D078280DD14DE0A1690B9850
:100C60008847054625283FF469AFE1690B98884716
:100C70006D1C3FF46AAFB4E023466A466FF0010092
:100C80000B99AFF300809FE045F040006060A8073B
:100C900023464FF0000236D43EE0E8077FF447AF2A
:100CA0002068011D21600068290501D506701BE739
:100CB000290701D5068017E7A90703D5F117C0E971
:100CC000006111E706600FE745F040006060A8078B
:100CD00023464FF0080216D41EE040F60E0125EA26
:100CE0000100606016E045F040006060A807234600
:100CF0004FF00A0207D40FE045F040006060A807FB
:100D000008D5234610226FF001000B99AFF3008045
:100D10005AE007E0234610226FF001000B99AFF371
:100D2000008051E04FF000094F464B46632802D047
:100D30005B2807D041E02079C00601D40120A060E3
:100D400001273AE062690121019890475E2805D1A8
:100D50004FF001096269494601989047216939B904
:100D600000210A46534643F82120491C0829FADB92
:100D7000B0B3216969B9C11700EBD16253110AEB15
:100D8000830122F01F02821A01200B689040034366
:100D90000B6062690121019890475D28E8D1B9F1A3
:100DA000000F09D00020514651F82020D24341F8CD
:100DB0002020401C0828F7DB02AB224600976FF08A
:100DC00001000B99FFF774FA00280CDA401C08D1D7
:100DD000BBF1000F05D04FF0FF300DB0BDE8F08F34
:100DE000FFE74046F9E7E90701D108F101080644A9
:100DF0004FF0000B78E60000CCCCCC0C2DE9F05F76
:100E000082460078002715468B460AF10104B94650
:100E1000302801D09DB113E014F8010B0127782888
:100E200003D0582801D045B10AE00DB1102D07D1EB
:100E30000027102514F8010B02E0082500E00A2520
:100E40000026B0460EE005FB080005FB06F1012771
:100E500001EB10461FFA80F8B6F5803F00D3B94683
:100E600014F8010B2946FFF7E0FC0028EBDABBF190
:100E7000000F05D00FB1641E00E05446CBF80040CF
:100E8000B9F1000F06D004F0C9FC02210160C81EB0
:100E9000BDE8F09F48EA0640FAE770B58D1810F8F3
:100EA000014B14F0030201D110F8012B231106D1DC
:100EB00010F8013B03E010F8016B01F8016B521EC2
:100EC000F9D1ABB110F8012B04F00C048A1A0C2CE8
:100ED00003D0A2EB84129B1C08E010F8014BA2EB9C
:100EE0000422F8E712F8014B01F8014B5B1EF9D51B
:100EF000A942D4D3002070BDCA430260704721B11B
:100F0000826842F00102826003E0826822F00102FE
:100F1000826070470021084A1168084A1140D0E9F0
:100F200000231A4383681A43C3681A431143044ACF
:100F3000C2F804137047000004230140E030FCFFB6
:100F40000020014000B58DB00121084602F040FFAD
:100F50000121080202F06CFF4020019003208DF86F
:100F6000080000208DF80B0001A9174801F04DFF83
:100F70000020039004900690059003A8FFF7CAFF95
:100F80000121080202F064FF00214FF4807002F09A
:100F90005FFF00208DF8200007908DF82100099058
:100FA0000B9001208DF8300007A9084800F01EF8CA
:100FB000062301221946054800F042F801210348A2
:100FC000FFF79DFF0DB000BD000002400020014072
:100FD0000146C86C80B270470246002013680B407F
:100FE0000BB1012000E000207047000030B5024640
:100FF000002000235068104C20400D790C6844EA12
:1010000005242043506090680C4C2040D1E90354E3
:101010002C438D682C434D7944EA4504204390606D
:10102000D06A20F470000C7D641EE4B2234340EAD1
:101030000350D06230BD0000FFFEFFFCFDF7FFC093
:10104000F0B504460D4600200021092D11DDE068B1
:10105000A5F10A0606EB4607072606FA07F18843BC
:10106000A5F10A0606EB460603FA06F10843E0601E
:101070000CE0206905EB4507072606FA07F18843CF
:1010800005EB450603FA06F108432061072A0FDA4B
:10109000606B561E06EB86071F2606FA07F188438B
:1010A000561E06EB860605FA06F10843606322E049
:1010B0000D2A0FDA206BD61F06EB86071F2606FACD
:1010C00007F18843D61F06EB860605FA06F10843AA
:1010D000206310E0E06AA2F10D0606EB86071F26EA
:1010E00006FA07F18843A2F10D0606EB860605FA1B
:1010F00006F10843E062F0BD816841F08041816003
:101100007047000070B500232A4A12780B2A03DAD0
:101110000022294C22704BE0002044E0274A125C58
:10112000552A3ED1254C421CA25CEE2A39D100F151
:101130000A02A25CBB2A34D12546841C2D5D1F4EB9
:10114000C41C345D2544041D345D2544441D345DB8
:101150002544841D345D2544C41D345D254400F1BF
:101160000804345D2A19D41702EB14642412A2EB8C
:101170000424E3B2344600F10902A25C9A420DD184
:10118000002105E00A180D4CA25C62544A1CD1B241
:101190000B29F7DB0122084C227002E00022064CEA
:1011A0002270421CD0B2034A12780A3A8242B5DA5F
:1011B00070BD0000941B0020FC070020A822002026
:1011C00010B500F009F8012003F00EF900200149E4
:1011D000086010BDBC0243421CB50121422002F050
:1011E000F7FD4020009001208DF8040000208DF8CC
:1011F000060003208DF8050069460A4801F005FE47
:101200004FF40040009001208DF8040000208DF87C
:10121000060003208DF805006946024801F0F5FD3F
:101220001CBD00000004024010B502F093FF012035
:1012300008490860022004F097FF0748D0F81C0214
:10124000C4B2002003490860022004F08DFF20464C
:1012500010BD0000988240420080404270B50024DA
:1012600002F078FF012010490860002517E06006B1
:10127000040E01200C49091F0860022004F074FFCD
:101280000A48D0F81C0208B1601CC4B2002006490C
:10129000091F0860022004F067FF681CC5B2082D12
:1012A000E5DB204670BD00009C8240420080404249
:1012B00010B5044602F05EFF1CB101200A49086027
:1012C00002E000200849086001200749091F086062
:1012D000022004F049FF00200449C1F898020220CE
:1012E00004F042FF10BD00009C824042008040425A
:1012F00070B5044602F03EFF00251BE004F08006B6
:101300001EB101200E49086002E000200C4908606F
:101310006006040E01200A49091F0860022004F03B
:1013200023FF00200749C1F89802022004F01CFFA7
:10133000681CC5B2082DE1DBFFF776FF70BD000029
:101340009C8240420080404210B502F013FF012011
:10135000094908600949C1F89802042004F004FF13
:10136000002005490860042004F0FEFE0020034927
:10137000C1F8980210BD00009C82404200804042AB
:1013800010B502F0F7FE0020074908600120074968
:10139000C1F89802042004F0E7FE01200249086029
:1013A000042004F0E1FE10BD9C82404200804042D7
:1013B00010B503F015FC10BD10B504460B4884426F
:1013C00009D10121480602F023FD00214FF00070F1
:1013D00002F01EFD08E00121880602F019FD00213F
:1013E0004FF0806002F014FD10BD0000006400406A
:1013F00010B50021837A012202FA03F13D4A1268F6
:1014000042F001023B4B1A603A4A1C3212688A438E
:10141000384B1C331A60027BCAB9364A0C32126848
:101420008A43344B0C331A604288C38842EA034330
:10143000304A4032847A42F834300288838842EA63
:1014400003432C4A4032847A02EBC4025360027B8D
:10145000012A19D1274A0C3212680A43254B0C3352
:101460001A604288038842EA0343224A4032847A5F
:1014700042F83430C288838842EA03431D4A40322E
:10148000847A02EBC4025360C27A3AB9194A121D37
:1014900012688A43174B1B1D1A6006E0154A121D7D
:1014A00012680A43134B1B1D1A60028932B9114A94
:1014B000143212688A430F4B14331A600289012ACE
:1014C00006D10C4A143212680A430A4B14331A60CC
:1014D000427B012A06D1074A1C3212680A43054B97
:1014E0001C331A60034A126822F00102014B1A6091
:1014F00010BD0000006600401AB143690B43436110
:1015000002E043698B434361704730B502460020D7
:101510000023146824F002041460146844F00104E9
:10152000146000E05B1C546804F001041CB94FF621
:10153000FF74A342F6D1546804F001040CB90020F2
:101540006CE08C79012C04D1146844F080041460A0
:1015500003E0146824F080041460CC79012C04D1D9
:10156000146844F04004146003E0146824F040045C
:1015700014600C7A012C04D1146844F02004146027
:1015800003E0146824F0200414604C7A012C04D188
:10159000146844F01004146003E0146824F010048C
:1015A00014608C7A012C04D1146844F0080414608F
:1015B00003E0146824F008041460CC7A012C04D1F0
:1015C000146844F00404146003E0146824F0040474
:1015D00014608C78A407CD7844EA05640D7944EA58
:1015E00005444D7944EA05540D886D1E2C43D461A1
:1015F000146824F001041460002300E05B1C5468AC
:1016000004F001041CB14FF6FF74A342F6D15468F4
:1016100004F001040CB1002000E0012030BD0246BE
:10162000002019B9D36803F0030006E0012903D1B3
:10163000136903F0030000E00020704710B500F5C7
:10164000D87303EB01131B6803F004031372137ABE
:1016500053B900F5D87303EB01131B6840F2FF7414
:1016600004EA5353136009E000F5D87303EB011348
:101670001B686FF0604404EAD303536000F5D8732D
:1016800003EB01131B6803F00203537200F5D873D8
:1016900003EB01135B6803F00F03937200F5D8733B
:1016A00003EB01135B681B0AD37400F5D87303EBDB
:1016B00001139B68D37200F5D87303EB01139B6889
:1016C0001C0A147300F5D87303EB01139B681C0C00
:1016D000547300F5D87303EB01139B681B0E9373CF
:1016E00000F5D87303EB0113DB68D37300F5D873EF
:1016F00003EB0113DB681C0A147400F5D87303EBC9
:101700000113DB681C0C547400F5D87303EB011350
:10171000DB681B0E937421B9C36843F02003C360D8
:1017200003E0036943F02003036110BD10B50246D6
:101730000020936803F08063B3F1806F00D110E064
:10174000936803F00063B3F1006F01D1012008E05A
:10175000936803F08053B3F1805F01D1022000E071
:101760000420042874D002F5C07303EB00131B6837
:1017700003F0010402F5C07303EB00131C600B7A45
:101780007BB94B7A0C8843EA445302F5C07404EBEE
:1017900000142468234302F5C07404EB0014236092
:1017A00010E00B7A4C6843EAC4034C7A234302F5F9
:1017B000C07404EB00142468234302F5C07404EBE6
:1017C000001423608B7A03F00F038B7202F5C07351
:1017D00003EB00135B6823F00F0402F5C07303EB07
:1017E00000135C6002F5C07303EB00135B688C7A36
:1017F000234302F5C07404EB001463608B7B1C066A
:101800004B7B44EA03440B7B44EA0323CC7A234317
:1018100002F5C07404EB0014A3608B7C1C064B7CA7
:1018200044EA03440B7C44EA0323CC7B234302F5C4
:10183000C07404EB0014E36002F5C07303EB001303
:101840001B6843F0010402F5C07303EB00131C6036
:1018500010BD000010B50246002321B1012907D0B8
:1018600002290FD109E090681D4C00EA04030BE047
:1018700090681C4C00EA040306E090681A4C00EAE9
:10188000040301E0002300BF00BF184C181BA34253
:1018900016D007DC83B16FF08060184470B1022865
:1018A00018D111E0B0F5007F10D0114C204448B1A0
:1018B000B0F5003F0ED10BE002230DE000230BE05A
:1018C000002309E0002307E0012305E0012303E0F2
:1018D000012301E0002300BF00BFD8B210BD00000B
:1018E00003000004000300080000031000010008CA
:1018F0000001FFF72DE9F04107468846154604210F
:10190000052001F007F90021012003F02FFD8021BF
:101910000A2002F0E3FC002405E0395D092003F011
:1019200025FD601CC4B24445F7DB0321012003F010
:101930001DFDFF2400BF052002F074FB0646601E5B
:10194000C4B21CB106F004000028F4D0222002F03A
:1019500069FB2870212002F065FB68700020BDE85B
:10196000F08100002DE9FF4705460E464FF0000AC2
:1019700006B10DB94FF0010A9448007800F00F004D
:10198000032801DD4FF0010A90480078C0F30019E8
:10199000BAF1000F19D000208DF80A008DF80B0065
:1019A00001208DF80C000020ADF80000ADF8020019
:1019B000ADF80400ADF80600ADF8080001208DF880
:1019C0000D006846FFF714FDFEE00020ADF80800AA
:1019D00001208DF80D004FF000080024F2E07B4854
:1019E000007800F00F0030B101283BD002287BD0F6
:1019F000032874D19CE000208DF80B008DF80C00BA
:101A000035F824004B460022114600F0E1F8ADF80D
:101A1000020005EB840148884B460022114600F085
:101A2000D7F8ADF80600601CC0B20446B04213DA25
:101A300035F824004B460022114600F0C9F8ADF8F5
:101A4000000005EB840148884B460022114600F057
:101A5000BFF8ADF8040004E00020ADF80600ADF8D2
:101A600004009CE001208DF80B0000208DF80C0094
:101A700035F824004B460022114600F0A9F8ADF8D5
:101A80000200601CC0B20446B04207DA35F82400F8
:101A90004B460022114600F09BF800E00020ADF814
:101AA0000600601CC0B20446B04207DA35F82400D4
:101AB0004B460022114600F08BF800E00020ADF804
:101AC0000000601CC0B20446B04209DA35F82400B8
:101AD0004B460022114600F07BF802E004E051E0A2
:101AE0000020ADF804005AE000208DF80B00012022
:101AF0008DF80C0035F824004B460022114600F00A
:101B000081F80746B8B2ADF80200380CADF8000015
:101B100005EB840148884B460022114600F072F81C
:101B20000746B8B2ADF80600380CADF8040036E050
:101B300001208DF80B008DF80C0035F824004B4681
:101B40000022114600F05EF80746B8B2ADF8020078
:101B5000380CADF80000601CC0B20446B04208DA90
:101B600005EB840148884B460022114600F04AF8F4
:101B700000E000200746B8B2ADF80600380CADF81A
:101B800004000CE00020ADF80200ADF80000ADF854
:101B90000600ADF8040034464FF0010A00BF00BF54
:101BA0008DF80A806846FFF723FCB44202DA601C15
:101BB000C4B200E007E008F10100C0B280460D2881
:101BC00000DB00E00BE700BFBDE8FF873B1A002009
:101BD00010B50446C4F309040AB1102000E0002047
:101BE00002460BB1082000E00020034613B1C1F308
:101BF000C13000E00020014642EA44101843084387
:101C000080B210BD10B50446C4F309040AB1022025
:101C100000E0002002460BB1042000E00020034653
:101C200013B18803C00A00E00020014642EA4430B4
:101C30001843084310BD000010B500210148FFF70C
:101C4000EEFC10BD0064004070B50446002554B1A0
:101C500000210648FFF7E3FC054625B12246002196
:101C60000248FFF7EBFC284670BD0000006400400E
:101C70002DE9F04706460C4617469846DDF82090B9
:101C80004FF0000A15480760C0F80480002013498F
:101C90000872487208468472224631460B30FEF7BD
:101CA0009EFA0E490E48FFF741FD0546042D09D066
:101CB0004FF0010A29460A48FFF7CCFD012801D15F
:101CC0004FF0020ABAF1010F04DBB9F1000F01D0A5
:101CD00089F800505046BDE8F08700004C200020F5
:101CE000006400400448006800F0E05008B10120A2
:101CF00070470020FCE700000864004010B501E0D8
:101D000000F006F8FFF798FF0028F9D110BD000099
:101D100010B52448FFF798FF2248C07C20B1012865
:101D20000AD0022818D10FE01E48827A00F10B0178
:101D30001D4800F0DEFF24E01A48827A00F10B0112
:101D40001A4800F0D6FF1CE01648827A00F10B0119
:101D5000174800F0CEFF14E01248C07C03280FDBC8
:101D60001048C07C06280BDC0E48C07CC01E114900
:101D700001EBC0000B490B310A6802604968416001
:101D800000BF00BF0748C07C062809DC0548C07CAE
:101D9000094951F8200009490968084307490860C2
:101DA00010BD0000C02100207420002084200020ED
:101DB000A4200020D4210020FC9A0008401A002012
:101DC00000B5034A5178107801F046FA00BD0000D2
:101DD000D4210020F8B5FFF785FF00285FD000264A
:101DE000002559E02E4890F9000030B101280ED0AE
:101DF00002281ED0032840D12DE000F05DF80746F0
:101E0000002F03DB0126F8B200F07AF839E008224F
:101E10002449254800F058FFC4B24CB1012623489C
:101E200000234FF42072214600901E48FFF720FF48
:101E300027E008221B491E4800F046FFC4B24CB1FF
:101E400001261A4800234FF42872214600901548B5
:101E5000FFF70EFF15E008221249164800F034FF84
:101E6000C4B24CB10126114800234FF470722146D0
:101E700000900C48FFF7FCFE03E0FF2008490870C3
:101E800000BF00BF06480078401C40B204490870FB
:101E900006B103E0681CC5B2042DA3DD00BFF8BD88
:101EA000741A0020441A002094200020751A002083
:101EB000B4200020742000204FF0FF30002109E002
:101EC00001EB8102054B13F822200AB148B203E06E
:101ED0004A1CD1B20729F3DB00BF7047F421002070
:101EE000002007E0002100EB8002044B03F82210E1
:101EF000411CC8B20728F5DB70470000F421002020
:101F0000F8B50446002004EB84050E4E06EB85056B
:101F100000902B6904EB840506EB8505EA6804EB69
:101F2000840516F8251004EB840506EB8505681C6E
:101F3000FFF79EFE002004EB8401324602F82100E8
:101F4000F8BD0000F42100202DE9F04104460F46C1
:101F500015461E46DDF81880072C1ADA04EB8400BB
:101F60000D4901F8205004EB84010B4A02EB81017A
:101F7000481C2A463946FEF732F904EB840006492C
:101F800001EB8000C66004EB840001EB8000C0F828
:101F90001080BDE8F0810000F421002010B50D4A4A
:101FA00032210D4800F02AF80C4A32210C4800F08A
:101FB00025F80C4A32210C4800F020F80B4A322157
:101FC0000B4800F01BF80B4A32210B4800F016F8C2
:101FD00010BD0000C420002074200020F620002046
:101FE0008420002028210020942000205A21002055
:101FF000A42000208C210020B420002070B50446CD
:102000000E4615462660E5600021204600F0ABFE36
:1020100070BD000038B5FFF771FE68E0FFF76EFE97
:10202000002462E0344850F824003449096808402C
:10203000002858D0072C4DD2DFE804F0040C1824F7
:102040002739460000BF69462D4800F09EFE002853
:10205000F9D13FE003E09DF8000000F08DFA6946F9
:10206000284800F092FE0028F5D133E003E09DF807
:10207000000000F075FC6946234800F086FE002849
:10208000F5D127E0FFF79CFE24E0204802F05AFD3E
:102090001F49088005E01E480088A0F561601C49C2
:1020A00008801B480088B0F5616FF4DA12E0174829
:1020B0000838007C022806D11448093002F03AFDA5
:1020C00000B21449088005E010480838007E012855
:1020D00000D100BF00BF104850F82400074909682C
:1020E000084006490860601CC4B2062C9ADD03480B
:1020F0000068002892D138BDFC9A0008401A0020E0
:102100007420002084200020A4200020DC21002056
:10211000501A00204E1A00207C9B000810B50020A9
:10212000064908600649087007210648FFF71AFCAF
:10213000FFF734FFFFF7D4FE10BD0000401A002067
:102140003B1A0020521A002030B599B0EE480078B2
:1021500000286DD0ED48006804F044F8002867D1ED
:1021600000240EE0EA48025DEAA1684603F042FB63
:102170006846FEF762F8C5B22946684602F044F8A0
:10218000641CE64800788442ECDBE148007855287E
:102190002AD1DF484078EE2826D1DD4880780A2809
:1021A00022D1DB48DD490978405CBB281CD1DB48E3
:1021B0000078032832DBD648C478A51DD7480078BC
:1021C000401CA8420FDB00F067FC18B10120D44985
:1021D000087005E0D3A003F0FDFA0020D049087094
:1021E0000020C949087019E0C948007855280DD168
:1021F000C7484078EE2809D1C548807ABB2805D168
:1022000001F05EF90020C049087007E0FEF77AFF90
:10221000C348007810B90020BB490870C048007856
:1022200030B9BB4880780A2802D00020B64908702F
:10223000BB480078002878D0B5484078EE2875D1A2
:10224000B3488078072872D007DC072870D2DFE80F
:1022500000F06F19303152729500102869D006DCF9
:10226000082867D0092873D00A2861D107E011280F
:102270006FD0A028F9D10120B54908703BE101F0E9
:1022800059FC38E1A248C078012802D1B049487011
:102290000EE09F48C078022803D10120AC49887025
:1022A00006E09B48C078032802D10120A849C870E5
:1022B00021E120E19648C07818B10120A449C873F3
:1022C00002E00020A249C8730120A149487190484A
:1022D000C078A04908708E48007948708C484079D1
:1022E00088708B488079C8708948C079087188489F
:1022F000007A4871FFE00120954988718448C078D0
:102300009549087082480079487081484079887002
:102310007F488079C8707E48C07908717C48007A0F
:1023200048717B48407A8871E5E0EBE0E7E03FE008
:10233000E0E092E056E001208549C8717448C07819
:10234000012807D1854908788A680221904714E05E
:1023500069E09CE06E48C078022805D17F49487842
:102360008A680221904708E06948C078032804D1B0
:102370007A4988788A6802219047BCE00120744934
:1023800008726348C07876490870614800794870DF
:102390005F48407988705E488079C8705C48C07931
:1023A00008715B48007A48715948407A8871A2E008
:1023B0000120674948725648C0786A4908705448F5
:1023C0000079487052484079887051488079C870C7
:1023D0004F48C07908714E48007A48714C48407A9D
:1023E000887188E001205A4988724948C0780128DC
:1023F0000AD1474800795C490870454840794870DF
:102400004348807988700DE04148C078022809D19E
:102410003F48C0795449C8703D48007A08713C482B
:10242000407A487167E001204949C8723848C0784D
:102430004E490870364800794870354840798870B0
:1024400033488079C8703248C07908713048007AC2
:1024500048712F48407A88714DE001203C4908734B
:102460002B48C078424908702948007948702848AC
:102470004079887026488079C8702548C0790871ED
:102480002348007A48712248407A887133E0204816
:10249000C07801280BD01E48C078022807D01C48FD
:1024A000C078032803D01A48C07804281ED1012020
:1024B000274988731648C078012802D12D49087031
:1024C00017E01348C078022802D12A49087010E0AA
:1024D0000F48C078032802D12649087009E00C484B
:1024E000C078042805D12349087002E0002018496B
:1024F000887300E000BF00BF00200349087000207F
:102500000749087019B030BD951B00209C1B0020A6
:10251000A82200202530327820000000941B0020E3
:10252000FC0700204572726F723A20436865636B46
:102530005F5661726961626C654C656E5F50616384
:102540006B6574206661696C65640D0A00000000AB
:102550004C0600206006002066060020981000202F
:102560006D060020740600207B06002082060020F5
:1025700089060020FE07002010B504460F480078A9
:1025800070B903F029FE0A300D49086000200D499A
:1025900008700D48097844540120084908700BE080
:1025A00008480078C82807DA06480078401CC0B2FE
:1025B0000449087004490C5410BD0000951B00200C
:1025C0009C1B0020941B0020A822002010B5DB4893
:1025D000007800287AD0DA48006803F003FE00286B
:1025E00074D1D848407803280AD1D6488078012889
:1025F00006D1D4480079052802D10120D249487279
:10260000D0484078D1490978884205D0CD484078F3
:10261000CE494978884211D1CA488078032819D117
:10262000C848C078012815D1C6484078C7490978FC
:10263000884204D1C3480079C34908727AE0C1488E
:102640004078C2494978884274D1BE480079BE4971
:10265000C8716FE0BB48807803286BD1B948C07857
:10266000022867D1B7484078B849097888422ED106
:10267000B4480079012806D1B2484079012802D136
:10268000B149887156E0AF480079022806D1AD48BB
:102690004079022802D1AC4988714BE0A948007901
:1026A000012807D1A7484079022803D10320A64971
:1026B00088713FE0A348007902283BD1A1484079C6
:1026C000012837D10420A049887133E035E19D48C5
:1026D00040789E49497888422CD19A48007901284F
:1026E00006D198484079012802D19749487121E0E4
:1026F00094480079022806D192484079022802D1F4
:102700009149487116E08F480079012807D18D481A
:102710004079022803D103208B4948710AE0894897
:102720000079022806D187484079012802D1042087
:102730008549487183484078102825D181488078A0
:10274000102801D1012000E000207E49C97801292C
:1027500000D100E00021884216D17A480079312862
:1027600003D10120784908710EE0764800793228BB
:1027700003D102207449087106E0724800793328B9
:1027800002D10320704908716E4840780C2814D19A
:102790006C488078012810D16A48C07801280CD193
:1027A00068480079062808D16648407928B9684801
:1027B0000079012801D164498870624840780E2868
:1027C00003D0604840780F283CD15E4840780E28FE
:1027D0001AD15C488078012834D15A48C078012841
:1027E00030D15848407928BB56480079072803D192
:1027F00001205549087025E052480079082821D168
:102800000020514908701DE04E4840780F2819D12A
:102810004C488078012815D14A48C078012811D148
:102820004848407930B947480079072803D101204A
:102830004549487006E043480079082802D1002045
:10284000414948703F484078062835D13D48807856
:1028500002280FD13B48C0783E4948713948017978
:102860003C488171374841793A48C1710120364965
:10287000C87021E03348807803280FD13148C078F0
:10288000344988702F4801793248C1702D48417908
:102890003048017102202C49C8700DE02948807829
:1028A000042809D12748C0782A49087025480079AA
:1028B000487003202449C87022484078012839D143
:1028C00020488078A02803D101202349887031E076
:1028D0001C488078AA2803D101201F49C87029E02C
:1028E00018488078A22803D101201B49087021E0F4
:1028F00014488078A32816D101201749087111487F
:10290000C078164908700F48C07848700D48C078E4
:1029100088700C48C078C8700A48C07808710948A7
:10292000C078487106E007488078A42802D10120C9
:102930000949487100200149087010BD971B00200B
:10294000A01B002070230020A21E002010130020D6
:10295000B00B00209C150020D0040020F8040020BB
:1029600010B504460F48007870B903F035FC0A3002
:102970000D49086000200D4908700D48097844543D
:102980000120084908700BE008480078C82807DAD9
:1029900006480078401CC0B20449087004490C5431
:1029A00010BD0000971B0020A01B0020961B0020DC
:1029B000702300207FB505460C460121202001F040
:1029C00017FA0295ADF804400020ADF80600ADF806
:1029D0000C008DF80E0001A90D4801F089FE37208A
:1029E0008DF8000000208DF8010001208DF8020014
:1029F0008DF80300684600F01DFD012211460448D1
:102A000001F066FE0121024801F045FE7FBD000095
:102A10000014004010B5FFF7FDFAFFF7DBF910BD19
:102A20001CB501214FF4C07001F0D2F9F0200090E4
:102A300000208DF8040001208DF807006946144835
:102A400000F0E3F94FF47040009001208DF804008D
:102A500000208DF8060001208DF8070003208DF876
:102A6000050069460B4800F0D0F9202000900120B5
:102A70008DF8040000208DF8060001208DF8070075
:102A800003208DF805006946024800F0BEF91CBD20
:102A900000200240001C024070B500231B48007853
:102AA000042801DA002070BD1948C17809B9002056
:102AB000F9E7C22901DD0020F5E78C1D13480078F5
:102AC000401CA04201DA0020EDE7481D104D285CB3
:102AD000BB2801D00020E6E70D488078CDB243192D
:102AE000002206E0101D0A4D285C184483B2501CD9
:102AF000C2B28A42F6DBDDB2081D054E305C85426B
:102B000001D00020CFE70120CDE70000941B00207A
:102B1000A822002070B505460C460026284601F084
:102B200081FA064626EA0401284602F01FFC00202E
:102B300070BD70B505460C46002D06DB642D00DD2A
:102B40006425052D0BDA052509E015F1640F01DA7E
:102B50006FF0630515F1050F01DD6FF00405002C22
:102B600006DB642C00DD6424052C0BDA052409E067
:102B700014F1640F01DA6FF0630414F1050F01DD45
:102B80006FF004042146284601F04CFB70BD0000A4
:102B900010B5102000F03CF8012825D11021134871
:102BA00000F09EF9E8B90021114801F074FD1148C8
:102BB00090ED000AB8EE400A0F4880ED000AD0ED13
:102BC000000A9FED0E1AB3EE040A10EE810A80EDA2
:102BD000000A90ED000ABCEEC00A10EE100A084987
:102BE0000880102000F00EF810BD00000004024024
:102BF000001000401417002010170020F628DC3FBA
:102C0000181700200149086070470000143C01407B
:102C100001460020034A12680A400AB1012000E080
:102C200000207047143C0140002123498279002A8A
:102C30003AD00A46126803689A430B461A600A1D86
:102C4000126803689A430B1D1A60027911440A68DE
:102C500003681A430A60184A0832126803689A43E4
:102C6000154B08331A601A1D126803689A43124BF9
:102C70000C331A604279102A0ED11A1F12680368A9
:102C80001A430D4B08331A601A1D126803681A4361
:102C9000094B0C331A600DE00749427911440A6868
:102CA00003681A430A6005E0027911440A68036860
:102CB0009A430A6070470000003C014010B500F0E4
:102CC0002FFCFEF73FF910BDF0B507460C4616463F
:102CD000002564B106E06119384600F056F800B9E5
:102CE00004E06D1C301EA6F10106F4D100BF284699
:102CF000F0BDF0B507460D461646002406E0295DF6
:102D0000384600F06CF800B904E0641C301EA6F1EF
:102D10000106F4D100BF2046F0BD30B504460025C1
:102D2000204600F04AF870B1D4E90001401E81420B
:102D300003D1A06838B1012505E0D4E90101401CA8
:102D4000814200D00125284630BD30B5044600251B
:102D5000204600F032F820B1D4E90110884200D0BA
:102D60000125284630BD70B504460D4664B1206883
:102D7000012809D90020A0602068401E60602A4612
:102D80002168E068FDF73DFA70BD70B504460D4658
:102D9000002685B12046FFF7C0FF60B16068401C87
:102DA00060602168884201D3002060606168E0684B
:102DB000405C28700126304670BD0146002069B194
:102DC0000A68012A0AD9CA6842B10B688A689A421D
:102DD00004D2D1E900329A4200D20120704770B586
:102DE00004460D4600262046FFF7AFFF58B1A16804
:102DF000481CA060E06845542168A068884201D35F
:102E00000020A0600126304670BDF0B50A460021C2
:102E10000023002400BF3DE0012505FA01F31568F9
:102E200005EA03049C4234D105684F000326BE40E6
:102E3000B543056015794E00B54006683543056019
:102E40001579012D02D01579022D16D185684F0014
:102E50000326BE40B543856055794E00B54086686F
:102E600035438560456801268E40B5434560456819
:102E700096798E40B6B235434560C5684F0003264B
:102E8000BE40B543C560D5794E00B540C6683543F0
:102E9000C560491C1029BFD3F0BDF0B50023002444
:102EA0004D07ED0E02FA05F3CE1000F1200555F89E
:102EB00026504E07F70E0F26BE40B543CF1000F147
:102EC000200646F82750CE1000F1200555F8265070
:102ED00045EA0304CE1000F1200545F82640F0BD78
:102EE0000246002013690B400BB1012000E00020D6
:102EF0007047418370470183704742694A4042618D
:102F00007047000010B502210848FDF7F5FF07489B
:102F1000FEF7F2F800BF02210448FEF75DF8002832
:102F2000F9D00248FEF754F810BD0000002001401F
:102F300070B52DED068B012001F056FA102001F03E
:102F400053FA00F059FA0F480478407800EB042453
:102F50002046FDF7B2FB41EC1A0B9FED0B0B53EC37
:102F6000102BFDF73BFB41EC190BFDF7CAFB08EEFC
:102F7000100ABDEEC80A10EE105AA8B2BDEC068BBE
:102F800070BD00001E170020333333333333F33F5B
:102F900070B504460025002607E0FFF7B3FF05449F
:102FA000052003F0B7F8701CC6B2A642F5DBB5FBEE
:102FB000F4F080B270BD00000146002021B1072965
:102FC0000AD008290ED10AE0074A5278064B1B782E
:102FD00002EB032290B205E0034A507802E0024A75
:102FE000107800BF00BF70474C1A002010B515487C
:102FF0000078012810D101F089F813490988884226
:103000001EDB00200F4908700320104908700021C2
:10301000084601F007F913E00D48007801280FD1A8
:1030200001F074F808490988884209DB0020084942
:1030300008700320054908700021084601F0F2F8E5
:1030400010BD00000F1A0020241A0020121A0020C0
:10305000101A002000B589B00121212000F0B8FE2F
:1030600009220B214248FFF718FF09220C21404892
:10307000FFF713FF4FF4C050079002208DF8200097
:103080008DF8210000208DF8220001208DF823000A
:1030900007A93748FFF7B9FE4FF480600790012079
:1030A0008DF8200002208DF8210000208DF82200EC
:1030B00001208DF8230007A92E48FFF7A6FE002067
:1030C00000F05EF80121480600F092FE2A48FEF763
:1030D00073F900208DF8160001208DF817000020EC
:1030E0008DF8180001208DF8190000208DF81A00C5
:1030F00001208DF81B0000208DF812008DF81300C0
:1031000001208DF8140002208DF815000720ADF87D
:10311000100004A91848FEF7F8F900208DF80A00FD
:103120008DF80B0001208DF80C000020ADF8000098
:10313000ADF80200ADF80400ADF80600ADF80800E7
:1031400001208DF80D006846FEF752F912200B4958
:1031500008604860002048720872012088720022CE
:1031600002210548FEF7C8F9FEF7D8FF09B000BDF7
:103170000000024000140240006400408022002051
:1031800010B504462CB94FF480610548FFF7B1FE35
:1031900004E04FF480610248FFF7ADFE10BD00006F
:1031A0000014024010B5FFF735FC10BD10B5044601
:1031B0002CB14FF480710548FFF79DFE04E04FF4F9
:1031C00080710248FFF795FE10BD0000002002400C
:1031D0001CB50020009001904FF4A06000F066F94B
:1031E000A82002F079FF01F0DFFA00F03BF8FFF7CA
:1031F00017FC02F026F8FFF72DFFFDF7E1FFFEF7C1
:10320000D7F8FFF75BFD01F0ABFE53210720FFF776
:10321000D1FBA72140F2E73003F0C4F8A72140F228
:10322000E73001F0F9FA00F012FF0A498868804798
:103230000849C868804702F043F80821684600F052
:1032400031F80821684601F023F80821684601F0AA
:1032500013F81CBD74030020014A107051707047B0
:103260004C1A00201CB50121202000F0B1FD4FF4C4
:103270000060009001208DF8040000208DF8060009
:1032800001208DF8070003208DF8050069460348EA
:10329000FFF7BBFD0120024908601CBD001402407D
:1032A000AC8242422DE9F041074688460020284979
:1032B0000860092002F02EFF01202649C1F8AC0267
:1032C000042002F027FF4FF40C7002F04DFF0024A1
:1032D0002EE0002528E0385D284100F0010676B98F
:1032E00000201B4908604FF4FA7002F03DFF0120F6
:1032F0001849C1F8AC024FF4FA7002F035FF012E04
:1033000010D10020124908604FF4FA7002F02CFF2F
:1033100001201049C1F8AC0202F0FCFE4FF44870E5
:1033200002F022FF681CC5B2082DD4DB601CC4B2B9
:103330004445CEDB0020064908604FF40C7002F0D3
:1033400013FF01200349C1F8AC02BDE8F081000081
:10335000AC8242420080424210B500F08EFA08B1C1
:10336000FE2010BD00F01AF9022002F0D3FE00F09A
:103370001BF9412000F00AF808B1FE20F1E7012016
:10338000014908700020ECE77418002010B50446CD
:10339000412C25D108210846FFF7BCFB3D21112017
:1033A00001F0E4FF8621172001F0E0FF7F212620B5
:1033B00001F0DCFF1E212D2001F0D8FF00212C2080
:1033C00001F0D4FF8D212A2001F0D0FF3E212B20D7
:1033D00001F0CCFF0A2002F09DFE00F0E5F801E0CC
:1033E000FF2010BD0020FCE702468A4201D9501A96
:1033F0007047881AFCE7000010B5FDF7A5FF4720CD
:10340000FDF776FF00240EE0FDF728FF0849085578
:10341000032C03D10120FDF74BFF02E00020FDF754
:1034200047FF601CC4B2032CEEDBFDF7A9FF10BD03
:103430001E17002070B5002100230F22C4781CB392
:10344000174C246804F4E064C4F5E064C4F3072175
:10345000C1F10404E3B20A4144789C40E1B28478AB
:10346000144021430C07210E0E4C05786155047859
:1034700004F01F050124AC4005786D11AD0005F185
:10348000E025C5F8004109E0047804F01F05012497
:10349000AC40054D0678761145F8264070BD000019
:1034A0000CED00E000E400E080E100E002490143AF
:1034B000024A1160704700000000FA050CED00E0C0
:1034C00014498978134AD2781144124A1279114466
:1034D000104A527911440F4A927911440D4AD27917
:1034E00011440C4A127A8818C11700EB11610912B5
:1034F000A0EB0121084A11800648407A114609884C
:10350000884203D101200549087002E000200349E8
:1035100008707047A822002000080020FC07002047
:1035200010B52DED048BB0EE080A164880ED000AA8
:1035300090ED000ADFED140A20EE200A80ED000A6B
:103540009FED120A124880ED000A90ED000ADFEDAF
:103550000E0A20EE200A10EE101A0846FDF7BEF8FB
:1035600041EC190B9FED0B0B53EC102BFDF736F8CC
:1035700041EC180BFDF7C5F805490860BDEC048B5C
:1035800010BD00002C1700200000C84200CC0D41E7
:1035900028170020000000000070A74010B503218C
:1035A0001420FFF7B7FA10BD10B5142000F03AFD53
:1035B000044604F0030018B90321142000F08EFE25
:1035C00010BDF0B587B00546002708210846FFF773
:1035D000A1FA00210D2001F0C9FE80210E20FFF785
:1035E00099FA93208DF8040020208DF8050006A894
:1035F00001AB022201A900900C2000F051F8064610
:1036000086B9002407E001A8005D285501A8005DE7
:103610004740601CC4B2042CF5DB01A8005DB84231
:1036200000D0FE2680210E2000F058FE304607B064
:10363000F0BD2DE9F04387B006460F469046994607
:103640008DF804608DF80570002406E018F8041069
:1036500001AAA01C1154601CC4B2062CF6DB002485
:1036600007E019F8041001AA04F108001154601CC5
:10367000C4B2062CF5DB06A801AB0C2201A9009010
:103680000E2000F00DF805462DB9082000F0CAFC08
:1036900000F0080000B9FE25284607B0BDE8F08319
:1036A0002DE9FE4F0646884691469A46DDF830B031
:1036B000FE2002900020019000900C2E06D00E2ECD
:1036C00009D1122001901020009005E07720019090
:1036D0003020009000E000BF00BF019840F0800162
:1036E000022001F043FE80210420FFF713FA00219D
:1036F000012001F03BFE80210A2000F0EFFD0025B3
:1037000005E018F80510092001F030FE6D1C4D454C
:10371000F7D33146012001F029FE0C2E03D1802180
:103720000D2000F0DBFD4FF4167500BF042000F003
:1037300079FC04466D1E35B104F0010018B90098FB
:1037400020400028F2D080210D20FFF7E3F995B347
:10375000062000F067FC00F01B0068BB0020029010
:103760000198204000F0010008B1FF2002900C2ECB
:1037700024D10A2000F056FC04460C2000F052FC34
:1037800000F007072FB1601E07EBC000CBF8000068
:1037900002E0E000CBF8000004B90124122C00DDA7
:1037A0001224002505E0092000F03CFC0AF8050081
:1037B0006D1CA542F7D301E0FE20029080210C2071
:1037C00000F08CFD0021012001F0D0FD0298BDE841
:1037D000FE8FF0B587B005460E4630208DF8040008
:1037E0008DF805500DF10602022101A8FEF782F8BE
:1037F00006A801AB042201A900900C20FFF750FF9E
:10380000074667B90698902809D1002404E001A86A
:10381000005D3055601CC4B2102CF8DB00E0FE27C0
:10382000384607B0F0BD70B588B005460C46082193
:103830000846FFF76FF907210D2001F097FD0321DE
:10384000142000F04BFD8DF8085007A802AB0122B0
:1038500002A900900C20FFF723FF06464EB90798F7
:10386000102806D19DF8080020709DF809006070AE
:1038700000E0FE26304608B070BD10B500F0B3FB86
:1038800008B1FE2010BD0F21012001F06FFD3D2188
:10389000112001F06BFD1E212D2001F067FD00219C
:1038A0002C2001F063FD8D212A2001F05FFD3E21D7
:1038B0002B2001F05BFD4021152001F057FD002079
:1038C000E0E770B588B0054693208DF808007020B9
:1038D0008DF8090000208DF80E0000240BE0295D12
:1038E00002AAA01C11549DF80E00295D48408DF8D5
:1038F0000E00601CC4B2042CF1DB0DF10F02072195
:1039000002A8FDF7F7FF08210846FFF703F907A80B
:1039100002AB092202A900900C20FFF7C1FE064667
:1039200026B90798182801D1002600E0FE26304667
:1039300008B070BDF0B587B006460F46A0208DF8E0
:1039400004008DF805600DF10602022101A8FDF7C3
:10395000D1FF06A801AB042201A900900C20FFF7BB
:103960009FFE054645B90698042805D19DF8040038
:1039700000F00F000A2800D0FE250DBB002404E053
:10398000385D01A90855601CC4B2102CF8DB05AAEB
:10399000102101A8FDF7AEFF06A801AB122201A974
:1039A00000900C20FFF77CFE054645B906980428D8
:1039B00005D19DF8040000F00F000A2800D0FE2574
:1039C000284607B0F0BD000010B50320FFF7E0FA6D
:1039D000514908800846008800F014FD4E490880CF
:1039E0004E4801884C480088FFF7FEFC4C4908709F
:1039F0004A480088F0BB4B48D0ED000A4648008892
:103A000000EE100AB8EE400A20EE800ABCEEC00AB2
:103A100010EE100A404908800846008800EE100A9F
:103A2000B8EE400A4048D0ED000AB4EEE00AF1EEEC
:103A300010FA03D200203D49087016E0364800888D
:103A400000EE100AB8EE400A3748D0ED000A30EE1A
:103A5000600ABCEEC00A10EE100A3449087008462D
:103A60000078642801DD642008703048007830490F
:103A7000087000E004E008460178012000F0AEFB89
:103A80002548008825490880254800780A2842DD15
:103A90002448D0ED000A2048008800EE100AB8EE55
:103AA000400A20EE800ABCEEC00A10EE100A1A4945
:103AB00008800846008800EE100AB8EE400A1A484E
:103AC000D0ED000AB4EEE00AF1EE10FA03D20020C5
:103AD0001649087016E01048008800EE100AB8EE8B
:103AE000400A1148D0ED000A30EE600ABCEEC00A70
:103AF00010EE100A0D49087008460078642801DDB0
:103B0000642008700948007809490870084601785F
:103B1000012000F063FB10BD321700203417002095
:103B200036170020281700202C17002030170020FF
:103B30002417002070B51F480178491C1EA001F011
:103B400049FE214D681FC078401EC6B2002410E017
:103B5000295D1EA001F03EFE285D1D49097801EB9C
:103B6000C10202EB01111B4A02EBC1010855601CA6
:103B7000C4B2B442ECDB00201549097801EBC10264
:103B800002EB0111134A02EBC101085512A001F02A
:103B900021FE0F480078401C0D4908700846007847
:103BA000032805DB0DA001F015FE01200D49087169
:103BB00070BD0000941B0020416E64726F69642028
:103BC00052783A5B25645D00AD2200202563000039
:103BD000FD070020B41B00200D0A00006262622075
:103BE000200000004C0600202DE9F04104460D465F
:103BF0002046E11704EB91718910032202EB810149
:103C0000CEB200203C4908603C49C1F8B4023A49B0
:103C100008310860091D08600120374908603848EC
:103C2000FFF7CFFC002865D101203349091D08604A
:103C30003348FFF746FE00285CD101202E490831A9
:103C400008602F4B2F4A31466020FFF7F2FC002816
:103C500050D1012028490C310860B44204D100251C
:103C60000D2129A000F0D0FA022D01D0032D1CD186
:103C700029492046FFF75EFE18B9112127A000F060
:103C8000C3FA00270FE001201B491C39086064209B
:103C900002F040FA00201949C1F89402642002F0B1
:103CA00039FA781CC7B2092FEDDB012D01D0032DA5
:103CB0001CD11F492046FFF78CFDB8B91D490A20C9
:103CC000FFF787FD00270FE001200B491C39086032
:103CD000642002F01FFA00200849C1F89402642011
:103CE00002F018FA781CC7B2092FEDDB022112A0EE
:103CF00000F08AFABDE8F081B0824342008043427E
:103D0000771800209918002041444452204552520F
:103D10004F52210A000000008918002057524954D0
:103D2000455F52464944202D204F4B0A00000000B9
:103D3000BC1F0020CC1F00200A00000010B586B078
:103D400004460121084600F043F80121102000F04C
:103D50006FF8072209211B48FFF79FF807220A2165
:103D60001848FFF79AF84FF4C060049002208DF8CD
:103D7000140000208DF8160001208DF81700032094
:103D80008DF8150004A90F48FFF73FF800940020B4
:103D9000ADF80C000C20ADF80A000020ADF80800CA
:103DA000ADF80600ADF804006946074801F064F874
:103DB0000121054800F0F7FF00200449087006B013
:103DC00010BD0000000002400010014074180020E7
:103DD00029B1064A12680243044B1A6004E0034A00
:103DE00012688243014B1A6070470000303802406D
:103DF00029B1064A12680243044B1A6004E0034AE0
:103E000012688243014B1A6070470000403802403C
:103E100029B1064A12680243044B1A6004E0034ABF
:103E200012688243014B1A6070470000203802403C
:103E300029B1064A12680243044B1A6004E0034A9F
:103E400012688243014B1A607047000044380240F8
:103E500029B1064A12680243044B1A6004E0034A7F
:103E600012688243014B1A607047000024380240F8
:103E7000F0B5002100220024022500260223324F43
:103E80003F6807F00C0121B1042905D0082937D17A
:103E900005E02E4F076036E02D4F076033E02A4FD4
:103EA0003F1F3F68C7F38056274F3F1F3F6807F00B
:103EB0003F036EB1264FB7FBF3F7DFF88CC0ACF1D0
:103EC000040CDCF800C0CCF3881C07FB0CF40CE0FD
:103ED0001E4FB7FBF3F7DFF870C0ACF1040CDCF851
:103EE00000C0CCF3881C07FB0CF4174F3F1F3F6842
:103EF000C7F301477F1C7D00B4FBF5F7076002E0C4
:103F0000124F076000BF00BF0F4F3F6807F0F0017E
:103F10000909104F7A5C0768D74047600A4F3F682D
:103F200007F4E051890A0B4F7A5C4768D7408760F5
:103F3000054F3F6807F46041490B064F7A5C4768BC
:103F4000D740C760F0BD0000083802400024F400EC
:103F500040787D01E018002010B5044600200B4990
:103F600008700B4908700B4908700B4908700B4921
:103F700008700B49087001200A4908700A4804605B
:103F800001680068FEF7D5FD10BD0000121A002080
:103F90000F1A00200C1A00200D1A00200E1A002003
:103FA000101A0020111A0020201A0020064800785C
:103FB000012805D105480088401C0449088002E01A
:103FC00000200249088070473A1A0020381A002061
:103FD00001480078704700007418002010B51420C4
:103FE00000F020F810BD38B5FE2500200090002418
:103FF00000BF12E0552000F057F942F210716846F8
:1040000000F032F838B9552000F04EF9642002F083
:1040100081F8002503E0601C84B2642CEADB00BF59
:1040200068B238BD38B5044604F03F0040F0800463
:10403000204600F039F942F21071684600F014F899
:1040400005460DB1FF2038BD9DF80000FBE710B517
:104050004FF41650FFF772FE4FF4FA7002F05AF860
:10406000FFF77AF910BD000070B504460D4602F066
:10407000B3F84FF4FA61B5FBF1F146180AE00A48CB
:10408000008800F0200028B1074800F05FFF207092
:10409000002070BD304602F0A5F80028EFD103499A
:1040A00008700120F5E7000000100140741800209E
:1040B00010B5FEF79BFF02F0C3F902F0A3F900F080
:1040C000DBFB10BD10B500200949087009490870D4
:1040D00009490870094908700949087009490870B8
:1040E000094908700021084600F09CF810BD000046
:1040F0000C1A00200D1A00200F1A0020101A0020A0
:10410000111A0020121A0020230E00200F48B0F9C7
:1041100000000F4AB2F90020904207DD0B48B0F9C9
:1041200000000B4AB2F90020811A06E00848B0F9F5
:104130000000064AB2F90020811AB1F5004F02D9F9
:104140004FF6FF70411A88B2704700004E1A0020E7
:104150002E1A00201CB58020009000208DF804004D
:1041600001208DF8070069460148FEF74EFE1CBD90
:10417000000402401CB58020009001208DF804004E
:1041800000208DF8060003208DF8050069460248DE
:10419000FEF73BFE1CBD00000004024030B50022CB
:1041A0008B071C0F0F2303FA04F20B4B8C1053F8F0
:1041B00024309343084C8D1044F8253023468C104E
:1041C00053F824308C07240F00FA04F42343024CE4
:1041D0008D1044F8253030BD083801407CB50546C7
:1041E0000C4603208DF8040001208DF805008DF8A1
:1041F000064000204FF4F073032201A900901046FE
:10420000FDF7A2FE7CBD000070B504460D462A46AF
:1042100021460348FEF76DFD642001F07BFF70BD71
:10422000742000207CB504460D46E0B28DF80400F1
:10423000E0B28DF80500E8B28DF80600E8B28DF81E
:104240000700FDF74FFD78B100200346202204212E
:10425000009001A8FDF70CFD00202023024601A9D3
:104260000090FDF771FE06E000202023042201A942
:104270000090FDF769FE7CBD70B504460D462A46E8
:1042800021460248FEF735FD70BD00009420002055
:1042900070B504460D462A4621460248FEF729FD20
:1042A00070BD0000B420002010B504460A48008804
:1042B00000BF0948008800F080000128F9D021469D
:1042C000054800F048FE00BF4021034800F077FD9C
:1042D0000128F9D110BD00000010014070B505465D
:1042E0000C4600262846FFF79DFE064646EA0401D6
:1042F000284601F03BF8002070BD00000CB50020FE
:10430000019000903448006840F4803032490860E1
:1043100000BF3148006800F4003000900198401C54
:104320000190009818B90198B0F5A04FF1D12A4832
:10433000006800F4003010B10120009001E000207E
:1043400000900098012846D123484030006840F092
:1043500080502149403108602048006840F44040C6
:104360001E4908601C48083000681B490831086075
:104370000846006840F4004008600846006840F4C1
:10438000A05008601648091F0860081F006840F028
:104390008070091F086000BF0F48006800F00070BF
:1043A0000028F9D040F205700E4908600A4808302C
:1043B000006820F0030008490831086008460068DA
:1043C00040F00200086000BF03480830006800F0B9
:1043D0000C000828F8D10CBD0038024000700040E5
:1043E00019544007003C024010B50446FCF7ACFFEE
:1043F0004620FCF77DFF2046FCF77AFFFCF7C0FF64
:1044000010BD000010B5024600230B488282002137
:104410000BE0094C481C34F8100024F81100204629
:1044200030F81100184483B2491C0A29F1DB0A2034
:1044300093FBF0F080B210BD0C200020042808D1BE
:104440004FF0E021096941F004014FF0E0221161D1
:1044500007E04FF0E021096921F004014FF0E0226C
:104460001161704710B51548006840F47000134999
:1044700008601348006840F00100114908600020FE
:104480000F49083108600E4800680E4908400C4981
:1044900008600D48091D0860081F006820F480208E
:1044A000091F0860002006490C310860FFF726FF4D
:1044B0004FF0006001498039086010BD88ED00E0D0
:1044C00000380240FFFFF6FE1030002410B5012135
:1044D000064800F0ECF8012803D1FFF7E9FDFFF7EB
:1044E00065FD0121014800F0D3F810BD00400140F6
:1044F00010B50121074800F0DAF8012804D1064878
:104500000068401C044908600121024800F0C0F81E
:1045100010BD000000440140D818002010B5012152
:10452000880700F0C4F8012848D127480078401CCB
:104530002549087025480078401C24490870244803
:104540000078401C2249087008460078322804DBB5
:10455000002008701F49886880471B4800780A2897
:1045600005DB0020184908701B4948688047174838
:104570000078FA2822DB00201449087017480068E8
:1045800008B9012000E000201449086014480078B0
:1045900050B14FF480611348FEF7AFFC4FF4006157
:1045A0001048FEF7AAFC09E04FF480610D48FEF7C1
:1045B000A2FC4FF400610B48FEF79DFC0121880727
:1045C00000F066F810BD0000AF030020B00300202B
:1045D000B1030020F816002074030020BC8243427F
:1045E000A2030020001C024010B50121124800F077
:1045F0005EF801281BD111480078401C0F49087053
:104600000F480078401C0E4908700C4800780228BA
:1046100004DB002009490870FDF7D8FF084800783E
:10462000032804DB002006490870FDF78DFD0121F9
:10463000014800F02DF810BD00040040AD0300203B
:10464000AE03002010B50121074800F030F8012822
:1046500004D106480068401C044908600121024852
:1046600000F016F810BD00000010004014170020E4
:1046700010B50121054800F01AF8012801D1FEF714
:1046800091FD0121014800F003F810BD0014004025
:10469000CA430282704721B1028842F001020280BF
:1046A00004E002884FF6FE731A400280704730B56E
:1046B0000246002000230024158A05EA010395899B
:1046C00005EA010413B10CB1012000E0002030BD67
:1046D0001AB183890B43838102E083898B438381F1
:1046E000704701894FF6F872114001817047000050
:1046F00000220288184B98420ED0184B98420BD0DB
:10470000B0F1804F08D0164B984205D0154B984217
:1047100002D0154B984204D14FF68F731A404B8844
:104720001A43124B984207D0114B984204D04FF6CF
:10473000FF431A400B891A4302804B68C3620B88FF
:104740000385054B984202D0044B984201D18B7AE5
:10475000038601238382704700000140000401406A
:104760000004004000080040000C00400010004021
:10477000001400401CB501210420FFF729FB4FF471
:104780000050009001208DF804008DF80700694664
:104790000448FEF73AFB4FF400510248FEF7ABFB2A
:1047A0001CBD00000008024010B500F005F8FFF73E
:1047B000E1FF00F017F810BD1CB501214020FFF704
:1047C00007FB4FF48070009000208DF8040001205A
:1047D0008DF8070069460248FEF717FB1CBD000074
:1047E000000002401CB501218020FFF7F1FA4FF4D0
:1047F0004060009001208DF804008DF807006946A4
:104800000448FEF702FB4FF440610248FEF773FBD9
:104810001CBD0000001C02407FB505460C4601216E
:104820004804FFF705FB0295ADF804400020ADF801
:104830000600ADF80C008DF80E0001A90D48FFF739
:1048400057FF19208DF8000000208DF801008DF829
:10485000020001208DF803006846FEF7EBFD0122FF
:1048600011460448FFF734FF01210248FFF713FF08
:104870007FBD00000044014010B50B4800780128BE
:1048800006D10820FEF798FBC4B2204600F010F8CD
:104890000648807B38B10820FEF78EFBC4B203487F
:1048A000416B2046884710BD111A002020090020C6
:1048B00030B58BB004466946204601F0B2FC68462C
:1048C00001F09DFC20B300208E49087001208E4924
:1048D000087000210846FFF7A5FC01208B490870ED
:1048E0008B4800888B4908800020894908808A49C4
:1048F00008708848028889A103A800F07BFF03A8FC
:10490000FBF79BFCC5B2294603A8FFF77DFCC7E077
:10491000E72C08D183480068834908608148006813
:1049200082490860BCE0F72C01D0F32C0AD17D4805
:10493000006814307C4908607A48006828387B4950
:104940000860ADE0FB2C01D0F92C0AD17548006855
:10495000283075490860734800683C38734908601E
:104960009EE0FD2C01D0FC2C0AD16E4800683C3042
:104970006D4908606B4800685A386C4908608FE0E0
:10498000FE2C0AD1674800685030674908606548C6
:10499000006878386549086082E0EF2C01D0CF2CA0
:1049A0000AD1604800681430604908605D480068BA
:1049B00028385D49086073E0DF2C01D09F2C0AD1B4
:1049C00058480068283059490860564800683C3803
:1049D0005549086064E0BF2C01D03F2C0AD15148F2
:1049E00000683C30514908604E4800685A384E49CA
:1049F000086055E07F2C0AD14A48006850304B4986
:104A000008604848006878384749086048E004F082
:104A10001800182805D104F08000A0B104F00100AE
:104A200088B1F82C0FD01F2C0DD0F02C0BD00F2CF0
:104A300009D0072C07D0C02C05D0032C03D0802C24
:104A400001D0012C24D100202E49087001202E49CC
:104A5000087000210846FFF7E5FB01202B4908708C
:104A60002B4800882B4908800020294908802A49C2
:104A700008702848028829A103A800F0BBFE03A8FB
:104A8000FBF7DBFBC5B2294603A8FFF7BDFB07E038
:104A900024480068244908602248006823490860C7
:104AA000FF2C20D11F4800681F4908601D4800687E
:104AB0001E4908601E480088B0F5966F0DDD002085
:104AC0001B49088000210846FFF7ACFB00200D4978
:104AD000087004200C49087008E015480088401C44
:104AE0001349088002E00020114908800548007839
:104AF00028B10E4801680C480068FEF71AF80BB0A0
:104B000030BD0000111A0020121A0020230E0020D0
:104B1000381A00202C1A00203A1A002025640D0AA9
:104B200000000000201A0020181A00201C1A002083
:104B3000141A0020024600215178107840EA012121
:104B400008467047024600211178507840EA01215A
:104B50000846704710B5024800F0D0FA10BD0000BA
:104B6000901F002010B51248007800BB40F225517C
:104B7000104800F031F9012819D10E4800F0E6F98B
:104B80000D490E4A127888540C480078401C0B4995
:104B9000087008460078022804DB00200870012015
:104BA0000349087040F22551024800F0EDF810BDAD
:104BB0001A170020001001401C1700201B170020AE
:104BC00010B540F22551054800F006F9012804D13E
:104BD00040F22551014800F0D7F810BD00440040D4
:104BE00000B587B001210420FFF7F2F80121202051
:104BF000FFF71EF9082206212348FEF74EF9082286
:104C000007212148FEF749F9C020059002208DF8C0
:104C1000180000208DF81A0003208DF819000120DB
:104C20008DF81B0005A91848FEF7EFF84FF4E130A6
:104C300001900020ADF810000C20ADF80E0000200F
:104C4000ADF80C00ADF80A00ADF8080001A90F4856
:104C500000F012F9012240F225510C4800F0E6F86C
:104C600047208DF8000000208DF801008DF802002B
:104C700001208DF803006846FEF7DCFB01210348A4
:104C800000F091F807B000BD000802400014014098
:104C900010B540F22551284800F09EF8002845D074
:104CA000254800F053F9254908702548007878B95F
:104CB00008460078552839D10120214908701F483D
:104CC000007820490870002048708870C8702DE076
:104CD0001B480078012807D102201949087017489D
:104CE00000781849487021E015480078022807D15B
:104CF000032013490870114800781249887015E0A4
:104D00000F48007803280AD100200D4908700B488D
:104D100000780C49C87001200B49087006E000209B
:104D200007490870084908700649087040F2255183
:104D3000014800F029F810BD00140140B31800200C
:104D4000B4180020B5180020BD18002010B5044686
:104D50002146054800F0FFF800BF8021024800F01E
:104D60002EF80028F9D010BD0014014070B505469A
:104D70000E46002400BF04E0285DFFF7E7FF601C3B
:104D8000C4B2B442F8DB70BD10B50022002340F677
:104D90006A14A14200D100BF0A1201249440A3B2B8
:104DA000DC43048010BD21B1828942F4005282812B
:104DB00004E082894DF6FF731A40828170470246F3
:104DC0000020B1F5007F00D100BF13880B400BB16C
:104DD000012000E00020704770B502460024002347
:104DE0000025002040F66A16B14200D100BFC1F391
:104DF000421501F01F03012606FA03F3012D02D12B
:104E00009689334006E0022D02D1168A334001E034
:104E1000968A33400C12012606FA04F416883440B0
:104E200013B10CB1012000E0002070BDF0B50346C5
:104E3000002400260025002040F66A17B94200D160
:104E400000BF1846C1F3421401F01F06012707FAFC
:104E500006F5012C01D10C3004E0022C01D11030F8
:104E600000E014301AB107682F43076002E00768BA
:104E7000AF430760F0BD00002DE9FF4705460E4631
:104E80000024A14600BFA046B08900B100BF2C8A13
:104E900024F44054F08804432C82AC8941F20C6025
:104EA0008443B08831890843718908430443AC8145
:104EB000AC8A24F44074B0890443AC826846FEF79F
:104EC000D7FF2048854202D01F48854202D1DDF835
:104ED0000C9001E0DDF80890A88900F4004040B192
:104EE00009EBC90000EB091031684900B0FBF1F78C
:104EF00007E009EBC90000EB091031688900B0FB3D
:104F0000F1F76420B7FBF0F004012009642101FBF4
:104F10001078A88900F4004040B1322000EBC800AE
:104F2000B0FBF1F000F00700044308E0322000EB92
:104F300008106421B0FBF1F000F00F0004432C8155
:104F4000BDE8FF8700100140001401400146888839
:104F5000C0F308007047C1F3080282807047000068
:104F600010B512481249C1F8B00032211048C0F8FB
:104F7000B4100021C0F8B810C0F8BC10C0F8C010C0
:104F80000C49C0F8C4100221C0F8C8100021C0F8B4
:104F9000CC10C0F8D010C0F8D410042180F8D8107C
:104FA00000200549087000F009F810BDAC1E002073
:104FB000E01E0020381700203717002000B587B00A
:104FC000012140F20910FEF703FF01214FF42020D8
:104FD000FEF70EFF082200214148FDF75EFF072281
:104FE00006214048FDF759FF00208DF81A000120E6
:104FF0008DF81B0002208DF818000120059002207A
:105000008DF8190005A93648FDF7FFFE02208DF83E
:1050100018004020059005A93248FDF7F6FE002053
:105020008DF81A0001208DF81B008DF81800000281
:10503000059002208DF8190005A92B48FDF7E5FE23
:105040000020FEF7B3F84FF4165001900020ADF8A1
:105050000800ADF80A00ADF80C00ADF8100008200B
:10506000ADF80E0001A92148FFF706FF01211F48F6
:10507000FFF799FE34208DF8000002208DF8010022
:1050800001208DF802008DF803006846FEF7D2F982
:105090004FF4165001900420ADF80E0001A91448F9
:1050A000FFF7EAFE26208DF8000002208DF80100AF
:1050B0008DF8020001208DF803006846FEF7BAF96A
:1050C000012240F225510A48FFF7B0FE01210848AD
:1050D000FFF769FE07A000F07DFB07B000BD0000F0
:1050E00000000240000C024000200240004C004042
:1050F00000440040746573740000000010B504465D
:1051000094F82810374A52F8210040F22771FFF72F
:1051100063FE18B3E068401CE060D4E902108842E6
:1051200009D2E1682068405C94F828102D4A52F8B2
:105130002110888009E094F828102A4A52F82100AA
:10514000002240F22771FFF771FE94F82810254ADB
:1051500052F8210040F22771FFF716FE94F828104C
:10516000204A52F8210040F22551FFF735FE30B3B6
:1051700001F032F8606294F828001A4951F82000D2
:1051800080881949087094F82810164A52F82100AE
:1051900040F22551FFF7F8FDD4E90610884207D206
:1051A00011480178E269501CE0616069815406E0B1
:1051B0000E49206A884202D2206A401C206294F87C
:1051C0002810084A52F821000821FFF7F8FD38B1ED
:1051D00094F82800034951F8200080880449087099
:1051E00010BD0000401700203C170020F0FFFF7F9B
:1051F0003D1700200EB501218803FEF719FE04219A
:105200000120FEF7CBFF1020019000208DF8080050
:105210000C208DF8090001208DF80A0001A8FDF787
:1052200003FD0A208DF8000001208DF80100002008
:105230008DF8020001208DF803006846FEF7FAF8A9
:105240000EBD10B500F008F85321092000F064F8F5
:10525000FFF7D0FF10BD00001CB501210320FEF7B1
:10526000B7FD00220E211448FDF717FE00220D2184
:105270001148FDF712FE4FF40040009001208DF818
:10528000040000208DF8060001208DF8070003209F
:105290008DF8050069460848FDF7B7FD102000901D
:1052A00000208DF8040001208DF8070069460348AE
:1052B000FDF7ABFD1CBD00000000024000040240F1
:1052C00010B5012010490860032000F04DFF0020B8
:1052D0000E49C1F8BC0201210D48FFF7DCF901219C
:1052E0000B48FFF7D5F900200A4908601E2000F09E
:1052F00011FF012004490860052000F00BFF002188
:105300000348FFF7C8F910BDBC024042000040420C
:1053100000100040141700207FB505460C460121FF
:105320001020FEF765FD0295ADF804400020ADF8B1
:10533000060001A90C48FFF7DBF936208DF80000C4
:1053400001208DF801008DF802008DF803006846F9
:10535000FEF770F8012211460348FFF7B9F9002162
:105360000148FFF798F97FBD0010004070B5044672
:105370000D462946204600F001F870BDF8B50446F8
:105380000D46032704F03F04002714E02046FEF7F3
:105390008BFF42F210716846FEF766FE064646B97C
:1053A0009DF80000844203D12846FEF77DFF04E00B
:1053B0000226781CC7B2032FE8DB00BF3046F8BDD9
:1053C0002DE9FC41074600200090019000241E4872
:1053D0000168009140680190A1208DF802001B48EF
:1053E00000788DF80300194840788DF804001748BC
:1053F00080788DF805009DF805309DF804209DF813
:1054000003109DF80200DFF848C0DCF80060B047E8
:1054100005468DF806500CE00E48C168684688477E
:10542000601CC4B24FF4967000F074FE052C00DBD3
:1054300003E00848C0790028EED000BF00200549ED
:10544000C871BDE8FC810000160500206006002040
:1054500074030020D00400202DE9FC410746002001
:105460000090019000241E4801680091406801905E
:10547000A2208DF802001B48C0788DF8030019485F
:1054800000798DF80400174840798DF805009DF8E3
:1054900005309DF804209DF803109DF80200DFF808
:1054A00048C0DCF80060B04705468DF806500CE0B7
:1054B0000E48C16868468847601CC4B24FF49670B5
:1054C00000F028FE052C00DB03E00848C079002826
:1054D000EED000BF00200549C871BDE8FC81000086
:1054E0001E0500206006002074030020D004002068
:1054F0002DE9F04188B0064620216846FAF788FE7B
:10550000002755208DF8000002208DF8010030465C
:10551000FAF793FE0446142C00D91424224631468F
:105520000DF10200FAF75BFE9DF805309DF80420AE
:105530009DF803109DF80200DFF84880D8F800C0FD
:10554000E0470546A01C0DF80050BB21E01C0DF8FB
:1055500000100CE00C48C16868468847781CC7B248
:105560004FF4967000F0D6FD052F00DB03E00648EF
:10557000007A0028EED000BF00200349087208B06E
:10558000BDE8F08174030020D00400202DE9FC4127
:1055900000200090019000241548016800914068A7
:1055A00001909DF805309DF804209DF803109DF8AA
:1055B0000200104F3E68B04705468DF806500CE0DB
:1055C0000D48C16868468847601CC4B24FF49670A5
:1055D00000F0A0FD052C00DB03E0074880790028DF
:1055E000EED000BF002004498871BDE8FC810000B6
:1055F0000E05002074030020D00400202DE9FC419A
:105600000020009001900024174801680091406834
:105610000190164840788DF804009DF805309DF8FB
:1056200004209DF803109DF80200114F3E68B0471A
:1056300005468DF806500CE00E48C168684688475C
:10564000601CC4B24FF4967000F064FD052C00DBC2
:1056500003E0084840790028EED000BF002005494B
:105660004871BDE8FC810000060500209C15002063
:1056700074030020D004002030B589B00446114ADC
:105680001149204600F036FE0E4A10A101A800F094
:10569000B1F801A8FAF7D1FDC5B2294601A8FEF775
:1056A000B3FD09480BA1026801A800F0A3F801A806
:1056B000FAF7C3FDC5B2294601A8FEF7A5FD09B05A
:1056C00030BD0000200E00201C0E002025730D0AA6
:1056D0000000000025640D0A000000002DE9F043E1
:1056E000B3B0002468E004EBC40000EB04103549BB
:1056F00001EBC0064FF0000904EBC40101EB0411FB
:10570000304A02EBC100FAF798FD00B953E03C21A2
:105710003046FAF788FD05463E213046FAF783FD0C
:10572000074675B16FB1AF420BD9791B481E0228ED
:1057300006D16978244A1170A978517000219170BE
:1057400038E02248FAF779FD60B904EBC40000EBB9
:1057500004101C4A02EBC00101A8FAF783FDDFF830
:105760006C900DE004EBC40101EB0411154A02EB4F
:10577000C10001A9FAF768FD00B91CE0DFF85090FC
:105780004FF0000800200CE0315C412908DB315C5F
:105790005A2905DC335C414608F1010809F801305B
:1057A000401C315C11B1B8F1310FEDDB002009F87C
:1057B000080000BF00BF641C032C94DB33B0BDE8BD
:1057C000F0830000B41B0020701E00200C1E00207F
:1057D0003E1E00200FB4054B10B503A9044A0298E1
:1057E00000F0F2F810BC5DF814FB0000B561000891
:1057F000AC1B00200FB4084B10B504A902AA0398F3
:1058000000F0E2F8044602A9002000F060FC204607
:1058100010BC5DF814FB0000CF6000080048704722
:10582000B01B002002E008C8121F08C1002AFAD1EC
:1058300070477047002001E001C1121F002AFBD110
:10584000704700002DE9FF5F82B00021DDE90430E0
:10585000020DDDF840B0034318D044F61050A2F218
:10586000FF3242431514119801281FD0A5EB0B00FD
:10587000401C5FEA000A4FF000064E4FDFF83891F7
:10588000B046504615D5CAF1000413E01198012422
:105890004AA3012801D16FEA0B010298119AC0E9CD
:1058A0000031C0E9024206B0BDE8F09FCBF1000034
:1058B000DFE704460021404A491842EB0450CDE995
:1058C000001012E0E00707D032463B46404649460A
:1058D000FAF712FE8046894632463B461046194684
:1058E000FAF70AFE06460F466410002CEAD1DDE9FD
:1058F0000401DDE90023BAF1000F06DAFAF7FCFD36
:1059000042464B46FAF7F8FD05E0FAF767FE4246D5
:105910004B46FAF763FE04460E460022284BFBF77F
:10592000ABF803D84FF0FF30014607E00022254BCB
:1059300020463146FAF739FDFBF786F8102409E0D6
:10594000002C0ADB0A220023FAF70DFF039B3032FA
:105950001A55641E50EA0102F2D1641C039AC4F184
:1059600011031444119A012A03D0012208430DD1D6
:105970000AE0084304D000204FF0110B119072E7A9
:10598000A3EB0B056D1E0DE05B4504DD4FF000023F
:1059900005F1010504E003DA4FF00002A5F101056D
:1059A000002AECD002981199C0E90231C0E9004503
:1059B00079E70000000014400000F03F30000000D4
:1059C0000000F0430000E03F2DE9FF4F95B09A46FC
:1059D000884606460025EEE1252877D10024274693
:1059E000F94A0121039400E0044316F8013F203BEB
:1059F00001FA03F01042F7D130782A2811D06FF065
:105A00002F033078A0F13002092A16D8039A44F007
:105A1000020402EB820203EB42021044761C039064
:105A2000EFE758F8042B0392002A03DA504244F4BB
:105A30000054039044F00204761C30782E2816D1CE
:105A400016F8010F44F004042A280DD06FF02F023D
:105A50003078A0F13003092B09D807EB870302EB5C
:105A60004303C718761CF3E758F8047B761C30789C
:105A70006C280FD006DC4C2817D068280DD06A2877
:105A800014D104E0742810D07A280FD10DE044F42A
:105A900000140AE044F4801401E044F440147278E5
:105AA000824202D104F58014761C761C3078662878
:105AB0000BD013DC582877D009DC002875D0452896
:105AC000F6D04628F4D047281AD193E118E063288D
:105AD00035D0642879D0652812D18BE1702873D035
