:020000040800F2
:10000000102700209D010008A5010008A701000895
:10001000A9010008AB010008AD01000800000000C4
:10002000000000000000000000000000AF01000818
:10003000B101000800000000B3010008B50100088C
:10004000B7010008B7010008B7010008B7010008B0
:10005000B7010008B7010008B7010008B7010008A0
:10006000B7010008B70100080D210008B70100081A
:10007000B7010008B7010008B7010008B701000880
:10008000B7010008B7010008B7010008B701000870
:10009000B7010008B7010008B7010008B701000860
:1000A000E530000805310008B7010008B701000875
:1000B0003531000801320008B7010008B701000817
:1000C000B7010008B7010008B7010008B701000830
:1000D000B70100082937000885370008B701000874
:1000E000B7010008B7010008B7010008B701000810
:1000F000B7010008B7010008B7010008B701000800
:10010000B7010008B7010008B7010008B7010008EF
:1001100019370008B70100085D320008893200086D
:10012000B7010008B7010008B7010008B7010008CF
:10013000B7010008B7010008B7010008B7010008BF
:10014000B7010008B7010008B7010008B7010008AF
:10015000B7010008B7010008B701000855380008CA
:10016000B7010008B7010008B7010008B70100088F
:10017000B7010008B7010008B7010008B70100087F
:10018000B7010008B7010008DFF80CD000F0D6F97D
:10019000004800470549000810270020064880470E
:1001A00006480047FEE7FEE7FEE7FEE7FEE7FEE75C
:1001B000FEE7FEE7FEE7FEE77D3000088901000864
:1001C00040EA01039B0703D009E008C9121F08C0D9
:1001D000042AFAD203E011F8013B00F8013B521E59
:1001E000F9D27047D2B201E000F8012B491EFBD2D0
:1001F00070470022F6E710B513460A460446194632
:10020000FFF7F0FF204610BD30B505462A460B46E5
:1002100012F8010B13F8014B08B1A042F8D01CB141
:10022000002802D06D1CF1E7284630BD421C10F8B2
:10023000011B0029FBD1801A704710B5002200E095
:10024000521C835C8C5CA34201D1002BF8D1D8B244
:10025000E1B2401A10BD2DE9F04D81EA030404F02B
:10026000004B21F0004514464FF0000A23F00041F6
:1002700050EA050220D054EA01021DD0C5F30A5706
:100280000246C5F31303C1F31300C1F30A5640F449
:10029000801543F48013A7EB0608101BD64608F21E
:1002A000FD3873EB050002D308F1010801E0921854
:1002B0005B41B8F1000F03DA00200146BDE8F08D84
:1002C00000204FF48011064684460EE0171B73EBA6
:1002D000050705D3121B63EB050306434CEA010C2B
:1002E00049084FEA300092185B4150EA0107EDD10E
:1002F00052EA030012D082EA040083EA05010843AF
:1003000005D0101BAB4106D20122002306E00022DB
:100310004FF0004302E06FF0010253101AEB0600A9
:100320004CEB085110EB0A0041EB0B01BDE8F04D1E
:1003300000F0A7B800F0004230F000400AD0C10D34
:1003400001F56071C0F3160042EA0151C20840078E
:100350001143704700200146704701F0004330B45C
:1003600021F0004150EA010206D00A0DA2F56072A8
:10037000C1F31301002A02DC30BC00207047440F97
:1003800044EAC104C100E01830BC00EBC25000F0E8
:1003900041B82DE9F05F0546002092469B4688460D
:1003A0000646814640241BE02846414647462246F1
:1003B00000F020F853465A46C01A914110D3114616
:1003C0001846224600F0CCF82D1A67EB01084F467C
:1003D00022460120002100F0C3F817EB00094E412E
:1003E000201EA4F10104DFDC484631462A4643467C
:1003F000BDE8F09F202A04DB203A21FA02F0002118
:10040000704721FA02F3D040C2F120029140084324
:10041000194670470029A8BF7047401C490008BF13
:1004200020F00100704710B4B0FA80FC00FA0CF024
:1004300050EA010404BF10BC704749B1CCF120045C
:1004400021FA04F411FA0CF118BF012121430843E9
:10045000A3EB0C01CB1D4FEA00614FEA102042BF15
:10046000002010BC704700EBC35010440029A4BF0B
:1004700010BC7047401C490008BF20F0010010BCB0
:10048000704710B5141E73F1000408DA401C41F1E6
:10049000000192185B411A4301D120F0010010BD08
:1004A0002DE9F04D92469B4611B1B1FA81F202E07E
:1004B000B0FA80F22032904600F052F804460F461F
:1004C00040EA0A0041EA0B0153465A46084313D05A
:1004D000114653EA010019D0C8F140025046FFF717
:1004E00089FF05460E4650465946424600F038F808
:1004F000084305D0012004E020463946BDE8F08DD0
:100500000020054346EAE0762C4337430A9863050A
:10051000E40AA0EB08000022FD0A44EA47540A302E
:1005200002D500200146E9E7010510196941DDE91E
:10053000084500196941BDE8F04DA2E7064C074D9A
:1005400006E0E06840F0010394E8070098471034A3
:10055000AC42F6D3FFF71CFEAC6A0008CC6A000878
:10056000202A04DB203A00FA02F100207047914073
:10057000C2F1200320FA03F319439040704770B58D
:100580008D1810F8014B14F0030201D110F8012B63
:10059000231106D110F8013B03E010F8016B01F8BC
:1005A000016B521EF9D1ABB110F8012B04F00C0411
:1005B0008A1A0C2C03D0A2EB84129B1C08E010F8C2
:1005C000014BA2EB0422F8E712F8014B01F8014BB2
:1005D0005B1EF9D5A942D4D3002070BDCA43026086
:1005E000704721B1826842F00102826003E08268B4
:1005F00022F00102826070470021084A1168084A0F
:100600001140D0E900231A4383681A43C3681A4390
:100610001143044AC2F80413704700000423014048
:10062000E030FCFF0020014000B58DB001210846FC
:1006300002F0BAFA0121080202F0E6FA4020019025
:1006400003208DF8080000208DF80B0001A9174841
:1006500001F099FE0020039004900690059003A8F5
:10066000FFF7CAFF0121080202F0DEFA00214FF471
:10067000807002F0D9FA00208DF8200007908DF8E4
:10068000210009900B9001208DF8300007A908483F
:1006900000F01EF8062301221946054800F042F832
:1006A00001210348FFF79DFF0DB000BD000002408F
:1006B000002001400146C86C80B27047024600200D
:1006C00013680B400BB1012000E0002070470000D0
:1006D00030B50246002000235068104C20400D79B0
:1006E0000C6844EA05242043506090680C4C20407C
:1006F000D1E903542C438D682C434D7944EA4504D9
:1007000020439060D06A20F470000C7D641EE4B237
:10071000234340EA0350D06230BD0000FFFEFFFCDF
:10072000FDF7FFC0F0B504460D4600200021092D5D
:1007300011DDE068A5F10A0606EB4607072606FA72
:1007400007F18843A5F10A0606EB460603FA06F10F
:100750000843E0600CE0206905EB4507072606FA30
:1007600007F1884305EB450603FA06F108432061CB
:10077000072A0FDA606B561E06EB86071F2606FA5D
:1007800007F18843561E06EB860605FA06F1084374
:10079000606322E00D2A0FDA206BD61F06EB860776
:1007A0001F2606FA07F18843D61F06EB860605FAD0
:1007B00006F10843206310E0E06AA2F10D0606EBA3
:1007C00086071F2606FA07F18843A2F10D0606EBFD
:1007D000860605FA06F10843E062F0BD816841F043
:1007E000804181607047000070B500232A4A12786A
:1007F0000B2A03DA0022294C22704BE0002044E04F
:10080000274A125C552A3ED1254C421CA25CEE2A96
:1008100039D100F10A02A25CBB2A34D12546841CDE
:100820002D5D1F4EC41C345D2544041D345D2544DC
:10083000441D345D2544841D345D2544C41D345D50
:10084000254400F10804345D2A19D41702EB14641E
:100850002412A2EB0424E3B2344600F10902A25CA4
:100860009A420DD1002105E00A180D4CA25C625499
:100870004A1CD1B20B29F7DB0122084C227002E09E
:100880000022064C2270421CD0B2034A12780A3A67
:100890008242B5DA70BD0000B01A00206806002060
:1008A0007C21002010B500F009F8012002F096FB31
:1008B00000200149086010BDBC0243421CB5012163
:1008C000422002F071F94020009001208DF80400D0
:1008D00000208DF8060003208DF8050069460A48BF
:1008E00001F051FD4FF40040009001208DF804000C
:1008F00000208DF8060003208DF8050069460248A7
:1009000001F041FD1CBD00000004024010B502F0E2
:1009100045FA012008490860022003F039FF074822
:10092000D0F81C02C4B2002003490860022003F082
:100930002FFF204610BD00009882404200804042B8
:1009400070B5044602F03AFA00251BE004F0800678
:100950001EB101200E49086002E000200C49086029
:100960006006040E01200A49091F0860022003F0F6
:100970000FFF00200749C1F89802022003F008FF8A
:10098000681CC5B2082DE1DBFFF7C0FF70BD000099
:100990009C8240420080404210B502F00FFA0120D4
:1009A000094908600949C1F89802042003F0F0FEE3
:1009B000002005490860042003F0EAFE00200349F6
:1009C000C1F8980210BD00009C8240420080404265
:1009D00010B502F0F3F9002007490860012007492B
:1009E000C1F89802042003F0D3FE012002490860F8
:1009F000042003F0CDFE10BD9C82404200804042A6
:100A000010B502F0CFFE10BD10B504460B4884426D
:100A100009D10121480602F0E7F800214FF00070EB
:100A200002F0E2F808E00121880602F0DDF800217A
:100A30004FF0806002F0D8F810BD00000064004064
:100A400010B50021837A012202FA03F13D4A1268AF
:100A500042F001023B4B1A603A4A1C3212688A4348
:100A6000384B1C331A60027BCAB9364A0C32126802
:100A70008A43344B0C331A604288C38842EA0343EA
:100A8000304A4032847A42F834300288838842EA1D
:100A900003432C4A4032847A02EBC4025360027B47
:100AA000012A19D1274A0C3212680A43254B0C330C
:100AB0001A604288038842EA0343224A4032847A19
:100AC00042F83430C288838842EA03431D4A4032E8
:100AD000847A02EBC4025360C27A3AB9194A121DF1
:100AE00012688A43174B1B1D1A6006E0154A121D37
:100AF00012680A43134B1B1D1A60028932B9114A4E
:100B0000143212688A430F4B14331A600289012A87
:100B100006D10C4A143212680A430A4B14331A6085
:100B2000427B012A06D1074A1C3212680A43054B50
:100B30001C331A60034A126822F00102014B1A604A
:100B400010BD0000006600401AB143690B434361C9
:100B500002E043698B434361704730B50246002091
:100B60000023146824F002041460146844F00104A3
:100B7000146000E05B1C546804F001041CB94FF6DB
:100B8000FF74A342F6D1546804F001040CB90020AC
:100B90006CE08C79012C04D1146844F0800414605A
:100BA00003E0146824F080041460CC79012C04D193
:100BB000146844F04004146003E0146824F0400416
:100BC00014600C7A012C04D1146844F020041460E1
:100BD00003E0146824F0200414604C7A012C04D142
:100BE000146844F01004146003E0146824F0100446
:100BF00014608C7A012C04D1146844F00804146049
:100C000003E0146824F008041460CC7A012C04D1A9
:100C1000146844F00404146003E0146824F004042D
:100C200014608C78A407CD7844EA05640D7944EA11
:100C300005444D7944EA05540D886D1E2C43D4615A
:100C4000146824F001041460002300E05B1C546865
:100C500004F001041CB14FF6FF74A342F6D15468AE
:100C600004F001040CB1002000E0012030BD024678
:100C7000002019B9D36803F0030006E0012903D16D
:100C8000136903F0030000E00020704710B500F581
:100C9000D87303EB01131B6803F004031372137A78
:100CA00053B900F5D87303EB01131B6840F2FF74CE
:100CB00004EA5353136009E000F5D87303EB011302
:100CC0001B686FF0604404EAD303536000F5D873E7
:100CD00003EB01131B6803F00203537200F5D87392
:100CE00003EB01135B6803F00F03937200F5D873F5
:100CF00003EB01135B681B0AD37400F5D87303EB95
:100D000001139B68D37200F5D87303EB01139B6842
:100D10001C0A147300F5D87303EB01139B681C0CB9
:100D2000547300F5D87303EB01139B681B0E937388
:100D300000F5D87303EB0113DB68D37300F5D873A8
:100D400003EB0113DB681C0A147400F5D87303EB82
:100D50000113DB681C0C547400F5D87303EB01130A
:100D6000DB681B0E937421B9C36843F02003C36092
:100D700003E0036943F02003036110BD10B5024690
:100D80000020936803F08063B3F1806F00D110E01E
:100D9000936803F00063B3F1006F01D1012008E014
:100DA000936803F08053B3F1805F01D1022000E02B
:100DB0000420042874D002F5C07303EB00131B68F1
:100DC00003F0010402F5C07303EB00131C600B7AFF
:100DD0007BB94B7A0C8843EA445302F5C07404EBA8
:100DE00000142468234302F5C07404EB001423604C
:100DF00010E00B7A4C6843EAC4034C7A234302F5B3
:100E0000C07404EB00142468234302F5C07404EB9F
:100E1000001423608B7A03F00F038B7202F5C0730A
:100E200003EB00135B6823F00F0402F5C07303EBC0
:100E300000135C6002F5C07303EB00135B688C7AEF
:100E4000234302F5C07404EB001463608B7B1C0623
:100E50004B7B44EA03440B7B44EA0323CC7A2343D1
:100E600002F5C07404EB0014A3608B7C1C064B7C61
:100E700044EA03440B7C44EA0323CC7B234302F57E
:100E8000C07404EB0014E36002F5C07303EB0013BD
:100E90001B6843F0010402F5C07303EB00131C60F0
:100EA00010BD000010B50246002321B1012907D072
:100EB00002290FD109E090681D4C00EA04030BE001
:100EC00090681C4C00EA040306E090681A4C00EAA3
:100ED000040301E0002300BF00BF184C181BA3420D
:100EE00016D007DC83B16FF08060184470B102281F
:100EF00018D111E0B0F5007F10D0114C204448B15A
:100F0000B0F5003F0ED10BE002230DE000230BE013
:100F1000002309E0002307E0012305E0012303E0AB
:100F2000012301E0002300BF00BFD8B210BD0000C4
:100F30000300000400030008000003100001000883
:100F40000001FFF72DE9FF4705460E464FF0000A66
:100F500006B10DB94FF0010A9448007800F00F0077
:100F6000032801DD4FF0010A90480078C0F3001912
:100F7000BAF1000F19D000208DF80A008DF80B008F
:100F800001208DF80C000020ADF80000ADF8020043
:100F9000ADF80400ADF80600ADF8080001208DF8AA
:100FA0000D006846FFF74CFDFEE00020ADF808009C
:100FB00001208DF80D004FF000080024F2E07B487E
:100FC000007800F00F0030B101283BD002287BD020
:100FD000032874D19CE000208DF80B008DF80C00E4
:100FE00035F824004B460022114600F0E1F8ADF838
:100FF000020005EB840148884B460022114600F0B0
:10100000D7F8ADF80600601CC0B20446B04213DA4F
:1010100035F824004B460022114600F0C9F8ADF81F
:10102000000005EB840148884B460022114600F081
:10103000BFF8ADF8040004E00020ADF80600ADF8FC
:1010400004009CE001208DF80B0000208DF80C00BE
:1010500035F824004B460022114600F0A9F8ADF8FF
:101060000200601CC0B20446B04207DA35F8240022
:101070004B460022114600F09BF800E00020ADF83E
:101080000600601CC0B20446B04207DA35F82400FE
:101090004B460022114600F08BF800E00020ADF82E
:1010A0000000601CC0B20446B04209DA35F82400E2
:1010B0004B460022114600F07BF802E004E051E0CC
:1010C0000020ADF804005AE000208DF80B0001204C
:1010D0008DF80C0035F824004B460022114600F034
:1010E00081F80746B8B2ADF80200380CADF8000040
:1010F00005EB840148884B460022114600F072F847
:101100000746B8B2ADF80600380CADF8040036E07A
:1011100001208DF80B008DF80C0035F824004B46AB
:101120000022114600F05EF80746B8B2ADF80200A2
:10113000380CADF80000601CC0B20446B04208DABA
:1011400005EB840148884B460022114600F04AF81E
:1011500000E000200746B8B2ADF80600380CADF844
:1011600004000CE00020ADF80200ADF80000ADF87E
:101170000600ADF8040034464FF0010A00BF00BF7E
:101180008DF80A806846FFF75BFCB44202DA601C07
:10119000C4B200E007E008F10100C0B280460D28AB
:1011A00000DB00E00BE700BFBDE8FF873B18002035
:1011B00010B50446C4F309040AB1102000E0002071
:1011C00002460BB1082000E00020034613B1C1F332
:1011D000C13000E00020014642EA441018430843B1
:1011E00080B210BD10B50446C4F309040AB1022050
:1011F00000E0002002460BB1042000E0002003467E
:1012000013B18803C00A00E00020014642EA4430DE
:101210001843084310BD000010B500210148FFF736
:1012200026FD10BD0064004070B50446002554B191
:1012300000210648FFF71BFD054625B12246002187
:101240000248FFF723FD284670BD000000640040FF
:101250002DE9F04706460C4617469846DDF82090E3
:101260004FF0000A15480760C0F8048000201349B9
:101270000872487208468472224631460B30FEF7E7
:101280009FFF0E490E48FFF779FD0546042D09D052
:101290004FF0010A29460A48FFF704FE012801D150
:1012A0004FF0020ABAF1010F04DBB9F1000F01D0CF
:1012B00089F800505046BDE8F0870000201F00204C
:1012C000006400400448006800F0E05008B10120CC
:1012D00070470020FCE700000864004010B501E002
:1012E00000F006F8FFF798FF0028F9D110BD0000C4
:1012F00010B52448FFF798FF2248C07C20B1012890
:101300000AD0022818D10FE01E48827A00F10B01A2
:101310001D4800F0ACFF24E01A48827A00F10B016E
:101320001A4800F0A4FF1CE01648827A00F10B0175
:10133000174800F09CFF14E01248C07C03280FDB24
:101340001048C07C06280BDC0E48C07CC01E11492A
:1013500001EBC0000B490B310A680260496841602B
:1013600000BF00BF0748C07C062809DC0548C07CD8
:10137000094951F8200009490968084307490860EC
:1013800010BD000094200020481F0020581F00209E
:10139000781F0020A82000209C6900085C1900200C
:1013A00000B5034A5178107801F0AEF900BD000095
:1013B000A8200020F8B5FFF785FF00285FD00026A1
:1013C000002559E02E4890F9000030B101280ED0D8
:1013D00002281ED0032840D12DE000F05DF807461A
:1013E000002F03DB0126F8B200F07AF839E008227A
:1013F0002449254800F026FFC4B24CB101262348F9
:1014000000234FF42072214600901E48FFF720FF72
:1014100027E008221B491E4800F014FFC4B24CB15B
:1014200001261A4800234FF42872214600901548DF
:10143000FFF70EFF15E008221249164800F002FFE0
:10144000C4B24CB10126114800234FF470722146FA
:1014500000900C48FFF7FCFE03E0FF2008490870ED
:1014600000BF00BF06480078401C40B20449087025
:1014700006B103E0681CC5B2042DA3DD00BFF8BDB2
:101480009019002060190020681F00209119002089
:10149000881F0020481F00204FF0FF30002109E086
:1014A00001EB8102054B13F822200AB148B203E098
:1014B0004A1CD1B20729F3DB00BF7047C8200020C7
:1014C000002007E0002100EB8002044B03F822100B
:1014D000411CC8B20728F5DB70470000C820002077
:1014E000F8B50446002004EB84050E4E06EB850596
:1014F00000902B6904EB840506EB8505EA6804EB94
:10150000840516F8251004EB840506EB8505681C98
:10151000FFF79EFE002004EB8401324602F8210012
:10152000F8BD0000C82000202DE9F04104460F4618
:1015300015461E46DDF81880072C1ADA04EB8400E5
:101540000D4901F8205004EB84010B4A02EB8101A4
:10155000481C2A463946FEF733FE04EB8400064950
:1015600001EB8000C66004EB840001EB8000C0F852
:101570001080BDE8F0810000C820002010B50D4AA1
:1015800032210D4800F02AF80C4A32210C4800F0B4
:1015900025F80C4A32210C4800F020F80B4A322181
:1015A0000B4800F01BF80B4A32210B4800F016F8EC
:1015B00010BD0000981F0020481F0020CA1F0020F7
:1015C000581F0020FC1F0020681F00202E20002034
:1015D000781F002060200020881F002070B504467E
:1015E0000E4615462660E5600021204600F079FE93
:1015F00070BD000038B5FFF771FE68E0FFF76EFEC2
:10160000002462E0344850F8240034490968084056
:10161000002858D0072C4DD2DFE804F0040C182421
:101620002739460000BF69462D4800F06CFE0028AF
:10163000F9D13FE003E09DF8000000F045FA69466B
:10164000284800F060FE0028F5D133E003E09DF863
:10165000000000F053FC6946234800F054FE0028C7
:10166000F5D127E0FFF79CFE24E0204802F04CF87B
:101670001F49088005E01E480088A0F561601C49EC
:1016800008801B480088B0F5616FF4DA12E0174853
:101690000838007C022806D11448093002F02CF8E2
:1016A00000B21449088005E010480838007E01287F
:1016B00000D100BF00BF104850F824000749096856
:1016C000084006490860601CC4B2062C9ADD034835
:1016D0000068002892D138BD9C6900085C19002080
:1016E000481F0020581F0020781F0020B020002035
:1016F0006C1900206A1900201C6A000810B500202F
:10170000064908600649087007210648FFF71AFCD9
:10171000FFF734FFFFF7D4FE10BD00005C19002076
:101720003B1800206E19002070B5CC4800780028C6
:1017300058D0CB48006803F0B1F8002852D1C9480E
:10174000007855282AD1C7484078EE2826D1C548C8
:101750008078022822D1C348C3490978405CBB285D
:101760001CD1C1480078032832DBBE48C478A51DCF
:10177000BD480078401CA8420FDB00F05BFC18B1AC
:101780000120BA49087005E0B9A002F04FFD002021
:10179000B64908700020B149087019E0B1480078D6
:1017A00055280DD1AF484078EE2809D1AD48807A50
:1017B000BB2805D101F078F80020A849087007E09F
:1017C000FFF712F8A948007810B90020A349087063
:1017D000A648007830B9A34880780A2802D00020B3
:1017E0009E490870A1480078002873D09D48407831
:1017F000EE2870D19B48807807286DD007DC072839
:101800006BD2DFE800F06A142D304D6B8F0010288A
:1018100071D004DC08286FD009285ED1D7E01128E8
:101820006BD0A028F9D101209C4908700DE101205E
:101830009A49C8738B48C078012801D148700EE0DE
:101840008848C078022803D101209449887006E0B6
:101850008448C078032802D101209049C870F4E080
:1018600001F046F9F1E07F48C07810B101208B49C2
:1018700088730120894948717A48C078884908707E
:101880007848007948707748407988707548807941
:10189000C8707448C07908717248007A4871D4E001
:1018A00001207E4988716F48C0787E4908706D4874
:1018B000007948706B48407988706A488079C870B0
:1018C0006848C07908716748007A48716548407A6D
:1018D0008871BAE0C0E0BCE03EE0B5E001206F49AD
:1018E000C8716048C078012808D16F4908788A68B3
:1018F0000221904715E084E048E09CE05948C07818
:10190000022805D1684948788A680221904708E092
:101910005448C078032804D1634988788A68022132
:10192000904792E001205D4908724E48C0785F49B7
:1019300008704C48007948704A4840798870494896
:101940008079C8704748C07908714648007A487164
:101950004448407A887178E00120504948724148F3
:10196000C078534908703F48007948703D48407935
:1019700088703C488079C8703A48C0790871394805
:10198000007A48713748407A88715EE00120434907
:1019900088723448C07801280AD132480079454914
:1019A00008703048407948702E48807988700DE082
:1019B0002C48C078022809D12A48C0793D49C8700E
:1019C0002848007A08712748407A48713DE0012094
:1019D0003249C8722348C0783749087021480079D5
:1019E00048702048407988701E488079C8701D482A
:1019F000C07908711B48007A48711A48407A88718A
:101A000023E00120254908731648C0782B49087047
:101A100014480079487013484079887011488079DB
:101A2000C8701048C07908710E48007A48710D4896
:101A3000407A887109E00120184948730948C17843
:101A40001FA002F0F3FB00E000BF00BF002003492D
:101A5000087000200549087070BD0000B11A002010
:101A6000B81A00207C210020B01A0020680600204F
:101A70004572726F723A20436865636B5F5661729C
:101A80006961626C654C656E5F5061636B65742063
:101A90006661696C65640D0A00000000B8040020EE
:101AA000CC040020D2040020180A0020D904002011
:101AB000E0040020E7040020EE040020F5040020EC
:101AC000253032782000000010B504460F48007819
:101AD00070B902F0DDFE0A300D49086000200D49A2
:101AE00008700D48097844540120084908700BE03B
:101AF00008480078C82807DA06480078401CC0B2B9
:101B00000449087004490C5410BD0000B11A0020AB
:101B1000B81A0020B01A00207C21002010B5EB4834
:101B2000007800287AD0EA48006802F0B7FE002862
:101B300074D1E848407803280AD1E6488078012823
:101B400006D1E4480079052802D10120E249487213
:101B5000E0484078E1490978884205D0DD4840787E
:101B6000DE494978884211D1DA488078032819D1B2
:101B7000D848C078012815D1D6484078D749097887
:101B8000884204D1D3480079D34908727AE0D14819
:101B90004078D2494978884274D1CE480079CE49FC
:101BA000C8716FE0CB48807803286BD1C948C078F2
:101BB000022867D1C7484078C849097888422ED1A1
:101BC000C4480079012806D1C2484079012802D1D1
:101BD000C149887156E0BF480079022806D1BD4846
:101BE0004079022802D1BC4988714BE0B94800799C
:101BF000012807D1B7484079022803D10320B6490C
:101C000088713FE0B348007902283BD1B148407960
:101C1000012837D10420B049887133E054E1AD4840
:101C20004078AE49497888422CD1AA4800790128E9
:101C300006D1A8484079012802D1A749487121E07E
:101C4000A4480079022806D1A2484079022802D18E
:101C5000A149487116E09F480079012807D19D48A5
:101C60004079022803D103209B4948710AE0994832
:101C70000079022806D197484079012802D1042032
:101C80009549487193484078102825D1914880782B
:101C9000102801D1012000E000208E49C9780129D7
:101CA00000D100E00021884216D18A48007931280D
:101CB00003D10120884908710EE086480079322856
:101CC00003D102208449087106E082480079332854
:101CD00002D10320804908717E4840780C2814D135
:101CE0007C488078012810D17A48C07801280CD12E
:101CF00078480079062808D17648407928B978488C
:101D00000079012801D174498870724840780E2802
:101D100003D0704840780F283CD16E4840780E2898
:101D20001AD16C488078012834D16A48C0780128DB
:101D300030D16848407928BB66480079072803D12C
:101D400001206549087025E062480079082821D102
:101D50000020614908701DE05E4840780F2819D1C5
:101D60005C488078012815D15A48C078012811D1E3
:101D70005848407930B957480079072803D10120E5
:101D80005549487006E053480079082802D10020E0
:101D9000514948704F484078062835D14D488078E1
:101DA00002280FD14B48C0784E4948714948017903
:101DB0004C488171474841794A48C17101204649E0
:101DC000C87021E04348807803280FD14148C0788B
:101DD000444988703F4801794248C1703D48417983
:101DE0004048017102203C49C8700DE039488078B4
:101DF000042809D13748C0783A4908703548007935
:101E0000487003203449C87032484078072807D109
:101E100030488078012803D12E48C07832490870B4
:101E20002C48407802284CD12A488078A02812D12A
:101E30002848C078012806D1274988722B48816834
:101E40002B4888473DE02348C078022839D101203B
:101E50002649087035E01F488078A12803D11D4825
:101E6000C078A2282DD01B488078A22803D1194819
:101E7000C078A32825D017488078A3280DD115480D
:101E8000C0781C490870134800794870114840799F
:101E9000887010488079C87013E00E488078A428B4
:101EA00007D10C48C078134908710A480079487175
:101EB00007E008488078012803D10648C0780E4919
:101EC000087000200149087010BD0000B31A0020FE
:101ED000BC1A002044220020C41D0020900C0020C9
:101EE000E4080020C80D0020240F002090110020DD
:101EF000BF110020B0110020B611002010B504461B
:101F00000F48007870B902F0C3FC0A300D49086030
:101F100000200D4908700D480978445401200849F3
:101F200008700BE008480078C82807DA06480078EF
:101F3000401CC0B20449087004490C5410BD000094
:101F4000B31A0020BC1A0020B21A0020442200203C
:101F50007FB505460C460121202000F035FE029594
:101F6000ADF804400020ADF80600ADF80C008DF887
:101F70000E0001A90D4801F0C7F937208DF80000C7
:101F800000208DF8010001208DF802008DF803007B
:101F9000684600F043FC01221146044801F0A4F910
:101FA0000121024801F083F97FBD000000140040C8
:101FB00010B5FFF71FFBFFF7FDF910BD1CB50121A0
:101FC0004FF4C07000F0F0FDF020009000208DF87C
:101FD000040001208DF807006946144800F0D3F989
:101FE0004FF47040009001208DF8040000208DF81F
:101FF000060001208DF8070003208DF805006946D2
:102000000B4800F0C0F92020009001208DF804005A
:1020100000208DF8060001208DF8070003208DF8C0
:1020200005006946024800F0AEF91CBD00200240E0
:10203000001C024070B500231B480078042801DA18
:10204000002070BD1948C17809B90020F9E7C229FC
:1020500001DD0020F5E78C1D13480078401CA042EC
:1020600001DA0020EDE7481D104D285CBB2801D0A7
:102070000020E6E70D488078CDB24319002206E043
:10208000101D0A4D285C184483B2501CC2B28A420B
:10209000F6DBDDB2081D054E305C854201D0002024
:1020A000CFE70120CDE70000B01A00207C210020FE
:1020B00070B505460C46002D06DB642D00DD642559
:1020C000052D0BDA052509E015F1640F01DA6FF033
:1020D000630515F1050F01DD6FF00405002C06DB2B
:1020E000642C00DD6424052C0BDA052409E014F1CE
:1020F000640F01DA6FF0630414F1050F01DD6FF076
:1021000004042146284600F0B1FE70BD10B5102031
:1021100000F03CF8012825D11021134800F09EF969
:10212000E8B90021114801F0C2F8114890ED000A09
:10213000B8EE400A0F4880ED000AD0ED000A9FED8E
:102140000E1AB3EE040A10EE810A80ED000A90ED3B
:10215000000ABCEEC00A10EE100A084908801020E0
:1021600000F00EF810BD0000000402400010004016
:102170000412002000120020F628DC3F0812002084
:102180000149086070470000143C014001460020EE
:10219000034A12680A400AB1012000E0002070479B
:1021A000143C0140002123498279002A3AD00A4692
:1021B000126803689A430B461A600A1D1268036886
:1021C0009A430B1D1A60027911440A6803681A4386
:1021D0000A60184A0832126803689A43154B08339C
:1021E0001A601A1D126803689A43124B0C331A6066
:1021F0004279102A0ED11A1F126803681A430D4B38
:1022000008331A601A1D126803681A43094B0C330D
:102210001A600DE00749427911440A6803681A43BD
:102220000A6005E0027911440A6803689A430A606B
:1022300070470000003C014010B500F065FBFEF760
:10224000F3F910BDF0B507460C461646002564B1FB
:1022500006E06119384600F056F800B904E06D1C3C
:10226000301EA6F10106F4D100BF2846F0BDF0B53E
:1022700007460D461646002406E0295D384600F064
:102280006CF800B904E0641C301EA6F10106F4D11C
:1022900000BF2046F0BD30B504460025204600F0C2
:1022A0004AF870B1D4E90001401E814203D1A06810
:1022B00038B1012505E0D4E90101401C814200D07C
:1022C0000125284630BD30B504460025204600F0E3
:1022D00032F820B1D4E90110884200D00125284607
:1022E00030BD70B504460D4664B12068012809D997
:1022F0000020A0602068401E60602A462168E068D7
:10230000FDF770FF70BD70B504460D46002685B11F
:102310002046FFF7C0FF60B16068401C6060216824
:10232000884201D3002060606168E068405C2870EA
:102330000126304670BD0146002069B10A68012AB5
:102340000AD9CA6842B10B688A689A4204D2D1E9B4
:1023500000329A4200D20120704770B504460D4603
:1023600000262046FFF7AFFF58B1A168481CA060C7
:10237000E06845542168A068884201D30020A0602D
:102380000126304670BDF0B50A4600210023002426
:1023900000BF3DE0012505FA01F3156805EA0304D5
:1023A0009C4234D105684F000326BE40B54305600A
:1023B00015794E00B5400668354305601579012D45
:1023C00002D01579022D16D185684F000326BE4034
:1023D000B543856055794E00B540866835438560C4
:1023E000456801268E40B5434560456896798E4024
:1023F000B6B235434560C5684F000326BE40B543BD
:10240000C560D5794E00B540C6683543C560491CE6
:102410001029BFD3F0BDF0B5002300244D07ED0E09
:1024200002FA05F3CE1000F1200555F826504E07AC
:10243000F70E0F26BE40B543CF1000F1200646F838
:102440002750CE1000F1200555F8265045EA030428
:10245000CE1000F1200545F82640F0BD02460020D0
:1024600013690B400BB1012000E00020704741834D
:1024700070470183704742694A40426170470000DB
:1024800010B502210848FEF7A9F80748FEF7A6F99B
:1024900000BF02210448FEF711F90028F9D00248D4
:1024A000FEF708F910BD00000020014070B5044699
:1024B0000025002607E0FFF7E3FF0544052002F0B2
:1024C0003DF9701CC6B2A642F5DBB5FBF4F080B254
:1024D00070BD00000146002021B107290AD008295B
:1024E0000ED10AE0074A5278064B1B7802EB032212
:1024F00090B205E0034A507802E0024A107800BF2B
:1025000000BF70476819002000B589B00121212063
:1025100000F04AFB09220B214248FFF77CFF092209
:102520000C214048FFF777FF4FF4C050079002207E
:102530008DF820008DF8210000208DF82200012068
:102540008DF8230007A93748FFF71DFF4FF480607F
:10255000079001208DF8200002208DF82100002036
:102560008DF8220001208DF8230007A92E48FFF7DF
:102570000AFF002000F05EF80121480600F024FB6D
:102580002A48FEF741FA00208DF8160001208DF848
:10259000170000208DF8180001208DF81900002088
:1025A0008DF81A0001208DF81B0000208DF8120014
:1025B0008DF8130001208DF8140002208DF815000D
:1025C0000720ADF8100004A91848FEF7C6FA00204D
:1025D0008DF80A008DF80B0001208DF80C0000200A
:1025E000ADF80000ADF80200ADF80400ADF806004B
:1025F000ADF8080001208DF80D006846FEF720FABE
:1026000012200B49086048600020487208720120BF
:102610008872002202210548FEF796FAFFF76EF84D
:1026200009B000BD000002400014024000640040F8
:102630005421002010B504462CB94FF480610548A0
:10264000FFF715FF04E04FF480610248FFF711FF28
:1026500010BD00000014024010B5FFF7A9FC10BD2A
:1026600010B504462CB14FF480710548FFF701FF07
:1026700004E04FF480710248FFF7F9FE10BD00003E
:10268000002002401CB50020009001904FF4A06093
:1026900000F000F9A82002F033F800F091FE00F0FD
:1026A00039F8FFF78BFC01F0AEFBFFF72DFFFEF7CB
:1026B000F9F8FEF7A5F9FFF7BFFD01F033FA532152
:1026C0000720FFF745FCA72140F2E73002F03CF974
:1026D000A72140F2E73000F0ABFE0A498868804746
:1026E0000849C868804701F0CDFB0821684600F022
:1026F00031F80821684600F0EFFB0821684600F039
:10270000DFFB1CBD68030020014A10705170704748
:10271000681900201CB50121202000F045FA4FF473
:102720000060009001208DF8040000208DF8060064
:1027300001208DF8070003208DF805006946034845
:10274000FFF721FE0120024908601CBD0014024071
:10275000AC8242422DE9F0410746884600202949D3
:102760000860092001F0EAFF01202749C1F8AC0206
:10277000042001F0E3FF4FF4FA7002F009F80020A2
:102780002049086000242EE0002528E0385D28411B
:1027900000F0010676B900201A4908604FF40C7069
:1027A00001F0F6FF01201849C1F8AC024FF40C709B
:1027B00001F0EEFF012E10D10020124908604FF405
:1027C0000C7001F0E5FF01200F49C1F8AC0201F0E7
:1027D000B5FF40F2B22001F0DBFF681CC5B2082D46
:1027E000D4DB601CC4B24445CEDB00200549086040
:1027F0004FF40C7001F0CCFF01200349C1F8AC028A
:10280000BDE8F081AC8242420080424202468A42E8
:1028100001D9501A7047881AFCE7000070B50021F2
:1028200000230F22C4781CB3174C246804F4E0641E
:10283000C4F5E064C4F30721C1F10404E3B20A4122
:1028400044789C40E1B28478144021430C07210E67
:102850000E4C05786155047804F01F050124AC4046
:1028600005786D11AD0005F1E025C5F8004109E0DE
:10287000047804F01F050124AC40054D067876115C
:1028800045F8264070BD00000CED00E000E400E0DB
:1028900080E100E002490143024A116070470000F4
:1028A0000000FA050CED00E014498978134AD2784B
:1028B0001144124A12791144104A527911440F4AB4
:1028C000927911440D4AD27911440C4A127A88182F
:1028D000C11700EB11610912A0EB0121084A118018
:1028E0000648407A11460988884203D101200549EB
:1028F000087002E000200349087070477C21002026
:102900006C0600206806002010B52DED048BB0EE9B
:10291000080A164880ED000A90ED000ADFED140A5F
:1029200020EE200A80ED000A9FED120A124880ED89
:10293000000A90ED000ADFED0E0A20EE200A10EEEC
:10294000101A0846FDF7F6FC41EC190B9FED0B0B36
:1029500053EC102BFDF77FFC41EC180BFDF7FDFC51
:1029600005490860BDEC048B10BD00003413002045
:102970000000C84200CC0D413013002000000000D0
:102980000070A74010B50320FFF790FD5149088063
:102990000846008800F042FB4E4908804E480188F6
:1029A0004C480088FFF732FF4C4908704A480088BD
:1029B000F0BB4B48D0ED000A4648008800EE100AF4
:1029C000B8EE400A20EE800ABCEEC00A10EE100AF3
:1029D000404908800846008800EE100AB8EE400A18
:1029E0004048D0ED000AB4EEE00AF1EE10FA03D24E
:1029F00000203D49087016E03648008800EE100AB5
:102A0000B8EE400A3748D0ED000A30EE600ABCEE5E
:102A1000C00A10EE100A344908700846007864288D
:102A200001DD64200870304800783049087000E00B
:102A300004E008460178012000F0F4F925480088F8
:102A400025490880254800780A2842DD2448D0ED31
:102A5000000A2048008800EE100AB8EE400A20EE76
:102A6000800ABCEEC00A10EE100A1A490880084617
:102A7000008800EE100AB8EE400A1A48D0ED000AAD
:102A8000B4EEE00AF1EE10FA03D200201649087005
:102A900016E01048008800EE100AB8EE400A11480F
:102AA000D0ED000A30EE600ABCEEC00A10EE100A4B
:102AB0000D49087008460078642801DD642008701C
:102AC000094800780949087008460178012000F09B
:102AD000A9F910BD3A1300203C1300203E1300203A
:102AE0003013002034130020381300202C13002052
:102AF00070B51F480178491C1EA001F097FB214DBD
:102B0000681FC078401EC6B2002410E0295D1EA0D8
:102B100001F08CFB285D1E49097801EBC10202EB34
:102B200001111C4A02EBC1010855601CC4B2B44239
:102B3000ECDB00201649097801EBC10202EB011120
:102B4000144A02EBC101085513A001F06FFB1048B5
:102B50000078401C0E49087008460078022805DB02
:102B60000EA001F063FB01200E49087170BD00004A
:102B7000B01A0020416E64726F69642052783A5B2B
:102B800025645D008121002025303278200000007E
:102B9000690600209E1B00200D0A00006262622070
:102BA00020000000B804002029B1064A1268024340
:102BB000044B1A6004E0034A12688243014B1A6016
:102BC000704700003038024029B1064A12680243BB
:102BD000044B1A6004E0034A12688243014B1A60F6
:102BE000704700004038024029B1064A126802438B
:102BF000044B1A6004E0034A12688243014B1A60D6
:102C0000704700002038024029B1064A126802438A
:102C1000044B1A6004E0034A12688243014B1A60B5
:102C2000704700004438024029B1064A1268024346
:102C3000044B1A6004E0034A12688243014B1A6095
:102C40007047000024380240F0B500210022002423
:102C5000022500260223324F3F6807F00C0121B104
:102C6000042905D0082937D105E02E4F076036E04A
:102C70002D4F076033E02A4F3F1F3F68C7F3805650
:102C8000274F3F1F3F6807F03F036EB1264FB7FB4A
:102C9000F3F7DFF88CC0ACF1040CDCF800C0CCF327
:102CA000881C07FB0CF40CE01E4FB7FBF3F7DFF8B2
:102CB00070C0ACF1040CDCF800C0CCF3881C07FB3E
:102CC0000CF4174F3F1F3F68C7F301477F1C7D007F
:102CD000B4FBF5F7076002E0124F076000BF00BFCA
:102CE0000F4F3F6807F0F0010909104F7A5C076841
:102CF000D74047600A4F3F6807F4E051890A0B4FFD
:102D00007A5C4768D7408760054F3F6807F46041A9
:102D1000490B064F7A5C4768D740C760F0BD00009A
:102D2000083802400024F40040787D01E0160020BD
:102D300006480078012805D105480088401C044950
:102D4000088002E000200249088070473A180020FD
:102D50003818002010B500F09BFB10BD10B5002006
:102D6000084908700849087008490870084908703F
:102D700008490870084908700021084600F076F8F4
:102D800010BD00000C1800200D1800200F180020A6
:102D90001018002011180020121800201CB58020E7
:102DA000009000208DF8040001208DF8070069468E
:102DB0000148FFF7E8FA1CBD000402401CB5802062
:102DC000009001208DF8040000208DF806000320FB
:102DD0008DF8050069460248FFF7D5FA1CBD0000D2
:102DE0000004024030B500228B071C0F0F2303FAAA
:102DF00004F20B4B8C1053F824309343084C8D1085
:102E000044F8253023468C1053F824308C07240FC7
:102E100000FA04F42343024C8D1044F8253030BDF1
:102E2000083801407CB505460C4603208DF80400A7
:102E300001208DF805008DF8064000204FF4F07356
:102E4000032201A900901046FEF76EFB7CBD000036
:102E500070B504460D462A4621460348FFF707FA97
:102E6000642001F06BFC70BD481F00207CB5044657
:102E70000D46E0B28DF80400E0B28DF80500E8B22E
:102E80008DF80600E8B28DF80700FEF71BFA78B15E
:102E90000020034620220421009001A8FEF7D8F963
:102EA00000202023024601A90090FEF73DFB06E02A
:102EB00000202023042201A90090FEF735FB7CBDF1
:102EC00070B504460D462A4621460248FFF7CFF961
:102ED00070BD0000681F002070B504460D462A46EC
:102EE00021460248FFF7C3F970BD0000881F00208B
:102EF0000CB50020019000903448006840F4803008
:102F00003249086000BF3148006800F4003000908A
:102F10000198401C0190009818B90198B0F5A04F95
:102F2000F1D12A48006800F4003010B1012000906F
:102F300001E0002000900098012846D1234840304D
:102F4000006840F080502149403108602048006806
:102F500040F440401E4908601C48083000681B4986
:102F6000083108600846006840F4004008600846E0
:102F7000006840F4A05008601648091F0860081F48
:102F8000006840F08070091F086000BF0F480068AB
:102F900000F000700028F9D040F205700E4908607A
:102FA0000A480830006820F003000849083108602A
:102FB0000846006840F00200086000BF034808307F
:102FC000006800F00C000828F8D10CBD0038024061
:102FD0000070004019544007003C024010B5044600
:102FE000FDF7DAFC4620FDF7ABFC2046FDF7A8FC18
:102FF000FDF7EEFC10BD000010B5002408E006212E
:103000000548FFF7A7FB642001F098FB601CC4B2E1
:10301000032CF4DB10BD0000300F002010B5024679
:1030200000230B48828200210BE0094C481C34F835
:10303000100024F81100204630F81100184483B223
:10304000491C0A29F1DB0A2093FBF0F080B210BD85
:10305000E01E0020042808D14FF0E021096941F06A
:1030600004014FF0E022116107E04FF0E02109690F
:1030700021F004014FF0E0221161704710B51548AE
:10308000006840F47000134908601348006840F07D
:1030900001001149086000200F49083108600E48FE
:1030A00000680E4908400C4908600D48091D086079
:1030B000081F006820F48020091F086000200649CE
:1030C0000C310860FFF714FF4FF0006001498039B0
:1030D000086010BD88ED00E000380240FFFFF6FEFA
:1030E0001030002410B50121054800F0ECF801284B
:1030F00001D1FFF72FFE0121014800F0D5F810BDE6
:103100000040014010B50121084800F0DCF801281A
:1031100004D107480068401C05490860FFF708FE15
:103120000121024800F0C0F810BD00000044014039
:10313000D816002010B50121880700F0C4F8012836
:1031400048D127480078401C254908702548007858
:10315000401C2449087024480078401C224908700B
:1031600008460078322804DB002008701F49886870
:1031700080471B4800780A2805DB002018490870A2
:103180001B494868804717480078FA2822DB00204E
:10319000144908701748006808B9012000E00020B1
:1031A000144908601448007850B14FF48061134806
:1031B000FFF761F94FF400611048FFF75CF909E08F
:1031C0004FF480610D48FFF754F94FF400610B484C
:1031D000FFF74FF90121880700F066F810BD0000E5
:1031E000990300209A0300209B0300205C1000201C
:1031F00068030020BC82434296030020001C02406A
:1032000010B50121124800F05EF801281BD11148C9
:103210000078401C0F4908700F480078401C0E4988
:1032200008700C480078022804DB00200949087067
:10323000FEF774FC08480078032804DB00200649E8
:103240000870FEF771FA0121014800F02DF810BD59
:1032500000040040970300209803002010B50121CE
:10326000074800F030F8012804D106480068401CE7
:10327000044908600121024800F016F810BD000062
:10328000001000400412002010B50121054800F094
:103290001AF8012801D1FFF7DFF90121014800F0F8
:1032A00003F810BD00140040CA430282704721B1E8
:1032B000028842F00102028004E002884FF6FE73A9
:1032C0001A400280704730B50246002000230024D7
:1032D000158A05EA0103958905EA010413B10CB1C9
:1032E000012000E0002030BD1AB183890B438381A7
:1032F00002E083898B438381704701894FF6F8721E
:10330000114001817047000000220288184B98424A
:103310000ED0184B98420BD0B0F1804F08D0164B0E
:10332000984205D0154B984202D0154B984204D1D3
:103330004FF68F731A404B881A43124B984207D0AE
:10334000114B984204D04FF6FF431A400B891A43A1
:1033500002804B68C3620B880385054B984202D0FC
:10336000044B984201D18B7A0386012383827047F4
:10337000000001400004014000040040000800403B
:10338000000C004000100040001400401CB501215A
:103390000420FFF709FC4FF40050009001208DF845
:1033A00004008DF8070069460448FEF7ECFF4FF46F
:1033B00000510248FFF75DF81CBD00000008024004
:1033C00010B500F005F8FFF7E1FF00F017F810BDA9
:1033D0001CB501214020FFF7E7FB4FF480700090FF
:1033E00000208DF8040001208DF80700694602488E
:1033F000FEF7C9FF1CBD0000000002401CB5012102
:103400008020FFF7D1FB4FF44060009001208DF841
:1034100004008DF8070069460448FEF7B4FF4FF436
:1034200040610248FFF725F81CBD0000001C024067
:103430007FB505460C4601214804FFF7E5FB0295E0
:10344000ADF804400020ADF80600ADF80C008DF892
:103450000E0001A90D48FFF757FF19208DF8000055
:1034600000208DF801008DF8020001208DF8030086
:103470006846FFF7D3F9012211460448FFF734FFED
:1034800001210248FFF713FF7FBD00000044014007
:1034900010B50B480078012806D10820FFF71AF86C
:1034A000C4B2204600F010F80648807B38B10820EE
:1034B000FFF710F8C4B20348416B2046884710BD9F
:1034C000111800208C0700203EB5044669462046AE
:1034D00001F003FA684601F0EEF998B100207D4949
:1034E000087001207C49087000210846FFF7BEFCE7
:1034F0007A4800887A49088000207849088079490C
:103500000870B6E0E72C08D1774800687749086072
:103510007548006876490860ABE0F72C01D0F32CC1
:103520000AD1714800681430704908606E4800681C
:1035300028386F4908609CE0FB2C01D0F92C0AD197
:1035400069480068283069490860674800683C3865
:10355000674908608DE0FD2C01D0FC2C0AD162483F
:1035600000683C30614908605F4800685A3860492B
:1035700008607EE0FE2C0AD15B48006850305B4951
:1035800008605948006878385949086071E0EF2CA4
:1035900001D0CF2C0AD15448006814305449086037
:1035A0005148006828385149086062E0DF2C01D09A
:1035B0009F2C0AD14C48006828304D4908604A4881
:1035C00000683C384949086053E0BF2C01D03F2CCB
:1035D0000AD1454800683C304549086042480068C7
:1035E0005A384249086044E07F2C0AD13E480068BE
:1035F00050303F4908603C48006878383B490860D3
:1036000037E004F01800182805D104F08000A0B1BC
:1036100004F0010088B1F82C0FD01F2C0DD0F02C35
:103620000BD00F2C09D0072C07D0C02C05D0032CB1
:1036300003D0802C01D0012C13D100202549087023
:1036400001202549087000210846FFF70FFC234898
:1036500000882349088000202049088021490870FB
:1036600007E021480068214908601F480068204998
:103670000860FF2C20D11C4800681C4908601A48CB
:1036800000681B4908601B480088B0F5966F0DDD87
:1036900000201849088000210846FFF7E7FB0020BA
:1036A0000C49087004200C49087008E01148008893
:1036B000401C1049088002E000200E49088005489F
:1036C000007828B10A48016808480068FEF7F0FC55
:1036D0003EBD0000111800201218002038180020EC
:1036E0002C1800203A18002020180020181800205C
:1036F0001C18002014180020024600215178107870
:1037000040EA0121084670470246002111785078AE
:1037100040EA01210846704710B5024800F0D0FA8F
:1037200010BD0000B41E002010B51248007800BB88
:1037300040F22551104800F031F9012819D10E4806
:1037400000F0E6F90D490E4A127888540C480078CA
:10375000401C0B49087008460078022804DB002052
:10376000087001200349087040F22551024800F01A
:10377000EDF810BD26130020001001402813002092
:103780002713002010B540F22551054800F006F936
:10379000012804D140F22551014800F0D7F810BDAE
:1037A0000044004000B587B001210420FFF7FCF978
:1037B00001212020FFF728FA082206212348FEF7DE
:1037C0002AFE082207212148FEF725FEC020059089
:1037D00002208DF8180000208DF81A0003208DF8C3
:1037E000190001208DF81B0005A91848FEF7CBFD34
:1037F0004FF4E13001900020ADF810000C20ADF83E
:103800000E000020ADF80C00ADF80A00ADF808007D
:1038100001A90F4800F012F9012240F225510C488D
:1038200000F0E6F847208DF8000000208DF8010038
:103830008DF8020001208DF803006846FEF7EEFFC8
:103840000121034800F091F807B000BD00080240D4
:103850000014014010B540F22551284800F09EF8B0
:10386000002845D0254800F053F92549087025481F
:10387000007878B908460078552839D101202149C7
:1038800008701F4800782049087000204870887030
:10389000C8702DE01B480078012807D10220194983
:1038A0000870174800781849487021E015480078DA
:1038B000022807D1032013490870114800781249E3
:1038C000887015E00F48007803280AD100200D49C0
:1038D00008700B4800780C49C87001200B4908702B
:1038E00006E000200749087008490870064908707A
:1038F00040F22551014800F029F810BD00140140A4
:1039000098150020991500209A150020A215002076
:1039100010B504462146054800F0FFF800BF80219D
:10392000024800F02EF80028F9D010BD0014014024
:1039300070B505460E46002400BF04E0285DFFF781
:10394000E7FF601CC4B2B442F8DB70BD10B50022C2
:10395000002340F66A14A14200D100BF0A120124DC
:103960009440A3B2DC43048010BD21B1828942F4AB
:103970000052828104E082894DF6FF731A408281F1
:10398000704702460020B1F5007F00D100BF1388C8
:103990000B400BB1012000E00020704770B50246DB
:1039A000002400230025002040F66A16B14200D111
:1039B00000BFC1F3421501F01F03012606FA03F30D
:1039C000012D02D19689334006E0022D02D1168ADC
:1039D000334001E0968A33400C12012606FA04F4C3
:1039E0001688344013B10CB1012000E0002070BDF6
:1039F000F0B50346002400260025002040F66A1793
:103A0000B94200D100BF1846C1F3421401F01F06AD
:103A1000012707FA06F5012C01D10C3004E0022C35
:103A200001D1103000E014301AB107682F4307604D
:103A300002E00768AF430760F0BD00002DE9FF47D3
:103A400005460E460024A14600BFA046B08900B13D
:103A500000BF2C8A24F44054F08804432C82AC89A3
:103A600041F20C608443B08831890843718908436E
:103A70000443AC81AC8A24F44074B0890443AC8222
:103A80006846FFF7E1F82048854202D01F4885428A
:103A900002D1DDF80C9001E0DDF80890A88900F46F
:103AA000004040B109EBC90000EB09103168490042
:103AB000B0FBF1F707E009EBC90000EB0910316832
:103AC0008900B0FBF1F76420B7FBF0F00401200996
:103AD000642101FB1078A88900F4004040B1322035
:103AE00000EBC800B0FBF1F000F00700044308E071
:103AF000322000EB08106421B0FBF1F000F00F0061
:103B000004432C81BDE8FF870010014000140140F0
:103B100001468888C0F308007047C1F3080282801C
:103B20007047000010B512481249C1F8B0003221A8
:103B30001048C0F8B4100021C0F8B810C0F8BC108C
:103B4000C0F8C0100C49C0F8C4100221C0F8C81059
:103B50000021C0F8CC10C0F8D010C0F8D410042157
:103B600080F8D81000200549087000F009F810BD51
:103B7000CF1D0020041E00205C1400205B140020D8
:103B800000B587B0012140F20910FFF70DF80121BF
:103B90004FF42020FFF718F8082200214148FEF7D3
:103BA0003AFC072206214048FEF735FC00208DF83C
:103BB0001A0001208DF81B0002208DF8180001204A
:103BC000059002208DF8190005A93648FEF7DBFBA9
:103BD00002208DF818004020059005A93248FEF714
:103BE000D2FB00208DF81A0001208DF81B008DF803
:103BF00018000002059002208DF8190005A92B4835
:103C0000FEF7C1FB0020FEF72BFD4FF4165001908C
:103C10000020ADF80800ADF80A00ADF80C00ADF8D2
:103C200010000820ADF80E0001A92148FFF706FF9B
:103C300001211F48FFF799FE34208DF80000022073
:103C40008DF8010001208DF802008DF80300684610
:103C5000FEF7E4FD4FF4165001900420ADF80E007D
:103C600001A91448FFF7EAFE26208DF80000022083
:103C70008DF801008DF8020001208DF803006846E0
:103C8000FEF7CCFD012240F225510A48FFF7B0FEB5
:103C900001210848FFF769FE07A000F0C7FA07B046
:103CA00000BD000000000240000C02400020024065
:103CB000004C004000440040746573740000000034
:103CC00010B5044694F82810374A52F8210040F203
:103CD0002771FFF763FE18B3E068401CE060D4E989
:103CE0000210884209D2E1682068405C94F82810EC
:103CF0002D4A52F82110888009E094F828102A4AA9
:103D000052F82100002240F22771FFF771FE94F86B
:103D10002810254A52F8210040F22771FFF716FEBD
:103D200094F82810204A52F8210040F22551FFF75C
:103D300035FE30B300F0ACFD606294F828001A49FB
:103D400051F8200080881949087094F82810164A04
:103D500052F8210040F22551FFF7F8FDD4E9061092
:103D6000884207D211480178E269501CE06160691D
:103D7000815406E00E49206A884202D2206A401C23
:103D8000206294F82810084A52F821000821FFF711
:103D9000F8FD38B194F82800034951F820008088D4
:103DA0000449087010BD0000801500207C1500201B
:103DB000F0FFFF7F7D1500200EB501218803FEF77F
:103DC00023FF04210120FFF70DF8102001900020AF
:103DD0008DF808000C208DF8090001208DF80A00EC
:103DE00001A8FEF7DFF90A208DF8000001208DF808
:103DF000010000208DF8020001208DF803006846C4
:103E0000FEF70CFD0EBD10B500F008F85321092097
:103E100000F064F8FFF7D0FF10BD00001CB50121D1
:103E20000320FEF7C1FE00220E211448FEF7F3FA2C
:103E300000220D211148FEF7EEFA4FF400400090E9
:103E400001208DF8040000208DF8060001208DF877
:103E5000070003208DF8050069460848FEF793FA2D
:103E60001020009000208DF8040001208DF807003C
:103E700069460348FEF787FA1CBD000000000240B7
:103E80000004024010B5012010490860032000F032
:103E90007FFC00200E49C1F8BC0201210D48FFF74C
:103EA00006FA01210B48FFF7FFF900200A490860D4
:103EB0001E2000F043FC012004490860052000F0AA
:103EC0003DFC00210348FFF7F2F910BDBC0240425F
:103ED0000000404200100040041200207FB505465B
:103EE0000C4601211020FEF76FFE0295ADF804404C
:103EF0000020ADF8060001A90C48FFF705FA3620AE
:103F00008DF8000001208DF801008DF802008DF879
:103F100003006846FEF782FC012211460348FFF7C2
:103F2000E3F900210148FFF7C2F97FBD001000400E
:103F30002DE9FC41074600200090019000241E4816
:103F40000168009140680190A1208DF802001B4893
:103F500000788DF80300194840788DF80400174860
:103F600080788DF805009DF805309DF804209DF8B7
:103F700003109DF80200DFF848C0DCF80060B0478D
:103F800005468DF806500CE00E4881686846884763
:103F9000601CC4B24FF4967000F0D0FB052C00DB1F
:103FA00003E00848C0780028EED000BF0020054993
:103FB000C870BDE8FC810000D7110020CC040020AF
:103FC00068030020901100202DE9FC4107460020E5
:103FD0000090019000241E48016800914068019003
:103FE000A2208DF802001B48C0788DF80300194804
:103FF00000798DF80400174840798DF805009DF888
:1040000005309DF804209DF803109DF80200DFF8AC
:1040100048C0DCF80060B04705468DF806500CE05B
:104020000E48816868468847601CC4B24FF4967099
:1040300000F084FB052C00DB03E00848C078002872
:10404000EED000BF00200549C870BDE8FC8100002B
:10405000DF110020CC040020680300209011002014
:104060002DE9F04188B0064620216846FCF7C1F8EA
:10407000002755208DF8000002208DF80100304601
:10408000FCF7D4F80446142C00D9142422463146F7
:104090000DF10200FCF794F89DF805309DF804201E
:1040A0009DF803109DF80200DFF84880D8F800C0A2
:1040B000E0470546A01C0DF80050BB21E01C0DF8A0
:1040C00000100CE00C48816868468847781CC7B22D
:1040D0004FF4967000F032FB052F00DB03E006483A
:1040E00000790028EED000BF00200349087108B015
:1040F000BDE8F08168030020901100202DE9FC410B
:10410000002000900190002415480168009140684B
:1041100001909DF805309DF804209DF803109DF84E
:104120000200104F3E68B04705468DF806500CE07F
:104130000D48816868468847601CC4B24FF4967089
:1041400000F0FCFA052C00DB03E00748807800282B
:10415000EED000BF002004498870BDE8FC8100005B
:10416000CF11002068030020901100202DE9F041BC
:1041700000254FE005EBC50000EB0510274901EBDA
:10418000C00705EBC50101EB0511244A02EBC10094
:10419000FCF74CF800B93CE021A13846FCF734F8B4
:1041A0000446E41C1EA12046FCF72EF80646ECB19E
:1041B000E6B1A6421AD9002000BF11E021783029CB
:1041C00002DB2178392905DD2178412907DB2178B7
:1041D000462904DC23780146401C124A5354641CCF
:1041E000B442EBD300210F4A115409E005EBC5019D
:1041F00001EB0511094A02EBC1000B4900F0EEFA90
:10420000002005EBC50101EB0511044A02F831005D
:1042100000BF6D1C022DADDBBDE8F0819E1B0020B0
:104220002D2D2F00601D00202E1D00200FB4054BEA
:1042300010B503A9044A029800F02CF810BC5DF8F0
:1042400014FB00006D480008C81A00200FB4084B8A
:1042500010B504A902AA039800F01CF8044602A9AC
:10426000002000F048FA204610BC5DF814FB000066
:10427000F746000802E008C8121F08C1002AFAD158
:1042800070477047002001E001C1121F002AFBD1D6
:10429000704700002DE9FF4F8DB00F460546002600
:1042A00006E025280BD0DDE90F1290476D1C761C27
:1042B00028780028F5D111B03046BDE8F08F0024F1
:1042C000A246A1460122EC4900E0044315F8013F53
:1042D000203B02FA03F00842F7D128782A2810D0B0
:1042E0006FF02F022878A0F13001092914D80AEBC9
:1042F0008A0102EB410144F0020400EB010A6D1C4B
:10430000F0E701CF5FEA000A03D544F40054CAF194
:10431000000A44F002046D1C28782E2817D115F8E5
:10432000010F44F004042A280ED06FF02F022878E1
:10433000A0F1300109290AD809EB890102EB4101FA
:1043400000EB01096D1CF2E757F8049B6D1C2878FF
:104350006C280FD006DC4C2817D068280DD06A28AE
:1043600014D104E0742810D07A280FD10DE044F461
:1043700000140AE044F4801401E044F44014697825
:10438000814202D104F580146D1C6D1C2A786E2ABE
:104390001FD00CDC632A31D004DC002A8BD0582AD1
:1043A00011D1A3E0642A68D0692A0CD165E0732A90
:1043B0002ED004DC6F2A73D0702A04D19BE0752ABA
:1043C0006FD0782A6ED01046DDE90F129047761C28
:1043D00050E1C4F30250022806D0032809D0042873
:1043E00001CF09D0066045E101CFF117C0E90061B6
:1043F00040E101CF06803DE106703BE117F8040B78
:104400008DF8000000208DF80100EB46012003E04C
:1044100057F804BB4FF0FF3061074FF0000102D4A2
:104420000DE008F10101884649450FDA8045F8DBC7
:104430001BF808100029F4D108E008F101018846B2
:104440008142FADB1BF808100029F6D1DDE90F23C1
:10445000AAEB08008146214600F036F9304400EB13
:10446000080604E0DDE90F121BF8010B9047B8F1D4
:104470000108F7D221464846F7E00A21C4F3025367
:104480004FF0000B0891022B04D001CFC117032B72
:1044900009D00AE0FF1D27F00707F7E8020108E04E
:1044A00032E01FE020E000B2C117042B01D140B27E
:1044B000C117031E71F1000307DA4FF0000CD0EBB7
:1044C0000C006CEB01012D2302E0230504D52B2306
:1044D0008DF82430012303E0E30701D02023F7E720
:1044E000984658E00A2110E010210EE010204FF00D
:1044F000000B08900CE010214FF0000B44F0040476
:104500004FF00809089103E008214FF0000B0891D3
:10451000C4F30253022B04D001CF0021032B06D099
:1045200006E0FF1D27F00707F7E8020103E080B26D
:10453000042B00D1C0B24FF0000823072BD5702AFE
:1045400007D0DDF820C08CF0100C5CEA0B0C05D015
:104550000EE040238DF82430012308E050EA0103E7
:1045600006D030238DF824308DF82520022398467C
:10457000DDF820C08CF0080C5CEA0B0C0BD150EA83
:10458000010301D1630706D530238DF824304FF0A5
:104590000108A9F10109582A04D038A20B9208AAEF
:1045A0000A920BE03AA2F9E75B46089AFBF7F1FEA4
:1045B0000B9B9B5C0A9A521E0A92137050EA0102EE
:1045C000F2D10A98ADEB000000F1200B600702D594
:1045D00024F4803401E04FF00109D94502DDA9EB54
:1045E0000B0000E0002000EB0B0141440890AAEB17
:1045F000010AE00306D4DDE90F232146504600F00E
:1046000063F806444FF0000908E009A911F8090011
:10461000DDE90F12904709F10109761CC145F4DB71
:10462000E0030CD5DDE90F232146504600F04CF89D
:10463000064404E0DDE90F1230209047761C08990B
:10464000481E08900029F5DC08E00A980A990078CD
:10465000491C0A91DDE90F129047761CBBF100015D
:10466000ABF1010BF1DC21465046DDE90F2300F0F0
:1046700019F806446D1C1BE609280100303132335D
:10468000343536373839616263646566000000008E
:104690003031323334353637383941424344454678
:1046A000000000002DE9F041044600251E46174693
:1046B000880404D405E039462020B0476D1C641EF0
:1046C000F9D52846BDE8F0812DE9F04104460025E2
:1046D0001E469046C80301D5302700E020278804F5
:1046E00004D505E041463846B0476D1C641EF9D537
:1046F0002846BDE8F0810A68531C0B6010707047B3
:1047000010B504466FF00400FEF7A4FCE11704EBBB
:104710005171C1F3C701074A11701046007800EBD0
:104720004001C1EBC0104FF6FF7101EAC000024921
:10473000088010BDB6150020B8150020014601B94B
:104740007047124A12884A434FF0E0235A61002210
:104750009A611A46126942F001021A6100BF4FF0D5
:10476000E022106900F001021AB100F48032002A40
:10477000F5D04FF0E022126922F001024FF0E02361
:104780001A6100229A6100BFDAE70000B815002024
:104790000146114A12784A434FF0E0235A61002241
:1047A0009A611A46126942F001021A6100BF4FF085
:1047B000E022106900F001021AB100F48032002AF0
:1047C000F5D04FF0E022126922F001024FF0E02311
:1047D0001A6100229A617047B6150020F0B586B0C4
:1047E00003460020039004900590009001900290F1
:1047F0000025002600241AE0185D41280BDB47281D
:1048000009DC2F4605F1010C0CF0FF050DF10C0C35
:104810000CF807000AE0302808DB372806DC3746AA
:1048200006F1010C0CF0FF060DF80700641C185D82
:104830000028E1D1002200BF07E003AC14F800C05B
:104840001446521C01F804C0401CA842F5DB0020AD
:1048500006E01DF800C01446521C01F804C0401CBC
:10486000B042F6DB0020885406B0F0BD70B50446B7
:104870000D46A1B20548FFF750F900BF802103485B
:10488000FFF77FF80028F9D0204670BD004C0040AB
:104890000148006870470000D816002000B50146A6
:1048A000FFF7F6FF884203D2FFF7F2FF091A00E094
:1048B0000021084600BD02460023002109E0505CAB
:1048C000302804D15B1C042B02DB0120704700233D
:1048D000491C0829F3DB0020F8E710B50246072041
:1048E0000AE00123834013400BB1312300E0302361
:1048F000C0F107040B55401E0028F2DA00200872B0
:1049000010BD0000FDF7BEFEFFF7C2FFC8300C4926
:10491000086000210846FEF7A9FA10E00949086975
:10492000804700F041F806480068FFF7B7FF30B94C
:10493000FFF7AEFFC83002490860FEF723F8EDE745
:104940001C010020680300207FB505460C460121AC
:104950000804FEF759F90295ADF804400020ADF8BF
:104960000600ADF80C008DF80E0001A90D48FEF709
:10497000CBFC18208DF8000003208DF801000120E9
:104980008DF802008DF803006846FDF747FF01220D
:1049900011460448FEF7A8FC01210248FEF787FCF7
:1049A0007FBD00000040014010B5FE48007810BBFC
:1049B00017E04FF4FA70FFF7C1FE4FF4FA70FFF7FB
:1049C000BDFEF9480078401CF74908700846007899
:1049D000E62806DD0120F54908700020F24908703C
:1049E00003E0F348807A0028E3D000BF0120EF49BC
:1049F0000870EC490870ED4800780D2871D2DFE8A6
:104A000000F07007D8F4F3F2F1F0EFEEEDECEB000C
:104A1000E849086A8047E748C26AE7480188E748EA
:104A200000789047C820FFF789FE0120E449C8704C
:104A3000E4480169E24888474FF4FA70FFF77EFEC8
:104A40004FF4FA70FFF77AFE4FF4FA70FFF776FE34
:104A5000FFF78CFBDB480079F0B9D6484FF4FA71C8
:104A6000C269142090470020D7490870D5480169D1
:104A7000D34888474FF4FA70FFF760FE4FF4FA709E
:104A8000FFF75CFE4FF4FA70FFF758FEC94840F29A
:104A90002621826914209047CA48007928B901204C
:104AA000C8490871C9A0FFF7C1FBC64800790128B1
:104AB0007BD10020C3490871C3490870FFF756FB3A
:104AC000C4A0FFF7B3FBC549C5A0FFF7AFFBC649BC
:104AD000C3A0FFF7ABFBC148FBF7A8FB20B3002442
:104AE0001DE02BE2C049085D302806DB392804DCD4
:104AF000A0F13001BD4A115510E0412806DB4628DF
:104B000004DCA0F13701B94A115507E0612805DB43
:104B1000662803DCA0F15701B44A1155641CB24861
:104B2000FBF784FBA042DDD8B0480078B049C870DC
:104B3000AE4840780871AD4880784871AD488168CA
:104B4000AB4888476420FFF7F9FDAA488168A84868
:104B50008847A9A1A148FBF770FB18B90120A74914
:104B6000C87014E0A6A19D48FBF767FB18B90220A6
:104B7000A249C8700BE0A3A19848FBF75EFB18B9E7
:104B800003209E49C87002E004209C49C8709948DF
:104B900081689A4888476420FFF7D0FD954881686E
:104BA000964888476420FFF7C9FD02207F490870B6
:104BB000E5E18048C26A80480188804800789047D3
:104BC0007C49086A8047C820FFF7B8FD00248E4A58
:104BD00010799168884717E0CDE1C8E1C3E1BEE1F3
:104BE000B9E1B4E1AFE1AAE128E155E04FF4FA7090
:104BF000FFF7A4FD4FF4FA70FFF7A0FD601CC4B2EC
:104C0000052C01DB002403E06E48C07B0128EDD1B8
:104C100000BF00206B49C87308464078012807D1BF
:104C20000020487078490879CA680121904721E03E
:104C300064488078012808D1002062498870724950
:104C40000879CA680321904714E05E48C0780128BB
:104C500008D100205B49C8706B490879CA680221F5
:104C6000904707E000205749C87067490879CA682B
:104C7000022190474F49086A80474F4800884FF605
:104C8000FF7303EA40014B48826A4C480078904722
:104C900003204649087072E1C820FFF74FFD01204C
:104CA0005A490870434A907A11698847C820FFF72B
:104CB00045FD5748028857A15A48FFF7C7FA594897
:104CC000FBF7B4FAC4B221465648FEF7C1F8504883
:104CD0000088B0F5167F1CDA00204D490880354861
:104CE0004FF4167182691E20904732484FF41671B6
:104CF00082691E2090474FF4FA70FFF71FFD2D497F
:104D0000086A80472B49086A8047C820FFF716FDCC
:104D100090E03F480088B0F5966F19DA032142A071
:104D2000FEF796F800203A49088022484FF41671A1
:104D300082691E2090471F484FF4167182691E2019
:104D400090471C49086A8047C820FFF7F7FC71E0CC
:104D500000202F49088017484FF496718269192066
:104D600090474FF4FA70FFF7E9FC124A907A116904
:104D700088474FF4FA70FFF7E1FC0E484FF41671C4
:104D800082691E2090470B484FF4167182691E20DD
:104D900090474FF4FA70FFF7D1FC0649086A804744
:104DA00044E000004A02002049020020470200209F
:104DB000C41D00208C070020420200204102002078
:104DC00004050020B804002069060020616161200C
:104DD000200000007364760D0A0000002E1D0020E4
:104DE00025730D0A00000000601D0020941B0020A8
:104DF000EF1100209011002044370000F71100202F
:104E000046370000473600005C0B00203A180020AF
:104E10002C180020436F756E745F6D733A25640D16
:104E20000A200000CC1A0020310D0A004FF49670C1
:104E3000FFF784FC042053490870A0E05248008822
:104E40004FF6FF7303EA40015048826A50480078E9
:104E500090474E49086A80474C49086A8047C820F5
:104E6000FFF76CFC484800884FF6FF7303EA4001E7
:104E70004648826A4648007890474449086A804715
:104E80004249086A804743490878CA680121904727
:104E90003D4800884FF6FF7303EA40013B48826AB1
:104EA0003B4800789047C820FFF748FC37484FF44C
:104EB0002F7142692320904734484FF41671C2691C
:104EC0002320904731484FF42F71426923209047A7
:104ED000C820FFF733FC2D484FF41671C269232018
:104EE00090472A48C821C269232090472A48017860
:104EF0002AA0FFF79BF927490878CA68264909784C
:104F00009047C820FFF71AFC264881682648884742
:104F100024488168254888472249C8688047C820B6
:104F2000FFF70CFC1F49C8688047C820FFF706FC44
:104F30001C49C86880470520124908701FE00620F8
:104F4000104908701BE007200E49087017E0082080
:104F50000C49087013E009200A4908700FE00A2084
:104F6000084908700BE00B200649087007E00C2088
:104F70000449087003E00D200249087000BF00BF1B
:104F800010BD000047020020420200208C070020D4
:104F900041020020900C0020B611002025640D0A6B
:104FA0000000000090110020EF110020F7110020F8
:104FB00070B5024600231AE0002012E032F81060BB
:104FC000451C32F81550AE4209DD32F81040451C40
:104FD00032F8155022F81050451C22F81540451C97
:104FE000E8B24D1EED1A8542E8DC5D1CEBB24D1EA9
:104FF0009D42E1DC70BD000070B505460C460E48D0
:105000000560006841420C4800684042FDF750F8D6
:1050100006E04FF42F70FFF791FBA4F52F7084B2D8
:10502000B4F52F7FF5DA2046FFF788FB002108460C
:10503000FDF71CFF70BD00002018002070B505466C
:105040000C460748056001680068FDF731F8204606
:10505000FFF774FB00210846FDF708FF70BD000054
:10506000201800201048807920B100200E49887156
:105070000E4908700C48C07928B100200A49C8714F
:1050800001200A4908700848007A20B1002006492A
:105090000872064908700448407A20B1002002498D
:1050A00048720249087070478C03002047020020B4
:1050B00070B504460D466420FFF740FB08480460C5
:1050C000016800684042FCF7F3FF2846FFF736FB13
:1050D00000210846FDF7CAFE6420FFF72FFB70BDD4
:1050E0002018002070B504460D466420FFF726FB0B
:1050F00008480460016800684042FCF7D9FF284670
:10510000FFF71CFB00210846FDF7B0FE6420FFF707
:1051100015FB70BD2018002070B505460C466420B4
:10512000FFF70CFB0948056000684142074800682A
:10513000FCF7BEFF2046FFF701FB00210846FDF704
:1051400095FE6420FFF7FAFA70BD000020180020D9
:1051500070B505460C466420FFF7F0FA0948056073
:105160000068414207480068FCF7A2FF2046FFF7AD
:10517000E5FA00210846FDF779FE6420FFF7DEFA24
:1051800070BD00002018002010B5044600200D4915
:1051900008700D4908700D4908700D4908700D49D7
:1051A00008700D49087001200C4908700C48046013
:1051B00001680068FCF77CFF00BF02480078012806
:1051C000FBD110BD121800200F1800200C18002071
:1051D0000D1800200E1800201018002011180020B3
:1051E0002018002010B50446FF2C0AD10020604989
:1051F000887301205F49087000210846FDF736FEDC
:1052000086E0E72C08D15C4800685C4908605A4891
:1052100000685B4908607BE0F72C01D0F32C0AD1D1
:1052200055480068143055490860534800682838CC
:10523000534908606CE0FB2C01D0F92C0AD14E4890
:10524000006828304D4908604B4800683C384C499C
:1052500008605DE0FD2C01D0FC2C0AD146480068B6
:105260003C3046490860444800685A384449086060
:105270004EE0FE2C0AD14048006850303F4908609B
:105280003D48006878383E49086041E0EF2C01D085
:10529000CF2C0AD1384800681430394908603648A4
:1052A000006828383549086032E0DF2C01D09F2C97
:1052B0000AD1314800682830314908602E4800681A
:1052C0003C382E49086023E0BF2C01D03F2C0AD186
:1052D000294800683C302A490860274800685A3845
:1052E0002649086014E07F2C0AD12348006850301A
:1052F000234908602048006878382049086007E0A2
:105300001D4800681D4908601B4800681C4908606A
:10531000FF2C20D11848006818490860164800681A
:105320001749086017480088B0F5966F0DDD00201A
:105330001449088000210846FDF798FD0020124915
:10534000087004200B49087008E00E480088401CD3
:105350000C49088002E000200A4908800448807B4C
:1053600028B10748016805480068FCF7A1FE10BD98
:105370008C07002012180020201800201818002088
:105380001C180020141800201118002010B56420EB
:10539000FFF7D4F9084A907A116988476420FFF72B
:1053A000CDF905484FF4C87182691E2090476420EA
:1053B000FFF7C4F910BD00008C07002070B505464A
:1053C0000C4600201E4908701E4908701E490870CE
:1053D0001E4908701E4908701E49087001201E49A8
:1053E00008701E48056000201D49088001201D49E5
:1053F00008701A4801680068FCF75AFE13E0184864
:105400000088A0420FDB00210846FDF72FFD002099
:1054100013490880134908700120094908700020C9
:105420000D49087003E0064800780128E7D100BF65
:105430004FF4FA70FFF782F9FDF790FC70BD0000A1
:10544000121800200F1800200C1800200D18002042
:105450000E1800201018002011180020201800201D
:10546000381800203A18002010B5044600200849DA
:1054700008700120074988730748046001680068C4
:10548000FCF716FE00BF024800780128FBD110BDD2
:10549000121800208C070020201800202DE9FC475E
:1054A00004460020009001900025314903C9CDE950
:1054B00000010D2C03D10D208DF8010004E0052C16
:1054C00002D105208DF8010002208DF802008DF830
:1054D000030000208DF804008DF805009DF80530CC
:1054E0009DF804209DF803109DF80200DFF88490D9
:1054F000D9F800C0E04706468DF806600D2C19D19A
:105500000BE008216846FDF7E7FC9620FFF716F947
:10551000681CC5B2052D00DD03E01748807900281E
:10552000EFD000BF144887790020134988713846AE
:10553000BDE8FC87052C19D10BE008216846FDF772
:10554000CBFC9620FFF7FAF8681CC5B2052D00DDEC
:1055500003E0094840790028EFD000BF064890F8E2
:1055600005800020044948714046E1E70020DFE75C
:10557000A40C002068030020C41D00202DE9FC4776
:1055800004460020009001900025324903C9CDE96E
:1055900000010D2C03D10D208DF8010004E0052C35
:1055A00002D105208DF8010002208DF802000120B3
:1055B0008DF8030000208DF804008DF805009DF89B
:1055C00005309DF804209DF803109DF80200DFF8D7
:1055D0008890D9F800C0E04706468DF806600D2C8B
:1055E00019D10BE008216846FDF776FC6420FFF72F
:1055F000A5F8681CC5B2032D00DD03E01748007A4A
:105600000028EFD000BF1548077A00201349087220
:105610003846BDE8FC87052C19D10BE00821684607
:10562000FDF75AFC6420FFF789F8681CC5B2032D0A
:1056300000DD03E00948C0790028EFD000BF07482B
:1056400090F8078000200549C8714046E1E7002036
:10565000DFE70000A40C002068030020C41D002028
:1056600070B50446264840F2EE2142692320904757
:10567000C820FFF763F822484FF41671C26923204F
:105680009047C820FFF75AF81D484FF42F71426920
:1056900023209047C820FFF751F819484FF416719E
:1056A000C26923209047C820FFF748F814484FF4F8
:1056B0001671426923209047C820FFF73FF8104831
:1056C0004FF4FA71C269232090470D484FF41671C8
:1056D000C26923209047002509E00948FA21C269E0
:1056E0002820904707488168204688470546032DB3
:1056F000F3D10348C82182691E20904770BD000085
:105700008C070020900C00202DE9FC4104460D463A
:10571000002000900190274903C9CDE900010D2C1C
:1057200003D10D208DF8010004E0052C02D10520E5
:105730008DF8010001208DF802008DF80350002043
:105740008DF804008DF805009DF805309DF80420C3
:105750009DF803109DF80200DFF85CC0DCF80070D3
:10576000B84706468DF80660002708E0082168461D
:10577000FDF7B2FB6420FEF7E1FF781CC7B2032FF0
:10578000F4DB0E484168204688470D2C07D100BF46
:105790000A48416820468847A842F9D108E0052C0C
:1057A00006D100BF0548416820468847A842F9D184
:1057B000BDE8FC81A40C002068030020900C0020B0
:1057C0002DE9FC410446002000900190184903C9CE
:1057D000CDE9000108208DF80200012C03D1012041
:1057E0008DF8030010E0022C03D101208DF8040095
:1057F0000AE0032C03D102208DF8030004E0042CFE
:1058000002D102208DF804009DF805309DF8042097
:105810009DF803109DF80200064F3E68B04705460C
:105820008DF8065008216846FDF756FBBDE8FC815F
:10583000F40800206803002010B5012027490871F2
:1058400034E02748807801280ED1C820FEF776FF83
:10585000002023498870214908712249086A80473D
:10586000C820FEF76BFF25E01E484FF4AF71C269F8
:105870000F209047C820FEF761FF19488078012863
:105880000ED1FA20FEF75AFF0020154988701349FF
:1058900008711449086A8047C820FEF74FFF09E0E5
:1058A00010484FF4AF7182690F2090470C48807800
:1058B0000028C6D000BF0A48807801280DD1C82032
:1058C000FEF73CFF0020064988700449087105492D
:1058D000086A8047C820FEF731FF10BDE4080020A9
:1058E000C41D00208C07002070B5044666181644BD
:1058F000F018C61700EB16663612A0EB0626F5B2B6
:10590000284670BD1F4909681F4AD2F8142241EA8F
:1059100042011D4AD2F8182241EA82011A4AD2F8FD
:105920001C2241EAC20141F0F001C943C8B2174943
:10593000497841400140154A117011464870097874
:105940009278114011B10121104A91710F490978E3
:105950000E4AD278114011B101210C4AD1710B4984
:1059600009780A4A1279114011B10121074A1172CE
:1059700006490978054A5279114011B10121034ABB
:105980005172704710024442000044428C030020D0
:105990002DE9F041044663792279E178A078074F38
:1059A0003E68B0470546A57108212046FDF788FAF4
:1059B0006420FEF7C3FEBDE8F0810000680300200C
:1059C00030B58DB005466846FAF730FCC4B22146C2
:1059D0006846FDF73DFA0DB030BD000070B58EB0E1
:1059E00004460D462B46224606A101A8FEF72EFCD2
:1059F00001A8FAF71BFCC6B2314601A8FDF728FA48
:105A00000EB070BD434D44322D333A202523782DFE
:105A1000252378002DE9F041044663792279E17865
:105A2000A078074F3E68B0470546A571082120467B
:105A3000FDF752FA3220FEF781FEBDE8F08100004A
:105A40006803002010B504462046FDF761FF10BD35
:105A500010B505210148FDF76BFF10BD6C1000204B
:105A60002DE9FC4104460D460020009001902B4991
:105A700003C9CDE90001012C03D10B208DF80100F1
:105A80000AE0022C03D108208DF8010004E0032C69
:105A900002D112208DF8010050208DF80200002064
:105AA0008DF80300642095FBF0F00A2190FBF1F2E1
:105AB00001FB1200C0B28DF804000A2095FBF0F142
:105AC00000FB115195FBF0F00A2290FBF2F302FB70
:105AD000130001EB0010C0B28DF805009DF80530F1
