:020000040800F2
:10000000082700209D010008A5010008A70100089D
:10001000A9010008AB010008AD01000800000000C4
:10002000000000000000000000000000AF01000818
:10003000B101000800000000B3010008B50100088C
:10004000B7010008B7010008B7010008B7010008B0
:10005000B7010008B7010008B7010008B7010008A0
:10006000B7010008B7010008C1200008B701000867
:10007000B7010008B7010008B7010008B701000880
:10008000B7010008B7010008B7010008B701000870
:10009000B7010008B7010008B7010008B701000860
:1000A000A1300008C1300008B7010008B7010008FE
:1000B000F1300008BD310008B7010008B7010008A1
:1000C000B7010008B7010008B7010008B701000830
:1000D000B7010008E536000841370008B7010008FD
:1000E000B7010008B7010008B7010008B701000810
:1000F000B7010008B7010008B7010008B701000800
:10010000B7010008B7010008B7010008B7010008EF
:10011000D5360008B701000819320008453200083A
:10012000B7010008B7010008B7010008B7010008CF
:10013000B7010008B7010008B7010008B7010008BF
:10014000B7010008B7010008B7010008B7010008AF
:10015000B7010008B7010008B7010008113800080E
:10016000B7010008B7010008B7010008B70100088F
:10017000B7010008B7010008B7010008B70100087F
:10018000B7010008B7010008DFF80CD000F0B6F99D
:1001900000480047654700080827002006488047B8
:1001A00006480047FEE7FEE7FEE7FEE7FEE7FEE75C
:1001B000FEE7FEE7FEE7FEE73930000889010008A8
:1001C00040EA01039B0703D009E008C9121F08C0D9
:1001D000042AFAD203E011F8013B00F8013B521E59
:1001E000F9D27047D2B201E000F8012B491EFBD2D0
:1001F00070470022F6E710B513460A460446194632
:10020000FFF7F0FF204610BD421C10F8011B00292B
:10021000FBD1801A70472DE9F04D81EA030404F008
:10022000004B21F0004514464FF0000A23F0004136
:1002300050EA050220D054EA01021DD0C5F30A5746
:100240000246C5F31303C1F31300C1F30A5640F489
:10025000801543F48013A7EB0608101BD64608F25E
:10026000FD3873EB050002D308F1010801E0921894
:100270005B41B8F1000F03DA00200146BDE8F08DC4
:1002800000204FF48011064684460EE0171B73EBE6
:10029000050705D3121B63EB050306434CEA010C6B
:1002A00049084FEA300092185B4150EA0107EDD14E
:1002B00052EA030012D082EA040083EA05010843EF
:1002C00005D0101BAB4106D20122002306E000221C
:1002D0004FF0004302E06FF0010253101AEB0600EA
:1002E0004CEB085110EB0A0041EB0B01BDE8F04D5F
:1002F00000F0A7B800F0004230F000400AD0C10D75
:1003000001F56071C0F3160042EA0151C2084007CE
:100310001143704700200146704701F0004330B49C
:1003200021F0004150EA010206D00A0DA2F56072E8
:10033000C1F31301002A02DC30BC00207047440FD7
:1003400044EAC104C100E01830BC00EBC25000F028
:1003500041B82DE9F05F0546002092469B4688464D
:100360000646814640241BE0284641464746224631
:1003700000F020F853465A46C01A914110D3114656
:100380001846224600F0CCF82D1A67EB01084F46BC
:1003900022460120002100F0C3F817EB00094E416E
:1003A000201EA4F10104DFDC484631462A464346BC
:1003B000BDE8F09F202A04DB203A21FA02F0002158
:1003C000704721FA02F3D040C2F120029140084365
:1003D000194670470029A8BF7047401C490008BF54
:1003E00020F00100704710B4B0FA80FC00FA0CF065
:1003F00050EA010404BF10BC704749B1CCF120049D
:1004000021FA04F411FA0CF118BF01212143084329
:10041000A3EB0C01CB1D4FEA00614FEA102042BF55
:10042000002010BC704700EBC35010440029A4BF4B
:1004300010BC7047401C490008BF20F0010010BCF0
:10044000704710B5141E73F1000408DA401C41F126
:10045000000192185B411A4301D120F0010010BD48
:100460002DE9F04D92469B4611B1B1FA81F202E0BE
:10047000B0FA80F22032904600F052F804460F465F
:1004800040EA0A0041EA0B0153465A46084313D09A
:10049000114653EA010019D0C8F140025046FFF757
:1004A00089FF05460E4650465946424600F038F848
:1004B000084305D0012004E020463946BDE8F08D10
:1004C0000020054346EAE0762C4337430A9863054B
:1004D000E40AA0EB08000022FD0A44EA47540A306F
:1004E00002D500200146E9E7010510196941DDE95F
:1004F000084500196941BDE8F04DA2E7064C074DDB
:1005000006E0E06840F0010394E8070098471034E3
:10051000AC42F6D3FFF73CFE90640008B0640008DC
:10052000202A04DB203A00FA02F1002070479140B3
:10053000C2F1200320FA03F319439040704770B5CD
:100540008D1810F8014B14F0030201D110F8012BA3
:10055000231106D110F8013B03E010F8016B01F8FC
:10056000016B521EF9D1ABB110F8012B04F00C0451
:100570008A1A0C2C03D0A2EB84129B1C08E010F802
:10058000014BA2EB0422F8E712F8014B01F8014BF2
:100590005B1EF9D5A942D4D3002070BDCA430260C6
:1005A000704721B1826842F00102826003E08268F4
:1005B00022F00102826070470021084A1168084A4F
:1005C0001140D0E900231A4383681A43C3681A43D1
:1005D0001143044AC2F80413704700000423014089
:1005E000E030FCFF0020014000B58DB0012108463D
:1005F00002F0B8FA0121080202F0E4FA402001906A
:1006000003208DF8080000208DF80B0001A9174881
:1006100001F093FE0020039004900690059003A83B
:10062000FFF7CAFF0121080202F0DCFA00214FF4B3
:10063000807002F0D7FA00208DF8200007908DF826
:10064000210009900B9001208DF8300007A908487F
:1006500000F01EF8062301221946054800F042F872
:1006600001210348FFF79DFF0DB000BD00000240CF
:10067000002001400146C86C80B27047024600204D
:1006800013680B400BB1012000E000207047000010
:1006900030B50246002000235068104C20400D79F0
:1006A0000C6844EA05242043506090680C4C2040BC
:1006B000D1E903542C438D682C434D7944EA450419
:1006C00020439060D06A20F470000C7D641EE4B278
:1006D000234340EA0350D06230BD0000FFFEFFFC20
:1006E000FDF7FFC0F0B504460D4600200021092D9E
:1006F00011DDE068A5F10A0606EB4607072606FAB3
:1007000007F18843A5F10A0606EB460603FA06F14F
:100710000843E0600CE0206905EB4507072606FA70
:1007200007F1884305EB450603FA06F1084320610B
:10073000072A0FDA606B561E06EB86071F2606FA9D
:1007400007F18843561E06EB860605FA06F10843B4
:10075000606322E00D2A0FDA206BD61F06EB8607B6
:100760001F2606FA07F18843D61F06EB860605FA10
:1007700006F10843206310E0E06AA2F10D0606EBE3
:1007800086071F2606FA07F18843A2F10D0606EB3D
:10079000860605FA06F10843E062F0BD816841F083
:1007A000804181607047000070B500232A4A1278AA
:1007B0000B2A03DA0022294C22704BE0002044E08F
:1007C000274A125C552A3ED1254C421CA25CEE2AD7
:1007D00039D100F10A02A25CBB2A34D12546841C1F
:1007E0002D5D1F4EC41C345D2544041D345D25441D
:1007F000441D345D2544841D345D2544C41D345D91
:10080000254400F10804345D2A19D41702EB14645E
:100810002412A2EB0424E3B2344600F10902A25CE4
:100820009A420DD1002105E00A180D4CA25C6254D9
:100830004A1CD1B20B29F7DB0122084C227002E0DE
:100840000022064C2270421CD0B2034A12780A3AA7
:100850008242B5DA70BD0000B81A00206806002098
:100860007821002010B500F009F8012002F094FB77
:1008700000200149086010BDBC0243421CB50121A3
:10088000422002F06FF94020009001208DF8040012
:1008900000208DF8060003208DF8050069460A48FF
:1008A00001F04BFD4FF40040009001208DF8040052
:1008B00000208DF8060003208DF8050069460248E7
:1008C00001F03BFD1CBD00000004024010B502F029
:1008D00043FA012008490860022003F0D1FE0748CE
:1008E000D0F81C02C4B2002003490860022003F0C3
:1008F000C7FE204610BD0000988240420080404262
:1009000070B5044602F038FA00251BE004F08006BA
:100910001EB101200E49086002E000200C49086069
:100920006006040E01200A49091F0860022003F036
:10093000A7FE00200749C1F89802022003F0A0FE9C
:10094000681CC5B2082DE1DBFFF7C0FF70BD0000D9
:100950009C8240420080404210B502F00DFA012016
:10096000094908600949C1F89802042003F088FE8B
:10097000002005490860042003F082FE002003499E
:10098000C1F8980210BD00009C82404200804042A5
:1009900010B502F0F1F9002007490860012007496D
:1009A000C1F89802042003F06BFE012002490860A0
:1009B000042003F065FE10BD9C824042008040424E
:1009C00010B502F0CDFE10BD10B504460B488442B0
:1009D00009D10121480602F0E5F800214FF000702E
:1009E00002F0E0F808E00121880602F0DBF80021BF
:1009F0004FF0806002F0D6F810BD000000640040A7
:100A000010B50021837A012202FA03F13D4A1268EF
:100A100042F001023B4B1A603A4A1C3212688A4388
:100A2000384B1C331A60027BCAB9364A0C32126842
:100A30008A43344B0C331A604288C38842EA03432A
:100A4000304A4032847A42F834300288838842EA5D
:100A500003432C4A4032847A02EBC4025360027B87
:100A6000012A19D1274A0C3212680A43254B0C334C
:100A70001A604288038842EA0343224A4032847A59
:100A800042F83430C288838842EA03431D4A403228
:100A9000847A02EBC4025360C27A3AB9194A121D31
:100AA00012688A43174B1B1D1A6006E0154A121D77
:100AB00012680A43134B1B1D1A60028932B9114A8E
:100AC000143212688A430F4B14331A600289012AC8
:100AD00006D10C4A143212680A430A4B14331A60C6
:100AE000427B012A06D1074A1C3212680A43054B91
:100AF0001C331A60034A126822F00102014B1A608B
:100B000010BD0000006600401AB143690B43436109
:100B100002E043698B434361704730B502460020D1
:100B20000023146824F002041460146844F00104E3
:100B3000146000E05B1C546804F001041CB94FF61B
:100B4000FF74A342F6D1546804F001040CB90020EC
:100B50006CE08C79012C04D1146844F0800414609A
:100B600003E0146824F080041460CC79012C04D1D3
:100B7000146844F04004146003E0146824F0400456
:100B800014600C7A012C04D1146844F02004146021
:100B900003E0146824F0200414604C7A012C04D182
:100BA000146844F01004146003E0146824F0100486
:100BB00014608C7A012C04D1146844F00804146089
:100BC00003E0146824F008041460CC7A012C04D1EA
:100BD000146844F00404146003E0146824F004046E
:100BE00014608C78A407CD7844EA05640D7944EA52
:100BF00005444D7944EA05540D886D1E2C43D4619B
:100C0000146824F001041460002300E05B1C5468A5
:100C100004F001041CB14FF6FF74A342F6D15468EE
:100C200004F001040CB1002000E0012030BD0246B8
:100C3000002019B9D36803F0030006E0012903D1AD
:100C4000136903F0030000E00020704710B500F5C1
:100C5000D87303EB01131B6803F004031372137AB8
:100C600053B900F5D87303EB01131B6840F2FF740E
:100C700004EA5353136009E000F5D87303EB011342
:100C80001B686FF0604404EAD303536000F5D87327
:100C900003EB01131B6803F00203537200F5D873D2
:100CA00003EB01135B6803F00F03937200F5D87335
:100CB00003EB01135B681B0AD37400F5D87303EBD5
:100CC00001139B68D37200F5D87303EB01139B6883
:100CD0001C0A147300F5D87303EB01139B681C0CFA
:100CE000547300F5D87303EB01139B681B0E9373C9
:100CF00000F5D87303EB0113DB68D37300F5D873E9
:100D000003EB0113DB681C0A147400F5D87303EBC2
:100D10000113DB681C0C547400F5D87303EB01134A
:100D2000DB681B0E937421B9C36843F02003C360D2
:100D300003E0036943F02003036110BD10B50246D0
:100D40000020936803F08063B3F1806F00D110E05E
:100D5000936803F00063B3F1006F01D1012008E054
:100D6000936803F08053B3F1805F01D1022000E06B
:100D70000420042874D002F5C07303EB00131B6831
:100D800003F0010402F5C07303EB00131C600B7A3F
:100D90007BB94B7A0C8843EA445302F5C07404EBE8
:100DA00000142468234302F5C07404EB001423608C
:100DB00010E00B7A4C6843EAC4034C7A234302F5F3
:100DC000C07404EB00142468234302F5C07404EBE0
:100DD000001423608B7A03F00F038B7202F5C0734B
:100DE00003EB00135B6823F00F0402F5C07303EB01
:100DF00000135C6002F5C07303EB00135B688C7A30
:100E0000234302F5C07404EB001463608B7B1C0663
:100E10004B7B44EA03440B7B44EA0323CC7A234311
:100E200002F5C07404EB0014A3608B7C1C064B7CA1
:100E300044EA03440B7C44EA0323CC7B234302F5BE
:100E4000C07404EB0014E36002F5C07303EB0013FD
:100E50001B6843F0010402F5C07303EB00131C6030
:100E600010BD000010B50246002321B1012907D0B2
:100E700002290FD109E090681D4C00EA04030BE041
:100E800090681C4C00EA040306E090681A4C00EAE3
:100E9000040301E0002300BF00BF184C181BA3424D
:100EA00016D007DC83B16FF08060184470B102285F
:100EB00018D111E0B0F5007F10D0114C204448B19A
:100EC000B0F5003F0ED10BE002230DE000230BE054
:100ED000002309E0002307E0012305E0012303E0EC
:100EE000012301E0002300BF00BFD8B210BD000005
:100EF00003000004000300080000031000010008C4
:100F00000001FFF72DE9FF4705460E464FF0000AA6
:100F100006B10DB94FF0010A9448007800F00F00B7
:100F2000032801DD4FF0010A90480078C0F3001952
:100F3000BAF1000F19D000208DF80A008DF80B00CF
:100F400001208DF80C000020ADF80000ADF8020083
:100F5000ADF80400ADF80600ADF8080001208DF8EA
:100F60000D006846FFF74CFDFEE00020ADF80800DC
:100F700001208DF80D004FF000080024F2E07B48BE
:100F8000007800F00F0030B101283BD002287BD060
:100F9000032874D19CE000208DF80B008DF80C0024
:100FA00035F824004B460022114600F0E1F8ADF878
:100FB000020005EB840148884B460022114600F0F0
:100FC000D7F8ADF80600601CC0B20446B04213DA90
:100FD00035F824004B460022114600F0C9F8ADF860
:100FE000000005EB840148884B460022114600F0C2
:100FF000BFF8ADF8040004E00020ADF80600ADF83D
:1010000004009CE001208DF80B0000208DF80C00FE
:1010100035F824004B460022114600F0A9F8ADF83F
:101020000200601CC0B20446B04207DA35F8240062
:101030004B460022114600F09BF800E00020ADF87E
:101040000600601CC0B20446B04207DA35F824003E
:101050004B460022114600F08BF800E00020ADF86E
:101060000000601CC0B20446B04209DA35F8240022
:101070004B460022114600F07BF802E004E051E00C
:101080000020ADF804005AE000208DF80B0001208C
:101090008DF80C0035F824004B460022114600F074
:1010A00081F80746B8B2ADF80200380CADF8000080
:1010B00005EB840148884B460022114600F072F887
:1010C0000746B8B2ADF80600380CADF8040036E0BB
:1010D00001208DF80B008DF80C0035F824004B46EC
:1010E0000022114600F05EF80746B8B2ADF80200E3
:1010F000380CADF80000601CC0B20446B04208DAFB
:1011000005EB840148884B460022114600F04AF85E
:1011100000E000200746B8B2ADF80600380CADF884
:1011200004000CE00020ADF80200ADF80000ADF8BE
:101130000600ADF8040034464FF0010A00BF00BFBE
:101140008DF80A806846FFF75BFCB44202DA601C47
:10115000C4B200E007E008F10100C0B280460D28EB
:1011600000DB00E00BE700BFBDE8FF87431800206D
:1011700010B50446C4F309040AB1102000E00020B1
:1011800002460BB1082000E00020034613B1C1F372
:10119000C13000E00020014642EA441018430843F1
:1011A00080B210BD10B50446C4F309040AB1022090
:1011B00000E0002002460BB1042000E000200346BE
:1011C00013B18803C00A00E00020014642EA44301F
:1011D0001843084310BD000010B500210148FFF777
:1011E00026FD10BD0064004070B50446002554B1D2
:1011F00000210648FFF71BFD054625B122460021C8
:101200000248FFF723FD284670BD0000006400403F
:101210002DE9F04706460C4617469846DDF8209023
:101220004FF0000A15480760C0F8048000201349F9
:101230000872487208468472224631460B30FEF727
:10124000BFFF0E490E48FFF779FD0546042D09D072
:101250004FF0010A29460A48FFF704FE012801D190
:101260004FF0020ABAF1010F04DBB9F1000F01D00F
:1012700089F800505046BDE8F08700001C1F002090
:10128000006400400448006800F0E05008B101200C
:1012900070470020FCE700000864004010B501E042
:1012A00000F006F8FFF798FF0028F9D110BD000004
:1012B00010B52448FFF798FF2248C07C20B10128D0
:1012C0000AD0022818D10FE01E48827A00F10B01E3
:1012D0001D4800F0A6FF24E01A48827A00F10B01B5
:1012E0001A4800F09EFF1CE01648827A00F10B01BC
:1012F000174800F096FF14E01248C07C03280FDB6B
:101300001048C07C06280BDC0E48C07CC01E11496A
:1013100001EBC0000B490B310A680260496841606B
:1013200000BF00BF0748C07C062809DC0548C07C18
:10133000094951F82000094909680843074908602C
:1013400010BD000090200020441F0020541F0020EA
:10135000741F0020A420002080630008641900206E
:1013600000B5034A5178107801F0A8F900BD0000DB
:10137000A4200020F8B5FFF785FF00285FD00026E5
:10138000002559E02E4890F9000030B101280ED018
:1013900002281ED0032840D12DE000F05DF807465A
:1013A000002F03DB0126F8B200F07AF839E00822BA
:1013B0002449254800F020FFC4B24CB1012623483F
:1013C00000234FF42072214600901E48FFF720FFB3
:1013D00027E008221B491E4800F00EFFC4B24CB1A2
:1013E00001261A4800234FF4287221460090154820
:1013F000FFF70EFF15E008221249164800F0FCFE28
:10140000C4B24CB10126114800234FF4707221463A
:1014100000900C48FFF7FCFE03E0FF20084908702D
:1014200000BF00BF06480078401C40B20449087065
:1014300006B103E0681CC5B2042DA3DD00BFF8BDF2
:101440009819002068190020641F002099190020B5
:10145000841F0020441F00204FF0FF30002109E0CE
:1014600001EB8102054B13F822200AB148B203E0D8
:101470004A1CD1B20729F3DB00BF7047C42000200B
:10148000002007E0002100EB8002044B03F822104B
:10149000411CC8B20728F5DB70470000C4200020BB
:1014A000F8B50446002004EB84050E4E06EB8505D6
:1014B00000902B6904EB840506EB8505EA6804EBD4
:1014C000840516F8251004EB840506EB8505681CD9
:1014D000FFF79EFE002004EB8401324602F8210053
:1014E000F8BD0000C42000202DE9F04104460F465D
:1014F00015461E46DDF81880072C1ADA04EB840026
:101500000D4901F8205004EB84010B4A02EB8101E4
:10151000481C2A463946FEF753FE04EB8400064970
:1015200001EB8000C66004EB840001EB8000C0F892
:101530001080BDE8F0810000C420002010B50D4AE5
:1015400032210D4800F02AF80C4A32210C4800F0F4
:1015500025F80C4A32210C4800F020F80B4A3221C1
:101560000B4800F01BF80B4A32210B4800F016F82C
:1015700010BD0000941F0020441F0020C61F002043
:10158000541F0020F81F0020641F00202A20002084
:10159000741F00205C200020841F002070B50446CA
:1015A0000E4615462660E5600021204600F073FED9
:1015B00070BD000038B5FFF771FE68E0FFF76EFE02
:1015C000002462E0344850F8240034490968084097
:1015D000002858D0072C4DD2DFE804F0040C182462
:1015E0002739460000BF69462D4800F066FE0028F6
:1015F000F9D13FE003E09DF8000000F045FA6946AC
:10160000284800F05AFE0028F5D133E003E09DF8A9
:10161000000000F04DFC6946234800F04EFE002813
:10162000F5D127E0FFF79CFE24E0204802F04AF8BD
:101630001F49088005E01E480088A0F561601C492C
:1016400008801B480088B0F5616FF4DA12E0174893
:101650000838007C022806D11448093002F02AF824
:1016600000B21449088005E010480838007E0128BF
:1016700000D100BF00BF104850F824000749096896
:10168000084006490860601CC4B2062C9ADD034875
:101690000068002892D138BD8063000864190020DA
:1016A000441F0020541F0020741F0020AC20002085
:1016B00074190020721900200064000810B5002081
:1016C000064908600649087007210648FFF71AFC1A
:1016D000FFF734FFFFF7D4FE10BD000064190020AF
:1016E000431800207619002070B5CC4800780028F7
:1016F00058D0CB48006803F001F8002852D1C948FF
:10170000007855282AD1C7484078EE2826D1C54808
:101710008078022822D1C348C3490978405CBB289D
:101720001CD1C1480078032832DBBE48C478A51D0F
:10173000BD480078401CA8420FDB00F055FC18B1F2
:101740000120BA49087005E0B9A002F0E7FC0020CA
:10175000B64908700020B149087019E0B148007816
:1017600055280DD1AF484078EE2809D1AD48807A90
:10177000BB2805D101F072F80020A849087007E0E5
:10178000FFF712F8A948007810B90020A3490870A3
:10179000A648007830B9A34880780A2802D00020F3
:1017A0009E490870A1480078002873D09D48407871
:1017B000EE2870D19B48807807286DD007DC072879
:1017C0006BD2DFE800F06A142D304D6B8F001028CB
:1017D00071D004DC08286FD009285ED1D7E0112829
:1017E0006BD0A028F9D101209C4908700DE101209F
:1017F0009A49C8738B48C078012801D148700EE01F
:101800008848C078022803D101209449887006E0F6
:101810008448C078032802D101209049C870F4E0C0
:1018200001F040F9F1E07F48C07810B101208B4908
:1018300088730120894948717A48C07888490870BE
:101840007848007948707748407988707548807981
:10185000C8707448C07908717248007A4871D4E041
:1018600001207E4988716F48C0787E4908706D48B4
:10187000007948706B48407988706A488079C870F0
:101880006848C07908716748007A48716548407AAD
:101890008871BAE0C0E0BCE03EE0B5E001206F49ED
:1018A000C8716048C078012808D16F4908788A68F3
:1018B0000221904715E084E048E09CE05948C07858
:1018C000022805D1684948788A680221904708E0D3
:1018D0005448C078032804D1634988788A68022173
:1018E000904792E001205D4908724E48C0785F49F8
:1018F00008704C48007948704A48407988704948D7
:101900008079C8704748C07908714648007A4871A4
:101910004448407A887178E0012050494872414833
:10192000C078534908703F48007948703D48407975
:1019300088703C488079C8703A48C0790871394845
:10194000007A48713748407A88715EE00120434947
:1019500088723448C07801280AD132480079454954
:1019600008703048407948702E48807988700DE0C2
:101970002C48C078022809D12A48C0793D49C8704E
:101980002848007A08712748407A48713DE00120D4
:101990003249C8722348C078374908702148007915
:1019A00048702048407988701E488079C8701D486A
:1019B000C07908711B48007A48711A48407A8871CA
:1019C00023E00120254908731648C0782B49087088
:1019D000144800794870134840798870114880791C
:1019E000C8701048C07908710E48007A48710D48D7
:1019F000407A887109E00120184948730948C17884
:101A00001FA002F08BFB00E000BF00BF00200349D5
:101A1000087000200549087070BD0000B91A002048
:101A2000C01A002078210020B81A00206806002083
:101A30004572726F723A20436865636B5F566172DC
:101A40006961626C654C656E5F5061636B657420A3
:101A50006661696C65640D0A00000000B80400202E
:101A6000CC040020D2040020180A0020D904002051
:101A7000E0040020E7040020EE040020F50400202C
:101A8000253032782000000010B504460F48007859
:101A900070B902F02DFE0A300D49086000200D4992
:101AA00008700D48097844540120084908700BE07B
:101AB00008480078C82807DA06480078401CC0B2F9
:101AC0000449087004490C5410BD0000B91A0020E4
:101AD000C01A0020B81A00207821002010B5E7486D
:101AE000007800287AD0E648006802F007FE002857
:101AF00074D1E448407803280AD1E248807801286C
:101B000006D1E0480079052802D10120DE4948725B
:101B1000DC484078DD490978884205D0D9484078CA
:101B2000DA494978884211D1D6488078032819D1FA
:101B3000D448C078012815D1D2484078D3490978D3
:101B4000884204D1CF480079CF4908727AE0CD4865
:101B50004078CE494978884274D1CA480079CA4948
:101B6000C8716FE0C748807803286BD1C548C0783A
:101B7000022867D1C3484078C449097888422ED1E9
:101B8000C0480079012806D1BE484079012802D119
:101B9000BD49887156E0BB480079022806D1B94892
:101BA0004079022802D1B84988714BE0B5480079E4
:101BB000012807D1B3484079022803D10320B24954
:101BC00088713FE0AF48007902283BD1AD484079A9
:101BD000012837D10420AC49887133E04DE1A94890
:101BE0004078AA49497888422CD1A6480079012832
:101BF00006D1A4484079012802D1A349487121E0C7
:101C0000A0480079022806D19E484079022802D1D6
:101C10009D49487116E09B480079012807D19948F1
:101C20004079022803D10320974948710AE095487A
:101C30000079022806D193484079012802D1042076
:101C4000914948718F484078102825D18D48807877
:101C5000102801D1012000E000208A49C97801291B
:101C600000D100E00021884216D186480079312851
:101C700003D10120844908710EE08248007932289E
:101C800003D102208049087106E07E48007933289C
:101C900002D103207C4908717A4840780C2814D17D
:101CA00078488078012810D17648C07801280CD176
:101CB00074480079062808D17248407928B97448D8
:101CC0000079012801D1704988706E4840780E284B
:101CD00003D06C4840780F282CD16A4840780E28F1
:101CE00012D168488078012824D16648C07801283C
:101CF00020D164484079E8B962480079072819D1B1
:101D000001206149087015E05E4840780F2811D124
:101D10005C48807801280DD15A48C078012809D143
:101D20005848407930B957480079072802D1012036
:101D30005549487053484078062835D15148807835
:101D400002280FD14F48C078524948714D48017957
:101D5000504881714B4841794E48C17101204A4930
:101D6000C87021E04748807803280FD14548C078E3
:101D700048498870434801794648C17041484179D3
:101D80004448017102204049C8700DE03D48807808
:101D9000042809D13B48C0783E4908703948007989
:101DA000487003203849C87036484078072807D162
:101DB00034488078012803D13248C0783649087009
:101DC00030484078022855D12E488078A02812D17A
:101DD0002C48C078012806D12B4988722F48816889
:101DE0002F48884746E02748C078022842D1012082
:101DF0002A4908703EE023488078A12803D1214871
:101E0000C078A22836D01F488078A22803D11D4868
:101E1000C078A3282ED01B488078A3280AD119485F
:101E2000C0782049087017480079487015484079F3
:101E300088701FE013488078A4280AD11148C07820
:101E40001849C8700F48007908710E4840794871E8
:101E500010E00C488078012804D10A48C078124963
:101E6000087007E007488078022803D10548C07849
:101E70000E49087000200149087010BDBB1A0020EF
:101E8000C41A002040220020C21D0020900C002017
:101E9000E4080020C80D0020240F0020901100202D
:101EA000C0110020B0110020B6110020B711002091
:101EB00010B504460F48007870B902F019FC0A30DA
:101EC0000D49086000200D4908700D4809784454F8
:101ED0000120084908700BE008480078C82807DA94
:101EE00006480078401CC0B20449087004490C54EC
:101EF00010BD0000BB1A0020C41A0020BA1A00202E
:101F0000402200207FB505460C460121202000F02C
:101F100039FE0295ADF804400020ADF80600ADF89A
:101F20000C008DF80E0001A90D4801F0CBF9372007
:101F30008DF8000000208DF8010001208DF80200CE
:101F40008DF80300684600F043FC01221146044866
:101F500001F0A8F90121024801F087F97FBD0000D6
:101F60000014004010B5FFF725FBFFF703FA10BD82
:101F70001CB501214FF4C07000F0F4FDF02000907A
:101F800000208DF8040001208DF8070069461448F0
:101F900000F0D3F94FF47040009001208DF8040058
:101FA00000208DF8060001208DF8070003208DF831
:101FB000050069460B4800F0C0F920200090012080
:101FC0008DF8040000208DF8060001208DF8070030
:101FD00003208DF805006946024800F0AEF91CBDEB
:101FE00000200240001C024070B500231B4800780E
:101FF000042801DA002070BD1948C17809B9002011
:10200000F9E7C22901DD0020F5E78C1D13480078AF
:10201000401CA04201DA0020EDE7481D104D285C6D
:10202000BB2801D00020E6E70D488078CDB24319E7
:10203000002206E0101D0A4D285C184483B2501C93
:10204000C2B28A42F6DBDDB2081D054E305C854225
:1020500001D00020CFE70120CDE70000B81A002012
:102060007821002070B505460C46002D06DB642D56
:1020700000DD6425052D0BDA052509E015F1640F57
:1020800001DA6FF0630515F1050F01DD6FF004054E
:10209000002C06DB642C00DD6424052C0BDA0524FF
:1020A00009E014F1640F01DA6FF0630414F1050F15
:1020B00001DD6FF004042146284600F0B5FE70BD36
:1020C00010B5102000F03CF8012825D1102113484C
:1020D00000F09EF9E8B90021114801F0C6F8114856
:1020E00090ED000AB8EE400A0F4880ED000AD0EDEE
:1020F000000A9FED0E1AB3EE040A10EE810A80ED7D
:10210000000A90ED000ABCEEC00A10EE100A084961
:102110000880102000F00EF810BD000000040240FE
:10212000001000400C12002008120020F628DC3FAE
:10213000101200200149086070470000143C014063
:1021400001460020034A12680A400AB1012000E05B
:1021500000207047143C0140002123498279002A65
:102160003AD00A46126803689A430B461A600A1D61
:10217000126803689A430B1D1A60027911440A68B9
:1021800003681A430A60184A0832126803689A43BF
:10219000154B08331A601A1D126803689A43124BD4
:1021A0000C331A604279102A0ED11A1F1268036884
:1021B0001A430D4B08331A601A1D126803681A433C
:1021C000094B0C331A600DE00749427911440A6843
:1021D00003681A430A6005E0027911440A6803683B
:1021E0009A430A6070470000003C014010B500F0BF
:1021F00065FBFEF7F9F910BDF0B507460C4616462B
:10220000002564B106E06119384600F056F800B9BF
:1022100004E06D1C301EA6F10106F4D100BF284673
:10222000F0BDF0B507460D461646002406E0295DD0
:10223000384600F06CF800B904E0641C301EA6F1CA
:102240000106F4D100BF2046F0BD30B5044600259C
:10225000204600F04AF870B1D4E90001401E8142E6
:1022600003D1A06838B1012505E0D4E90101401C83
:10227000814200D00125284630BD30B504460025F6
:10228000204600F032F820B1D4E90110884200D095
:102290000125284630BD70B504460D4664B120685E
:1022A000012809D90020A0602068401E60602A46ED
:1022B0002168E068FDF796FF70BD70B504460D46D5
:1022C000002685B12046FFF7C0FF60B16068401C62
:1022D00060602168884201D3002060606168E06826
:1022E000405C28700126304670BD0146002069B16F
:1022F0000A68012A0AD9CA6842B10B688A689A42F8
:1023000004D2D1E900329A4200D20120704770B560
:1023100004460D4600262046FFF7AFFF58B1A168DE
:10232000481CA060E06845542168A068884201D339
:102330000020A0600126304670BDF0B50A4600219D
:102340000023002400BF3DE0012505FA01F31568D4
:1023500005EA03049C4234D105684F000326BE40C1
:10236000B543056015794E00B540066835430560F4
:102370001579012D02D01579022D16D185684F00EF
:102380000326BE40B543856055794E00B54086684A
:1023900035438560456801268E40B54345604568F4
:1023A00096798E40B6B235434560C5684F00032626
:1023B000BE40B543C560D5794E00B540C6683543CB
:1023C000C560491C1029BFD3F0BDF0B5002300241F
:1023D0004D07ED0E02FA05F3CE1000F1200555F879
:1023E00026504E07F70E0F26BE40B543CF1000F122
:1023F000200646F82750CE1000F1200555F826504B
:1024000045EA0304CE1000F1200545F82640F0BD52
:102410000246002013690B400BB1012000E00020B0
:102420007047418370470183704742694A40426167
:102430007047000010B502210848FEF7AFF80748C2
:10244000FEF7ACF900BF02210448FEF717F9002897
:10245000F9D00248FEF70EF910BD0000002001403F
:1024600070B504460025002607E0FFF7E3FF0544AA
:10247000052002F0DBF8701CC6B2A642F5DBB5FB06
:10248000F4F080B270BD00000146002021B10729A0
:102490000AD008290ED10AE0074A5278064B1B7869
:1024A00002EB032290B205E0034A507802E0024AB0
:1024B000107800BF00BF70477019002000B589B0C8
:1024C0000121212000F04EFB09220B214248FFF799
:1024D0007CFF09220C214048FFF777FF4FF4C050E2
:1024E000079002208DF820008DF8210000208DF843
:1024F000220001208DF8230007A93748FFF71DFFB0
:102500004FF48060079001208DF8200002208DF8A4
:10251000210000208DF8220001208DF8230007A95A
:102520002E48FFF70AFF002000F05EF80121480660
:1025300000F028FB2A48FEF747FA00208DF8160025
:1025400001208DF8170000208DF8180001208DF86B
:10255000190000208DF81A0001208DF81B000020C2
:102560008DF812008DF8130001208DF81400022060
:102570008DF815000720ADF8100004A91848FEF7E3
:10258000CCFA00208DF80A008DF80B0001208DF8A0
:102590000C000020ADF80000ADF80200ADF804001A
:1025A000ADF80600ADF8080001208DF80D00684672
:1025B000FEF726FA12200B49086048600020487296
:1025C000087201208872002202210548FEF79CFA59
:1025D000FFF774F809B000BD00000240001402408B
:1025E000006400405021002010B504462CB94FF47F
:1025F00080610548FFF715FF04E04FF48061024851
:10260000FFF711FF10BD00000014024010B5FFF7E6
:10261000A9FC10BD10B504462CB14FF480710548DB
:10262000FFF701FF04E04FF480710248FFF7F9FE65
:1026300010BD0000002002401CB500200090019059
:102640004FF4A06000F000F9A82001F0D1FF00F0E5
:1026500095FE00F039F8FFF78BFC01F0B2FBFFF7B5
:102660002DFFFEF7FFF8FEF7ABF9FFF7BFFD01F016
:1026700037FA53210720FFF745FCA72140F2E73046
:1026800002F09AF8A72140F2E73000F0AFFE0A49C5
:10269000886880470849C868804701F0D1FB082155
:1026A000684600F031F80821684600F0F3FB082185
:1026B000684600F0E3FB1CBD68030020014A10706F
:1026C00051707047701900201CB50121202000F0C6
:1026D00049FA4FF40060009001208DF804000020BA
:1026E0008DF8060001208DF8070003208DF8050005
:1026F00069460348FFF721FE0120024908601CBD1E
:1027000000140240AC8242422DE9F041074688465F
:10271000002029490860092001F088FF012027498D
:10272000C1F8AC02042001F081FF4FF4FA7001F00F
:10273000A7FF00202049086000242EE0002528E0A3
:10274000385D284100F0010676B900201A4908607A
:102750004FF40C7001F094FF01201849C1F8AC024D
:102760004FF40C7001F08CFF012E10D100201249A3
:1027700008604FF40C7001F083FF01200F49C1F88D
:10278000AC0201F053FF40F2B22001F079FF681C67
:10279000C5B2082DD4DB601CC4B24445CEDB00209A
:1027A000054908604FF40C7001F06AFF01200349ED
:1027B000C1F8AC02BDE8F081AC82424200804242E6
:1027C00002468A4201D9501A7047881AFCE7000075
:1027D00070B5002100230F22C4781CB3174C246865
:1027E00004F4E064C4F5E064C4F30721C1F1040417
:1027F000E3B20A4144789C40E1B28478144021431A
:102800000C07210E0E4C05786155047804F01F0565
:102810000124AC4005786D11AD0005F1E025C5F847
:10282000004109E0047804F01F050124AC40054D87
:102830000678761145F8264070BD00000CED00E0EA
:1028400000E400E080E100E002490143024A116037
:10285000704700000000FA050CED00E0144989788B
:10286000134AD2781144124A12791144104A52790B
:1028700011440F4A927911440D4AD27911440C4AFD
:10288000127A8818C11700EB11610912A0EB01211F
:10289000084A11800648407A11460988884203D1C7
:1028A00001200549087002E00020034908707047C4
:1028B000782100206C0600206806002010B52DED60
:1028C000048BB0EE080A164880ED000A90ED000A6D
:1028D000DFED140A20EE200A80ED000A9FED120AB7
:1028E000124880ED000A90ED000ADFED0E0A20EE9E
:1028F000200A10EE101A0846FDF7FCFC41EC190BFB
:102900009FED0B0B53EC102BFDF785FC41EC180BE6
:10291000FDF703FD05490860BDEC048B10BD000008
:102920003C1300200000C84200CC0D4138130020A9
:10293000000000000070A74010B50320FFF790FDD5
:10294000514908800846008800F046FB4E4908803F
:102950004E4801884C480088FFF732FF4C49087008
:102960004A480088F0BB4B48D0ED000A4648008832
:1029700000EE100AB8EE400A20EE800ABCEEC00A53
:1029800010EE100A404908800846008800EE100A40
:10299000B8EE400A4048D0ED000AB4EEE00AF1EE8D
:1029A00010FA03D200203D49087016E0364800882E
:1029B00000EE100AB8EE400A3748D0ED000A30EEBB
:1029C000600ABCEEC00A10EE100A344908700846CE
:1029D0000078642801DD64200870304800783049B0
:1029E000087000E004E008460178012000F0F8F9E2
:1029F0002548008825490880254800780A2842DDB6
:102A00002448D0ED000A2048008800EE100AB8EEF5
:102A1000400A20EE800ABCEEC00A10EE100A1A49E5
:102A200008800846008800EE100AB8EE400A1A48EE
:102A3000D0ED000AB4EEE00AF1EE10FA03D2002065
:102A40001649087016E01048008800EE100AB8EE2B
:102A5000400A1148D0ED000A30EE600ABCEEC00A10
:102A600010EE100A0D49087008460078642801DD50
:102A70006420087009480078094908700846017800
:102A8000012000F0ADF910BD4213002044130020D6
:102A900046130020381300203C1300204013002070
:102AA0003413002070B520480178491C1FA001F0A4
:102AB00035FB224D681FC078401EC6B2002410E0CE
:102AC000295D1FA001F02AFB285D1F49097801EB51
:102AD000C10202EB01111D4A02EBC1010855601C45
:102AE000C4B2B442ECDB00201749097801EBC10203
:102AF00002EB0111154A02EBC101085514A001F0C7
:102B00000DFB11480078401C0F49087008460078FA
:102B100010490978884205DB0FA001F0FFFA012077
:102B20000F49087170BD0000B81A0020416E647230
:102B30006F69642052783A5B25645D007D21002036
:102B4000253032782000000069060020D41A0020C9
:102B50000D0A00004802002062626220200000008E
:102B6000B804002029B1064A12680243044B1A60D7
:102B700004E0034A12688243014B1A607047000068
:102B80003038024029B1064A12680243044B1A60E9
:102B900004E0034A12688243014B1A607047000048
:102BA0004038024029B1064A12680243044B1A60B9
:102BB00004E0034A12688243014B1A607047000028
:102BC0002038024029B1064A12680243044B1A60B9
:102BD00004E0034A12688243014B1A607047000008
:102BE0004438024029B1064A12680243044B1A6075
:102BF00004E0034A12688243014B1A6070470000E8
:102C000024380240F0B500210022002402250026CD
:102C10000223324F3F6807F00C0121B1042905D08F
:102C2000082937D105E02E4F076036E02D4F0760A9
:102C300033E02A4F3F1F3F68C7F38056274F3F1F9F
:102C40003F6807F03F036EB1264FB7FBF3F7DFF89D
:102C50008CC0ACF1040CDCF800C0CCF3881C07FB82
:102C60000CF40CE01E4FB7FBF3F7DFF870C0ACF1CB
:102C7000040CDCF800C0CCF3881C07FB0CF4174FE5
:102C80003F1F3F68C7F301477F1C7D00B4FBF5F78A
:102C9000076002E0124F076000BF00BF0F4F3F68A0
:102CA00007F0F0010909104F7A5C0768D7404760C8
:102CB0000A4F3F6807F4E051890A0B4F7A5C476876
:102CC000D7408760054F3F6807F46041490B064FC6
:102CD0007A5C4768D740C760F0BD00000838024002
:102CE0000024F40040787D01E816002006480078B2
:102CF000012805D105480088401C0449088002E0ED
:102D00000020024908807047421800204018002027
:102D100010B500F09BFB10BD10B5002008490870ED
:102D2000084908700849087008490870084908707F
:102D3000084908700021084600F076F810BD000030
:102D4000141800201518002017180020181800204B
:102D5000191800201A1800201CB5802000900020AF
:102D60008DF8040001208DF8070069460148FFF73F
:102D7000E4FA1CBD000402401CB580200090012034
:102D80008DF8040000208DF8060003208DF8050062
:102D900069460248FFF7D1FA1CBD0000000402405A
:102DA00030B500228B071C0F0F2303FA04F20B4BE4
:102DB0008C1053F824309343084C8D1044F8253080
:102DC00023468C1053F824308C07240F00FA04F4A7
:102DD0002343024C8D1044F8253030BD08380140A3
:102DE0007CB505460C4603208DF8040001208DF8C3
:102DF00005008DF8064000204FF4F073032201A96E
:102E000000901046FEF770FB7CBD000070B50446D4
:102E10000D462A4621460348FFF703FA642001F0D5
:102E200005FC70BD441F00207CB504460D46E0B291
:102E30008DF80400E0B28DF80500E8B28DF80600C8
:102E4000E8B28DF80700FEF71DFA78B100200346BE
:102E500020220421009001A8FEF7DAF900202023A7
:102E6000024601A90090FEF73FFB06E00020202368
:102E7000042201A90090FEF737FB7CBD70B5044623
:102E80000D462A4621460248FFF7CBF970BD0000E7
:102E9000641F002070B504460D462A4621460248AC
:102EA000FFF7BFF970BD0000841F00200CB50020A3
:102EB000019000903448006840F480303249086046
:102EC00000BF3148006800F4003000900198401CB9
:102ED0000190009818B90198B0F5A04FF1D12A4897
:102EE000006800F4003010B10120009001E00020E3
:102EF00000900098012846D123484030006840F0F7
:102F000080502149403108602048006840F440402A
:102F10001E4908601C48083000681B4908310860D9
:102F20000846006840F4004008600846006840F425
:102F3000A05008601648091F0860081F006840F08C
:102F40008070091F086000BF0F48006800F0007023
:102F50000028F9D040F205700E4908600A48083090
:102F6000006820F00300084908310860084600683E
:102F700040F00200086000BF03480830006800F01D
:102F80000C000828F8D10CBD003802400070004049
:102F900019544007003C024010B50446FDF7DCFC24
:102FA0004620FDF7ADFC2046FDF7AAFCFDF7F0FC3E
:102FB00010BD000010B5002408E006210548FFF709
:102FC000A3FB642001F032FB601CC4B2032CF4DBD1
:102FD00010BD0000300F002010B5024600230B4842
:102FE000828200210BE0094C481C34F8100024F8C0
:102FF0001100204630F81100184483B2491C0A29F8
:10300000F1DB0A2093FBF0F080B210BDDC1E002043
:10301000042808D14FF0E021096941F004014FF084
:10302000E022116107E04FF0E021096921F004017D
:103030004FF0E0221161704710B51548006840F468
:103040007000134908601348006840F001001149FE
:10305000086000200F49083108600E4800680E49DA
:1030600008400C4908600D48091D0860081F0068E9
:1030700020F48020091F0860002006490C310860F8
:10308000FFF714FF4FF0006001498039086010BD60
:1030900088ED00E000380240FFFFF6FE103000240B
:1030A00010B50121054800F0ECF8012801D1FFF727
:1030B0002FFE0121014800F0D5F810BD004001406D
:1030C00010B50121084800F0DCF8012804D10748B8
:1030D0000068401C05490860FFF708FE012102480E
:1030E00000F0C0F810BD000000440140E0160020D0
:1030F00010B50121880700F0C4F8012848D12748FD
:103100000078401C2549087025480078401C244957
:10311000087024480078401C22490870084600784E
:10312000322804DB002008701F49886880471B484C
:1031300000780A2805DB0020184908701B494868F8
:10314000804717480078FA2822DB002014490870CD
:103150001748006808B9012000E000201449086001
:103160001448007850B14FF480611348FFF75DF9BF
:103170004FF400611048FFF758F909E04FF48061FF
:103180000D48FFF750F94FF400610B48FFF74BF97A
:103190000121880700F066F810BD000099030020A7
:1031A0009A0300209B0300205C100020680300208D
:1031B000BC82434296030020001C024010B501214E
:1031C000124800F05EF801281BD111480078401C1D
:1031D0000F4908700F480078401C0E4908700C48D1
:1031E0000078022804DB002009490870FEF776FC0D
:1031F00008480078032804DB002006490870FEF721
:1032000073FA0121014800F02DF810BD00040040C0
:10321000970300209803002010B50121074800F013
:1032200030F8012804D106480068401C04490860B1
:103230000121024800F016F810BD00000010004007
:103240000C12002010B50121054800F01AF80128E1
:1032500001D1FFF7DBF90121014800F003F810BDAF
:1032600000140040CA430282704721B1028842F034
:103270000102028004E002884FF6FE731A400280C9
:10328000704730B50246002000230024158A05EA65
:103290000103958905EA010413B10CB1012000E096
:1032A000002030BD1AB183890B43838102E08389FA
:1032B0008B438381704701894FF6F8721140018179
:1032C0007047000000220288184B98420ED0184B1D
:1032D00098420BD0B0F1804F08D0164B984205D0E1
:1032E000154B984202D0154B984204D14FF68F737C
:1032F0001A404B881A43124B984207D0114B984200
:1033000004D04FF6FF431A400B891A4302804B68E2
:10331000C3620B880385054B984202D0044B984248
:1033200001D18B7A0386012383827047000001401C
:10333000000401400004004000080040000C004070
:1033400000100040001400401CB501210420FFF7CC
:1033500009FC4FF40050009001208DF804008DF816
:10336000070069460448FEF7E8FF4FF400510248A1
:10337000FFF759F81CBD00000008024010B500F02E
:1033800005F8FFF7E1FF00F017F810BD1CB50121AB
:103390004020FFF7E7FB4FF48070009000208DF88D
:1033A000040001208DF8070069460248FEF7C5FFBA
:1033B0001CBD0000000002401CB501218020FFF769
:1033C000D1FB4FF44060009001208DF804008DF88F
:1033D000070069460448FEF7B0FF4FF44061024819
:1033E000FFF721F81CBD0000001C02407FB5054618
:1033F0000C4601214804FFF7E5FB0295ADF80440B7
:103400000020ADF80600ADF80C008DF80E0001A903
:103410000D48FFF757FF19208DF8000000208DF8A8
:1034200001008DF8020001208DF803006846FFF7C7
:10343000CFF9012211460448FFF734FF0121024869
:10344000FFF713FF7FBD00000044014010B50B489B
:103450000078012806D10820FFF716F8C4B22046EC
:1034600000F010F80648807B38B10820FFF70CF810
:10347000C4B20348416B2046884710BD191800208C
:103480008C0700203EB504466946204601F055F9F8
:10349000684601F040F998B100207D49087001208C
:1034A0007C49087000210846FFF7BEFC7A48008876
:1034B0007A49088000207849088079490870B6E088
:1034C000E72C08D17748006877490860754800689C
:1034D00076490860ABE0F72C01D0F32C0AD1714893
:1034E00000681E30704908606E48006828386F49CF
:1034F00008609CE0FB2C01D0F92C0AD169480068D7
:10350000283069490860674800683C3867490860A6
:103510008DE0FD2C01D0FC2C0AD1624800683C30C3
:10352000614908605F4800685A38604908607EE079
:10353000FE2C0AD15B48006850305B49086059484E
:10354000006878385949086071E0EF2C01D0CF2C21
:103550000AD1544800681E30544908605148006838
:1035600028385149086062E0DF2C01D09F2C0AD135
:103570004C48006828304D4908604A4800683C388B
:103580004949086053E0BF2C01D03F2C0AD145487F
:1035900000683C3045490860424800685A38424952
:1035A000086044E07F2C0AD13E48006850303F4913
:1035B00008603C48006878383B49086037E004F010
:1035C0001800182805D104F08000A0B104F0010013
:1035D00088B1F82C0FD01F2C0DD0F02C0BD00F2C55
:1035E00009D0072C07D0C02C05D0032C03D0802C89
:1035F00001D0012C13D10020254908700120254954
:10360000087000210846FFF70FFC23480088234973
:1036100008800020204908802149087007E02148DF
:103620000068214908601F48006820490860FF2C95
:1036300020D11C4800681C4908601A4800681B49D2
:1036400008601B480088B0F5966F0DDD0020184912
:10365000088000210846FFF7E7FB00200C490870AE
:1036600004200C49087008E011480088401C1049EB
:10367000088002E000200E4908800548007828B143
:103680000A48016808480068FEF7ECFC3EBD0000EF
:10369000191800201A1800204018002034180020A3
:1036A000421800202818002020180020241800208C
:1036B0001C180020024600215178107840EA0121B0
:1036C00008467047024600211178507840EA0121EF
:1036D0000846704710B5024800F0D0FA10BD00004F
:1036E000B01E002010B51248007800BB40F22551F2
:1036F000104800F031F9012819D10E4800F0E6F920
:103700000D490E4A127888540C480078401C0B4929
:10371000087008460078022804DB002008700120A9
:103720000349087040F22551024800F0EDF810BD41
:103730002E13002000100140301300202F13002012
:1037400010B540F22551054800F006F9012804D1D2
:1037500040F22551014800F0D7F810BD0044004068
:1037600000B587B001210420FFF7FCF901212020DA
:10377000FFF728FA082206212348FEF726FE082232
:1037800007212148FEF721FEC020059002208DF878
:10379000180000208DF81A0003208DF81900012070
:1037A0008DF81B0005A91848FEF7C7FD4FF4E1305E
:1037B00001900020ADF810000C20ADF80E000020A4
:1037C000ADF80C00ADF80A00ADF8080001A90F48EB
:1037D00000F012F9012240F225510C4800F0E6F801
:1037E00047208DF8000000208DF801008DF80200C0
:1037F00001208DF803006846FEF7EAFF0121034827
:1038000000F091F807B000BD00080240001401402C
:1038100010B540F22551284800F09EF8002845D008
:10382000254800F053F9254908702548007878B9F3
:1038300008460078552839D10120214908701F48D1
:10384000007820490870002048708870C8702DE00A
:103850001B480078012807D1022019490870174831
:1038600000781849487021E015480078022807D1EF
:10387000032013490870114800781249887015E038
:103880000F48007803280AD100200D4908700B4822
:1038900000780C49C87001200B49087006E0002030
:1038A00007490870084908700649087040F2255118
:1038B000014800F029F810BD00140140A0150020B7
:1038C000A1150020A2150020AA15002010B504465D
:1038D0002146054800F0FFF800BF8021024800F0B3
:1038E0002EF80028F9D010BD0014014070B505462F
:1038F0000E46002400BF04E0285DFFF7E7FF601CD0
:10390000C4B2B442F8DB70BD10B50022002340F60B
:103910006A14A14200D100BF0A1201249440A3B24C
:10392000DC43048010BD21B1828942F400528281BF
:1039300004E082894DF6FF731A4082817047024687
:103940000020B1F5007F00D100BF13880B400BB100
:10395000012000E00020704770B5024600240023DB
:103960000025002040F66A16B14200D100BFC1F325
:10397000421501F01F03012606FA03F3012D02D1BF
:103980009689334006E0022D02D1168A334001E0C9
:10399000968A33400C12012606FA04F41688344045
:1039A00013B10CB1012000E0002070BDF0B503465A
:1039B000002400260025002040F66A17B94200D1F5
:1039C00000BF1846C1F3421401F01F06012707FA91
:1039D00006F5012C01D10C3004E0022C01D110308D
:1039E00000E014301AB107682F43076002E007684F
:1039F000AF430760F0BD00002DE9FF4705460E46C6
:103A00000024A14600BFA046B08900B100BF2C8AA7
:103A100024F44054F08804432C82AC8941F20C60B9
:103A20008443B08831890843718908430443AC81D9
:103A3000AC8A24F44074B0890443AC826846FFF732
:103A4000E1F82048854202D01F48854202D1DDF8C6
:103A50000C9001E0DDF80890A88900F4004040B126
:103A600009EBC90000EB091031684900B0FBF1F720
:103A700007E009EBC90000EB091031688900B0FBD1
:103A8000F1F76420B7FBF0F004012009642101FB89
:103A90001078A88900F4004040B1322000EBC80043
:103AA000B0FBF1F000F00700044308E0322000EB27
:103AB00008106421B0FBF1F000F00F0004432C81EA
:103AC000BDE8FF87001001400014014001468888CE
:103AD000C0F308007047C1F30802828070470000FD
:103AE00010B512481249C1F8B00032211048C0F890
:103AF000B4100021C0F8B810C0F8BC10C0F8C01055
:103B00000C49C0F8C4100221C0F8C8100021C0F848
:103B1000CC10C0F8D010C0F8D410042180F8D81010
:103B200000200549087000F009F810BDCD1D0020E7
:103B3000001E0020641400206314002000B587B02C
:103B4000012140F20910FFF70DF801214FF4202068
:103B5000FFF718F8082200214148FEF736FC07223B
:103B600006214048FEF731FC00208DF81A000120A4
:103B70008DF81B0002208DF818000120059002200E
:103B80008DF8190005A93648FEF7D7FB02208DF8FD
:103B900018004020059005A93248FEF7CEFB002012
:103BA0008DF81A0001208DF81B008DF81800000216
:103BB000059002208DF8190005A92B48FEF7BDFBE2
:103BC0000020FEF727FD4FF4165001900020ADF8BD
:103BD0000800ADF80A00ADF80C00ADF810000820A0
:103BE000ADF80E0001A92148FFF706FF01211F488B
:103BF000FFF799FE34208DF8000002208DF80100B7
:103C000001208DF802008DF803006846FEF7E0FD04
:103C10004FF4165001900420ADF80E0001A914488D
:103C2000FFF7EAFE26208DF8000002208DF8010043
:103C30008DF8020001208DF803006846FEF7C8FDEC
:103C4000012240F225510A48FFF7B0FE0121084841
:103C5000FFF769FE07A000F061FA07B000BD0000A1
:103C600000000240000C024000200240004C0040D6
:103C700000440040746573740000000010B50446F1
:103C800094F82810374A52F8210040F22771FFF7C4
:103C900063FE18B3E068401CE060D4E9021088427B
:103CA00009D2E1682068405C94F828102D4A52F847
:103CB0002110888009E094F828102A4A52F821003F
:103CC000002240F22771FFF771FE94F82810254A70
:103CD00052F8210040F22771FFF716FE94F82810E1
:103CE000204A52F8210040F22551FFF735FE30B34B
:103CF00000F0FEFC606294F828001A4951F8200098
:103D000080881949087094F82810164A52F8210042
:103D100040F22551FFF7F8FDD4E90610884207D29A
:103D200011480178E269501CE0616069815406E045
:103D30000E49206A884202D2206A401C206294F810
:103D40002810084A52F821000821FFF7F8FD38B181
:103D500094F82800034951F820008088044908702D
:103D600010BD00008815002084150020F0FFFF7FA3
:103D7000851500200EB501218803FEF723FF0421DD
:103D80000120FFF70DF81020019000208DF80800A9
:103D90000C208DF8090001208DF80A0001A8FEF71B
:103DA000DBF90A208DF8000001208DF801000020C9
:103DB0008DF8020001208DF803006846FEF708FD2B
:103DC0000EBD10B500F008F85321092000F064F88A
:103DD000FFF7D0FF10BD00001CB501210320FEF746
:103DE000C1FE00220E211448FEF7EFFA00220D2139
:103DF0001148FEF7EAFA4FF40040009001208DF8D8
:103E0000040000208DF8060001208DF80700032033
:103E10008DF8050069460848FEF78FFA10200090DB
:103E200000208DF8040001208DF807006946034842
:103E3000FEF783FA1CBD00000000024000040240AF
:103E400010B5012010490860032000F019FC002083
:103E50000E49C1F8BC0201210D48FFF706FA012105
:103E60000B48FFF7FFF900200A4908601E2000F008
:103E7000DDFB012004490860052000F0D7FB00218C
:103E80000348FFF7F2F910BDBC0240420000404277
:103E9000001000400C1200207FB505460C460121A1
:103EA0001020FEF76FFE0295ADF804400020ADF83B
:103EB000060001A90C48FFF705FA36208DF800002E
:103EC00001208DF801008DF802008DF8030068468E
:103ED000FEF77EFC012211460348FFF7E3F90021BB
:103EE0000148FFF7C2F97FBD001000402DE9FC41F9
:103EF000074600200090019000241D4903C9CDE928
:103F00000001A1208DF802001A4800788DF8030006
:103F1000184840788DF80400164880788DF8050020
:103F20009DF805309DF804209DF803109DF80200CF
:103F3000DFF844C0DCF80060B04705468DF8065055
:103F40000CE00E48816868468847601CC4B24FF494
:103F5000967000F06BFB052C00DB03E00748C0788F
:103F60000028EED000BF00200449C870BDE8FC81E5
:103F7000D8110020CC0400206803002090110020FC
:103F80002DE9FC41074600200090019000241D49C6
:103F900003C9CDE90001A2208DF802001A48C078BB
:103FA0008DF80300184800798DF804001648407910
:103FB0008DF805009DF805309DF804209DF803104C
:103FC0009DF80200DFF844C0DCF80060B047054609
:103FD0008DF806500CE00E48816868468847601CE2
:103FE000C4B24FF4967000F021FB052C00DB03E017
:103FF0000748C0780028EED000BF00200449C870F0
:10400000BDE8FC81E0110020CC0400206803002002
:10401000901100202DE9F04188B006462021684625
:10402000FCF7E7F8002755208DF8000002208DF8F6
:1040300001003046FCF7E8F80446142C00D914249B
:10404000224631460DF10200FCF7BAF89DF8053022
:104050009DF804209DF803109DF80200DFF84880C9
:10406000D8F800C0E0470546A01C0DF80050BB2161
:10407000E01C0DF800100CE00C4881686846884789
:10408000781CC7B24FF4967000F0D0FA052F00DB11
:1040900003E0064800790028EED000BF0020034965
:1040A000087108B0BDE8F08168030020901100207D
:1040B0002DE9FC410020009001900024144903C91F
:1040C000CDE900019DF805309DF804209DF803100E
:1040D0009DF802000F4F3E68B04705468DF8065028
:1040E0000CE00D48816868468847601CC4B24FF4F4
:1040F000967000F09BFA052C00DB03E00648807800
:104100000028EED000BF002003498870BDE8FC8184
:10411000D011002068030020901100200FB4054B3F
:1041200010B503A9044A029800F02CF810BC5DF801
:1041300014FB0000CD460008D01A00200FB4084B35
:1041400010B504A902AA039800F01CF8044602A9BD
:10415000002000F048FA204610BC5DF814FB000077
:10416000E745000802E008C8121F08C1002AFAD17A
:1041700070477047002001E001C1121F002AFBD1E7
:10418000704700002DE9FF4F8DB00F460546002611
:1041900006E025280BD0DDE90F1290476D1C761C38
:1041A00028780028F5D111B03046BDE8F08F002402
:1041B000A246A1460122EC4900E0044315F8013F64
:1041C000203B02FA03F00842F7D128782A2810D0C1
:1041D0006FF02F022878A0F13001092914D80AEBDA
:1041E0008A0102EB410144F0020400EB010A6D1C5C
:1041F000F0E701CF5FEA000A03D544F40054CAF1A6
:10420000000A44F002046D1C28782E2817D115F8F6
:10421000010F44F004042A280ED06FF02F022878F2
:10422000A0F1300109290AD809EB890102EB41010B
:1042300000EB01096D1CF2E757F8049B6D1C287810
:104240006C280FD006DC4C2817D068280DD06A28BF
:1042500014D104E0742810D07A280FD10DE044F472
:1042600000140AE044F4801401E044F44014697836
:10427000814202D104F580146D1C6D1C2A786E2ACF
:104280001FD00CDC632A31D004DC002A8BD0582AE2
:1042900011D1A3E0642A68D0692A0CD165E0732AA1
:1042A0002ED004DC6F2A73D0702A04D19BE0752ACB
:1042B0006FD0782A6ED01046DDE90F129047761C39
:1042C00050E1C4F30250022806D0032809D0042884
:1042D00001CF09D0066045E101CFF117C0E90061C7
:1042E00040E101CF06803DE106703BE117F8040B89
:1042F0008DF8000000208DF80100EB46012003E05E
:1043000057F804BB4FF0FF3061074FF0000102D4B3
:104310000DE008F10101884649450FDA8045F8DBD8
:104320001BF808100029F4D108E008F101018846C3
:104330008142FADB1BF808100029F6D1DDE90F23D2
:10434000AAEB08008146214600F036F9304400EB24
:10435000080604E0DDE90F121BF8010B9047B8F1E5
:104360000108F7D221464846F7E00A21C4F3025378
:104370004FF0000B0891022B04D001CFC117032B83
:1043800009D00AE0FF1D27F00707F7E8020108E05F
:1043900032E01FE020E000B2C117042B01D140B28F
:1043A000C117031E71F1000307DA4FF0000CD0EBC8
:1043B0000C006CEB01012D2302E0230504D52B2317
:1043C0008DF82430012303E0E30701D02023F7E731
:1043D000984658E00A2110E010210EE010204FF01E
:1043E000000B08900CE010214FF0000B44F0040487
:1043F0004FF00809089103E008214FF0000B0891E5
:10440000C4F30253022B04D001CF0021032B06D0AA
:1044100006E0FF1D27F00707F7E8020103E080B27E
:10442000042B00D1C0B24FF0000823072BD5702A0F
:1044300007D0DDF820C08CF0100C5CEA0B0C05D026
:104440000EE040238DF82430012308E050EA0103F8
:1044500006D030238DF824308DF82520022398468D
:10446000DDF820C08CF0080C5CEA0B0C0BD150EA94
:10447000010301D1630706D530238DF824304FF0B6
:104480000108A9F10109582A04D038A20B9208AA00
:104490000A920BE03AA2F9E75B46089AFBF759FF4C
:1044A0000B9B9B5C0A9A521E0A92137050EA0102FF
:1044B000F2D10A98ADEB000000F1200B600702D5A5
:1044C00024F4803401E04FF00109D94502DDA9EB65
:1044D0000B0000E0002000EB0B0141440890AAEB28
:1044E000010AE00306D4DDE90F232146504600F01F
:1044F00063F806444FF0000908E009A911F8090023
:10450000DDE90F12904709F10109761CC145F4DB82
:10451000E0030CD5DDE90F232146504600F04CF8AE
:10452000064404E0DDE90F1230209047761C08991C
:10453000481E08900029F5DC08E00A980A990078DE
:10454000491C0A91DDE90F129047761CBBF100016E
:10455000ABF1010BF1DC21465046DDE90F2300F001
:1045600019F806446D1C1BE609280100303132336E
:10457000343536373839616263646566000000009F
:104580003031323334353637383941424344454689
:10459000000000002DE9F041044600251E461746A4
:1045A000880404D405E039462020B0476D1C641E01
:1045B000F9D52846BDE8F0812DE9F04104460025F3
:1045C0001E469046C80301D5302700E02027880406
:1045D00004D505E041463846B0476D1C641EF9D548
:1045E0002846BDE8F0810A68531C0B6010707047C4
:1045F00010B504466FF00400FEF70AFDE11704EB66
:104600005171C1F3C701074A11701046007800EBE1
:104610004001C1EBC0104FF6FF7101EAC000024932
:10462000088010BDBE150020C0150020014601B94C
:104630007047124A12884A434FF0E0235A61002221
:104640009A611A46126942F001021A6100BF4FF0E6
:10465000E022106900F001021AB100F48032002A51
:10466000F5D04FF0E022126922F001024FF0E02372
:104670001A6100229A6100BFDAE70000C01500202D
:104680000146114A12784A434FF0E0235A61002252
:104690009A611A46126942F001021A6100BF4FF096
:1046A000E022106900F001021AB100F48032002A01
:1046B000F5D04FF0E022126922F001024FF0E02322
:1046C0001A6100229A617047BE15002070B5044639
:1046D0000D46A1B20548FFF7FEF900BF802103484F
:1046E000FFF72DF90028F9D0204670BD004C00409E
:1046F0000148006870470000E016002000B5014640
:10470000FFF7F6FF884203D2FFF7F2FF091A00E035
:104710000021084600BD02460023002109E0505C4C
:10472000302804D15B1C042B02DB012070470023DE
:10473000491C0829F3DB0020F8E710B502460720E2
:104740000AE00123834013400BB1312300E0302302
:10475000C0F107040B55401E0028F2DA0020087251
:1047600010BD0000FDF768FFFFF7C2FFC8300E491B
:10477000086000210846FEF757FB0CA0FFF7CEFCAF
:1047800010E00C490869804700F046F806480068C8
:10479000FFF7B4FF30B9FFF7ABFFC830024908603C
:1047A000FEF7CAF8EDE700001C01002052657365B2
:1047B000740D0A00680300207FB505460C460121F0
:1047C0000804FEF7FFF90295ADF804400020ADF8AB
:1047D0000600ADF80C008DF80E0001A90D48FEF79B
:1047E00071FD18208DF8000003208DF801000120D4
:1047F0008DF802008DF803006846FDF7E9FF0122FD
:1048000011460448FEF74EFD01210248FEF72DFD3A
:104810007FBD0000004001401F4800780D2838D2BD
:10482000DFE800F037070B0F13171B1F23272B2F71
:1048300033000220184908702CE003201649087044
:1048400028E004201449087024E00520124908706B
:1048500020E00620104908701CE007200E4908706F
:1048600018E008200C49087014E009200A49087073
:1048700010E00A20084908700CE00B200649087077
:1048800008E00C200449087004E00D20024908707B
:1048900000E000BF00BF70474702002070B502462D
:1048A00000231AE0002012E032F81060451C32F8B4
:1048B0001550AE4209DD32F81040451C32F8155053
:1048C00022F81050451C22F81540451CE8B24D1E38
:1048D000ED1A8542E8DC5D1CEBB24D1E9D42E1DC29
:1048E00070BD000070B505460C460E4805600068B6
:1048F00041420C4800684042FDF7B4FB06E04FF42B
:104900002F70FFF793FEA4F52F7084B2B4F52F7FBC
:10491000F5DA2046FFF78AFE00210846FEF784FA02
:1049200070BD00002818002070B505460C460748E9
:10493000056001680068FDF795FB2046FFF776FEED
:1049400000210846FEF770FA70BD0000281800200C
:1049500010B53448807910B100203249887131484F
:10496000C07928B100202F49C87101202E49087054
:104970002C48007A10B100202A4908722948407A50
:1049800000284DD00020274948720024274AD078BB
:10499000916888470DE04FF4FA70FFF747FE4FF437
:1049A000FA70FFF743FE601CC4B2052C01DB002443
:1049B00003E01F48C07B0128EDD100BF00201C4947
:1049C000C87308464078012807D10020487017496D
:1049D000C878CA680121904721E0154880780128ED
:1049E00008D10020124988701049C878CA6803218C
:1049F000904714E00E48C078012808D100200C49E7
:104A0000C8700A49C878CA680221904707E00020A8
:104A10000749C8700549C878CA680221904700BF95
:104A200010BD00008C030020470200205C0B00201A
:104A3000B804002070B504460D466420FFF7F6FD6B
:104A400008480460016800684042FDF70BFB2846F7
:104A5000FFF7ECFD00210846FEF7E6F96420FFF7BA
:104A6000E5FD70BD2818002070B504460D46642091
:104A7000FFF7DCFD08480460016800684042FDF76C
:104A8000F1FA2846FFF7D2FD00210846FEF7CCF9DF
:104A90006420FFF7CBFD70BD2818002070B50546D7
:104AA0000C466420FFF7C2FD0948056000684142DA
:104AB00007480068FDF7D6FA2046FFF7B7FD00214A
:104AC0000846FEF7B1F96420FFF7B0FD70BD0000A5
:104AD0002818002070B505460C466420FFF7A6FD97
:104AE000094805600068414207480068FDF7BAFAC6
:104AF0002046FFF79BFD00210846FEF795F964204C
:104B0000FFF794FD70BD00002818002010B5044682
:104B100000200D4908700D4908700D4908700D49B5
:104B200008700D4908700D49087001200C49087083
:104B30000C48046001680068FDF794FA00BF024861
:104B400000780128FBD110BD1A180020171800208A
:104B5000141800201518002016180020181800201E
:104B6000191800202818002010B50446FF2C0AD17F
:104B700000206049887301205F49087000210846C1
:104B8000FEF752F986E0E72C08D15C4800685C49E2
:104B900008605A4800685B4908607BE0F72C01D048
:104BA000F32C0AD155480068143055490860534821
:104BB00000682838534908606CE0FB2C01D0F92CC0
:104BC0000AD14E48006828304D4908604B480068BB
:104BD0003C384C4908605DE0FD2C01D0FC2C0AD12A
:104BE000464800683C3046490860444800685A38E6
:104BF000444908604EE0FE2C0AD14048006850301D
:104C00003F4908603D48006878383E49086041E007
:104C1000EF2C01D0CF2C0AD1384800681430394924
:104C200008603648006828383549086032E0DF2CD3
:104C300001D09F2C0AD131480068283031490860E2
:104C40002E4800683C382E49086023E0BF2C01D074
:104C50003F2C0AD1294800683C302A49086027487F
:104C600000685A382649086014E07F2C0AD123488E
:104C7000006850302349086020480068783820498F
:104C8000086007E01D4800681D4908601B4800686F
:104C90001C490860FF2C20D118480068184908609A
:104CA000164800681749086017480088B0F5966FE5
:104CB0000DDD00201449088000210846FEF7B4F8F5
:104CC00000201249087004200B49087008E00E48C3
:104CD0000088401C0C49088002E000200A49088036
:104CE0000448807B28B10748016805480068FDF743
:104CF000B9F910BD8C0700201A18002028180020D0
:104D000020180020241800201C180020191800204A
:104D100010B56420FFF78AFC084A907A1169884729
:104D2000C820FFF783FC05484FF4EB7182691E2011
:104D300090476420FFF77AFC10BD00008C0700202C
:104D400070B505460C4600201E4908701E490870C3
:104D50001E4908701E4908701E4908701E490870D7
:104D600001201E4908701E48056000201D4908806A
:104D700001201D4908701A4801680068FDF772F9A2
:104D800013E018480088A0420FDB00210846FEF718
:104D90004BF8002013490880134908700120094985
:104DA000087000200D49087003E0064800780128CB
:104DB000E7D100BF4FF4FA70FFF738FCFDF7ACFF06
:104DC00070BD00001A1800201718002014180020C9
:104DD0001518002016180020181800201918002097
:104DE00028180020401800204218002010B5044662
:104DF00000200849087001200749887307480460AB
:104E000001680068FDF72EF900BF0248007801280C
:104E1000FBD110BD1A1800208C0700202818002094
:104E20002DE9FC4704460020009001900027002552
:104E300000268046364988714871364903C9CDE954
:104E400000010D2C03D10D208DF8010004E0052C8C
:104E500002D105208DF8010002208DF802008DF8A6
:104E6000030000208DF804008DF805009DF8053042
:104E70009DF804209DF803109DF80200DFF898903B
:104E8000D9F800C0E04707468DF806700D2C20D1F8
:104E90000EE008216846FDF7FDFFC820FFF7C6FBBE
:104EA000681CC5B20A2D03DD1CA0FFF737F903E02B
:104EB000174880790028ECD000BF15488679314624
:104EC00017A0FFF72BF90020114988713046BDE883
:104ED000FC87052C19D10BE008216846FDF7DAFFA5
:104EE000C820FFF7A3FB681CC5B20A2D00DD03E054
:104EF000074840790028EFD000BF054890F80580AA
:104F00000020034948714046E1E70020DFE7000048
:104F1000C21D0020A40C0020680300204E4F00009A
:104F2000523A2564200000002DE9FC470446002089
:104F3000009001900025324903C9CDE900010D2CF4
:104F400003D10D208DF8010004E0052C02D10520CD
:104F50008DF8010002208DF8020001208DF8030079
:104F600000208DF804008DF805009DF805309DF8AF
:104F700004209DF803109DF80200DFF88890D9F80E
:104F800000C0E04706468DF806600D2C19D10BE0F5
:104F900008216846FDF77EFF6420FFF747FB681C89
:104FA000C5B2032D00DD03E01748007A0028EFD0DA
:104FB00000BF1548077A0020134908723846BDE83B
:104FC000FC87052C19D10BE008216846FDF762FF2C
:104FD0006420FFF72BFB681CC5B2032D00DD03E046
:104FE0000948C0790028EFD000BF074890F8078033
:104FF00000200549C8714046E1E70020DFE70000D6
:10500000A40C002068030020C21D002070B50646D5
:1050100030484FF4487142691E2090474FF4FA70AF
:10502000FFF704FB2B484FF44871C2691E209047DC
:105030004FF4FA70FFF7FAFA26484FF448714269C4
:105040001E2090474FF4FA70FFF7F0FA21484FF412
:105050004871C2691E2090470025002435E01E4893
:105060008168304688470546012D04D0032D10D0B5
:10507000042D28D11FE034B916484FF4C871C26915
:105080001E20904704E0012C01D0022C00D1022503
:105090001AE03CB901240F484FF4FA71C2691E208E
:1050A000904707E0012C05D10A484FF49671C26978
:1050B0001C20904708E002240648C821826912207B
:1050C0009047022500E000BF00BF022DC7D1FDF7C9
:1050D00023FE70BD8C070020900C00202DE9FC41C0
:1050E00004460D46002000900190274903C9CDE9F0
:1050F00000010D2C03D10D208DF8010004E0052CDA
:1051000002D105208DF8010001208DF802008DF8F4
:10511000035000208DF804008DF805009DF805303F
:105120009DF804209DF803109DF80200DFF85CC094
:10513000DCF80070B84706468DF80660002708E0E6
:1051400008216846FDF7A6FE6420FFF76FFA781C79
:10515000C7B2032FF4DB0E484168204688470D2C68
:1051600007D100BF0A48416820468847A842F9D1C4
:1051700008E0052C06D100BF054841682046884755
:10518000A842F9D1BDE8FC81A40C002068030020EE
:10519000900C00202DE9FC41044600200090019075
:1051A000184903C9CDE9000108208DF80200012C3F
:1051B00003D101208DF8030010E0022C03D101205F
:1051C0008DF804000AE0032C03D102208DF80300BF
:1051D00004E0042C02D102208DF804009DF8053073
:1051E0009DF804209DF803109DF80200064F3E68CC
:1051F000B04705468DF8065008216846FDF74AFE7F
:10520000BDE8FC81F40800206803002010B50120EF
:105210002749087134E02748807801280ED1C8203A
:10522000FFF704FA002023498870214908712249B8
:10523000086A8047C820FFF7F9F925E01E484FF4B7
:10524000AF71C2690F209047C820FFF7EFF91948E6
:10525000807801280ED1FA20FFF7E8F900201549DF
:105260008870134908711449086A8047C820FFF7FD
:10527000DDF909E010484FF4AF7182690F209047C3
:105280000C4880780028C6D000BF0A4880780128E2
:105290000DD1C820FFF7CAF90020064988700449DB
:1052A00008710549086A8047C820FFF7BFF910BD9B
:1052B000E4080020C21D00208C07002070B50446C1
:1052C00066181644F018C61700EB16663612A0EBE7
:1052D0000626F5B2284670BD1F4909681F4AD2F854
:1052E000142241EA42011D4AD2F8182241EA820101
:1052F0001A4AD2F81C2241EAC20141F0F001C94326
:10530000C8B21749497841400140154A1170114609
:10531000487009789278114011B10121104A9171B9
:105320000F4909780E4AD278114011B101210C4A77
:10533000D1710B4909780A4A1279114011B1012142
:10534000074A117206490978054A5279114011B18C
:105350000121034A51727047100244420000444246
:105360008C0300202DE9F041044663792279E1782D
:10537000A078074F3E68B0470546A5710821204632
:10538000FDF77CFD6420FFF751F9BDE8F0810000D6
:105390006803002030B58DB005466846FAF734FF43
:1053A000C4B221466846FDF731FD0DB030BD0000A6
:1053B00070B58EB004460D462B46224606A101A8C4
:1053C000FEF7BCFE01A8FAF71FFFC6B2314601A8DE
:1053D000FDF71CFD0EB070BD434D44322D333A2015
:1053E0002523782D252378002DE9F04104466379A3
:1053F0002279E178A078074F3E68B0470546A5714D
:1054000008212046FDF746FD3220FFF70FF9BDE8E1
:10541000F08100006803002010B504462046FEF726
:1054200055FA10BD10B505210148FEF75FFA10BD11
:105430006C1000202DE9FC4104460D460020009030
:1054400001902B4903C9CDE90001012C03D10B20A8
:105450008DF801000AE0022C03D108208DF801002C
:1054600004E0032C02D112208DF8010050208DF8A9
:10547000020000208DF80300642095FBF0F00A2163
:1054800090FBF1F201FB1200C0B28DF804000A207B
:1054900095FBF0F100FB115195FBF0F00A2290FB17
:1054A000F2F302FB130001EB0010C0B28DF805000F
:1054B0009DF805309DF804209DF803109DF802002A
:1054C000DFF830C0DCF80070B84706468DF806609B
:1054D000002708E008216846FDF7DCFC6420FFF7A0
:1054E000A5F8781CC7B2032FF4DBBDE8FC810000EF
:1054F000380A0020680300202DE9FC4104460F46CD
:10550000002000900190214903C9CDE900015520F8
:105510008DF80000012C03D10B208DF801000AE06A
:10552000022C03D108208DF8010004E0032C02D1E5
:1055300012208DF8010040208DF80200A1208DF886
:105540000300D2208DF80400E3208DF805009DF8BB
:1055500005309DF804209DF803109DF80200DFF847
:1055600030C0DCF80060B04705468DF806500026D4
:1055700008E008216846FDF78DFC6420FFF756F827
:10558000701CC6B2032EF4DBBDE8FC81380A002093
:10559000680300202DE9FC4104460E461E4903C95C
:1055A000CDE90001012C03D10B208DF801000AE0A8
:1055B000022C03D108208DF8010004E0032C02D155
:1055C00012208DF8010010208DF8020000208DF8C7
:1055D00003008DF804608DF803009DF805309DF8F8
:1055E00004209DF803109DF80200DFF830C0DCF8BD
:1055F0000070B84705468DF80650002708E00821DE
:105600006846FDF747FC6420FFF710F8781CC7B226
:10561000032FF4DBBDE8FC81380A0020680300207A
:105620002DE9FC4104460D460020009001902149DF
:1056300003C9CDE90001012C03D10B208DF8010035
:105640000AE0022C03D108208DF8010004E0032CAD
:1056500002D112208DF8010010208DF80200012DDA
:1056600004D0022D06D0032D0CD107E001208DF8C7
:10567000030000BF02208DF8030000BF03208DF857
:10568000030000BF00BF00BF9DF805309DF8042057
:105690009DF803109DF80200DFF81CC0DCF80070D4
:1056A000B84706468DF8066008216846FDF7F2FB0C
:1056B000BDE8FC81380A0020680300202DE9FC4188
:1056C00005460C46002000900190364903C9CDE9FB
:1056D0000001012D03D10B208DF801000AE0022DFD
:1056E00003D108208DF8010004E0032D02D112201F
:1056F0008DF8010020208DF8020020788DF803003D
:1057000060788DF80400A0788DF805009DF80530CC
:105710009DF804209DF803109DF80200DFF888C072
:10572000DCF80070B84706468DF80660002708E0F0
:1057300008216846FDF7AEFB6420FEF777FF781C72
:10574000C7B2032FF4DB4FF49670FEF76FFF2120F2
:105750008DF80200E0788DF8030020798DF80400C0
:1057600060798DF805009DF805309DF804209DF8BE
:1057700003109DF80200DFF830C0DCF80070B84775
:1057800006468DF80660002708E008216846FDF708
:1057900081FB6420FEF74AFF781CC7B2032FF4DBBD
:1057A000BDE8FC81380A0020680300202DE9FC4197
:1057B00004460E46002000900190264903C9CDE919
:1057C0000001012C03D10B208DF801000AE0022C0E
:1057D00003D108208DF8010004E0032C02D112202F
:1057E0008DF8010030208DF80200012E04D0022E29
:1057F00006D0032E0CD107E000208DF8030000BF77
:1058000001208DF8030000BF02208DF8030000BFC7
:1058100000BF00BF9DF805309DF804209DF80310DF
:105820009DF80200DFF830C0DCF80070B84705468C
:105830008DF80650002708E008216846FDF72AFB8E
:105840006420FEF7F3FE781CC7B2032FF4DBBDE83B
:10585000FC810000380A0020680300202DE9FC418B
:1058600004460D46002000900190294903C9CDE966
:105870000001012C03D10B208DF801000AE0022C5D
:1058800003D108208DF8010004E0032C02D112207E
:105890008DF8010060208DF80200072D1DD2DFE891
:1058A00005F01C04080C1014180001208DF80300EA
:1058B00014E002208DF8030010E003208DF80300AF
:1058C0000CE004208DF8030008E005208DF80300AB
:1058D00004E006208DF8030000E000BF00BF9DF843
:1058E00005309DF804209DF803109DF80200DFF8B4
:1058F00024C0DCF80070B84706468DF80660082121
:105900006846FDF7C7FA6420FEF790FEBDE8FC810B
:10591000380A0020680300202DE9FC4104460020DD
:105920003849087048703849C873009001900025C4
:10593000364903C9CDE90001012C03D10E208DF8B1
:10594000010004E0022C02D10F208DF8010001209B
:105950008DF802009DF805309DF804209DF8031095
:105960009DF80200DFF8A8C0DCF80070B8470646D2
:105970008DF80660012C14D10EE008216846FDF771
:1059800089FAC820FEF752FE681CC5B20F2D03DD50
:1059900000201C49087003E01A4800780028ECD069
:1059A00016E0022C14D10EE008216846FDF772FAC9
:1059B000C820FEF73BFE681CC5B20F2D03DD00209A
:1059C0001049487003E00F4840780028ECD000BF31
:1059D00000200C49087048700B4801690D48884741
:1059E0004FF4FA70FEF722FE07480169094888471C
:1059F0004FF4FA70FEF71AFE03480169054888471C
:105A0000BDE8FC81C21D0020B80400206C0B002002
:105A100068030020FC0400202DE9FC4104460E46EA
:105A2000224903C9CDE90001012C03D10E208DF8D4
:105A3000010004E0022C02D10F208DF801000220A9
:105A40008DF80200012E04D0022E06D0032E0CD1B8
:105A500007E001208DF8030008E002208DF8030024
:105A600004E003208DF8030000E000BF00BF9DF8B4
:105A700005309DF804209DF803109DF80200DFF822
:105A800030C0DCF80070B84705468DF80650002796
:105A900008E008216846FDF7FDF93C20FEF7C6FD49
:105AA000781CC7B2032FF4DBBDE8FC816C0B00202F
:105AB000680300202DE9FC4104460020009001907D
:105AC0002A48016800914068019010208DF802007A
:105AD00020788DF8030060788DF80400A0788DF8A8
