:020000040800F2
:10000000502300209D010008A5010008A701000859
:10001000A9010008AB010008AD01000800000000C4
:10002000000000000000000000000000AF01000818
:10003000B101000800000000B3010008B50100088C
:10004000B7010008B7010008B7010008B7010008B0
:10005000B7010008B7010008B7010008B7010008A0
:10006000B7010008B701000869240008B7010008BB
:10007000B7010008B7010008B7010008B701000880
:10008000B7010008B7010008B7010008B701000870
:10009000B7010008B7010008B7010008B701000860
:1000A000513A0008753A0008B7010008B701000886
:1000B000A13A00086D3B0008B7010008B70100082D
:1000C000B7010008B7010008B7010008B701000830
:1000D000B7010008A540000801410008B701000869
:1000E000B7010008B7010008B7010008B701000810
:1000F000B7010008B7010008B7010008B701000800
:10010000B7010008B7010008B7010008B7010008EF
:1001100095400008B7010008C93B0008F53B0008FE
:10012000B7010008B7010008B7010008B7010008CF
:10013000B7010008B7010008B7010008B7010008BF
:10014000B7010008B7010008B7010008B7010008AF
:10015000B7010008B7010008B7010008D141000845
:10016000B7010008B7010008B7010008B70100088F
:10017000B7010008B7010008B7010008B70100087F
:10018000B7010008B7010008DFF80CD000F036FB1B
:1001900000480047D55500085023002006488047F6
:1001A00006480047FEE7FEE7FEE7FEE7FEE7FEE75C
:1001B000FEE7FEE7FEE7FEE7E939000889010008EF
:1001C00040EA01039B0703D009E008C9121F08C0D9
:1001D000042AFAD203E011F8013B00F8013B521E59
:1001E000F9D27047D2B201E000F8012B491EFBD2D0
:1001F00070470022F6E710B513460A460446194632
:10020000FFF7F0FF204610BD421C10F8011B00292B
:10021000FBD1801A70472DE9FE4F804681EA03002A
:10022000C00F0C46009021F0004123F00045B8EBD0
:100230000200A94105D24046214690461C460B4685
:10024000024623F00040104347D0270DC7F30A00B1
:10025000C3F30A510290401A019040286BDAC3F3AD
:10026000130040F4801B0098924620B10023D2EB8B
:10027000030A63EB0B0B01985946C0F1400250464C
:1002800000F0C7F906460D4650465946019A00F05F
:10029000DFF910EB08006141002487EA115284EA7B
:1002A000E7731A4340D0009A62B3019A012A4FEAD9
:1002B000075215DC001B61EB02014FF0004202EA1D
:1002C0000752CDE90042001C41F5801132462B4611
:1002D00000F016FA03B0BDE8F08F40462146F9E77A
:1002E000001B61EB0201001C41F5801300185B410B
:1002F0002018A2F5001747EB030140EAD570B619A4
:100300006D4111E06D084FEA360645EAC0754FEAC7
:100310000752001B61EB0201001C41F580114908E6
:100320004FEA30000019514132462B4603B0BDE878
:10033000F04F00F0D6B90098012240000023D0EB26
:10034000020263EBE073009821464FEAE074B8EBD9
:10035000000061EB0401E9E783F000435BE781F013
:10036000004158E72DE9FE4F81EA030404F0004400
:1003700021F0004100944FF0000B23F0004350EABD
:1003800001045ED052EA03045BD0C3F30A54C1F304
:100390000A552C44A4F2F3340194A0FB0254C1F397
:1003A000130141F48011C3F3130343F4801301FBE1
:1003B000024400FB034E840A970A44EA815447EA48
:1003C0008357A4FB076802958D0A05FB07854FEA52
:1003D000932C04FB0C542705029D4FEA065847EA6C
:1003E0001637B5EB08056EEB070C870E920E47EA41
:1003F000811742EA8312A7FB0201B6EB0B0164EB03
:1004000000042B0D43EA0C335E1844EB1C50DA4613
:100410005146E7FB0201C5F313044FEA0B3343EAED
:1004200014534FEA0432019C43EA0603A4F10C047E
:100430000294009CCDE900B400F062F903B0BDE87D
:10044000F08F00200146F9E72DE9F04D81EA030421
:1004500004F0004B21F0004514464FF0000A23F051
:10046000004150EA050220D054EA01021DD0C5F334
:100470000A570246C5F31303C1F31300C1F30A562A
:1004800040F4801543F48013A7EB0608101BD646F2
:1004900008F2FD3873EB050002D308F1010801E012
:1004A00092185B41B8F1000F03DA00200146BDE865
:1004B000F08D00204FF48011064684460EE0171B95
:1004C00073EB050705D3121B63EB050306434CEAE8
:1004D000010C49084FEA300092185B4150EA0107CD
:1004E000EDD152EA030012D082EA040083EA05014A
:1004F000084305D0101BAB4106D20122002306E0C1
:1005000000224FF0004302E06FF0010253101AEB9B
:1005100006004CEB085110EB0A0041EB0B01BDE863
:10052000F04D00F0DEB800F0004230F000400AD09C
:10053000C10D01F56071C0F3160042EA0151C20815
:1005400040071143704700200146704701F0004307
:1005500030B421F0004150EA010206D00A0DA2F5A4
:100560006072C1F31301002A02DC30BC0020704726
:10057000440F44EAC104C100E01830BC00EBC25093
:1005800000F078B830B50B46014600202022012447
:1005900009E021FA02F59D4205D303FA02F5491B51
:1005A00004FA02F52844151EA2F10102F1DC30BD67
:1005B0002DE9F05F0546002092469B468846064698
:1005C000814640241BE0284641464746224600F02B
:1005D0002FF853465A46C01A914110D31146184677
:1005E000224600F016F82D1A67EB01084F46224606
:1005F0000120002100F00DF817EB00094E41201EEC
:10060000A4F10104DFDC484631462A464346BDE8F2
:10061000F09F202A04DB203A00FA02F10020704704
:100620009140C2F1200320FA03F319439040704730
:10063000202A04DB203A21FA02F00021704721FA37
:1006400002F3D040C2F1200291400843194670479E
:10065000202A06DBCB17203A41FA02F043EAE07386
:1006600006E041FA02F3D040C2F120029140084373
:10067000194670470029A8BF7047401C490008BFB1
:1006800020F00100704710B4B0FA80FC00FA0CF0C2
:1006900050EA010404BF10BC704749B1CCF12004FA
:1006A00021FA04F411FA0CF118BF01212143084387
:1006B000A3EB0C01CB1D4FEA00614FEA102042BFB3
:1006C000002010BC704700EBC35010440029A4BFA9
:1006D00010BC7047401C490008BF20F0010010BC4E
:1006E000704710B5141E73F1000408DA401C41F184
:1006F000000192185B411A4301D120F0010010BDA6
:100700002DE9F04D92469B4611B1B1FA81F202E01B
:10071000B0FA80F220329046FFF77BFF04460F4686
:1007200040EA0A0041EA0B0153465A46084313D0F7
:10073000114653EA010019D0C8F140025046FFF7B4
:1007400077FF05460E46504659464246FFF761FF81
:10075000084305D0012004E020463946BDE8F08D6D
:100760000020054346EAE0762C4337430A986305A8
:10077000E40AA0EB08000022FD0A44EA47540A30CC
:1007800002D500200146E9E7010510196941DDE9BC
:10079000084500196941BDE8F04DA2E7C1F30A52CE
:1007A000C1F3130140F2FF3341F480119A4202DA9F
:1007B00000200146704740F233439A42A2F233428E
:1007C00002DC5242FFF734BFFFF723BF30B5041EEF
:1007D00071F1000404DB4FF00044404264EB01017E
:1007E000141E73F1000405DB1C464FF00043524217
:1007F00063EB0403994208BF904230BD064C074D9D
:1008000006E0E06840F0010394E8070098471034E0
:10081000AC42F6D3FFF7BCFCC87B0008E87B0008BD
:1008200070B58D1810F8014B14F0030201D110F8C7
:10083000012B231106D110F8013B03E010F8016BE6
:1008400001F8016B521EF9D1ABB110F8012B04F085
:100850000C048A1A0C2C03D0A2EB84129B1C08E017
:1008600010F8014BA2EB0422F8E712F8014B01F853
:10087000014B5B1EF9D5A942D4D3002070BDCA43F9
:100880000260704721B1826842F00102826003E099
:10089000826822F001028260704700000021084A4D
:1008A0001168084A1140D0E900231A4383681A43AB
:1008B000C3681A431143044AC2F804137047000086
:1008C00004230140E030FCFF0020014000B58DB062
:1008D0000121084602F09EFD0121080202F0CAFD36
:1008E0004020019003208DF8080000208DF80B00B7
:1008F00001A9174801F0F5FE00200390049006902E
:10090000059003A8FFF7CAFF0121080202F0C2FD0B
:1009100000214FF4807002F0BDFD00208DF8200012
:1009200007908DF8210009900B9001208DF8300080
:1009300007A9084800F01EF80623012219460548B9
:1009400000F042F801210348FFF79CFF0DB000BD05
:1009500000000240002001400146C86C80B2704790
:100960000246002013680B400BB1012000E000207C
:100970007047000030B50246002000235068104C3C
:1009800020400D790C6844EA0524204350609068AB
:100990000C4C2040D1E903542C438D682C434D79F5
:1009A00044EA450420439060D06A20F470000C7D36
:1009B000641EE4B2234340EA0350D06230BD00001D
:1009C000FFFEFFFCFDF7FFC0F0B504460D4600201A
:1009D0000021092D11DDE068A5F10A0606EB4607A6
:1009E000072606FA07F18843A5F10A0606EB460634
:1009F00003FA06F10843E0600CE0206905EB4507C7
:100A0000072606FA07F1884305EB450603FA06F1C7
:100A100008432061072A0FDA606B561E06EB860733
:100A20001F2606FA07F18843561E06EB860605FACE
:100A300006F10843606322E00D2A0FDA206BD61F0F
:100A400006EB86071F2606FA07F18843D61F06EB3A
:100A5000860605FA06F10843206310E0E06AA2F179
:100A60000D0606EB86071F2606FA07F18843A2F15A
:100A70000D0606EB860605FA06F10843E062F0BDB6
:100A8000816841F0804181607047000070B50023AB
:100A90002A4A12780B2A03DA0022294C22704BE0F2
:100AA000002044E0274A125C552A3ED1254C421CC6
:100AB000A25CEE2A39D100F10A02A25CBB2A34D131
:100AC0002546841C2D5D1F4EC41C345D2544041D29
:100AD000345D2544441D345D2544841D345D254426
:100AE000C41D345D254400F10804345D2A19D4176F
:100AF00002EB14642412A2EB0424E3B2344600F1A6
:100B00000902A25C9A420DD1002105E00A180D4CA1
:100B1000A25C62544A1CD1B20B29F7DB0122084CBB
:100B2000227002E00022064C2270421CD0B2034A1E
:100B300012780A3A8242B5DA70BD0000B016002081
:100B400078060020C01D002010B500F009F8012033
:100B500002F00CFF00200149086010BDBC024342B6
:100B60001CB50121422002F055FC402000900120DC
:100B70008DF8040000208DF8060003208DF8050094
:100B800069460A4801F0ADFD4FF400400090012095
:100B90008DF8040000208DF8060003208DF8050074
:100BA0006946024801F09DFD1CBD000000040240A2
:100BB00010B502F091FD012008490860022004F000
:100BC00097FC0748D0F81C02C4B200200349086013
:100BD000022004F08DFC204610BD000098824042A7
:100BE0000080404270B5044602F086FD00251BE0FF
:100BF00004F080061EB101200E49086002E00020CA
:100C00000C4908606006040E01200A49091F0860AB
:100C1000022004F06DFC00200749C1F89802022070
:100C200004F066FC681CC5B2082DE1DBFFF7C0FFCD
:100C300070BD00009C8240420080404210B502F02E
:100C40005BFD0120094908600949C1F898020420A8
:100C500004F04EFC002005490860042004F048FC24
:100C600000200349C1F8980210BD00009C82404258
:100C70000080404210B502F03FFD002007490860A7
:100C800001200749C1F89802042004F031FC01203A
:100C900002490860042004F02BFC10BD9C824042F5
:100CA0000080404210B503F03BFA10BD10B5044679
:100CB0000B48844209D10121480602F0CBFB0021F8
:100CC0004FF0007002F0C6FB08E00121880602F038
:100CD000C1FB00214FF0806002F0BCFB10BD0000A2
:100CE0000064004010B50021837A012202FA03F16A
:100CF0003D4A126842F001023B4B1A603A4A1C32EC
:100D000012688A43384B1C331A60027BCAB9364AD0
:100D10000C3212688A43344B0C331A604288C38801
:100D200042EA0343304A4032847A42F8343002883F
:100D3000838842EA03432C4A4032847A02EBC4029D
:100D40005360027B012A19D1274A0C3212680A43E8
:100D5000254B0C331A604288038842EA0343224A37
:100D60004032847A42F83430C288838842EA0343AE
:100D70001D4A4032847A02EBC4025360C27A3AB907
:100D8000194A121D12688A43174B1B1D1A6006E090
:100D9000154A121D12680A43134B1B1D1A60028963
:100DA00032B9114A143212688A430F4B14331A6055
:100DB0000289012A06D10C4A143212680A430A4BEE
:100DC00014331A60427B012A06D1074A1C3212688A
:100DD0000A43054B1C331A60034A126822F00102D1
:100DE000014B1A6010BD0000006600401AB1436953
:100DF0000B43436102E043698B434361704730B565
:100E0000024600200023146824F0020414601468D1
:100E100044F00104146000E05B1C546804F0010419
:100E20001CB94FF6FF74A342F6D1546804F00104D4
:100E30000CB900206CE08C79012C04D1146844F0CA
:100E40008004146003E0146824F080041460CC79FA
:100E5000012C04D1146844F04004146003E01468C9
:100E600024F0400414600C7A012C04D1146844F07E
:100E70002004146003E0146824F0200414604C7A09
:100E8000012C04D1146844F01004146003E01468C9
:100E900024F0100414608C7A012C04D1146844F0FE
:100EA0000804146003E0146824F008041460CC7A89
:100EB000012C04D1146844F00404146003E01468A5
:100EC00024F0040414608C78A407CD7844EA056407
:100ED0000D7944EA05444D7944EA05540D886D1EA8
:100EE0002C43D461146824F001041460002300E052
:100EF0005B1C546804F001041CB14FF6FF74A3425C
:100F0000F6D1546804F001040CB1002000E0012087
:100F100030BD0246002019B9D36803F0030006E093
:100F2000012903D1136903F0030000E0002070479A
:100F300010B500F5D87303EB01131B6803F004032D
:100F40001372137A53B900F5D87303EB01131B68BE
:100F500040F2FF7404EA5353136009E000F5D873BC
:100F600003EB01131B686FF0604404EAD303536082
:100F700000F5D87303EB01131B6803F002035372EF
:100F800000F5D87303EB01135B6803F00F03937252
:100F900000F5D87303EB01135B681B0AD37400F5EB
:100FA000D87303EB01139B68D37200F5D87303EB7E
:100FB00001139B681C0A147300F5D87303EB01132B
:100FC0009B681C0C547300F5D87303EB01139B68EA
:100FD0001B0E937300F5D87303EB0113DB68D37317
:100FE00000F5D87303EB0113DB681C0A147400F5D9
:100FF000D87303EB0113DB681C0C547400F5D87331
:1010000003EB0113DB681B0E937421B9C36843F033
:101010002003C36003E0036943F02003036110BDB4
:1010200010B502460020936803F08063B3F1806F2F
:1010300000D110E0936803F00063B3F1006F01D1B9
:10104000012008E0936803F08053B3F1805F01D181
:10105000022000E00420042874D002F5C07303EBE2
:1010600000131B6803F0010402F5C07303EB0013C7
:101070001C600B7A7BB94B7A0C8843EA445302F527
:10108000C07404EB00142468234302F5C07404EB1D
:101090000014236010E00B7A4C6843EAC4034C7AD6
:1010A000234302F5C07404EB00142468234302F5C3
:1010B000C07404EB001423608B7A03F00F038B726F
:1010C00002F5C07303EB00135B6823F00F0402F515
:1010D000C07303EB00135C6002F5C07303EB0013F5
:1010E0005B688C7A234302F5C07404EB00146360E0
:1010F0008B7B1C064B7B44EA03440B7B44EA0323B3
:10110000CC7A234302F5C07404EB0014A3608B7CFB
:101110001C064B7C44EA03440B7C44EA0323CC7B4F
:10112000234302F5C07404EB0014E36002F5C073BE
:1011300003EB00131B6843F0010402F5C07303EBDB
:1011400000131C6010BD000010B50246002321B141
:10115000012907D002290FD109E090681D4C00EA4F
:1011600004030BE090681C4C00EA040306E090685E
:101170001A4C00EA040301E0002300BF00BF184C32
:10118000181BA34216D007DC83B16FF080601844AF
:1011900070B1022818D111E0B0F5007F10D0114CC9
:1011A000204448B1B0F5003F0ED10BE002230DE022
:1011B00000230BE0002309E0002307E0012305E002
:1011C000012303E0012301E0002300BF00BFD8B2E8
:1011D00010BD00000300000400030008000003101D
:1011E000000100080001FFF72DE9F041074688469D
:1011F00015460421052001F0F9F80021012003F033
:1012000055FB80210A2002F02BFB002405E0395D0C
:10121000092003F04BFB601CC4B24445F7DB0321FB
:10122000012003F043FBFF2400BF052002F0F2F988
:101230000646601EC4B21CB106F004000028F4D0BB
:10124000222002F0E7F92870212002F0E3F968700B
:101250000020BDE8F08100002DE9FF4705460E465D
:101260004FF0000A06B10DB94FF0010A944800781A
:1012700000F00F00032801DD4FF0010A90480078CC
:10128000C0F30019BAF1000F19D000208DF80A0040
:101290008DF80B0001208DF80C000020ADF8000047
:1012A000ADF80200ADF80400ADF80600ADF8080096
:1012B00001208DF80D006846FFF714FDFEE00020C8
:1012C000ADF8080001208DF80D004FF00008002453
:1012D000F2E07B48007800F00F0030B101283BD0ED
:1012E00002287BD0032874D19CE000208DF80B00ED
:1012F0008DF80C0035F824004B460022114600F012
:10130000E1F8ADF8020005EB840148884B46002265
:10131000114600F0D7F8ADF80600601CC0B20446D4
:10132000B04213DA35F824004B460022114600F093
:10133000C9F8ADF8000005EB840148884B4600224F
:10134000114600F0BFF8ADF8040004E00020ADF84D
:101350000600ADF804009CE001208DF80B00002091
:101360008DF80C0035F824004B460022114600F0A1
:10137000A9F8ADF80200601CC0B20446B04207DA1A
:1013800035F824004B460022114600F09BF800E09F
:101390000020ADF80600601CC0B20446B04207DA77
:1013A00035F824004B460022114600F08BF800E08F
:1013B0000020ADF80000601CC0B20446B04209DA5B
:1013C00035F824004B460022114600F07BF802E07D
:1013D00004E051E00020ADF804005AE000208DF850
:1013E0000B0001208DF80C0035F824004B4600223C
:1013F000114600F081F80746B8B2ADF80200380C8B
:10140000ADF8000005EB840148884B4600221146E8
:1014100000F072F80746B8B2ADF80600380CADF827
:10142000040036E001208DF80B008DF80C0035F833
:1014300024004B460022114600F05EF80746B8B281
:10144000ADF80200380CADF80000601CC0B20446D4
:10145000B04208DA05EB840148884B460022114669
:1014600000F04AF800E000200746B8B2ADF80600E8
:10147000380CADF804000CE00020ADF80200ADF827
:101480000000ADF80600ADF8040034464FF0010A44
:1014900000BF00BF8DF80A806846FFF723FCB44206
:1014A00002DA601CC4B200E007E008F10100C0B23B
:1014B00080460D2800DB00E00BE700BFBDE8FF879A
:1014C0005715002010B50446C4F309040AB11020D2
:1014D00000E0002002460BB1082000E00020034697
:1014E00013B1C1F3C13000E00020014642EA4410CC
:1014F0001843084380B210BD10B50446C4F3090474
:101500000AB1022000E0002002460BB1042000E0F6
:101510000020034613B18803C00A00E00020014602
:1015200042EA44301843084310BD000010B50021C2
:101530000148FFF7EEFC10BD0064004070B50446A2
:10154000002554B100210648FFF7E3FC054625B10C
:10155000224600210248FFF7EBFC284670BD000040
:10156000006400402DE9F04706460C4617469846B1
:10157000DDF820904FF0000A15480760C0F804809D
:101580000020134908724872084684722246314688
:101590000B30FEF715FE0E490E48FFF741FD0546DC
:1015A000042D09D04FF0010A29460A48FFF7CCFD67
:1015B000012801D14FF0020ABAF1010F04DBB9F1A1
:1015C000000F01D089F800505046BDE8F0870000B8
:1015D000641B0020006400400448006800F0E050F4
:1015E00008B1012070470020FCE7000008640040BB
:1015F00010B501E000F006F8FFF798FF0028F9D1D8
:1016000010BD000010B52448FFF798FF2248C07CA9
:1016100020B101280AD0022818D10FE01E48827A92
:1016200000F10B011D4800F0D0FF24E01A48827A37
:1016300000F10B011A4800F0C8FF1CE01648827A3E
:1016400000F10B01174800F0C0FF14E01248C07C05
:1016500003280FDB1048C07C06280BDC0E48C07C3A
:10166000C01E114901EBC0000B490B310A68026032
:101670004968416000BF00BF0748C07C062809DCFC
:101680000548C07C094951F8200009490968084308
:101690000749086010BD0000D81C00208C1B0020EA
:1016A0009C1B0020BC1B0020EC1C0020A47A00081E
:1016B0005C15002000B5034A5178107801F0D2F98A
:1016C00000BD0000EC1C0020F8B5FFF785FF0028E6
:1016D0005FD00026002559E02E4890F9000030B177
:1016E00001280ED002281ED0032840D12DE000F0A2
:1016F0005DF80746002F03DB0126F8B200F07AF808
:1017000039E008222449254800F04AFFC4B24CB110
:101710000126234800234FF42072214600901E48E2
:10172000FFF720FF27E008221B491E4800F038FF82
:10173000C4B24CB101261A4800234FF42872214646
:1017400000901548FFF70EFF15E0082212491648D1
:1017500000F026FFC4B24CB10126114800234FF41B
:101760007072214600900C48FFF7FCFE03E0FF205A
:101770000849087000BF00BF06480078401C40B20E
:101780000449087006B103E0681CC5B2042DA3DD4E
:1017900000BFF8BD9015002060150020AC1B002094
:1017A00091150020CC1B00208C1B00204FF0FF3037
:1017B000002109E001EB8102054B13F822200AB158
:1017C00048B203E04A1CD1B20729F3DB00BF7047DF
:1017D0000C1D0020002007E0002100EB8002044BDC
:1017E00003F82210411CC8B20728F5DB704700003F
:1017F0000C1D0020F8B50446002004EB84050E4EB5
:1018000006EB850500902B6904EB840506EB850546
:10181000EA6804EB840516F8251004EB840506EB52
:101820008505681CFFF79EFE002004EB840132460C
:1018300002F82100F8BD00000C1D00202DE9F04148
:1018400004460F4615461E46DDF81880072C1ADAA6
:1018500004EB84000D4901F8205004EB84010B4A8D
:1018600002EB8101481C2A463946FEF7A9FC04EB2D
:101870008400064901EB8000C66004EB840001EBA4
:101880008000C0F81080BDE8F08100000C1D002031
:1018900010B50D4A32210D4800F02AF80C4A3221C9
:1018A0000C4800F025F80C4A32210C4800F020F8D2
:1018B0000B4A32210B4800F01BF80B4A32210B482F
:1018C00000F016F810BD0000DC1B00208C1B00206F
:1018D0000E1C00209C1B0020401C0020AC1B002084
:1018E000721C0020BC1B0020A41C0020CC1B00206C
:1018F00070B504460E4615462660E5600021204678
:1019000000F09DFE70BD000038B5FFF771FE68E085
:10191000FFF76EFE002462E0344850F8240034499A
:1019200009680840002858D0072C4DD2DFE804F0A1
:10193000040C18242739460000BF69462D4800F0E2
:1019400090FE0028F9D13FE003E09DF8000000F090
:1019500073FA6946284800F084FE0028F5D133E088
:1019600003E09DF8000000F067FC6946234800F0A2
:1019700078FE0028F5D127E0FFF79CFE24E0204800
:1019800002F080FB1F49088005E01E480088A0F592
:1019900061601C4908801B480088B0F5616FF4DA6B
:1019A00012E017480838007C022806D11448093094
:1019B00002F060FB00B21449088005E010480838C6
:1019C000007E012800D100BF00BF104850F824005D
:1019D00007490968084006490860601CC4B2062C23
:1019E0009ADD03480068002892D138BDA47A000827
:1019F0005C1500208C1B00209C1B0020BC1B0020C1
:101A0000F41C00206C1500206A150020247B0008BF
:101A100010B50020064908600649087007210648ED
:101A2000FFF71AFCFFF734FFFFF7D4FE10BD0000EC
:101A30005C150020571500206E15002070B5E44895
:101A40000078002858D0E348006803F08FFD002894
:101A500052D1E148007855282AD1DF484078EE2855
:101A600026D1DD4880780A2822D1DB48DB49097875
:101A7000405CBB281CD1D9480078032832DBD6480B
:101A8000C478A51DD5480078401CA8420FDB00F0A3
:101A90006FFC18B10120D249087005E0D1A003F015
:101AA0004DF80020CE4908700020C949087019E09F
:101AB000C948007855280DD1C7484078EE2809D18B
:101AC000C548807ABB2805D101F09CF80020C049A8
:101AD000087007E0FEF7DAFFC148007810B900206F
:101AE000BB490870BE48007830B9BB4880780A28E6
:101AF00002D00020B6490870B9480078002878D094
:101B0000B5484078EE2875D1B3488078072872D060
:101B100007DC072870D2DFE800F06F19303152720D
:101B20009500102869D006DC082867D0092873D0F2
:101B30000A2861D107E011286FD0A028F9D101202F
:101B4000B34908703BE101F05FFB38E1A248C0787F
:101B5000012802D1AE4948700EE09F48C0780228A3
:101B600003D10120AA49887006E09B48C078032869
:101B700002D10120A649C87021E120E19648C07831
:101B800018B10120A249C87302E00020A049C8731F
:101B900001209F4948719048C0789E4908708E483E
:101BA000007948708C48407988708B488079C8707B
:101BB0008948C07908718848007A4871FFE001209F
:101BC000934988718448C0789349087082480079A5
:101BD00048708148407988707F488079C8707E4815
:101BE000C07908717C48007A48717B48407A8871D6
:101BF000E5E0EBE0E7E03FE0E0E092E056E00120E6
:101C00008349C8717448C078012807D1834908788E
:101C10008A680221904714E069E09CE06E48C07831
:101C2000022805D17D4948788A680221904708E05A
:101C30006948C078032804D1784988788A680221E5
:101C40009047BCE00120724908726348C07874492B
:101C500008706148007948705F48407988705E4834
:101C60008079C8705C48C07908715B48007A487117
:101C70005948407A8871A2E0012065494872564867
:101C8000C0786849087054480079487052484079D3
:101C9000887051488079C8704F48C07908714E48A3
:101CA000007A48714C48407A887188E00120584990
:101CB00088724948C07801280AD1474800795A49B2
:101CC00008704548407948704348807988700DE035
:101CD0004148C078022809D13F48C0795249C870AC
:101CE0003D48007A08713C48407A487167E001201D
:101CF0004749C8723848C0784C490870364800795E
:101D0000487035484079887033488079C8703248C7
:101D1000C07908713048007A48712F48407A88713C
:101D20004DE001203A4908732B48C07840490870BB
:101D30002948007948702848407988702648807979
:101D4000C8702548C07908712348007A4871224834
:101D5000407A887133E02048C07801280BD01E48B3
:101D6000C078022807D01C48C078032803D01A483E
:101D7000C07804281ED10120254988731648C078F0
:101D8000012802D12B49087017E01348C0780228B7
:101D900002D12849087010E00F48C078032802D10A
:101DA0002449087009E00C48C078042805D121496D
:101DB000087002E000201649887300E000BF00BFF1
:101DC00000200349087000200549087070BD00001C
:101DD000B1160020B8160020C01D0020B01600204B
:101DE000780600204572726F723A20436865636B13
:101DF0005F5661726961626C654C656E5F506163CC
:101E00006B6574206661696C65640D0A00000000F2
:101E1000C8040020DC040020E2040020740B002031
:101E2000E9040020F0040020F7040020FE04002054
:101E3000050500207A06002010B504460F480078FA
:101E400070B903F08DFB0A300D49086000200D4980
:101E500008700D48097844540120084908700BE0C7
:101E600008480078C82807DA06480078401CC0B245
:101E70000449087004490C5410BD0000B11600203C
:101E8000B8160020B0160020C01D002010B5E04894
:101E9000007800287AD0DF48006803F067FB00284C
:101EA00074D1DD48407803280AD1DB4880780128C6
:101EB00006D1D9480079052802D10120D7494872B6
:101EC000D5484078D6490978884205D0D24840782C
:101ED000D3494978884211D1CF488078032819D155
:101EE000CD48C078012815D1CB484078CC49097835
:101EF000884204D1C8480079C84908727AE0C648C7
:101F00004078C7494978884274D1C3480079C349A9
:101F1000C8716FE0C048807803286BD1BE48C07894
:101F2000022867D1BC484078BD49097888422ED143
:101F3000B9480079012806D1B7484079012802D173
:101F4000B649887156E0B4480079022806D1B248F3
:101F50004079022802D1B14988714BE0AE4800793E
:101F6000012807D1AC484079022803D10320AB49AE
:101F700088713FE0A848007902283BD1A648407903
:101F8000012837D10420A549887133E03FE1A248F8
:101F90004078A349497888422CD19F48007901288C
:101FA00006D19D484079012802D19C49487121E021
:101FB00099480079022806D197484079022802D131
:101FC0009649487116E094480079012807D1924853
:101FD0004079022803D10320904948710AE08E48D5
:101FE0000079022806D18C484079012802D10420CA
:101FF0008A49487188484078102825D186488078D9
:10200000102801D1012000E000208349C97801296E
:1020100000D100E00021884216D17F4800793128A4
:1020200003D101207D4908710EE07B4800793228F8
:1020300003D102207949087106E0774800793328F6
:1020400002D1032075490871734840780C2814D1D7
:1020500071488078012810D16F48C07801280CD1D0
:102060006D480079062808D16B48407928B96D4839
:102070000079012801D169498870674840780E28A5
:1020800003D0654840780F283CD1634840780E283B
:102090001AD161488078012834D15F48C07801287E
:1020A00030D15D48407928BB5B480079072803D1CF
:1020B00001205A49087025E057480079082821D1A5
:1020C0000020564908701DE0534840780F2819D168
:1020D00051488078012815D14F48C078012811D186
:1020E0004D48407930B94C480079072803D1012088
:1020F0004A49487006E048480079082802D1002083
:102100004649487044484078062835D1424880788E
:1021100002280FD14048C078434948713E480179B0
:10212000414881713C4841793F48C17101203B4998
:10213000C87021E03848807803280FD13648C0782D
:1021400039498870344801793748C170324841793B
:102150003548017102203149C8700DE02E48807861
:10216000042809D12C48C0782F4908702A480079E2
:10217000487003202949C87027484078022843D175
:1021800025488078A02812D12348C078012806D19C
:1021900022498872254881682548884734E01E48CE
:1021A000C078022830D10120204908702CE01A485C
:1021B0008078A12803D11848C078A22824D01648D6
:1021C0008078A22803D11448C078A3281CD01248D4
:1021D0008078A3280DD11048C078164908700E48A1
:1021E000007948700C48407988700B488079C87035
:1021F0000AE009488078A42806D10748C0780D492C
:10220000087105480079487100200149087010BD27
:10221000B3160020BC160020881E0020BA1900202A
:10222000B80C0020F4080020400F0020D01100203E
:10223000FE110020F011002010B504460F48007870
:1022400070B903F08DF90A300D49086000200D497E
:1022500008700D48097844540120084908700BE0C3
:1022600008480078C82807DA06480078401CC0B241
:102270000449087004490C5410BD0000B316002036
:10228000BC160020B2160020881E00207FB505462F
:102290000C460121202001F0CDF80295ADF8044054
:1022A0000020ADF80600ADF80C008DF80E0001A975
:1022B0000D4801F0DFFC37208DF8000000208DF87C
:1022C000010001208DF802008DF80300684600F03F
:1022D00053FC01221146044801F0BCFC01210248D4
:1022E00001F09BFC7FBD00000014004010B5FFF71B
:1022F0000BFBFFF7E9F910BD1CB501214FF4C070CD
:1023000001F088F8F020009000208DF804000120F2
:102310008DF807006946144800F0E3F94FF4704067
:10232000009001208DF8040000208DF806000120A7
:102330008DF8070003208DF8050069460B4800F072
:10234000D0F92020009001208DF8040000208DF8A5
:10235000060001208DF8070003208DF8050069466E
:10236000024800F0BEF91CBD00200240001C0240E3
:1023700070B500231B480078042801DA002070BDE6
:102380001948C17809B90020F9E7C22901DD002008
:10239000F5E78C1D13480078401CA04201DA0020AC
:1023A000EDE7481D104D285CBB2801D00020E6E772
:1023B0000D488078CDB24319002206E0101D0A4D69
:1023C000285C184483B2501CC2B28A42F6DBDDB2EC
:1023D000081D054E305C854201D00020CFE701206A
:1023E000CDE70000B0160020C01D002070B50546E6
:1023F0000C460026284601F00DF9064626EA04019F
:10240000284602F053FA002070BD70B505460C4610
:10241000002D06DB642D00DD6425052D0BDA052576
:1024200009E015F1640F01DA6FF0630515F1050F8E
:1024300001DD6FF00405002C06DB642C00DD642454
:10244000052C0BDA052409E014F1640F01DA6FF0B2
:10245000630414F1050F01DD6FF0040421462846E2
:1024600001F0A2F970BD000010B5102000F03CF89A
:10247000012825D11021134800F09EF9E8B9002168
:10248000114801F0CAFB114890ED000AB8EE400A6D
:102490000F4880ED000AD0ED000A9FED0E1AB3EE52
:1024A000040A10EE810A80ED000A90ED000ABCEEED
:1024B000C00A10EE100A08490880102000F00EF83B
:1024C00010BD000000040240001000403412002043
:1024D00030120020F628DC3F381200200149086045
:1024E00070470000143C014001460020034A126876
:1024F0000A400AB1012000E000207047143C01406E
:10250000002123498279002A3AD00A4612680368DA
:102510009A430B461A600A1D126803689A430B1D02
:102520001A60027911440A6803681A430A60184A5B
:102530000832126803689A43154B08331A601A1D53
:10254000126803689A43124B0C331A604279102ABE
:102550000ED11A1F126803681A430D4B08331A6014
:102560001A1D126803681A43094B0C331A600DE0F8
:102570000749427911440A6803681A430A6005E072
:10258000027911440A6803689A430A6070470000A0
:10259000003C014010B500F065FBFEF797F910BD57
:1025A000F0B507460C461646002564B106E06119F1
:1025B000384600F056F800B904E06D1C301EA6F154
:1025C0000106F4D100BF2846F0BDF0B507460D4620
:1025D0001646002406E0295D384600F06CF800B984
:1025E00004E0641C301EA6F10106F4D100BF2046B1
:1025F000F0BD30B504460025204600F04AF870B121
:10260000D4E90001401E814203D1A06838B1012500
:1026100005E0D4E90101401C814200D00125284693
:1026200030BD30B504460025204600F032F820B118
:10263000D4E90110884200D00125284630BD70B58C
:1026400004460D4664B12068012809D90020A06025
:102650002068401E60602A462168E068FDF7C2FDE0
:1026600070BD70B504460D46002685B12046FFF7C3
:10267000C0FF60B16068401C60602168884201D37F
:10268000002060606168E068405C28700126304688
:1026900070BD0146002069B10A68012A0AD9CA68DA
:1026A00042B10B688A689A4204D2D1E900329A4258
:1026B00000D20120704770B504460D460026204622
:1026C000FFF7AFFF58B1A168481CA060E06845540F
:1026D0002168A068884201D30020A060012630460E
:1026E00070BDF0B50A4600210023002400BF3DE084
:1026F000012505FA01F3156805EA03049C4234D16B
:1027000005684F000326BE40B543056015794E00AD
:10271000B5400668354305601579012D02D015795D
:10272000022D16D185684F000326BE40B543856053
:1027300055794E00B5408668354385604568012669
:102740008E40B5434560456896798E40B6B23543B4
:102750004560C5684F000326BE40B543C560D579C6
:102760004E00B540C6683543C560491C1029BFD32B
:10277000F0BDF0B5002300244D07ED0E02FA05F37D
:10278000CE1000F1200555F826504E07F70E0F2603
:10279000BE40B543CF1000F1200646F82750CE10BA
:1027A00000F1200555F8265045EA0304CE1000F14B
:1027B000200545F82640F0BD0246002013690B4075
:1027C0000BB1012000E00020704741837047018376
:1027D000704742694A4042617047000010B50221CB
:1027E0000848FEF74CF80748FEF74AF900BF0221F7
:1027F0000448FEF7B5F80028F9D00248FEF7ACF817
:1028000010BD00000020014070B5044600250026E0
:1028100007E0FFF7E3FF0544052002F03FFE701CD0
:10282000C6B2A642F5DBB5FBF4F080B270BD000085
:102830000146002021B107290AD008290ED10AE05B
:10284000074A5278064B1B7802EB032290B205E050
:10285000034A507802E0024A107800BF00BF704778
:102860006815002000B589B00121212000F0D2FDBB
:1028700009220B214248FFF77CFF09220C21404826
:10288000FFF777FF4FF4C050079002208DF820002B
:102890008DF8210000208DF8220001208DF8230002
:1028A00007A93748FFF71DFF4FF48060079001200C
:1028B0008DF8200002208DF8210000208DF82200E4
:1028C00001208DF8230007A92E48FFF70AFF0020FA
:1028D00000F05EF80121480600F0ACFD2A48FEF742
:1028E000E5F900208DF8160001208DF81700002072
:1028F0008DF8180001208DF8190000208DF81A00BD
:1029000001208DF81B0000208DF812008DF81300B7
:1029100001208DF8140002208DF815000720ADF875
:10292000100004A91848FEF76AFA00208DF80A0082
:102930008DF80B0001208DF80C000020ADF8000090
:10294000ADF80200ADF80400ADF80600ADF80800DF
:1029500001208DF80D006846FEF7C4F912200B49DE
:1029600008604860002048720872012088720022C6
:1029700002210548FEF73AFAFFF74AF809B000BD10
:10298000000002400014024000640040981D002036
:1029900010B504462CB94FF480610548FFF715FFC8
:1029A00004E04FF480610248FFF711FF10BD000002
:1029B0000014024010B5FFF799FC10BD10B5044695
:1029C0002CB14FF480710548FFF701FF04E04FF48C
:1029D00080710248FFF7F9FE10BD000000200240A0
:1029E0001CB50020009001904FF4A06000F000F9A9
:1029F000A82002F035FD01F099F900F039F8FFF751
:102A00007BFC01F0BEFEFFF72DFFFEF79DF8FEF701
:102A100049F9FFF7BFFD01F043FD53210720FFF700
:102A200035FCA72140F2E73002F0F6FDA72140F285
:102A3000E73001F0B3F90A49886880470849C86857
:102A4000804701F0DDFE0821684600F031F80821DA
:102A5000684600F0DFFE0821684600F0CFFE1CBD8E
:102A60006C030020014A10705170704768150020F7
:102A70001CB50121202000F0CDFC4FF40060009037
:102A800001208DF8040000208DF8060001208DF84B
:102A9000070003208DF8050069460348FFF721FE73
:102AA0000120024908601CBD00140240AC82424271
:102AB0002DE9F04107468846002029490860092091
:102AC00002F0ECFC01202749C1F8AC02042002F01E
:102AD000E5FC4FF4FA7002F00BFD0020204908607D
:102AE00000242EE0002528E0385D284100F0010692
:102AF00076B900201A4908604FF40C7002F0F8FC17
:102B000001201849C1F8AC024FF40C7002F0F0FC3F
:102B1000012E10D10020124908604FF40C7002F011
:102B2000E7FC01200F49C1F8AC0202F0B7FC40F20B
:102B3000B22002F0DDFC681CC5B2082DD4DB601C9D
:102B4000C4B24445CEDB0020054908604FF40C7048
:102B500002F0CEFC01200349C1F8AC02BDE8F081CF
:102B6000AC8242420080424202468A4201D9501A57
:102B70007047881AFCE7000070B5002100230F227F
:102B8000C4781CB3174C246804F4E064C4F5E06412
:102B9000C4F30721C1F10404E3B20A4144789C4024
:102BA000E1B28478144021430C07210E0E4C0578C5
:102BB0006155047804F01F050124AC4005786D11BF
:102BC000AD0005F1E025C5F8004109E0047804F006
:102BD0001F050124AC40054D0678761145F82640C6
:102BE00070BD00000CED00E000E400E080E100E0DA
:102BF00002490143024A1160704700000000FA05D3
:102C00000CED00E014498978134AD2781144124A35
:102C100012791144104A527911440F4A92791144A1
:102C20000D4AD27911440C4A127A8818C11700EB68
:102C300011610912A0EB0121084A11800648407A6F
:102C400011460988884203D101200549087002E035
:102C50000020034908707047C01D00207C0600203A
:102C60007806002010B52DED048BB0EE080A16484A
:102C700080ED000A90ED000ADFED140A20EE200A34
:102C800080ED000A9FED120A124880ED000A90EDD7
:102C9000000ADFED0E0A20EE200A10EE101A084698
:102CA000FDF741FC41EC190B9FED0B0B53EC102B86
:102CB000FDF7CAFB41EC180BFDF748FC054908601D
:102CC000BDEC048B10BD0000481200200000C8427B
:102CD00000CC0D4144120020000000000070A7400D
:102CE000F0B587B00546002708210846FFF77EFBB0
:102CF00000210D2001F0DAFD80210E20FFF776FB88
:102D000093208DF8040020208DF8050006A801AB63
:102D1000022201A900900C2000F051F8064686B965
:102D2000002407E001A8005D285501A8005D474088
:102D3000601CC4B2042CF5DB01A8005DB84200D0D1
:102D4000FE2680210E2000F08BFD304607B0F0BD3E
:102D50002DE9F04387B006460F46904699468DF818
:102D600004608DF80570002406E018F8041001AA2C
:102D7000A01C1154601CC4B2062CF6DB002407E032
:102D800019F8041001AA04F108001154601CC4B21F
:102D9000062CF5DB06A801AB0C2201A900900E2041
:102DA00000F00DF805462DB9082000F033FC00F0C6
:102DB000080000B9FE25284607B0BDE8F0832DE9DC
:102DC000FE4F0646884691469A46DDF830B0FE2012
:102DD00002900020019000900C2E06D00E2E09D1FA
:102DE000122001901020009005E077200190302003
:102DF000009000E000BF00BF019840F08001022079
:102E000001F054FD80210420FFF7F0FA0021012099
:102E100001F04CFD80210A2000F022FD002505E094
:102E200018F80510092001F041FD6D1C4D45F7D340
:102E30003146012001F03AFD0C2E03D180210D20F6
:102E400000F00EFD4FF4167500BF042000F0E2FB09
:102E500004466D1E35B104F0010018B900982040F9
:102E60000028F2D080210D20FFF7C0FA95B306208C
:102E700000F0D0FB00F01B0068BB0020029001981E
:102E8000204000F0010008B1FF2002900C2E24D158
:102E90000A2000F0BFFB04460C2000F0BBFB00F052
:102EA00007072FB1601E07EBC000CBF8000002E05F
:102EB000E000CBF8000004B90124122C00DD12243C
:102EC000002505E0092000F0A5FB0AF805006D1CAF
:102ED000A542F7D301E0FE20029080210C2000F0F3
:102EE000BFFC0021012001F0E1FC0298BDE8FE8F4B
:102EF000F0B587B005460E4630208DF804008DF8F9
:102F000005500DF10602022101A8FEF76DF906A891
:102F100001AB042201A900900C20FFF750FF0746E7
:102F200067B90698902809D1002404E001A8005D43
:102F30003055601CC4B2102CF8DB00E0FE27384688
:102F400007B0F0BD70B588B005460C4608210846AC
:102F5000FFF74CFA07210D2001F0A8FC03211420F3
:102F600000F07EFC8DF8085007A802AB012202A9F0
:102F700000900C20FFF723FF06464EB90798102853
:102F800006D19DF8080020709DF80900607000E0EF
:102F9000FE26304608B070BD70B588B00546932057
:102FA0008DF8080070208DF8090000208DF80E00C3
:102FB00000240BE0295D02AAA01C11549DF80E000C
:102FC000295D48408DF80E00601CC4B2042CF1DB72
:102FD0000DF10F02072102A8FEF706F908210846A5
:102FE000FFF704FA07A802AB092202A900900C20FF
:102FF000FFF7E5FE064626B90798182801D10026F6
:1030000000E0FE26304608B070BDF0B587B0064639
:103010000F46A0208DF804008DF805600DF1060222
:10302000022101A8FEF7E0F806A801AB042201A9DD
:1030300000900C20FFF7C3FE054645B9069804280A
:1030400005D19DF8040000F00F000A2800D0FE25ED
:103050000DBB002404E0385D01A90855601CC4B212
:10306000102CF8DB05AA102101A8FEF7BDF806A870
:1030700001AB122201A900900C20FFF7A0FE05462B
:1030800045B90698042805D19DF8040000F00F000A
:103090000A2800D0FE25284607B0F0BD10B5032051
:1030A000FFF7B2FB514908800846008800F06CFC2D
:1030B0004E4908804E4801884C480088FFF754FD6F
:1030C0004C4908704A480088F0BB4B48D0ED000AD4
:1030D0004648008800EE100AB8EE400A20EE800A4A
:1030E000BCEEC00A10EE100A40490880084600886D
:1030F00000EE100AB8EE400A4048D0ED000AB4EEE7
:10310000E00AF1EE10FA03D200203D49087016E003
:103110003648008800EE100AB8EE400A3748D0ED75
:10312000000A30EE600ABCEEC00A10EE100A344904
:10313000087008460078642801DD64200870304873
:1031400000783049087000E004E00846017801206A
:1031500000F006FB254800882549088025480078AE
:103160000A2842DD2448D0ED000A2048008800EEFD
:10317000100AB8EE400A20EE800ABCEEC00A10EE3B
:10318000100A1A4908800846008800EE100AB8EEB6
:10319000400A1A48D0ED000AB4EEE00AF1EE10FA47
:1031A00003D200201649087016E01048008800EE8F
:1031B000100AB8EE400A1148D0ED000A30EE600A5D
:1031C000BCEEC00A10EE100A0D49087008460078DF
:1031D000642801DD642008700948007809490870F6
:1031E00008460178012000F0BBFA10BD4E12002005
:1031F00050120020521200204412002048120020D9
:103200004C1200204012002070B51F480178491C64
:103210001EA001F093FC214D681FC078401EC6B26D
:10322000002410E0295D1EA001F088FC285D1E49E5
:10323000097801EBC10202EB01111C4A02EBC1014A
:103240000855601CC4B2B442ECDB00201649097872
:1032500001EBC10202EB0111144A02EBC101085556
:1032600013A001F06BFC10480078401C0E49087058
:1032700008460078032805DB0EA001F05FFC012062
:103280000E49087170BD0000B0160020416E6472D6
:103290006F69642052783A5B25645D00C51D00208B
:1032A000253032782000000079060020CC1600205E
:1032B0000D0A00006262622020000000C8040020A5
:1032C0002DE9F04104460D462046E11704EB9171CB
:1032D0008910032202EB8101CEB200203C49086034
:1032E0003C49C1F8B4023A4908310860091D086038
:1032F0000120374908603848FFF7F2FC002865D103
:1033000001203349091D08603348FFF745FE0028B6
:103310005CD101202E49083108602F4B2F4A3146DD
:103320006020FFF715FD002850D1012028490C31FD
:103330000860B44204D100250D2129A000F026FA2E
:10334000022D01D0032D1CD129492046FFF75DFE37
:1033500018B9112127A000F019FA00270FE0012069
:103360001B491C390860642002F098F800201949B4
:10337000C1F89402642002F091F8781CC7B2092FBA
:10338000EDDB012D01D0032D1CD11F492046FFF795
:10339000AFFDB8B91D490A20FFF7AAFD00270FE0CD
:1033A00001200B491C390860642002F077F80020E6
:1033B0000849C1F89402642002F070F8781CC7B282
:1033C000092FEDDB022112A000F0E0F9BDE8F08149
:1033D000B08243420080434293130020B513002083
:1033E00041444452204552524F52210A00000000ED
:1033F000A513002057524954455F52464944202D99
:10340000204F4B0A00000000D41A0020E41A0020CC
:103410000A00000029B1064A12680243044B1A60F0
:1034200004E0034A12688243014B1A6070470000AF
:103430003038024029B1064A12680243044B1A6030
:1034400004E0034A12688243014B1A60704700008F
:103450004038024029B1064A12680243044B1A6000
:1034600004E0034A12688243014B1A60704700006F
:103470002038024029B1064A12680243044B1A6000
:1034800004E0034A12688243014B1A60704700004F
:103490004438024029B1064A12680243044B1A60BC
:1034A00004E0034A12688243014B1A60704700002F
:1034B00024380240F0B50021002200240225002615
:1034C0000223324F3F6807F00C0121B1042905D0D7
:1034D000082937D105E02E4F076036E02D4F0760F1
:1034E00033E02A4F3F1F3F68C7F38056274F3F1FE7
:1034F0003F6807F03F036EB1264FB7FBF3F7DFF8E5
:103500008CC0ACF1040CDCF800C0CCF3881C07FBC9
:103510000CF40CE01E4FB7FBF3F7DFF870C0ACF112
:10352000040CDCF800C0CCF3881C07FB0CF4174F2C
:103530003F1F3F68C7F301477F1C7D00B4FBF5F7D1
:10354000076002E0124F076000BF00BF0F4F3F68E7
:1035500007F0F0010909104F7A5C0768D74047600F
:103560000A4F3F6807F4E051890A0B4F7A5C4768BD
:10357000D7408760054F3F6807F46041490B064F0D
:103580007A5C4768D740C760F0BD00000838024049
:103590000024F40040787D01FC13002010B504469F
:1035A00000200B4908700B4908700B4908700B4943
:1035B00008700B4908700B49087001200A4908700F
:1035C0000A48046001680068FEF71FFF10BD000094
:1035D0002E1500202B15002028150020291500206D
:1035E0002A1500202C1500202D1500203C15002048
:1035F00006480078012805D105480088401C044988
:10360000088002E00020024908807047561500201B
:103610005415002038B5044604F03F0040F0800403
:10362000204600F003F942F21071684600F008F8F5
:1036300005460DB1FF2038BD9DF80000FBE70000F6
:1036400070B504460D4601F08BFF4FF4FA61B5FBEF
:10365000F1F146180AE00A48008800F0200028B17D
:10366000074800F013FF2070002070BD304601F0C5
:103670007DFF0028EFD1034908700120F5E7000025
:10368000001001409013002010B500F0B7FB10BDF2
:1036900010B50020094908700949087009490870E7
:1036A00009490870094908700949087009490870F2
:1036B0000021084600F078F810BD00002815002011
:1036C000291500202B1500202C1500202D15002079
:1036D0002E150020330A00201CB580200090002009
:1036E0008DF8040001208DF8070069460148FEF7B7
:1036F000F8FF1CBD000402401CB580200090012092
:103700008DF8040000208DF8060003208DF80500D8
:1037100069460248FEF7E5FF1CBD000000040240B8
:1037200030B500228B071C0F0F2303FA04F20B4B5A
:103730008C1053F824309343084C8D1044F82530F6
:1037400023468C1053F824308C07240F00FA04F41D
:103750002343024C8D1044F8253030BD0838014019
:103760007CB505460C4603208DF8040001208DF839
:1037700005008DF8064000204FF4F073032201A9E4
:1037800000901046FEF75AF87CBD000070B5044664
:103790000D462A4621460348FEF717FF642001F034
:1037A0007DFE70BD8C1B00207CB504460D46E0B24A
:1037B0008DF80400E0B28DF80500E8B28DF806003F
:1037C000E8B28DF80700FDF707FF78B10020034647
:1037D00020220421009001A8FDF7C4FE0020202330
:1037E000024601A90090FEF729F806E000202023F8
:1037F000042201A90090FEF721F87CBD70B50446B3
:103800000D462A4621460248FEF7DFFE70BD000045
:10381000AC1B002070B504460D462A4621460248DE
:10382000FEF7D3FE70BD0000CC1B002010B504468F
:103830000A48008800BF0948008800F0800001287D
:10384000F9D02146054800F026FE00BF402103487C
:1038500000F055FD0128F9D110BD00000010014015
:1038600070B505460C4600262846FFF7D3FE0646EF
:1038700046EA0401284601F019F8002070BD000056
:103880000CB50020019000903448006840F480306E
:103890003249086000BF3148006800F400300090F1
:1038A0000198401C0190009818B90198B0F5A04FFC
:1038B000F1D12A48006800F4003010B101200090D6
:1038C00001E0002000900098012846D123484030B4
:1038D000006840F08050214940310860204800686D
:1038E00040F440401E4908601C48083000681B49ED
:1038F000083108600846006840F400400860084647
:10390000006840F4A05008601648091F0860081FAE
:10391000006840F08070091F086000BF0F48006811
:1039200000F000700028F9D040F205700E490860E0
:103930000A480830006820F0030008490831086090
:103940000846006840F00200086000BF03480830E5
:10395000006800F00C000828F8D10CBD00380240C7
:103960000070004019544007003C024010B5044666
:10397000FDF764F94620FDF735F92046FDF732F9E9
:10398000FDF778F910BD000010B5024600230B4882
:10399000828200210BE0094C481C34F8100024F806
:1039A0001100204630F81100184483B2491C0A293E
:1039B000F1DB0A2093FBF0F080B210BD241B002045
:1039C000042808D14FF0E021096941F004014FF0CB
:1039D000E022116107E04FF0E021096921F00401C4
:1039E0004FF0E0221161704710B51548006840F4AF
:1039F0007000134908601348006840F00100114945
:103A0000086000200F49083108600E4800680E4920
:103A100008400C4908600D48091D0860081F00682F
:103A200020F48020091F0860002006490C3108603E
:103A3000FFF726FF4FF0006001498039086010BD94
:103A400088ED00E000380240FFFFF6FE1030002451
:103A500010B50121064800F0ECF8012803D1FFF76A
:103A600013FEFFF7C5FD0121014800F0D3F810BD9A
:103A70000040014010B50121074800F0DAF80128A4
:103A800004D106480068401C04490860012102482E
:103A900000F0C0F810BD000000440140F413002005
:103AA00010B50121880700F0C4F8012848D1274843
:103AB0000078401C2549087025480078401C24499E
:103AC000087024480078401C224908700846007895
:103AD000322804DB002008701F49886880471B4893
:103AE00000780A2805DB0020184908701B4948683F
:103AF000804717480078FA2822DB00201449087014
:103B00001748006808B9012000E000201449086047
:103B10001448007850B14FF480611348FEF759FE05
:103B20004FF400611048FEF754FE09E04FF4806145
:103B30000D48FEF74CFE4FF400610B48FEF747FEC0
:103B40000121880700F066F810BD0000A7030020DF
:103B5000A8030020A90300209C1000206C03002073
:103B6000BC8243429A030020001C024010B5012190
:103B7000124800F05EF801281BD111480078401C63
:103B80000F4908700F480078401C0E4908700C4817
:103B90000078022804DB002009490870FEF776F956
:103BA00008480078032804DB002006490870FDF768
:103BB00045FF0121014800F02DF810BD0004004030
:103BC000A5030020A603002010B50121074800F03E
:103BD00030F8012804D106480068401C04490860F8
:103BE0000121024800F016F810BD0000001000404E
:103BF0003412002010B50121054800F01AF8012800
:103C000001D1FEF7D7FE0121014800F003F810BDF5
:103C100000140040CA430282704721B1028842F07A
:103C20000102028004E002884FF6FE731A4002800F
:103C3000704730B50246002000230024158A05EAAB
:103C40000103958905EA010413B10CB1012000E0DC
:103C5000002030BD1AB183890B43838102E0838940
:103C60008B438381704701894FF6F87211400181BF
:103C70007047000000220288184B98420ED0184B63
:103C800098420BD0B0F1804F08D0164B984205D027
:103C9000154B984202D0154B984204D14FF68F73C2
:103CA0001A404B881A43124B984207D0114B984246
:103CB00004D04FF6FF431A400B891A4302804B6829
:103CC000C3620B880385054B984202D0044B98428F
:103CD00001D18B7A03860123838270470000014063
:103CE000000401400004004000080040000C0040B7
:103CF00000100040001400401CB501210420FFF713
:103D000089FB4FF40050009001208DF804008DF8DD
:103D1000070069460448FEF7E4FC4FF400510248EE
:103D2000FEF755FD1CBD00000008024010B500F074
:103D300005F8FFF7E1FF00F017F810BD1CB50121F1
:103D40004020FFF767FB4FF48070009000208DF853
:103D5000040001208DF8070069460248FEF7C1FC07
:103D60001CBD0000000002401CB501218020FFF7AF
:103D700051FB4FF44060009001208DF804008DF855
:103D8000070069460448FEF7ACFC4FF44061024866
:103D9000FEF71DFD1CBD0000001C02407FB505465E
:103DA0000C4601214804FFF765FB0295ADF804407D
:103DB0000020ADF80600ADF80C008DF80E0001A94A
:103DC0000D48FFF757FF19208DF8000000208DF8EF
:103DD00001008DF8020001208DF803006846FEF70F
:103DE000CBFE012211460448FFF734FF01210248AF
:103DF000FFF713FF7FBD00000044014010B50B48E2
:103E00000078012806D10820FEF712FDC4B2204632
:103E100000F010F80648807B38B10820FEF708FD56
:103E2000C4B20348416B2046884710BD2D150020C1
:103E30009C0700203EB504466946204601F0B5FBCC
:103E4000684601F0A0FBB0B1002080490870012055
:103E50007F49087000210846FFF7A6FC01207D4934
:103E600008707D4800887D49088000207A490880D4
:103E70007B490870B9E0E72C08D17A4800687A4994
:103E800008607848006879490860AEE0F72C01D0F6
:103E9000F32C0AD1734800681430734908607148E4
:103EA00000682838714908609FE0FB2C01D0F92C8C
:103EB0000AD16C48006828306B490860694800687E
:103EC0003C386A49086090E0FD2C01D0FC2C0AD1F6
:103ED000644800683C3064490860624800685A38A9
:103EE0006249086081E0FE2C0AD15E4800685030CB
:103EF0005D4908605B48006878385C49086074E098
:103F0000EF2C01D0CF2C0AD1564800681430574905
:103F100008605448006828385349086065E0DF2C81
:103F200001D09F2C0AD14F48006828304F490860C3
:103F30004C4800683C384C49086056E0BF2C01D022
:103F40003F2C0AD1474800683C3048490860454842
:103F500000685A384449086047E07F2C0AD141483C
:103F600000685030414908603E48006878383E4952
:103F700008603AE004F01800182805D104F0800029
:103F8000A0B104F0010088B1F82C0FD01F2C0DD087
:103F9000F02C0BD00F2C09D0072C07D0C02C05D04B
:103FA000032C03D0802C01D0012C16D100202749EE
:103FB000087001202649087000210846FFF7F4FB2D
:103FC00001202449087024480088244908800020E2
:103FD000214908802249087007E0224800682249E8
:103FE00008602048006821490860FF2C20D11D4846
:103FF00000681D4908601B4800681C4908601C488F
:104000000088B0F5966F0DDD002019490880002169
:104010000846FFF7C9FB00200C49087004200C4932
:10402000087008E012480088401C1149088002E02E
:1040300000200F4908800548007828B10B48016826
:1040400009480068FEF7E1F93EBD00002D1500208B
:104050002E150020330A002054150020481500209A
:10406000561500203C15002034150020381500207E
:1040700030150020024600215178107840EA0121D5
:1040800008467047024600211178507840EA012125
:104090000846704710B5024800F0D0FA10BD000085
:1040A000A81A002010B51248007800BB40F2255134
:1040B000104800F031F9012819D10E4800F0E6F956
:1040C0000D490E4A127888540C480078401C0B4960
:1040D000087008460078022804DB002008700120E0
:1040E0000349087040F22551024800F0EDF810BD78
:1040F0003A120020001001403C1200203B12002028
:1041000010B540F22551054800F006F9012804D108
:1041100040F22551014800F0D7F810BD004400409E
:1041200000B587B001210420FFF774F90121202098
:10413000FFF7A0F9082206212348FEF71AFB082200
:1041400007212148FEF715FBC020059002208DF8BD
:10415000180000208DF81A0003208DF819000120A6
:104160008DF81B0005A91848FEF7BBFA4FF4E130A3
:1041700001900020ADF810000C20ADF80E000020DA
:10418000ADF80C00ADF80A00ADF8080001A90F4821
:1041900000F012F9012240F225510C4800F0E6F837
:1041A00047208DF8000000208DF801008DF80200F6
:1041B00001208DF803006846FEF7DEFC012103486C
:1041C00000F091F807B000BD000802400014014063
:1041D00010B540F22551284800F09EF8002845D03F
:1041E000254800F053F9254908702548007878B92A
:1041F00008460078552839D10120214908701F4808
:10420000007820490870002048708870C8702DE040
:104210001B480078012807D1022019490870174867
:1042200000781849487021E015480078022807D125
:10423000032013490870114800781249887015E06E
:104240000F48007803280AD100200D4908700B4858
:1042500000780C49C87001200B49087006E0002066
:1042600007490870084908700649087040F225514E
:10427000014800F029F810BD00140140CF130020C0
:10428000D0130020D1130020D913002010B504460C
:104290002146054800F0FFF800BF8021024800F0E9
:1042A0002EF80028F9D010BD0014014070B5054665
:1042B0000E46002400BF04E0285DFFF7E7FF601C06
:1042C000C4B2B442F8DB70BD10B50022002340F642
:1042D0006A14A14200D100BF0A1201249440A3B283
:1042E000DC43048010BD21B1828942F400528281F6
:1042F00004E082894DF6FF731A40828170470246BE
:104300000020B1F5007F00D100BF13880B400BB136
:10431000012000E00020704770B502460024002311
:104320000025002040F66A16B14200D100BFC1F35B
:10433000421501F01F03012606FA03F3012D02D1F5
:104340009689334006E0022D02D1168A334001E0FF
:10435000968A33400C12012606FA04F4168834407B
:1043600013B10CB1012000E0002070BDF0B5034690
:10437000002400260025002040F66A17B94200D12B
:1043800000BF1846C1F3421401F01F06012707FAC7
:1043900006F5012C01D10C3004E0022C01D11030C3
:1043A00000E014301AB107682F43076002E0076885
:1043B000AF430760F0BD00002DE9FF4705460E46FC
:1043C0000024A14600BFA046B08900B100BF2C8ADE
:1043D00024F44054F08804432C82AC8941F20C60F0
:1043E0008443B08831890843718908430443AC8110
:1043F000AC8A24F44074B0890443AC826846FFF769
:1044000059F82048854202D01F48854202D1DDF884
:104410000C9001E0DDF80890A88900F4004040B15C
:1044200009EBC90000EB091031684900B0FBF1F756
:1044300007E009EBC90000EB091031688900B0FB07
:10444000F1F76420B7FBF0F004012009642101FBBF
:104450001078A88900F4004040B1322000EBC80079
:10446000B0FBF1F000F00700044308E0322000EB5D
:1044700008106421B0FBF1F000F00F0004432C8120
:10448000BDE8FF8700100140001401400146888804
:10449000C0F308007047C1F3080282807047000033
:1044A00010B512481249C1F8B00032211048C0F8C6
:1044B000B4100021C0F8B810C0F8BC10C0F8C0108B
:1044C0000C49C0F8C4100221C0F8C8100021C0F87F
:1044D000CC10C0F8D010C0F8D410042180F8D81047
:1044E00000200549087000F009F810BDC51900202A
:1044F000F8190020541200205312002000B587B094
:10450000012140F20910FEF785FF01214FF4202020
:10451000FEF790FF082200214148FEF72AF9072202
:1045200006214048FEF725F900208DF81A000120E9
:104530008DF81B0002208DF8180001200590022044
:104540008DF8190005A93648FEF7CBF802208DF842
:1045500018004020059005A93248FEF7C2F8002057
:104560008DF81A0001208DF81B008DF8180000024C
:10457000059002208DF8190005A92B48FEF7B1F827
:104580000020FEF71BFA4FF4165001900020ADF802
:104590000800ADF80A00ADF80C00ADF810000820D6
:1045A000ADF80E0001A92148FFF706FF01211F48C1
:1045B000FFF799FE34208DF8000002208DF80100ED
:1045C00001208DF802008DF803006846FEF7D4FA4A
:1045D0004FF4165001900420ADF80E0001A91448C4
:1045E000FFF7EAFE26208DF8000002208DF801007A
:1045F0008DF8020001208DF803006846FEF7BCFA32
:10460000012240F225510A48FFF7B0FE0121084877
:10461000FFF769FE07A000F091FA07B000BD0000A7
:1046200000000240000C024000200240004C00400C
:1046300000440040746573740000000010B5044627
:1046400094F82810374A52F8210040F22771FFF7FA
:1046500063FE18B3E068401CE060D4E902108842B1
:1046600009D2E1682068405C94F828102D4A52F87D
:104670002110888009E094F828102A4A52F8210075
:10468000002240F22771FFF771FE94F82810254AA6
:1046900052F8210040F22771FFF716FE94F8281017
:1046A000204A52F8210040F22551FFF735FE30B381
:1046B00000F056FF606294F828001A4951F8200073
:1046C00080881949087094F82810164A52F8210079
:1046D00040F22551FFF7F8FDD4E90610884207D2D1
:1046E00011480178E269501CE0616069815406E07C
:1046F0000E49206A884202D2206A401C206294F847
:104700002810084A52F821000821FFF7F8FD38B1B7
:1047100094F82800034951F8200080880449087063
:1047200010BD00005C12002058120020F0FFFF7F37
:10473000591200200EB501218803FEF79BFE0421CB
:104740000120FEF7EDFF1020019000208DF80800F9
:104750000C208DF8090001208DF80A0001A8FDF752
:10476000CFFE0A208DF8000001208DF80100002006
:104770008DF8020001208DF803006846FEF7FCF971
:104780000EBD10B500F008F85321092000F064F8C0
:10479000FFF7D0FF10BD00001CB501210320FEF77C
:1047A00039FE00220E211448FDF7E3FF00220D21FF
:1047B0001148FDF7DEFF4FF40040009001208DF816
:1047C000040000208DF8060001208DF8070003206A
:1047D0008DF8050069460848FDF783FF102000901A
:1047E00000208DF8040001208DF807006946034879
:1047F000FDF777FF1CBD00000000024000040240EE
:1048000010B5012010490860032000F071FE00205F
:104810000E49C1F8BC0201210D48FFF7FEF9012144
:104820000B48FFF7F7F900200A4908601E2000F046
:1048300035FE012004490860052000F02FFE00210C
:104840000348FFF7EAF910BDBC02404200004042B5
:1048500000100040341200207FB505460C460121AF
:104860001020FEF7E7FD0295ADF804400020ADF8FA
:10487000060001A90C48FFF7FDF936208DF800006D
:1048800001208DF801008DF802008DF803006846C4
:10489000FEF772F9012211460348FFF7DBF9002108
:1048A0000148FFF7BAF97FBD0010004070B504461B
:1048B0000D462946204600F001F870BDF8B50446C3
:1048C0000D46032704F03F04002714E02046FEF7BE
:1048D000ADFF42F210716846FEF7B2FE064646B9D9
:1048E0009DF80000844203D12846FEF79FFF04E0B4
:1048F0000226781CC7B2032FE8DB00BF3046F8BDA4
:104900002DE9FC41074600200090019000241E483C
:104910000168009140680190A1208DF802001B48B9
:1049200000788DF80300194840788DF80400174886
:1049300080788DF805009DF805309DF804209DF8DD
:1049400003109DF80200DFF848C0DCF80060B047B3
:1049500005468DF806500CE00E4881686846884789
:10496000601CC4B24FF4967000F098FD052C00DB7B
:1049700003E00848C0780028EED000BF00200549B9
:10498000C870BDE8FC81000016120020DC04002085
:104990006C030020D01100202DE9FC4107460020C7
:1049A0000090019000241E48016800914068019029
:1049B000A2208DF802001B48C0788DF8030019482A
:1049C00000798DF80400174840798DF805009DF8AE
:1049D00005309DF804209DF803109DF80200DFF8D3
:1049E00048C0DCF80060B04705468DF806500CE082
:1049F0000E48816868468847601CC4B24FF49670C0
:104A000000F04CFD052C00DB03E00848C0780028CE
:104A1000EED000BF00200549C870BDE8FC81000051
:104A20001E120020DC0400206C030020D0110020A6
:104A30002DE9F04188B0064620216846FBF7D9FBF6
:104A4000002755208DF8000002208DF80100304627
:104A5000FBF7DAFB0446142C00D914242246314615
:104A60000DF10200FBF7ACFB9DF805309DF804202A
:104A70009DF803109DF80200DFF84880D8F800C0C8
:104A8000E0470546A01C0DF80050BB21E01C0DF8C6
:104A900000100CE00C48816868468847781CC7B253
:104AA0004FF4967000F0FAFC052F00DB03E0064897
:104AB00000790028EED000BF00200349087108B03B
:104AC000BDE8F0816C030020D01100202DE9FC41ED
:104AD0000020009001900024154801680091406872
:104AE00001909DF805309DF804209DF803109DF875
:104AF0000200104F3E68B04705468DF806500CE0A6
:104B00000D48816868468847601CC4B24FF49670AF
:104B100000F0C4FC052C00DB03E007488078002887
:104B2000EED000BF002004498870BDE8FC81000081
:104B30000E1200206C030020D01100200FB4054B92
:104B400010B503A9044A029800F0EEF810BC5DF815
:104B500014FB00003D550008C81600200FB4084B98
:104B600010B504A902AA039800F0DEF8044602A9D1
:104B7000002000F070FC204610BC5DF814FB000023
:104B80005754000802E008C8121F08C1002AFAD1D1
:104B900070477047002001E001C1121F002AFBD1BD
:104BA000704700002DE9FF5F82B00021DDE904308D
:104BB000020DDDF840B0034318D044F61050A2F2C5
:104BC000FF3242431514119801281FD0A5EB0B00AA
:104BD000401C5FEA000A4FF000064E4FDFF83891A4
:104BE000B046504615D5CAF1000413E011980124CF
:104BF0004AA3012801D16FEA0B010298119AC0E97A
:104C00000031C0E9024206B0BDE8F09FCBF10000E0
:104C1000DFE704460021404A491842EB0450CDE941
:104C2000001012E0E00707D032463B4640464946B6
:104C3000FBF798FB8046894632463B4610461946AC
:104C4000FBF790FB06460F466410002CEAD1DDE925
:104C50000401DDE90023BAF1000F06DAFBF782FB5D
:104C600042464B46FBF77EFB05E0FBF7EDFB424679
:104C70004B46FBF7E9FB04460E460022284BFBF7A8
:104C8000A5FD03D84FF0FF30014607E00022254B79
:104C900020463146FBF7BFFAFBF780FD102409E000
:104CA000002C0ADB0A220023FBF782FC039B303234
:104CB0001A55641E50EA0102F2D1641C039AC4F131
:104CC00011031444119A012A03D0012208430DD183
:104CD0000AE0084304D000204FF0110B119072E756
:104CE000A3EB0B056D1E0DE05B4504DD4FF00002EC
:104CF00005F1010504E003DA4FF00002A5F101051A
:104D0000002AECD002981199C0E90231C0E90045AF
:104D100079E70000000014400000F03F3000000080
:104D20000000F0430000E03F2DE9FF4F95B09B46A7
:104D30008946064600250FE2252877D1002427461C
:104D4000F84A0121059400E0044316F8013F203B96
:104D500001FA03F01042F7D130782A2811D06FF011
:104D60002F033078A0F13002092A16D8059A44F0B2
:104D7000020402EB820203EB42021044761C05900F
:104D8000EFE759F8042B0592002A03DA504244F465
:104D90000054059044F00204761C30782E2816D179
:104DA00016F8010F44F004042A280DD06FF02F02EA
:104DB0003078A0F13003092B09D807EB870302EB09
:104DC0004303C718761CF3E759F8047B761C307848
:104DD0006C280FD006DC4C2817D068280DD06A2824
:104DE00014D104E0742810D07A280FD10DE044F4D7
:104DF00000140AE044F4801401E044F44014727892
:104E0000824202D104F58014761C761C3078662824
:104E10000BD013DC582877D009DC002875D0452842
:104E2000F6D04628F4D047281AD19DE118E063282F
:104E300035D0642879D0652812D195E1702873D0D7
:104E400008DC6728F1D069286FD06E280DD06F2854
:104E500006D1B5E073282CD0752875D0782874D089
:104E60005A46179990476D1C75E1C4F30250022809
:104E700009D003280DD0D9F8001004280DD00D60FA
:104E800009F1040967E1D9F80010EA17C1E90052F5
:104E9000F6E7D9F800100D80F2E70D70F0E719F889
:104EA000041B8DF8001000208DF80100EA46012057
:104EB00003E059F804AB4FF0FF3061074FF00001F9
:104EC00002D40DE008F101018846B9420FDA8045AD
:104ED000F8DB1AF808100029F4D108E008F1010104
:104EE00088468142FADB1AF808100029F6D10598A5
:104EF0005B46A0EB080721463846179A00F094FA63
:104F0000284400EB080507E04DE029E10DE01AF820
:104F1000010B5A4617999047B8F10108F7D25B4642
:104F200021463846179A13E142E00A220092C4F360
:104F300002524FF0000A022A08D059F804CB032A83
:104F40004FEAEC710AD00DE029E02AE009F10701EF
:104F500021F00702F2E802C1914609E00FFA8CFC49
:104F60004FEAEC71042A03D14FFA8CFC4FEAEC7142
:104F7000002907DA0A460021DCF1000C61EB02018E
:104F80002D2202E0220504D52B228DF804200122D7
:104F900003E0E20701D02022F7E7904659E00A211A
:104FA00002E010220DE010214FF0000A00910BE00A
:104FB00010224FF0000A44F004040827009203E096
:104FC00008224FF0000A0092C4F30252022A05D0D0
:104FD00059F804CB0021032A08D009E009F10701A0
:104FE00021F00702F2E802C1914605E01FFA8CFCAD
:104FF000042A01D10CF0FF0C4FF00008220728D53D
:10500000702806D0009B83F0100353EA0A0305D0F2
:105010000EE040228DF80420012208E05CEA010243
:1050200006D030228DF804208DF80500022290462B
:10503000009B83F0080353EA0A030AD15CEA0102E9
:1050400001D1620705D530228DF804204FF0010808
:105050007F1E582804D034A003900EA802900DE0C3
:1050600036A0F9E753466046009AFBF7A1FA84465A
:105070000398825C0298401E029002705CEA010074
:10508000F0D1029806A9081A00F1200A600702D59B
:1050900024F4803400E00127574502DDA7EB0A0025
:1050A00000E0002000EB0A01009005984144401AFE
:1050B0000590E00306D45B462146179A059800F058
:1050C000B3F90544002706E001A85A46C05D1799C8
:1050D00090476D1C7F1C4745F6DBE0030CD55B4613
:1050E0002146179A059800F09FF9054404E0302006
:1050F0005A46179990476D1C0099481E0090002948
:10510000F5DC08E0029802995A460078491C0291A1
:10511000179990476D1CBAF10001AAF1010AF1DC60
:1051200065E100000928010030313233343536376B
:1051300038396162636465660000000030313233E3
:105140003435363738394142434445460000000083
:1051500000F058F90544761C307800287FF4ECAD57
:1051600019B02846BDE8F08F620700D4062709F180
:10517000070222F0070CFCE80223E14603F0004896
:105180005FEA080C02D00FF2702C0DE05FEA045CBD
:1051900002D50FF2682C07E05FEAC47C02D00FF260
:1051A000602C01E0AFF2700C4FF0FF3823F00043A9
:1051B000CDF850C065280CD006DC452809D046281B
:1051C0001DD047283DD13DE0662818D067287ED104
:1051D00038E00021112F01DB112000E0781CCDE91F
:1051E000000106A90EA8FFF7DDFCDDE90F010E9A0C
:1051F00003910021009207F1010A04914DE04FF064
:1052000000400097CDE9011006A90EA8FFF7CAFCDF
:10521000DDE90F0203920E9B11990022DDF80CA02C
:105220000093049211B9791C00EB010AB7EB0A0054
:1052300004D4C0F1FF3007F1010A0490AAEB070083
:10524000019044E0012F00DA01270021112F01DD38
:10525000112000E03846CDE9000106A90EA8FFF7AD
:10526000A1FCDDE90F010E9A039100210491009247
:10527000BA4621070CD40399514500DA8A46BAF19F
:10528000010F05DD009AAAF10101515C302908D017
:10529000B84202DA10F1040F06DA0121CDE901105B
:1052A00015E0AAF10101E9E7002805DC04990144B1
:1052B0000491AAEB000102E0411C514500DD8A4641
:1052C0000499401A401C01904FF0004002902007C2
:1052D00004D40198504501DBCDF8048000208DF8FE
:1052E0004F0002980DF14F07B0F1004F25D02B2051
:1052F0000E9002984FF0020800280CDA404202900B
:105300002D200E9007E00A210298FBF73BF930317F
:10531000029007F8011DB8F10001A8F10108F2DCC4
:1053200002980028EFD1791E0E980870307800F0AE
:10533000200040F0450007F8020D12A8C01B00F144
:1053400007081498007800B1012000EB0A010198C9
:1053500001EBE07105984144401A401E0590E003BE
:1053600006D45B462146179A059800F05DF805447F
:105370001498007818B15A46179990476D1CE003AD
:1053800024D55B462146179A059800F04DF8054450
:105390001CE00498002807DBDDE90301884203DDF7
:1053A0000098405C179901E0179930205A469047C1
:1053B000049805F10105401C04900198401E0190DD
:1053C00004D12E205A46179990476D1CBAF100015E
:1053D000AAF1010ADDDC05E017F8010B5A4617991E
:1053E00090476D1CB8F10001A8F10108F4DC5B46A0
:1053F0002146179A0598ABE62D0000002B0000000F
:10540000200000002DE9F041044600251E46174605
:10541000880404D405E039462020B0476D1C641E82
:10542000F9D52846BDE8F0812DE9F0410446002574
:105430001E469046C80301D5302700E02027880487
:1054400004D505E041463846B0476D1C641EF9D5C9
:105450002846BDE8F0810A68531C0B601070704745
:1054600010B504466FF00400FEF7AAFAE11704EB4A
:105470005171C1F3C701074A11701046007800EB63
:105480004001C1EBC0104FF6FF7101EAC0000249B4
:10549000088010BDEE130020F0130020014601B972
:1054A0007047124A12884A434FF0E0235A610022A3
:1054B0009A611A46126942F001021A6100BF4FF068
:1054C000E022106900F001021AB100F48032002AD3
:1054D000F5D04FF0E022126922F001024FF0E023F4
:1054E0001A6100229A6100BFDAE70000F013002081
:1054F0000146114A12784A434FF0E0235A610022D4
:105500009A611A46126942F001021A6100BF4FF017
:10551000E022106900F001021AB100F48032002A82
:10552000F5D04FF0E022126922F001024FF0E023A3
:105530001A6100229A617047EE13002070B504468C
:105540000D46A1B20548FEF7A6FF00BF8021034823
:10555000FEF7D5FE0028F9D0204670BD004C004073
:105560000148006870470000F413002000B50146B0
:10557000FFF7F6FF884203D2FFF7F2FF091A00E0B7
:105580000021084600BD02460023002109E0505CCE
:10559000302804D15B1C042B02DB01207047002360
:1055A000491C0829F3DB0020F8E710B50246072064
:1055B0000AE00123834013400BB1312300E0302384
:1055C000C0F107040B55401E0028F2DA00200872D3
:1055D00010BD0000FDF704FAFFF7C2FFC8300C4908
:1055E000086000210846FEF7DFF810E00949086965
:1055F000804700F041F806480068FFF7B7FF30B970
:10560000FFF7AEFFC83002490860FDF747FDEDE740
:105610001C0100206C0300207FB505460C460121CB
:105620000804FDF727FF0295ADF804400020ADF80F
:105630000600ADF80C008DF80E0001A90D48FEF72C
:1056400019FB18208DF8000003208DF801000120BF
:105650008DF802008DF803006846FDF78DFA0122EF
:1056600011460448FEF7F6FA01210248FEF7D5FA82
:105670007FBD00000040014010B5224800780D2891
:105680003ED2DFE800F03D071115191D2125292D17
:10569000313539001C483122412103681BA098474D
:1056A0000220184908702BE003201649087027E0F3
:1056B00004201449087023E00520124908701FE0F7
:1056C0000620104908701BE007200E49087017E0FB
:1056D00008200C49087013E009200A4908700FE0FF
:1056E0000A20084908700BE00B200649087007E003
:1056F0000C200449087003E00D200249087000BF27
:1057000000BF10BD4B020020F40D002034324131A7
:105710003632000070B5024600231AE0002012E085
:1057200032F81060451C32F81550AE4209DD32F8EF
:105730001040451C32F8155022F81050451C22F834
:105740001540451CE8B24D1EED1A8542E8DC5D1C93
:10575000EBB24D1E9D42E1DC70BD000070B5054608
:105760000C460E480560006841420C480068404203
:10577000FCF74BFE06E04FF42F70FFF78FFEA4F509
:105780002F7084B2B4F52F7FF5DA2046FFF786FE3E
:1057900000210846FEF708F870BD00003C15002007
:1057A00070B505460C460748056001680068FCF7BF
:1057B0002CFE2046FFF772FE00210846FDF7F4FF9D
:1057C00070BD00003C15002010B51048807910B164
:1057D00000200E4988710D48C07928B100200B497E
:1057E000C87101200A4908700848007A38B109498F
:1057F00008788A680221904700200449087203480B
:10580000407A10B100200149487210BD9003002079
:105810004B020020740B002070B504460D46642036
:10582000FFF73CFE08480460016800684042FCF74E
:10583000ECFD2846FFF732FE00210846FDF7B4FFD5
:105840006420FFF72BFE70BD3C15002070B50446A8
:105850000D466420FFF722FE0848046001680068D6
:105860004042FCF7D2FD2846FFF718FE002108460B
:10587000FDF79AFF6420FFF711FE70BD3C15002074
:1058800070B505460C466420FFF708FE0948056020
:105890000068414207480068FCF7B7FD2046FFF763
:1058A000FDFD00210846FDF77FFF6420FFF7F6FDB0
:1058B00070BD00003C15002070B505460C46642004
:1058C000FFF7ECFD094805600068414207480068A1
:1058D000FCF79BFD2046FFF7E1FD00210846FDF7A0
:1058E00063FF6420FFF7DAFD70BD00003C15002067
:1058F00010B5044600200D4908700D4908700D4987
:1059000008700D4908700D4908700D490870012094
:105910000C4908700C48046001680068FCF775FDCC
:1059200000BF024800780128FBD110BD2E150020D1
:105930002B15002028150020291500202A150020ED
:105940002C1500202D1500203C15002010B5044614
:10595000FF2C0AD100206049887301205F4908703C
:1059600000210846FDF720FF86E0E72C08D15C48BF
:1059700000685C4908605A4800685B4908607BE041
:10598000F72C01D0F32C0AD1554800681430554942
:105990000860534800682838534908606CE0FB2CC5
:1059A00001D0F92C0AD14E48006828304D490860D2
:1059B0004B4800683C384C4908605DE0FD2C01D044
:1059C000FC2C0AD1464800683C30464908604448EF
:1059D00000685A38444908604EE0FE2C0AD140481D
:1059E000006850303F4908603D48006878383E49BB
:1059F000086041E0EF2C01D0CF2C0AD13848006874
:105A0000143039490860364800682838354908603C
:105A100032E0DF2C01D09F2C0AD1314800682830B9
:105A2000314908602E4800683C382E49086023E060
:105A3000BF2C01D03F2C0AD1294800683C302A49AC
:105A40000860274800685A382649086014E07F2C0F
:105A50000AD1234800685030234908602048006874
:105A600078382049086007E01D4800681D49086033
:105A70001B4800681C490860FF2C20D118480068AA
:105A800018490860164800681749086017480088D8
:105A9000B0F5966F0DDD00201449088000210846FE
:105AA000FDF782FE00201249087004200B4908709F
:105AB00008E00E480088401C0C49088002E00020E5
:105AC0000A4908800448807B28B1074801680548D6
:105AD0000068FCF79AFC10BD9C0700202E150020E2
