:020000040800F2
:100000007008002029020008F1020008E902000837
:10001000ED020008E30200083504000800000000BB
:100020000000000000000000000000001F030008A6
:10003000E7020008000000001D030008210300087B
:10004000430200084302000843020008430200087C
:10005000430200084302000843020008430200086C
:10006000430200084302000843020008430200085C
:10007000430200084302000843020008430200084C
:10008000430200084302000843020008430200083C
:10009000430200084302000843020008430200082C
:1000A000430200084302000843020008430200081C
:1000B000E10300084302000843020008430200086D
:1000C00043020008430200084302000843020008FC
:1000D00043020008430200084302000843020008EC
:1000E00043020008430200084302000843020008DC
:1000F00043020008430200084302000843020008CC
:1001000043020008430200084302000843020008BB
:1001100043020008430200084302000843020008AB
:10012000430200084302000843020008430200089B
:10013000430200084302000843020008430200088B
:10014000430200084302000843020008430200087B
:10015000430200084302000843020008430200086B
:10016000430200084302000843020008430200085B
:100170004302000843020008430200080000000098
:10018000430200084302000800F002F800F03CF8C7
:100190000AA090E8000C82448344AAF10107DA45E2
:1001A00001D100F031F8AFF2090EBAE80F0013F0F8
:1001B000010F18BFFB1A43F001031847D4080000D1
:1001C000F4080000103A24BF78C878C1FAD8520762
:1001D00024BF30C830C144BF04680C6070470000C1
:1001E0000023002400250026103A28BF78C1FBD840
:1001F000520728BF30C148BF0B6070471FB500F0E1
:1002000041FC1FBD10B510BD00F031F81146FFF7DD
:10021000F5FF00F069F900F04FF803B4FFF7F2FFC3
:1002200003BC00F057F80000094880470948004720
:10023000FEE7FEE7FEE7FEE7FEE7FEE7FEE7FEE796
:10024000FEE7FEE704480549054A064B70470000F3
:1002500029030008890100087000002070080020B0
:100260007004002070040020704770477047754686
:1002700000F02CF8AE4605006946534620F0070012
:10028000854618B020B5FFF7DDFFBDE820404FF0F0
:1002900000064FF000074FF000084FF0000B21F070
:1002A0000701AC46ACE8C009ACE8C009ACE8C0093D
:1002B000ACE8C0098D46704710B50446AFF3008026
:1002C0002046BDE81040FFF7A8BF00000048704777
:1002D0001000002001491820ABBEFEE726000200F6
:1002E000704700BFFEE7704700BFFEE700BFFEE7B4
:1002F0007047000010B5002807DA0A07140E054AF7
:1003000000F00F031B1FD45403E00A07130E024A28
:10031000135410BD18ED00E000E400E07047704792
:1003200010B500F089F810BD08B52948006840F400
:100330007000274908602748006840F001002549FF
:10034000086024480830006840F0800021490831E6
:1003500008600020009002E00098401C00904CF2E1
:10036000503100988842F7D31A480830006840F0AE
:1003700090001849083108600020009002E00098C1
:10038000401C00904CF2503100988842F7D3002076
:1003900010490831086000BF0E480830006800208E
:1003A0000028F9D10B4800680B490840094908604A
:1003B0000A48091D0860081F006820F48020091FF2
:1003C0000860002003490C31086000F0D7F908BD2F
:1003D00088ED00E000380240FFFFF6FE10300024F8
:1003E00010B50121880700F0FAFA0F480068401C98
:1003F0000D49086008460068B0F5FA7F07D3002071
:1004000008600A48007880F0010008490870074831
:10041000007820B11021064800F01CF803E01021FC
:10042000034800F015F810BD080000200C00002063
:100430000004024000BFFEE70448006820B1034802
:100440000068401E01490860704700000400002059
:100450008162704781617047F0B504460D461646CB
:100460002168E268002019E0012787401F409FB102
:100470004FEA400C032707FA0CF7B943470005FA87
:1004800007F739434FEA400C032707FA0CF7BA4342
:10049000470006FA07F73A43471CB8B21028E3D3DF
:1004A0002160E260F0BDF0B50C461546012C03D189
:1004B00046681E43466002E046689E434660826886
:1004C00000210DE001268E401E403EB14F00032664
:1004D000BE40B2434E0005FA06F632434E1CB1B29E
:1004E0001029EFD38260F0BD00F04CF940F60140D6
:1004F00000F07EF81023002201210648FFF7ACFF30
:100500001023022200210348FFF7CDFF00F067F916
:1005100000BFFEE7000402402DE9F04103460D460E
:10052000164600240027A0462A48006800F4E06030
:10053000B0F5E06F03D100BF4FF0040830E025486C
:10054000006800F4E060B0F5C06F03D101274FF000
:10055000030825E01F48006800F4E060B0F5A06FD4
:1005600002D10227B8461BE01A48006800F4E06098
:10057000B0F5806F03D103274FF0010810E0154854
:10058000006800F4E060B0F5407F03D104274FF02D
:10059000000805E04FF4A06000F020F80227B846FC
:1005A000C7F1040005FA00F4C8F104010F20C840A7
:1005B0003040044324010848C45403F01F010120C3
:1005C00088405911890001F1E021C1F80001BDE81E
:1005D000F08100000CED00E000E400E0024901437E
:1005E000024A1160704700000000FA050CED00E0BF
:1005F000074A02EB9011D1F8001800F01F03012206
:100600009A401143024B03EB9012C2F80018704756
:1006100000300240074A02EB9011D1F8001800F0B8
:100620001F0301229A409143024B03EB9012C2F840
:100630000018704700300240074A02EB9011D1F8D1
:10064000001800F01F0301229A401143024B03EBF4
:100650009012C2F800187047003002406FF08071AD
:10066000884205D1054909680140044A116004E047
:10067000024909680143014A116070478C38024001
:1006800000203B49096841F48031394A116000BFBC
:100690003749096801F4003129B90146401C4FF679
:1006A000FF729142F4D13249096801F4003109B96D
:1006B00000BFFEE72E494031096841F080512C4AC5
:1006C000403211602B49096841F44041294A1160C8
:1006D000274908310968264A08321160114609681D
:1006E00041F4004111601146096841F4A0511160C4
:1006F0002149121F1160111F096841F08071121FFA
:10070000116000BF1A49096801F000710029F9D091
:100710001849096841F48031164A116000BF154933
:10072000496801F480310029F9D01249096841F47F
:100730000031104A116000BF0E49496801F40031D0
:100740000029F9D00A490831096821F00301084A53
:10075000083211601146096841F00201116000BFC2
:1007600003490831096801F008010029F8D07047F1
:1007700000380240007000400854400710B5FFF7F1
:100780007FFF10BD10B5124800684FF47A71B0FBBE
:10079000F1F4601EB0F1807F01D301200FE0601EF4
:1007A0004FF0E02148610F214FF0FF30FFF7A2FD2D
:1007B00000204FF0E021886107200861002008B187
:1007C00000BFFEE70021481EFFF794FD10BD0000AA
:1007D00000000020016841F08001016070471FB5F2
:1007E0004FF48050FFF704FF4FF08070FFF736FFA3
:1007F0004FF0804000F02CF8A720ADF8000000205A
:10080000ADF80200ADF8040040F2E730029000209D
:10081000ADF806008DF80C0069464FF0804000F0FE
:10082000E1F84FF4C060FFF7D9FE012200211C203F
:10083000FFF772FE0121880700F020F94FF0804099
:10084000FFF7C8FF4FF0804000F0C4F81FBD000064
:1008500010B504465C49601A8C426FD019DC5B49C4
:10086000A4EB01008C424ED009DCB4F1804F2ED0B5
:1008700057482044A0B3B0F5806F72D13AE0B0F58C
:10088000806F49D0B0F5006F4FD0B0F5406FF4D114
:100890007BE0B0F5923F5BD009DCB0F5806F73D0A0
:1008A000B0F5644F0AD0B0F5684F5AD147E0B0F5C3
:1008B000943F57D0B0F5963F53D15CE04FF41060B1
:1008C000FFF7BAFE4FF41060FFF7A4FE79E04FF493
:1008D0000060FFF7B1FE4FF40060FFF79BFE70E091
:1008E000FFE740F60100FFF7A7FE40F60100FFF723
:1008F00091FE66E040F60200FFF79EFE40F6020021
:10090000FFF788FE5DE040F60300FFF795FE40F636
:100910000300FFF77FFE54E040F60400FFF78CFE73
:1009200040F60400FFF776FE4BE040F60500FFF7C7
:1009300083FE40F60500FFF76DFE42E02EE040F634
:100940000110FFF779FE40F60110FFF763FE38E073
:100950004FF41160FFF770FE4FF41160FFF75AFE7D
:100960002FE02DE040F61110FFF766FE40F6111063
:10097000FFF750FE25E040F61210FFF75DFE40F64F
:100980001210FFF747FE1CE011E040F60600FFF7EB
:1009900053FE40F60600FFF73DFE12E040F607006A
:1009A000FFF74AFE40F60700FFF734FE09E040F685
:1009B0000800FFF741FE40F60800FFF72BFE00E0BD
:1009C00000BF00BF10BD0000001C0040000C004034
:1009D00000FCFFBF016841F0010101607047CA439C
:1009E000026170470A8882621D4A90420ED0B0F1BF
:1009F000804F0BD01B4A904208D01B4A904205D032
:100A00001A4A904202D01A4A90420BD1026822F050
:100A10007002026002684B881A43026002688B8889
:100A20001A4302608A68C262124A90420AD0124A8D
:100A3000904207D0026822F4407202600268CB88BC
:100A40001A430260064A904202D0094A904201D1FC
:100A50000A7B0263426942F0010242617047000072
:100A6000000001400004004000080040000C00406D
:100A7000000401400010004000140040C2680A4316
:100A8000C26070474FF04070E1EE100A70470000FE
:100A9000B00A00080000002010000000C401000897
:100AA000C00A00081000002060080000E0010008F3
:100AB000007A030A000000000000000000000000AF
:040000050800018965
:00000001FF
