:020000040800F2
:10000000380B00208D020008A52700087D1F00087E
:100010008D27000891180008DD4B00080000000043
:100020000000000000000000000000008141000806
:10003000911B000800000000C1360008F9440008C8
:10004000A7020008A7020008A7020008A7020008EC
:10005000A7020008A7020008A7020008A7020008DC
:10006000A7020008A7020008A7020008A7020008CC
:10007000A7020008A7020008A7020008A7020008BC
:10008000A7020008A7020008A7020008A7020008AC
:10009000A7020008A7020008A7020008D91B000851
:1000A000A7020008A7020008A7020008A70200088C
:1000B000B946000845470008A7020008A702000843
:1000C000A7020008A7020008A7020008A70200086C
:1000D000A7020008A7020008514A0008A70200086A
:1000E000A7020008A7020008A7020008A70200084C
:1000F000A7020008A7020008A7020008A70200083C
:10010000A7020008A7020008A7020008A70200082B
:10011000A7020008A7020008A7020008A70200081B
:10012000A7020008A7020008A7020008A70200080B
:10013000A7020008A7020008A7020008A7020008FB
:10014000A7020008A7020008A7020008A7020008EB
:10015000A7020008A7020008A7020008A7020008DB
:10016000A7020008A7020008A7020008A7020008CB
:10017000A7020008A7020008A7020008000000006C
:10018000A7020008A702000800F002F800F06FF8CC
:100190000AA090E8000C82448344AAF10107DA45E2
:1001A00001D100F064F8AFF2090EBAE80F0013F0C5
:1001B000010F18BFFB1A43F0010318474C820000DF
:1001C0006C8200000A444FF0000C10F8013B13F061
:1001D000070408BF10F8014B1D1108BF10F8015BA0
:1001E000641E05D010F8016B641E01F8016BF9D193
:1001F00013F0080F1EBF10F8014BAD1C0C1B09D1EA
:100200006D1E58BF01F801CBFAD505E014F8016B5B
:1002100001F8016B6D1EF9D59142D6D370470000ED
:100220000023002400250026103A28BF78C1FBD8FF
:10023000520728BF30C148BF0B607047662906F0DF
:10024000CD83642900F07E80782900F0B7800020FB
:1002500070471FB506F0BDFB00F062FC04000020F3
:10026000002106F029FBE0601FBD10B510BD00F0B5
:1002700057FD1146FFF7EDFF05F044FA00F075FD5C
:1002800003B4FFF7F2FF03BC00F078FD0948804794
:1002900009480047FEE7FEE7FEE7FEE7FEE7FEE768
:1002A000FEE7FEE7FEE7FEE704480549054A064B80
:1002B000704700000145000889010008380300204C
:1002C000380B002038070020380700200FB41CB579
:1002D000074B06AA7B4469460090059800F007FC8E
:1002E0000020694600F016FC1CBC5DF814FB000001
:1002F0003D08000070B5044685690068C10601D557
:10030000302600E02026C00707D070BDD4E90121C7
:1003100030469047206A401C20626D1EF6D570BDA5
:1003200070B5044685690078C00707D170BDD4E96F
:10033000012120209047206A401C20626D1EF6D5C6
:1003400070BD00002DE9F0410646002410687529B3
:10035000314616A510D0AFF30080002802DA4042E3
:1003600013A507E031688A0701D512A502E0490705
:1003700004D511A5012401E0AFF3008000210A2279
:1003800006F1240709E0B0FBF2FCB0FBF2F302FB3C
:100390001C00303078541846491C0028F3D12346FD
:1003A0002A463046BDE8F04100F033B900000000B5
:1003B0002D0000002B0000002000000070B5044656
:1003C0000D4621461068AFF300802188090502D54B
:1003D0000F4A7A4402E00E4A7A440E32002104F1B8
:1003E000240305E000F00F060009965D5E54491CE9
:1003F0000028F7D120780023000704D5702D02D003
:1004000009B1022311322046BDE8704000F001B965
:10041000657F00002DE9F05F894604464FF0000A31
:10042000DFF824B1FB44C0F820A02046E1688847EB
:1004300000287DD0252806D0D4E901219047206AE4
:10044000401C2062F1E700255F462046E1688847AE
:100450002028064607DB312E05D2B81910F8200CEB
:1004600008B10543F1E7A80701D525F00405C4F854
:100470001CA00027C4F818A02A2E09D0304604F08A
:10048000E7FC38B304EB8708303EC8F8186019E081
:1004900059F8041B204604EB87029161E168884704
:1004A000012F064618D1E069002820DA25F0200542
:1004B0001DE0D8F8180000EB800006EB4000303853
:1004C000C8F818002046E1688847064604F0C0FCDA
:1004D0000028EED1012F0AD02E2E08D12046E16847
:1004E00088477F1C0646022F45F02005C4DBA06923
:1004F000002803DA404245F00105A061E80701D079
:1005000025F01005A6B1A6F14100192802D8203621
:1005100045F400654A463146204625604D46FFF7C2
:100520008DFE60B1012807D0ED1D25F0070000E029
:1005300007E000F1080978E705F1040975E730469E
:100540007AE7206ABDE8F09F3B7F000010B5431CAE
:1005500002E010F8011B71B18107FAD14FF00132AE
:1005600002C88C1A8C4314EAC211F9D0C01A0A06C8
:1005700003D0C01E10BDC01A10BD0A0401D0801ED9
:1005800010BD0902FCD0401E10BD00004FF0013C20
:1005900050F8042B51F8043B9A4221D1A2EB0C03F2
:1005A000934313EACC1317D150F8042B51F8043BB2
:1005B0009A4215D1A2EB0C03934313EACC130BD14F
:1005C00050F8042B51F8043B9A4209D1A2EB0C03DA
:1005D000934313EACC13DBD04FF00000704700BF09
:1005E000D01A01BAB1FA81F101F0180122FA01F032
:1005F000CB40C1F12001DBB2C0B2C01A2CFA01F32A
:10060000D11A914311EAC311E6D170477047704780
:1006100070472DE9F0470D4699469246044600F191
:1006200024080168880604D5E06921F010012160E2
:1006300000E00120A84201DD471B00E00027A1697E
:100640007A1902EB0900081AA0612078C00602D4CA
:100650002046FFF74FFE002608E0D4E901211AF8F2
:1006600006009047206A401C761C20624E45F4DB51
:100670002078C0060AD52046FFF73CFE06E0D4E904
:10068000012130209047206A401C2062381EA7F1CB
:100690000107F4DC07E0D4E9012118F805009047D0
:1006A000206A401C2062281EA5F10105F3DC2046CB
:1006B000FFF736FE2078000602D50220BDE8F0875D
:1006C0000120FBE770472DE9FF4F0C461E464FF017
:1006D000FF378BB0D2E90001DDF860800A908A46CE
:1006E000C1F30A5505B93D46002108464FF0000008
:1006F000BAF1000F00F4400005DA00EB80004FF47F
:10070000400101EA50004FEA9059B9F1010F00DDB4
:10071000B9460A9850EA4A000ED044F61050A5F2A5
:10072000FF3545432F14B8F1000F1ED07542291E26
:100730001EDDC9F100021CE0B8F1010F4FF000000E
:1007400001D0302103E0F24305E02154401CB042C7
:10075000FBDB30460022002121540B99C1F80880B0
:10076000C1E900200FB0BDE8F08FBD1B6D1CDEE7B6
:100770004A4600DA694206A800F05CFA06AB93E844
:10078000070003AB83E8070050460A9900F0FDFA22
:100790008DE80700A0F500501F3800900398002D49
:1007A0000ADD42F21F014A460844002303A90390D0
:1007B000684600F066FD09E0A0F500504A461F3883
:1007C000002303A90390684600F070FD8DE8070040
:1007D0000004000C03D04FF0FF30410800E0104649
:1007E000B8F1000F03D00022009215461EE0751EDE
:1007F00005D400F099F9303262556D1EF9D5B34633
:100800000122084302D000227F1C04E02078302817
:1008100001D100227F1E002A099784D01DE0112DEE
:1008200007DA00F081F9303262556D1C50EA01029E
:10083000F5D1084302D00098C8B10EE00021681E2F
:1008400005E0235C625C63542254401E491C8142D3
:10085000F7DBAB46A81B401E0990002004F80B00F4
:100860000B98099AC0F80880C0E9002B7AE7112696
:100870004FF0000857E72DE9F04F88460446D21D97
:1008800022F0070191B0D1E90001CDE90A0104F09D
:10089000C7FA02460B98C00F01D02D2007E0206850
:1008A000810701D52B2002E0202101EAC000032AA4
:1008B000099001D0072A05DB03464146204600F097
:1008C00079F90BE12078800601D5E06900E0062087
:1008D000B8F1650F814606D0B8F1660F18D0B8F1AF
:1008E000670F70D131E00020B9F1110F009001DBEA
:1008F000112301E009F101030AAA01A90CA8FFF7DD
:10090000E2FEDDE90C70002609F10105834647E0AF
:1009100001204B4600904FF000470AAA01A90CA8FD
:10092000FFF7D1FEDDE90DB00C995D46002610B948
:1009300009F101000D18B9EB050003D4C0F1FF3631
:1009400009F10105A5EB09002BE0B9F1010F01DA6E
:100950004FF001090020B9F1110F0090484601DD68
:10096000112300E003460AAA01A90CA8FFF7ABFE79
:10097000DDE90C704D4600268346207800070AD436
:10098000AB4500DA5D4601A8012D04DD411911F8DF
:10099000011C302907D04F4502DA17F1040F04DAA1
:1009A000012082460FE06D1EEEE7002F02DCED1BFA
:1009B0003E4403E0781CA84200DD7D1CB81B00F11A
:1009C000010A4FF000472078000703D4AA4501DB55
:1009D0004FF0FF3A0021B7F1004F0DF143088DF8B9
:1009E000431024D002202B23002F01DA7F422D2335
:1009F0000A21021EA0F1010000DC5FB197FBF1FCAF
:100A000097FBF1F201FB1C7C17460CF1300C08F847
:100A100001CDEEE7A8F1010003702188090501D599
:100A2000452100E06521A0F1010800F8011C0998AA
:100A30000FA9A1EB0807FF1D00B10120411901EB2F
:100A4000EA70A1693844081A401EA0612078C006E7
:100A500002D42046FFF74EFC099828B1D4E90121C1
:100A60009047206A401C20622078C00622D520468C
:100A7000FFF740FC1EE0002E04DBB34502DD01A8B9
:100A8000805D00E03020D4E901219047206A401CBD
:100A90002062761CAAF101005FEA000A0AD100F088
:100AA0003FF8C0680168405CD4E901219047206AA2
:100AB000401C2062281EA5F10105DCDC07E0D4E91A
:100AC000012118F8010B9047206A401C2062381E53
:100AD000A7F10107F3DC2046FFF722FC032011B049
:100AE00041E6000001694A1C02610878704700B5C0
:100AF0008FB0CDE901310021059105497944CDE957
:100B0000031011466846FFF785FC0FB000BD0000DA
:100B1000E5FFFFFF0A6802F8010B0A60704700005A
:100B200000487047F402002030B5B0F10A024FEAE5
:100B3000900E71F100034EEA817EB0EB0E0061EB86
:100B400091014FEA101E4EEA017E10EB0E0041EBC0
:100B500011114FEA102E4EEA016E10EB0E0041EB20
:100B600011214FEA104E4EEA014E10EB0E0041EB00
:100B70001141401841F100014FEAD00040EA4170B4
:100B80004FEAD10110EB80054FEA810444EA9074EA
:100B900044EB01046D1944EB0404521BA3414FF0D4
:100BA000000348BF0A3200D530BD401C41F10001AE
:100BB00030BD00002DE9F0411F46044603260168C0
:100BC000072A01F4006004DB08B116A505E016A5AC
:100BD00003E008B115A500E015A521F01000206084
:100BE000A069C01EA0610FB1401EA0612046FFF7A2
:100BF00081FB4FB1D4E9012138469047206A401C5F
:100C00002062C01C206206E0206AFAE7D4E90121D4
:100C100015F8010B9047761EF8D22046FFF780FBAF
:100C2000BDE8F0814E414E006E616E00494E4600B7
:100C3000696E66002DE9F047814616468AB0354850
:100C400078440DC88DE80D0032487844801C03AC10
:100C50000DC884E80D0041F69B300844372190FB15
:100C6000F1F290FBF1F5A5F1800501FB12041B3CAC
:100C700002D56442012000E00020DFF898A0804601
:100C80000027FA44AAF1BE0A0EE0E0070AD0324675
:100C9000684607EB470101230AEB810100F006FBE0
:100CA0008DE8070064107F1C002CEED1194F7F44A3
:100CB000AE3F19E0E80715D007EB04100DF1180A54
:100CC00090E80E008AE80E00C068F04201D1981941
:100CD00008903246012306A903A800F0E7FA03AB07
:100CE00083E807006D10641C002DE3D14FF0010371
:100CF00032466946B8F1000F03A802D000F0C1FAED
:100D000001E000F0D3FAC9E90001C9F808200AB0EF
:100D1000BDE8F087AC77000000487047D40200209F
:100D20007546FFF7F9FFAE4605006946534620F0C9
:100D30000700854618B020B5FFF7B6FABDE8204099
:100D40004FF000064FF000074FF000084FF0000B87
:100D500021F00701AC46ACE8C009ACE8C009ACE83A
:100D6000C009ACE8C0098D46704710B50446AFF322
:100D700000802046BDE81040FFF782BA01491820E4
:100D8000ABBEFEE72600020070475FEA400C08BFDA
:100D900091F0000F4FEA8C234FEAC12243EA5151F0
:100DA0004FEA1C5018BF00F5F0404FEA300018BF62
:100DB00041F000415FEA6C5C00F02980BCF1FF3F2C
:100DC00008BF40F080407047130C06BF12044FF07C
:100DD000100C4FF0000C130E04BF12020CF1080CA3
:100DE000130F04BF12010CF1040C930F04BF920007
:100DF0000CF1020CD30F04BF52000CF1010C114690
:100E00004FF00002A0F11F00A0EB0C00704711F0A2
:100E1000004F08BF704731F000413FF4D5AF0B0CD5
:100E200006BF09044FF0100C4FF0000C0B0E04BF6E
:100E300009020CF1080C0B0F04BF09010CF1040CA2
:100E40008B0F04BF89000CF1020CCB0F04BF4900CB
:100E50000CF1010CCCF12003A0EB0C0022FA03F3FF
:100E600002FA0CF241EA030100F10100704720F0A0
:100E70007F4C80EA030023F07F47ACEB070303F5C8
:100E80007C5300F0004003F1FF032DE980494FEA55
:100E9000154B09B44FEA144325EA0B4E24EA0348E4
:100EA0000FF2042606EB132749083E785FEA320268
:100EB00003FB0667C7F5000707FB06F64FEA543742
:100EC0004FEAD64606F1020607FB066CCCF1005C41
:100ED0004FEA1C472CEA074C07FB06F40CFB06F50F
:100EE00004EB15464FEA961634BF00204FF0004041
:100EF0004FEAD13706FB07FC4FEA1C4C0CFB0BF703
:100F0000D21B03FB0CF761EB07010CFB0EF7B0EBF8
:100F1000074072EB17420CFB08F734BFA2EB074205
:100F2000B2EB074261EB17414FEA0C444FEA9107DD
:100F300006FB07FC4FEA1C4C0CFB0BF7B0EBC74061
:100F400072EB573203FB0CF734BFA2EBC742B2EB94
:100F5000C74261EB57310CFB0EF7B0EBC70072EBE9
:100F600057720CFB08F734BFA2EBC702B2EBC70203
:100F700061EB5771039F4FEA816141EA921104EBE3
:100F8000CC044FEAD1374FEA826206FB07FC42EA03
:100F900090124FEA80604FEA1C4C0CFB0BF7D21BFF
:100FA00003FB0CF761EB07010CFB0EF7B0EB0740FE
:100FB00072EB17420CFB08F734BFA2EB0742B2EB0F
:100FC000074261EB17414FEA8C554FEA910704EB5A
:100FD0009C2406FB07FC4FEA1C4C0CFB0BF7B0EB08
:100FE000C74072EB573203FB0CF734BFA2EBC7428A
:100FF000B2EBC74261EB57310CFB0EF7B0EBC70009
:1010000072EB57720CFB08F734BFA2EBC702B2EBCE
:10101000C70261EB577115EB4C254FEA816141EA3C
:1010200092114FEA82624FEAD13742EA901206FBF0
:1010300007FC44F100044FEA80604FEA1C4C0CFBB3
:101040000BF7D21B03FB0CF761EB07010CFB0EF750
:10105000B0EB074072EB17420CFB08F734BFA2EB72
:101060000742B2EB074261EB174115EB1C154FEA43
:10107000813141EA92414FEA823242EA90424FEA9C
:1010800080304FEA0C7644F1000448EA03434EEA0C
:101090000B484FF0000EB2EB080C71EB030724BFB6
:1010A000624639464EEB0E0E4FF0000B00185241CF
:1010B00049414BEB0B0BB2EB080C71EB03077BF1D7
:1010C000000B24BF624639464EEB0E0E4FF0000B6C
:1010D0000018524149414BEB0B0BB2EB080C71EB82
:1010E00003077BF1000B24BF624639464EEB0E0E20
:1010F00051EA020718BF46F0010616EB0E7655F1CD
:10110000000254F1000103D5BDE88901BDE8008863
:10111000BDE88901BDE80048B619524141EB010123
:10112000A3F10103704780807F7E7D7C7B7A797894
:10113000777676757473727171706F6E6E6D6C6C9C
:101140006B6A6A696868676666656464636362613E
:101150006160605F5F5E5E5D5D5C5C5B5B5A5A59BF
:10116000595858575756565555555454535352522B
:101170005251515050504F4F4F4E4E4D4D4D4C4C83
:101180004C4B4B4B4A4A4A494949484848474747CC
:101190004746464645454544444444434343434209
:1011A000424242414141002B9C4630D477002BD033
:1011B0001CB54FEA370703B44FF010004FF0100191
:1011C000BAF1000F06D0BCF1000FDCBF40F0080000
:1011D00040F008014FF000000FBCBDE810400BF1DB
:1011E000010BBBF1010F08BF5FEA170722BF12F125
:1011F000010211F101014FF0004143F1000300F041
:10120000004043EA00007047F9D35708D0E746EAA8
:10121000064613F1400F4FEA16461FDD13F1200F6B
:10122000DFBF16430A46002120335B42BED0C3F124
:10123000200746EA064602FA07F74FEA164646EA4C
:101240000706C3F1200722FA03F201FA07F721FA91
:1012500003F14FF0000342EA0702A7E746EA02065D
:1012600046EA06464FEA164646EA0106BCBF46EA8B
:101270000646360C4FF000034FF000024FF000011D
:1012800094E72DE9804C9A46934670B491E8380073
:1012900007C831EA400C48BF34EA430C03D5FFF7D6
:1012A000E6FDFFF780FFF0BCBDE8008C2DE9804C27
:1012B0009A46934670B491E8380007C810F0804F02
:1012C00008BF13F0804F03D100F005F8FFF76BFF64
:1012D000F0BCBDE8008C20F07F4780EA030023F0DB
:1012E0007F4C07EB0C03A3F57C5300F00040A3F107
:1012F000FE0392F0000F00F0B38095F0000F00F0B5
:1013000077802DE901494FEA11404FEA144621EA5E
:10131000004800FB06FC24EA064708FB06F607FB2C
:1013200008F800FB07F718EB06484CEB164C4FEAA1
:10133000124B18EB07484FEA15464CEB174022EAD0
:101340000B4E0BFB06FC25EA06470EFB06F607FBD9
:101350000EFE0BFB07F71EEB064E4CEB164C4FF048
:1013600000061EEB074E4CEB174B18EB0B0840F139
:10137000000018EB0E0B58EB000840F100008F1A2C
:101380004FF000013CBFC943661B14BFB5EB040C12
:1013900000213CBFC943F61B4FEA17444EEA8E0EAC
:1013A00027EA04454FEA1C4704FB07622CEA074C76
:1013B00005FB07F70CFB05F604FB0CFC16EB0746D8
:1013C00042EB174216EB0C4642EB1C421BEB0606A7
:1013D00058EB0202414146EA9E0601D5BDE801896B
:1013E000B619524141EB0101A3F10103BDE80189A6
:1013F0004FEA14454FEA114724EA054621EA074C13
:1014000005FB07F406FB07F70CFB06F105FB0CFCDC
:1014100011EB074144EB17444FEA124711EB0C4123
:1014200044EB1C4422EA074C05FB07F206FB07F7D6
:101430000CFB06F605FB0CFC16EB074642EB1742CD
:1014400016EB0C4642EB1C456A1854F1000148BFEC
:101450007047B619524141EB0101A3F101037047F6
:1014600095F0000F37D04FEA11424FEA144721EAB6
:10147000024624EA074C02FB07F106FB07F70CFBC8
:1014800006F402FB0CFC14EB074441EB17414FEA56
:10149000154714EB0C4441EB1C4125EA074C02FBB9
:1014A00007F506FB07F70CFB06F602FB0CFC16EB38
:1014B000074645EB174516EB0C4645EB1C42121947
:1014C00051F1000148BF7047B619524141EB01018B
:1014D000A3F1010370474FEA14454FEA114724EA8C
:1014E000054621EA074C05FB07F106FB07F70CFB55
:1014F00006F24FF0000605FB0CFC12EB074241EB35
:10150000174112EB0C4251EB1C4148BF7047921837
:1015100041EB0101A3F101037047000000B589B060
:1015200040F6024004F04AFB012300220321484810
:1015300003F066FF022300220321454803F060FF09
:10154000042300220321424803F05AFF40F60240E0
:1015500004F034FB40F6164004F030FB41F2081072
:1015600004F02CFB4FF4003003F0B8FC00213948A4
:1015700003F0F0FD384800900120019037480290B8
:10158000002003904FF40060049000200590069026
:10159000032007904FF4003008906A4600212D4840
:1015A00003F02AFE00212B4803F0B4FD0021294856
:1015B00003F0C0FD03F0AFFC002003F079FD012231
:1015C000110225484C3803F045FD01220221224832
:1015D0004C3803F03FFD00211F484C3803F090FCCD
:1015E000032201211C484C3803F04EFC06230A223A
:1015F000002119484C3803F0C5FC06230B220121B9
:1016000015484C3803F0BEFC06230C220221124878
:101610004C3803F0B7FC002201210F484C3803F08E
:1016200097FC0D484C3803F085FC0B484C3803F010
:101630007CFC09484C3803F082FC07484C3803F026
:101640000EFC012104484C3803F0F2FC09B000BD47
:1016500000080240006402404C20014028020020A3
:1016600010B5044600BF40F201611D4803F0A8FF19
:101670000028F8D11A4803F0CAFF00BF4FF4A06158
:10168000174803F09DFF0028F8D001224621144896
:1016900003F0A5FF0021124803F0FAFE00BF40F25C
:1016A00001510F4803F08CFF0028F8D040F201519F
:1016B0000B4803F071FF00BF40F20651084803F0E9
:1016C0007FFF0028F8D0064803F05AFF2070044836
:1016D00003F056FF6070024803F09EFF10BD00004B
:1016E0000054004010B5044600BF40F201611D489F
:1016F00003F066FF0028F8D11A4803F088FF00BF06
:101700004FF4A061174803F05BFF0028F8D06FF09A
:1017100001024621134803F062FF00BF40F201516D
:10172000104803F04DFF0028F8D040F201510D4859
:1017300003F032FF21460B4803F026FF00BF40F2C2
:101740000751084803F03CFF0028F8D0054803F093
:1017500063FF00BF0348006800F400700028F9D15F
:1017600010BD00000054004010B50120FFF7BAFF83
:101770001020FFF7B7FFB42003F0ACFC0D48FFF7D3
:101780006FFF0C4840780B49097800EB012000EE10
:10179000100AB8EEC00ADFED080A80EE201A0748EA
:1017A00080ED001A90ED000ABCEEC00A044880EDFE
:1017B000000A10BDB80000209A99993FBC00002093
:1017C000C000002010B540F6014004F0F7F94022B7
:1017D0000421184803F0D4FD80220421154803F0A9
:1017E000CFFD402301220221124803F009FE4023CD
:1017F000022201210F4803F02AFE80230122022148
:101800000C4803F0FDFD802302220121094803F06A
:101810001EFE41F2150004F0D1F903F003FF012090
:10182000FFF760FF1020FFF75DFFB42003F052FCCC
:1018300010BD00000004024010B540F6044004F062
:10184000BDF94FF4004302220021024803F0D8FD05
:1018500010BD00000010024010B50446012C0FD14D
:10186000C103084803F0C4FD012804D106490870EB
:101870000649087004E00020034908700349087015
:1018800010BD000000100240490000200C000020A4
:1018900000BFFEE710B54FF4406004F08FF94FF43D
:1018A000004300220121084803F0AAFD4FF4004341
:1018B00002220021044803F0CAFD4FF4004102480F
:1018C00003F08DFD10BD00000000024070B504461D
:1018D000002511E04FF40041094803F082FD5A2031
:1018E00003F0F8FB4FF40041054803F078FD5A205F
:1018F00003F0F0FB681CC5B2A542EBDB70BD000035
:10190000000002402DE9F0410746884615460421B3
:10191000052000F02DF80021012003F02DFA802190
:101920000A2002F05DFC002405E0395D092003F087
:1019300023FA601CC4B24445F7DB0321012003F005
:101940001BFAFF2400BF052002F0A2FA0646601E23
:10195000C4B21CB106F004000028F4D0222002F02A
:1019600097FA2870212002F093FA6870BDE8F081A0
:1019700070B505460C460026284602F089FA064650
:1019800026EA0401284603F0F7F970BD10B50024DB
:1019900000F0D8F804E0601CC4B2012003F0A4FBFE
:1019A0004FF400510F4803F023FD08B1642CF2DB23
:1019B000642C01DB012010BD002404E0601CC4B2D3
:1019C000012003F091FB4FF40051064803F010FD95
:1019D00008B9642CF2DB642C01DB0120EBE700206A
:1019E000E9E700000008024010B540F6024004F0AC
:1019F000E5F84FF4005302220121054803F000FDF1
:101A00004FF4005302220021014803F020FD10BDD5
:101A10000008024010B5FFF7E7FF00F089F810BD9D
:101A200010B5002404E0601CC4B2012003F05CFB8C
:101A30004FF40051104803F0DBFC08B1642CF2DBDA
:101A4000002404E0601CC4B2012003F04DFB4FF4FD
:101A50000051094803F0CCFC08B9642CF2DB2820C3
:101A600003F042FB4FF40051034803F0C1FC08B1FE
:101A7000012010BD0020FCE70008024070B50024E2
:101A8000002506E06006040EFFF7CAFF0443681C49
:101A9000C5B2082DF6DB204670BD7CB505460E4666
:101AA00000F02EF84FF4967003F014FB00F028F8C5
:101AB000FFF76CFFF8B9002405E0FFF7DFFF0DF832
:101AC0000400601CC4B2052CF7DB9DF800009DF8F3
:101AD000011008449DF8021008449DF803100844C2
:101AE0009DF80410884208D19DF8000030809DF8D0
:101AF0000200288001E001207CBD0020FCE70000FE
:101B000010B500F02FF800224FF40051074803F001
:101B10006AFC142003F0DEFA01225103034803F0AB
:101B200062FC282003F0E0FA10BD0000000802402B
:101B300010B5FFF7E5FF00BFFFF728FF0028FBD136
:101B400010BD000010B540F6024004F037F84FF425
:101B5000005300221146024803F052FC10BD000061
:101B60000008024010B540F6024004F027F84FF498
:101B7000005302220121054803F042FC4FF40053B8
:101B800002220021014803F062FC10BD000802405F
:101B900070470146002000EE101AB8EE400AF3EE3E
:101BA000010A20EE200AF2EE040A80EE201ABCEEB2
:101BB000C10A10EE100A704710B50446012C04D17A
:101BC00040F2DC5002F078FC04E01CB94FF4FA70EB
:101BD00002F072FC10BD000010B5802003F0BEFBC7
:101BE000012804D102490870802003F0B1FB10BD28
:101BF000C4000020A0B10B4909880B4A1268914229
:101C000003D80A490968322905D90121084A117007
:101C1000084A117004E00021054A1170054A11704C
:101C20007047000008000020900000209400002071
:101C30000F0000204C00002010B50446012C04D1F8
:101C40004FF4FA5002F048FC0AE0022C04D144F2AE
:101C5000506002F041FC03E014B9002002F03CFCAB
:101C600010BD000010B504463CB300F03FF9164922
:101C70000860084690ED000AB8EE400A134880ED6F
:101C8000000AD0ED000A124890ED000AB8EE400AB2
:101C900030EEC00A0D4880ED000A90ED000AB5EE66
:101CA000C00AF1EE10FA0DDD90ED000ADFED090A31
:101CB00080EE201A80ED001A04E09FED070A034829
:101CC00080ED000A10BD0000C8000020D0000020F8
:101CD000CC000020002061440000000010B540F658
:101CE000034003F06BFF40F6034003F067FF40F64C
:101CF000034003F063FF40F6034003F05FFF04235B
:101D000002220121214803F07BFB02231A46012114
:101D10001E4803F075FB0823022201211B4803F033
:101D20006FFB012302221946184803F069FB0423C4
:101D300002220021154803F08AFB02231A460021E3
:101D4000124803F084FB0823022200210F4803F00D
:101D50007EFB0123022200210C4803F078FB0022C5
:101D600001210A4803F03FFB0421084803F037FB38
:101D70000221064803F033FB0821044803F02FFB3F
:101D80004FF4FA7003F0A6F910BD0000000C0240F9
:101D900010B50421054803F022FB022003F0A4F94A
:101DA0000421024803F01DFB10BD0000000C02409E
:101DB00070B5054600241AE005FA04F000F0800032
:101DC00020B108210B4803F00CFB03E0082109486F
:101DD00003F005FB0221074803F001FB022003F09A
:101DE00083F90221034803F0FCFA601CC4B2082CFA
:101DF000E2DB70BD000C024010B50446002C4CD054
:101E000000220121254803F0EEFA052003F062F9D3
:101E100001221146214803F0E6FA142003F064F988
:101E2000002201211D4803F0DEFA142003F05CF9C2
:101E300000BF0221194803F0DBFA0028F9D0184846
:101E400000681849086000BF0221144803F0D0FA66
:101E50000128F9D0124800681249096888421CD943
:101E60000F4800680F490968401A0F490860084682
:101E70000068B0F5407F10D208460068FFF789FE81
:101E80000A490860084600681E2803D20120084954
:101E9000087002E000200649087010BD00000240F2
:101EA0001C000020AC000020B0000020B400002086
:101EB0000D00002010B54FF4406003F07FFE0123B9
:101EC00000221946084803F09BFA01230222002150
:101ED000054803F0BCFA022300221146024803F031
:101EE0008FFA02F0F7FB10BD0000024070B54FF40E
:101EF0000051214803F075FA142003F0F5F84FF46F
:101F000080511D4803F06BFA002400BF4FF40051CC
:101F1000194803F06DFA0028F8D1002519E04FF4B4
:101F20008051154803F05DFA6400142003F0DCF8DA
:101F30004FF48051104803F052FA4FF400510E480C
:101F400003F056FA00B1641C142003F0CDF8681CAD
:101F5000C5B2182DE3DB4FF48051074803F041FA76
:101F600084F40004142003F0BFF84FF480510248B9
:101F700003F035FA204670BD0004024000BFFEE7C2
:101F800010B502F09DF8642003F0A4F801F035FBD1
:101F900001F0C8F9022003F09DF801F0C9F94120D1
:101FA00000F076FB10BD000010B503F063FB40B2FB
:101FB000FE49087008460078012808D1FC480068EE
:101FC000801CFB4908600020F849087016E0F748BB
:101FD0000078022808D1F6480068801EF44908609D
:101FE0000020F249087009E0F0480078032805D184
:101FF0000120F04908700020EC490870EE48007894
:10200000C8B9EB480068002808DD00F0E1FB0120BA
:10201000E94908700020E64908603FE1E4480068AB
:102020000028FADA00F0D4FB0320E3490870062008
:10203000DF49086032E1E0480078012839D1DC4806
:102040000068002807DA00F0C3FB0020DA490870B6
:10205000D749086022E1D6480068082808DB00F06C
:10206000B7FB0220D44908700020D149086015E16F
:10207000CF490868C11700EB5171C910A0EBC1012D
:10208000CB4A1160CD48006811460968884209D0E2
:10209000CA480178CAA2002000F04CFDC44800687C
:1020A000C6490860C2480178C6A2002000F042FD7F
:1020B000F4E0C1480078022849D1C34800780028DC
:1020C00045D1C2480078002841D1C1480078E8BB1A
:1020D000C0480078D0BBB6480068002808DA00F095
:1020E00077FB0120B44908700620B1490860D5E0AB
:1020F000AF480068082808DB00F06AFB0320AE49FF
:1021000008700020AA490860C8E0A9490868C117FA
:1021100000EB5171C910A0EBC101A54A1160A7489D
:10212000006811460968884209D0A4480178A4A231
:10213000002000F0FFFC9E480068A04908609C4811
:102140000178A0A2002000F0F5FCA7E0FFE79A4884
:10215000007803283DD1A0480078C8BB94480068A7
:10216000002808DA00F034FB0220934908700620AA
:102170008F49086092E08E480068082807DB00F06D
:1021800027FB00208C4908708949086086E088494F
:102190000868C11700EB5171C910A0EBC101844A56
:1021A00011608648006811460968884209D0834852
:1021B000017883A2002000F0BDFC7D4800687F49C3
:1021C00008607B4801787FA2002000F0B3FC65E046
:1021D000FFE779480078032830D17F48007801284C
:1021E0002CD17E48007848BB7D48007830BB7048D1
:1021F0000068002803DA04206D4908604EE06C484E
:102200000068062190FBF1F201FB120068490860AA
:102210006A4800680968884209D06848017868A25D
:10222000002000F087FC624800686449086060484C
:10223000017864A2002000F07DFC2FE05E48007869
:1022400003282BD164480078012827D164480078FE
:10225000012823D156480068002803DA0620544993
:1022600008601BE052490868C11700EB5171C910A2
:10227000A0EBC1014E4A1160504800681146096840
:1022800088420BD01146086800EBD0714910491CF8
:10229000544A11704648006848490860454800782B
:1022A00001282FD14448007801282BD140480068EC
:1022B00030B102280BD0042810D006281CD114E01D
:1022C0004948007880F001004749087015E0474808
:1022D000007880F00100454908700EE0444800781D
:1022E00080F001004249087007E04248007880F021
:1022F00001004049087000E000BF00BF00202D49E8
:10230000087062E12B48007801283AD12A48007809
:10231000022836D12C48007890BB2C48007878BB36
:102320002B48007860BB2B48007848BB20480068E9
:1023300030B102280AD004280ED006281AD113E0A2
:1023400001202149087000F043FA14E001201F49E0
:10235000087000F03DFA0EE001201D490870264982
:10236000087000F035FA06E001201A49087000F004
:102370002FFA00E000BF00BF00200E49087024E1E2
:10238000FFE70C48007801285BD10B480078032850
:1023900057D11148007888BB0548006878B30228F7
:1023A00034D0042839D0062845D13DE06B00002008
:1023B0003C00002044000020450000204000002098
:1023C000202000002D3E00004D0000204E00002087
:1023D0004F00002050000020510000205500002038
:1023E0005600002047000020490000204A0000203D
:1023F0004B0000204C0000201100002021E0FFE7EE
:1024000001207249087000F0E3F915E07048007887
:1024100080F001006E4908700EE06E48007880F090
:1024200001006C49087007E06B48007880F00100FB
:102430006949087000E000BF00BF002067490870CC
:10244000C3E06648007801283AD16548007803283F
:1024500036D15E480078012832D16248007870BBDE
:102460006148007858BB6148006820B102280BD051
:1024700004281ED111E001205A49087000205A4951
:10248000087000F0A5F915E00020564908700120F9
:102490005549087000F09CF90CE000204B49087089
:1024A00050490870504908705049086000F090F990
:1024B00000E000BF00BF00204849087085E0FFE74A
:1024C00046480078012816D145480078022812D1E4
:1024D0004748007801280ED1002045490870454939
:1024E0000870454800684149086000203B49087071
:1024F00000F06EF969E039480078012814D13848B5
:102500000078022810D13D48007801280CD1002025
:102510003A490870384800683449086000202F495B
:10252000087000F055F950E02C48007801281AD1C5
:102530002B480078022816D131480078012812D1A2
:102540000020304908702E4908702F4908702A4829
:1025500000682649086000202049087000F038F91A
:1025600001F056FF31E01D480078012814D11C48C5
:102570000078022810D12548007801280CD10020CD
:10258000224908701C480068184908600020134957
:10259000087000F01DF918E010480078012814D1E7
:1025A0000F480078032810D10848007801280CD182
:1025B0000C480078012808D100200A4908700A490F
:1025C00008700649087000F003F910BD51000020A2
:1025D000520000205300002054000020440000203E
:1025E0004500002055000020560000203C0000203F
:1025F0004D00002010000020400000204E00002070
:102600004F00002048000020110000205000002052
:1026100010B540F6014003F0D1FA10230022012149
:10262000064802F0EDFE102302220021034802F0CA
:102630000EFF1021014802F0D4FE10BD000402403C
:1026400070B5044608251DE004F0800028B1012281
:1026500051030E4802F0C7FE05E000224FF400517E
:102660000A4802F0C0FE6006040E00224FF400612A
:10267000064802F0B8FE0122D102044802F0B3FE7F
:10268000681EC5B2012DDFDA70BD0000000C0240EB
:1026900010B50446412C26D108210846FFF768F9F9
:1026A0003D21112002F068FB8621172002F064FB17
:1026B0007F21262002F060FB1E212D2002F05CFB12
:1026C00000212C2002F058FB8D212A2002F054FB1F
:1026D0003E212B2002F050FB4FF47A7002F004FDF3
:1026E00000F026FE01E0012010BD0020FCE7000004
:1026F0002DE9F04105460F460026B0462FE00024A4
:1027000026E0204A04F1100112F81110C943C8B2A2
:10271000FFF74EFB1B4911F81410C943C8B2FFF76D
:1027200047FB711C184A12681144695CC943C8B25E
:10273000FFF73EFB144909683144695CC943C8B2DC
:10274000FFF736FBFFF724FBB01CC6B2601CC4B217
:10275000102CD6DB002608F1010000F0FF08B8F1CC
:10276000C80FCCDB08480068801C07490860A7F147
:1027700020000968884202D2002003490860BDE8B1
:10278000F0810000D80000200002002000BFFEE71A
:1027900010B541F21C0003F011FA03F025FB03F021
:1027A00075FB10BD7047000010B5002807DA0A0756
:1027B000140E054A00F00F031B1FD45403E00A0750
:1027C000130E024A135410BD18ED00E000E400E0BF
:1027D00070B5002419E004F1B001C8B2002100F086
:1027E000C5F90021084600F0C1F90021102000F0D1
:1027F000BDF9002505E00121002000F0B7F9681CB3
:10280000C5B2802DF7DB601CC4B2082CE3DB70BDC1
:1028100010B54FF4406003F0D1F940F6024003F0E8
:10282000CDF940F6034003F0C9F94FF4807300225C
:1028300001215A4802F0E4FD4FF480730222002186
:10284000564802F004FE4FF4407300220121544820
:1028500002F0D6FD4FF4407302220021504802F0EE
:10286000F6FD4FF48843002201214E4802F0C8FDD6
:102870004FF48843022200214A4802F0E8FD012279
:102880001102474802F0AFFD00224FF48061454835
:1028900002F0A9FD00224FF48041424802F0A3FD5E
:1028A000642002F017FC0021AE2000F05FF9002147
:1028B000084600F05BF90021102000F057F90021D4
:1028C000402000F053F90021812000F04FF9002151
:1028D000CF2000F04BF90021A12000F047F90021A2
:1028E000C82000F043F90021A62000F03FF90021A4
:1028F000A82000F03BF900213F2000F037F900212B
:10290000D32000F033F90021084600F02FF9002110
:10291000D52000F02BF90021F02000F027F900214C
:10292000D92000F023F90021F12000F01FF9002147
:10293000DA2000F01BF90021122000F017F9002125
:10294000DB2000F013F90021402000F00FF90021F6
:10295000202000F00BF90021022000F007F90021EF
:102960008D2000F003F90021142000F0FFF8002171
:10297000A42000F0FBF80021A62000F0F7F80021C9
:10298000AF2000F0F3F80021AF2000F0EFF8FFF7E0
:102990001FFF0021084600F007F810BD00000240AC
:1029A00000080240000C024070B504460D4605F1D7
:1029B000B001C8B2002100F0D9F8102141EA14108A
:1029C000002100F0D3F804F00F0141F001000021D4
:1029D00000F0CCF870BD00002DE9F04180460E46B5
:1029E0001546002731464046FFF7DEFF00240AE087
:1029F000124A02EB8511085D012100F0B7F8781C3E
:102A0000C7B2601CC4B2102CF2DB701CC1B24046CD
:102A1000FFF7CAFF00240CE06900491C074A02EBDB
:102A20004111085D012100F0A1F8781CC7B2601CBB
:102A3000C4B2102CF0DBBDE8F0810000F871000892
:102A40002DE9F04107460E46904600250024A8F1E6
:102A50002000C5B27F2F02DD0027B01CC6B2314670
:102A60003846FFF7A1FF002408E004EB05110F4AE8
:102A7000505C012100F07AF8601CC4B2082CF4DB31
:102A8000701CC1B23846FFF78FFF002409E004EB49
:102A900005110831054A505C012100F067F8601CFF
:102AA000C4B2082CF3DBBDE8F0810000086C00081C
:102AB0002DE9FF5F074691461D460E9E4FF0000A26
:102AC000002433E0281B401EC1B20A2002F0D6FECB
:102AD000B9FBF0F00A21B0FBF1F201FB1208BAF1E8
:102AE000000F13D1681EA04210DDB8F1000F0BD10A
:102AF000B34606EBDB71491001FB0471C8B220221A
:102B00000199FFF79DFF0FE04FF0010AB34606EB76
:102B1000DB71491001FB0471C8B208F13001CAB27F
:102B20000199FFF78DFF00BF601CC4B2AC42C9DB46
:102B3000BDE8FF9F2DE9F04104460F4615460026EB
:102B40000EE0AA5D39462046FFF77AFF04F108003F
:102B5000C4B2782C02DD0024B81CC7B2701CC6B207
:102B6000A85D0028EDD1BDE8F081000070B50446F5
:102B70000E462EB1012291031E4802F034FC05E0FE
:102B800000224FF480411B4802F02DFC00224FF43C
:102B90008061184802F027FC00251DE000224FF458
:102BA0008071154802F01FFC04F0800028B101225A
:102BB0005102124802F017FC05E000224FF40071A8
:102BC0000E4802F010FC012211020B4802F00BFC2F
:102BD0006006040E681CC5B2082DDFDB01229102DD
:102BE000044802F000FC01229103024802F0FBFBC2
:102BF00070BD0000000C02400000024000080240CE
:102C000000B52DED028B89B0FE480078002851D127
:102C1000002211460620FFF7DFFE012200211620C8
:102C2000FFF7DAFE022200212620FFF7D5FE03225D
:102C300000213620FFF7D0FE042202213220FFF7C8
:102C4000CBFE052202214220FFF7C6FE062202210A
:102C50005220FFF7C1FE072202216220FFF7BCFECF
:102C6000E94880780090E8484378007800F5005201
:102C7000E6A1EA48FDF72AFBE84A04210A20FFF70B
:102C800059FFE14880790090DF4843790279E4A157
:102C9000E748FDF71BFBE64A06211920FFF74AFF2C
:102CA00010200090E3484288032306215A20FFF7B2
:102CB000FFFEEAE2D3480078012874D108220021FF
:102CC0001120FFF789FE092202211120FFF784FE5F
:102CD0000A2202212220FFF77FFE0B22042111206D
:102CE000FFF77AFE0C2204212220FFF775FE3F2217
:102CF00006211120FFF770FE402206212220FFF757
:102D00006BFECD48007840B91F2200216320FFF7F9
:102D100063FE0020C949087007E0202200216320DB
:102D2000FFF75AFE0120C5490870C548007840B930
:102D30001F2202216320FFF74FFE0020C1490870C7
:102D400007E0202202216320FFF746FE0120BD4953
:102D50000870BD48007840B91F2204216320FFF7A6
:102D60003BFE0020B949087007E0202204216320BF
:102D7000FFF732FE0120B5490870B548007840B928
:102D80001F2206216320FFF727FE0020B1490870AB
:102D90007BE2202206216320FFF71EFE0120AD49C1
:102DA000087072E2FFE79748007802286AD1AA48C3
:102DB0000078002866D1A9480078002862D1A84888
:102DC000007800285ED1A748007800285AD10D224B
:102DD00000211120FFF700FE0E2200212220FFF724
:102DE000FBFD0F2200213220FFF7F6FD102200210B
:102DF0004220FFF7F1FD112200215220FFF7ECFDE8
:102E0000122202211120FFF7E7FD132202212220C6
:102E1000FFF7E2FD142202213320FFF7DDFD15222A
:102E200002214420FFF7D8FD162202215520FFF78A
:102E3000D3FD172204211120FFF7CEFD1822042113
:102E40002220FFF7C9FD122206211120FFF7C4FD41
:102E5000132206212220FFF7BFFD1922062133206D
:102E6000FFF7BAFD1A2206214420FFF7B5FD1B2209
:102E700006215520FFF7B0FD162206216620FFF738
:102E8000ABFD02E25F480078032876D176480078EF
:102E90000028FAD1754800780028F6D174480078E7
:102EA0000028F2D173A200211120FFF743FE1C225B
:102EB00000213320FFF790FD1D2200214420FFF761
:102EC0008BFD1E2200215520FFF786FD08220221DE
:102ED0001920FFF781FD412202213320FFF77CFDFD
:102EE000422202214420FFF777FD3F2204211120D6
:102EF000FFF772FD402204212220FFF76DFD4122E1
:102F000004213320FFF768FD422204214420FFF70B
:102F100063FD0B2206211120FFF75EFD0C22062126
:102F20002220FFF759FD412206213320FFF754FDEF
:102F3000422206214420FFF74FFD5048007840B957
:102F40001F2202216320FFF747FD00204C49087033
:102F500007E0202202216320FFF73EFD01204849BF
:102F600008704848007848B91F2204216320FFF701
:102F700033FD00204449087008E027E020220421A6
:102F80006320FFF729FD01203F4908703F48007882
:102F900028B91F2206216320FFF71EFD75E12022BC
:102FA00006216320FFF718FD394800683949096890
:102FB000884205D90120254908702349087064E139
:102FC000002022490870204908705EE122480078FC
:102FD000B0B101203049087030A202211420FFF75F
:102FE000A9FD1020032300902E48042102683220FE
:102FF000FFF75EFD2CA204215020FFF79BFD44E16A
:1030000054E00000450000205C02002025303278AA
:103010002D253032782D2530327800007C000020BC
:10302000253032783A253032783A2530327800002F
:103030006C00002028020020490000200C00002025
:103040004A0000200D0000204B0000200E00002050
:103050004C0000200F0000204D0000204E000020FA
:103060004F0000205000002051000020550000209B
:103070005600002052464944000000005200002043
:1030800012000020530000201300002054000020F4
:10309000C000002038000020100000204469733A6E
:1030A00020000000B4000020636D00007948007823
:1030B000B0B17948028879A101A8FDF707F901AA02
:1030C00000210846FFF736FD7848028878A101A85C
:1030D000FDF7FCF801AA02210020FFF72BFDD4E048
:1030E00077480078C8B101207649087076A202219D
:1030F0005A20FFF71FFD7748006803F0F9FB41EC09
:10310000180B53EC182B74A101A8FDF7DFF801AAE6
:1031100002210020FFF70EFDB7E073480078A8B148
:1031200072A204216320FFF705FD72A20221002094
:10313000FFF700FD724873A1026801A8FDF7C6F809
:1031400001AA04214120FFF7F5FC9EE06F480078BA
:1031500001284FD16E480078F0BB6E480078D8BB8C
:103160006D480078C0BB212200211120FFF734FCFC
:10317000222200211046FFF72FFC232200213320BA
:10318000FFF72AFC242200214420FFF725FC2522FA
:1031900002211120FFF720FC262202212220FFF726
:1031A0001BFC232202213320FFF716FC24220221DC
:1031B0004420FFF711FC272204211120FFF70CFC0B
:1031C000282204212220FFF707FC29220421332092
:1031D000FFF702FC2A2200E00CE004214420FFF764
:1031E000FBFB2B2204215520FFF7F6FB00204B4967
:1031F00008704AE046480078F0B12C2202211120E4
:10320000FFF7EAFB2D2202212220FFF7E5FB2E2209
:1032100002213320FFF7E0FB232202214420FFF7A5
:10322000DBFB242202215520FFF7D6FB01203B497E
:10323000087000F047FA28E03648007828B32F22BB
:1032400002211120FFF7C8FB302202212220FFF7C4
:10325000C3FB252202213320FFF7BEFB26220221D9
:103260004420FFF7B9FB2E48027814A101A8FDF70E
:103270002DF801AA02215520FFF75CFC2322022130
:103280006620FFF7A9FB00F0E9FC09B0BDEC028B5A
:1032900000BD00004E0000200A00002068756D6926
:1032A000646974793A202564000000000800002059
:1032B00074656D70657261747572653A202564007D
:1032C0004F00002048000020202020202020202027
:1032D00000000000D00000205765696768743A203C
:1032E00025302E316667200050000020202020204D
:1032F000202000004C69676874446174613A0000E2
:10330000C00000202564206C7820000051000020BF
:1033100055000020560000205700002046000020E5
:103320004700002010B503211420FEF721FB10BD3B
:1033300010B5142000F0ACFD044604F0030018B9E9
:103340000321142000F04CFF10BDF0B587B00546F6
:10335000002708210846FEF70BFB00210D2001F095
:103360000BFD80210E20FEF703FB93208DF8040057
:1033700020208DF8050006A801AB022201A90090CB
:103380000C2000F045F8064686B9002407E001A8A5
:10339000005D285501A8005D4740601CC4B2042CA4
:1033A000F5DB01A8005DB84200D0022680210E2086
:1033B00000F016FF304607B0F0BD2DE9F04188B0AF
:1033C00004460D4616461F468DF808408DF80950F4
:1033D0003068CDF80A00B088ADF80E003868049067
:1033E00007A802AB0C2202A900900E2000F010F8F2
:1033F0008046B8F1000F05D1082000F049FD00F02B
:10340000080008B94FF00208404608B0BDE8F08156
:103410002DE9FE4F0646884691469A46DDF830B0C3
:10342000022002900020019000900C2E06D00E2E5B
:1034300009D1122001901020009005E07720019022
:103440003020009000E000BF00BF019840F08001F4
:10345000022001F091FC80210420FEF789FA00216E
:10346000012001F089FC80210A2000F0B9FE00252E
:1034700006E018F80510092001F07EFC681C85B2F2
:103480004D45F6DB3146012001F076FC0C2E03D1D0
:1034900080210D2000F0A4FE4FF4FA6500BF042047
:1034A00000F0F6FC0446681E85B235B104F0010058
:1034B00018B9009820400028F1D080210D20FEF797
:1034C00057FA002D38D0062000F0E2FC00F01B0077
:1034D00078BB002002900198204000F0010008B164
:1034E000012002900C2E27D10A2000F0D1FC0446C6
:1034F0000C2000F0CDFC00F007072FB1601E07EB99
:10350000C0008BF8000003E0E006000E8BF800001E
:1035100004B90124122C00DD1224002506E0092044
:1035200000F0B6FC0AF80500681C85B2A542F6DB7F
:1035300002E0FFE70220029080210C2000F050FE04
:103540000021012001F018FC0298BDE8FE8FF0B5C3
:1035500087B005460E4630208DF804008DF80550E2
:103560000DF10602022101A8FEF7CCF906A801AB75
:10357000042201A900900C20FFF74AFF07466FB90B
:103580009DF81800902809D1002404E001A8005DEE
:103590003055601CC4B2052CF8DB00E00227384629
:1035A00007B0F0BD70B588B005460C460821084646
:1035B000FEF7DEF907210D2001F0DEFB03211420C8
:1035C00000F00EFE8DF8085007A802AB012202A9F8
:1035D00000900C20FFF71CFF064656B99DF81C0012
:1035E000102806D19DF8080020709DF80900607031
:1035F00000E00226304608B070BD10B50A2001F088
:1036000073FD0F21012001F0B7FB0F21012001F014
:10361000B3FB0A2001F068FD3D21112001F0ACFB55
:103620001E212D2001F0A8FB00212C2001F0A4FB7D
:103630008D212A2001F0A0FB3E212B2001F09CFBD4
:103640004021152001F098FB002010BD70B588B016
:10365000054693208DF8080070208DF809000020A1
:103660008DF80E0000240BE0295D02AAA01C115465
:103670009DF80E00295D48408DF80E00601CC4B214
:10368000042CF1DB0DF10F02072102A8FEF73AF935
:1036900008210846FEF76CF907A802AB092202A927
:1036A00000900C20FFF7B4FE06462EB99DF81C00D2
:1036B000182801D1002600E00226304608B070BD6F
:1036C0007047000030B587B00025FEA103C9CDE9E1
:1036D000010106A95220FFF765FF04463CB9C82046
:1036E00001F0F8FC022405A8FFF72FFE044624B9D8
:1036F000022405A8FFF7AAFF0446002C7ED102246D
:1037000005AB01AA29466020FFF757FE0446002CAE
:1037100075D1022403A92846FFF719FF0446002C9F
:10372000F6D1EA480078FF280FD1E8484078FF2812
:103730000BD1E6488078FF2807D1E448C078FF28FD
:1037400003D10020E24908603EE0E2480078FF280B
:103750000FD1E0484078FF280BD1DE488078FF2861
:1037600007D1DC48C078FF2803D10120D849086080
:103770002AE0D9480078FF280FD1D7484078FF28A1
:103780000BD1D5488078FF2807D1D348C078FF28CF
:1037900003D10220CE49086016E0D0480078FF2807
:1037A0000FD1CE484078FF280BD1CC488078FF2835
:1037B00007D1CA48C078FF2803D10320C449086054
:1037C00002E00420C24908609DF80C00BF49097856
:1037D000884217D19DF80D00BC494978884211D123
:1037E0009DF80E00B949897888420BD19DF80F00E9
:1037F000B649C978884205D1052001E0B8E1BDE1AC
:10380000B34908609DF80C00B2490978884214D188
:103810009DF80D00AF49497888420ED19DF80E0001
:10382000AC498978884208D19DF80F00A949C97828
:10383000884202D10520A64908609DF80C00A649DF
:103840000978884214D19DF80D00A349497888422F
:103850000ED19DF80E00A0498978884208D19DF8C4
:103860000F009D49C978884202D105209849086017
:103870009DF80C0099490978884214D19DF80D00F3
:103880009649497888420ED19DF80E00934989786F
:10389000884208D19DF80F009049C978884202D12A
:1038A00005208B4908608A480068062878D2DFE83E
:1038B00000F0033D78B2ECFD9DF80C0083490870E0
:1038C0009DF80D0048709DF80E0088709DF80F005F
:1038D000C870232202211120FFF77EF82A2202213C
:1038E0002220FFF779F8212202213320FFF774F814
:1038F000222202214420FFF76FF8352202215520B1
:10390000FFF76AF8362202216620FFF765F80120EA
:10391000FDF7DCFF40F2DC5001F0DCFB00207049D9
:10392000087070490870FEF753FF20E19DF80C0005
:10393000684908709DF80D0048709DF80E00887069
:103940009DF80F00C870232202211120FFF744F8D0
:10395000372202212220FFF73FF8212202213320C3
:10396000FFF73AF8222202214420FFF735F83522EA
:1039700002215520FFF730F8362202216620FFF79A
:103980002BF80120FDF7A2FF40F2DC5001F0A2FB72
:1039900000205349087053490870FEF719FFE6E00C
:1039A000E4E09DF80C004C4908709DF80D0048704B
:1039B0009DF80E0088709DF80F00C8702322022128
:1039C0001120FFF709F8382202212220FFF704F81E
:1039D000212202213320FEF7FFFF22220221442070
:1039E000FEF7FAFF352202215520FEF7F5FF3622B9
:1039F00002216620FEF7F0FF0120FDF767FF40F28D
:103A0000DC5001F067FB002035490870354908702B
:103A1000FEF7DEFEABE09DF80C00304908709DF823
:103A20000D0048709DF80E0088709DF80F00C8705A
:103A3000232202211120FEF7CFFF3922022122206A
:103A4000FEF7CAFF212202213320FEF7C5FF222202
:103A500002214420FEF7C0FF352202215520FEF747
:103A6000BBFF362202216620FEF7B6FF0120FDF7DC
:103A70002DFF40F2DC5001F02DFB002018490870AA
:103A800018490870FEF7A4FE71E03A2202211120C5
:103A9000FEF7A2FF3B2202212220FEF79DFF2122FA
:103AA00002213320FEF798FF222200E034E00221B9
:103AB0004420FEF791FF392202215520FEF78CFFAA
:103AC0003C2211E0FFFFFFFFFFFF00000402002087
:103AD00018020020080200200C0200201002002022
:103AE000550000205600002002216620FEF774FFDA
:103AF000232202217720FEF76FFF0320FDF7E6FE69
:103B000040F2DC5001F0E6FA00201D4908701D4922
:103B10000870FEF75DFE2AE0232202211120FEF745
:103B20005BFF242202212220FEF756FF3D220221C4
:103B30003320FEF751FF212202214420FEF74CFFE3
:103B40003E2202215520FEF747FF0320FDF7BEFE6F
:103B500001F0E4F840F2DC5001F0BCFA0020084922
:103B6000087008490870FEF733FE00E000BF05E06A
:103B7000FFF743FDFFF7D6FBFFF7DAFB07B030BDD9
:103B8000550000205600002010B500F0E9F930493A
:103B900008600846006838BB4FF0FF300860FEF749
:103BA00017FE232202212220FEF716FF24220221E3
:103BB0003320FEF711FF312202214420FEF70CFFD3
:103BC000322202215520FEF707FF0320FDF77EFE7B
:103BD00040F2DC5001F07EFA002000F00FFB01F013
:103BE0009DF8FEF7F5FD32E01948006801280BD07A
:103BF00017480068022807D015480068032803D03A
:103C000013480068042822D1FEF7E2FD3322022186
:103C10002220FEF7E1FE342202213320FEF7DCFEF3
:103C2000352202214420FEF7D7FE362202215520FC
:103C3000FEF7D2FE0120FDF749FE0120054908707C
:103C400005490870C82001F045FAFEF7C1FD10BD16
:103C5000140200200D0000204A00002010B580480A
:103C60000078012806D0022840D003287CD0042800
:103C700079D1B5E07B480078012836D1FEF7A8FD60
:103C8000FF207949087048708870C870232202218B
:103C90001120FEF7A1FE2A2202212220FEF79CFE1F
:103CA0003D2202213320FEF797FE252202214420E7
:103CB000FEF792FE262202215520FEF78DFE0020FF
:103CC0006749087069490870694908706549087052
:103CD0000120FDF7FBFD67480068674908604FF465
:103CE0007A7001F0F7F9FEF773FDB6E05D480078F1
:103CF000012836D1FEF76CFDFF206049087048703E
:103D00008870C870232202211120FEF765FE372239
:103D100002212220FEF760FE3D2202213320FEF721
:103D20005BFE252202214420FEF756FE26220221B8
:103D30005520FEF751FE0020494908704B49087094
:103D40004B490870474908700120FDF7BFFD4948FD
:103D50000068494908604FF47A7001F0BBF9FEF73A
:103D600037FD7AE000E077E03E480078012836D160
:103D7000FEF72EFDFF204249087048708870C87019
:103D8000232202211120FEF727FE382202212220C1
:103D9000FEF722FE3D2202213320FEF71DFE2522E2
:103DA00002214420FEF718FE262202215520FEF7AC
:103DB00013FE00202A4908702C4908702C4908700D
:103DC000284908700120FDF781FD2A4800682A492A
:103DD00008604FF47A7001F07DF9FEF7F9FC3CE0E1
:103DE00020480078012836D1FEF7F2FCFF20254953
:103DF000087048708870C870232202211120FEF7D5
:103E0000EBFD392202212220FEF7E6FD3D220221B0
:103E10003320FEF7E1FD252202214420FEF7DCFDE0
:103E2000262202215520FEF7D7FD00200C490870FC
:103E30000E4908700E4908700A4908700120FDF704
:103E400045FD0C4800680C4908604FF47A7001F099
:103E500041F9FEF7BDFC00E000BF00BF10BD00004F
:103E600047000020440000200402002055000020EC
:103E700056000020400000203C00002008020020E6
:103E80000C0200201002002010B502F02DF810BD29
:103E90002DE9F041064600252021304801F09FFA27
:103EA000022001F021F910212C4801F098FA02209B
:103EB00001F01AF97E2000EA460040F0800708244D
:103EC0001DE007F0800020B18021244801F089FA2C
:103ED00003E08021214801F082FA20211F4801F0EF
:103EE00080FA022001F000F97806070E20211B4815
:103EF00001F075FA022001F0F7F8601EC4B2002C40
:103F0000DFDC082416E02021144801F06AFA0220C0
:103F100001F0EAF86806050E4021104801F068FA41
:103F2000054320210D4801F05AFA022001F0DCF887
:103F3000601EC4B2002CE6DC1021084801F051FAE2
:103F4000022001F0D1F82021044801F04AFA0220B1
:103F500001F0CAF82846BDE8F081000000000240E8
:103F600070B586B0002650A003C8CDE9000105A9B0
:103F70005220FFF717FB054625B9022504A8FFF7D5
:103F8000E4F9054625B9022504A8FFF75FFB0546BD
:103F9000002D7AD1022504AB6A4631466020FFF736
:103FA0000CFA0546002D78D1022502A93046FFF70C
:103FB000CEFA0546002D6ED100249DF808003C493C
:103FC0000978884213D19DF8090039494978884217
:103FD0000DD19DF80A0036498978884207D19DF8AD
:103FE0000B003349C978884201D1012451E09DF882
:103FF000080030490978884213D19DF809002D49FD
:10400000497888420DD19DF80A002A49897888426A
:1040100007D19DF80B002749C978884201D10224B5
:1040200037E09DF8080024490978884213D19DF8AB
:1040300009002149497888420DD19DF80A001E499E
:104040008978884207D19DF80B001B49C9788842BE
:1040500001D103241DE09DF8080018490978884221
:1040600016D19DF8090015494978884210D19DF86C
:104070000A001249897888420AD19DF80B000F493D
:10408000C978884204D1042403E008E005E002E096
:104090000024022504E0002402E0052400E00624B8
:1040A000204606B070BD0000FFFFFFFFFFFF0000CD
:1040B00004020020080200200C0200201002002050
:1040C00000B587B04FF4406001F078FD41F20C106C
:1040D00001F074FD102300220121274801F090F91E
:1040E000102302220021244801F0B1F920230022EC
:1040F0000121214801F084F92023022200211E48D9
:1041000001F0A5F98023002201211B4801F078F974
:10411000802302220021184801F099F9402300224F
:104120001146154801F06CF91023002201211248B4
:1041300001F066F91023022200210F4801F087F9EF
:1041400010210D4801F04DF9002001904FF48270CC
:1041500000900020029005904FF400700390002022
:10416000069004906946054801F0DBFE034801F023
:10417000D3FE07B000BD0000000002400030014047
:104180007047000070B505462846FCF7DFF9064683
:1041900000240BE0295D104800F018FD00BF072146
:1041A0000D4802F018FB0028F9D0641C301EA6F15F
:1041B0000106EFD100240CE00848015D064800F03C
:1041C00005FD00BF0721044802F005FB0028F9D0D7
:1041D000641C032CF0D370BD0044004038830008F9
:1041E00070B505460C4600262846FFF751FE0646E8
:1041F00046EA0401284600F0BFFD70BD10B5044634
:10420000012C00D100E0002002464FF4004102489A
:1042100001F0E9F810BD00000000024070B506464C
:10422000012E23D124480078002843D101202249BF
:104230000870002516E0002410E02048015D0122EE
:104240001F4801F0D0F8052000F044FF1B48015D35
:1042500000221B4801F0C7F8601CC4B2042CECDB40
:10426000681C85B2B5F5FF7FE5DD23E016BB12487B
:10427000007801281ED100200F490870002516E0A3
:10428000002410E00F48015D01220D4801F0ABF859
:10429000052000F01FFF0B48015D0022084801F0D7
:1042A000A2F8601CC4B2042CECDB681C85B2B5F526
:1042B000FF7FE5DD70BD00002F00002034000020EE
:1042C00000100240300000202DE9F04704464FF472
:1042D0007A7094FBF0F00A2190FBF1F201FB1200DE
:1042E000C7B2642094FBF0F090FBF1F201FB1200E6
:1042F00000F0FF080A2094FBF0F090FBF1F201FBC4
:10430000120000F0FF090A2094FBF0F100FB1140BD
:1043100000F0FF0A3148C5192E783046FEF790F9B3
:104320000820FEF78DF900224FF480512C4801F04F
:104330005AF8012000F0CEFE01221103284801F0B6
:1043400052F8264800EB08052E783046FEF778F93B
:104350000420FEF775F900224FF48051204801F047
:1043600042F8012000F0B6FE012211031C4801F0C2
:104370003AF81A4800EB0905287800F07F06304625
:10438000FEF75EF90220FEF75BF900224FF4805140
:10439000134801F028F8012000F09CFE01221103CF
:1043A0000F4801F020F80D4800EB0A052E78304642
:1043B000FEF746F90120FEF743F900224FF4805141
:1043C000074801F010F8012000F084FE01221103DB
:1043D000034801F008F8BDE8F087000098000020CD
:1043E000000C024010B540F6034001F0E7FB4FF42B
:1043F000605300220121054801F002F84FF4605398
:1044000002220021014801F022F810BD000C0240F8
:1044100010B5FF20FEF714F90820FEF711F900226D
:104420004FF48051234800F0DEFF012000F052FEDF
:10443000012211031F4800F0D6FFFF20FEF700F90C
:104440000420FEF7FDF800224FF48051194800F0D7
:10445000CAFF012000F03EFE01221103154800F0C2
:10446000C2FFFF20FEF7ECF80220FEF7E9F8002279
:104470004FF480510F4800F0B6FFFF2000F02AFEF5
:10448000012211030B4800F0AEFFFF20FEF7D8F821
:104490000120FEF7D5F800224FF48051054800F0C6
:1044A000A2FF012000F016FE01221103014800F0D6
:1044B0009AFF10BD000C024010B5044644F620607F
:1044C000844200DD044622460121024801F015FF26
:1044D00010BD00000000014010B5044644F6206005
:1044E000844200DD044622460321024801F005FF14
:1044F00010BD00000000014010B500F0FFFD10BD30
:1045000008B52948006840F470002749086027482A
:10451000006840F001002549086024480830006820
:1045200040F080002149083108600020009002E03E
:104530000098401C00904CF2503100988842F7D30C
:104540001A480830006840F09000184908310860A7
:104550000020009002E00098401C00904CF2503186
:1045600000988842F7D3002010490831086000BF46
:104570000E480830006800200028F9D10B48006878
:104580000B490840094908600A48091D0860081FCE
:10459000006820F48020091F0860002003490C31C6
:1045A000086001F055FD08BD88ED00E000380240CC
:1045B000FFFFF6FE1030002400B587B001F074F95B
:1045C0004FF4885001F0FAFA4FF0807001F038FB98
:1045D000684601F0F9FF374801F0D0FE0121354867
:1045E00001F0E6FFA720ADF800000020ADF80200C2
:1045F000ADF8040044F61F6002900020ADF80600FC
:104600008DF80C0069462B4801F082FF0020ADF8C0
:1046100014000120ADF810000020ADF81600ADF830
:104620001200ADF81800ADF81A0004AA01212148C3
:1046300001F040FD04AA02211E4801F03BFD04AA3E
:1046400003211C4801F036FD00220121194801F028
:1046500054FE00220221174801F04FFE00220321E0
:10466000144801F04AFE60220121124801F018FEB0
:10467000602202210F4801F013FE602203210D4841
:1046800001F00EFE002201210A4801F049FE00223D
:104690000221084801F044FE00220321054801F0F0
:1046A0003FFE044801F000FD024801F029FF07B079
:1046B00000BD00000000014010B50121880701F095
:1046C00024FF03480068401C0149086010BD000039
:1046D0001C0000201FB54FF4805001F06FFA4FF01E
:1046E000807001F0ADFA4FF0804001F047FEA72046
:1046F000ADF800000020ADF80200ADF80400632022
:1047000002900020ADF806008DF80C0069464FF0CD
:10471000804001F0FDFE4FF4C06001F0A5F80122D9
:1047200000211C2001F03EF80121880701F03CFF28
:104730004FF0804001F0B8FC4FF0804001F0E0FE07
:104740001FBD000010B501212E4801F0DEFE2E48ED
:104750000068401C2C49086000BF01202B490860FC
:10476000294800680A21B0FBF1F201FB120010B9E0
:10477000012027490870244800683221B0FBF1F27B
:1047800001FB120010B90120224908701E48006880
:10479000C821B0FBF1F201FB120010B901201E4943
:1047A0000870194800684FF4FA71B0FBF1F201FB90
:1047B000120010B9012019490870134800684FF41D
:1047C0004871B0FBF1F201FB120010B9012014494D
:1047D00008700D4800684FF47A71B0FBF1F201FBEC
:1047E000120010B901200F4908700748006840F214
:1047F000DC51B0FBF1F201FB120010B901200A49B3
:10480000087010BD0004004020000020240000209B
:1048100028000020290000202A0000202B00002072
:104820002C0000202D0000202E0000201FB541F29A
:10483000010001F0C3F94FF0807001F001FA154852
:1048400001F09CFDA720ADF800000020ADF80200AB
:10485000ADF8040040F2E73002900020ADF8060009
:104860008DF80C0069460B4801F052FE4FF4C06011
:1048700000F0FAFF012211461D2000F093FF0121F4
:10488000044801F091FE034801F00EFC014801F0DC
:1048900037FE1FBD0004004010B54C4800780028CA
:1048A0003ED14B480078012806D14A480078FDF7F0
:1048B000A3FA00204649087047480078012816D11D
:1048C0004648007801F018FB45480078FDF774F978
:1048D00044480078FDF78EF943480078FDF7ACF9BD
:1048E00042480078FFF79AFC00203B490870404896
:1048F0000078012808D1FCF737FF3E493E48FDF714
:10490000CCF800203A4908703C480078012807D1CB
:104910003B48007808B9FFF737F90020374908709D
:1049200038480068012802D100203649086036481E
:104930000078012802D100203349087033480078FC
:1049400001281FD132480078FCF786FF31480078F3
:10495000FDF788F9FFF798FA2F4800882F49096872
:10496000884205D82C4840882D490968884203D9D7
:104970000120FFF743FC02E00020FFF73FFC00208E
:10498000224908702748007801281DD11A4802885A
:1049900025A12748FBF79AFC2548FFF7F3FB1E48A3
:1049A000028824A12248FBF791FC2148FFF7EAFB8B
:1049B0001048028823A11E48FBF788FC1C48FFF71B
:1049C000E1FB00201749087010BD000048000020DE
:1049D00029000020100000202A0000200C000020E8
:1049E0000D000020130000200F0000200E0000200A
:1049F0002C0000200A000020080000202D000020CC
:104A00004600002024000020280000202B00002069
:104A100012000020110000202802002014000020B5
:104A2000180000202E00002074656D703D25640084
:104A30003C020020736D6F6B6573636F70653D257D
:104A40006400000068756D69646974793D256400CF
:104A500010B52049204801F0EAFE002838D0052191
:104A60001D4801F0B8FE002832D01B4801F036FE88
:104A7000C4B21A48007810B1012823D108E0552C9F
:104A800005D10020164908700120144908701DE066
:104A9000BB2C0BD100201349114A127888540120F5
:104AA0001149087000200D4908700AE00C48007890
:104AB000632806DA0A490878411C094A1170094935
:104AC0000C5403E000200549087000BF00BF00BF80
:104AD00010BD000005030500004400403A0200201C
:104AE00039020020700200203802002010B540F684
:104AF000034001F063F840F6034001F05FF841F233
:104B0000110001F05BF841F2110001F057F820228A
:104B100007212C4800F034FC40220721294800F0EE
:104B20002FFC202301220221264800F069FC2023CB
:104B300002220021234800F08AFC402301220221A6
:104B4000204800F05DFC4023022200211D4800F0B7
:104B50007EFC1D4801F0CCFD4FF416511A4801F0BF
:104B60003FFD0021184801F09EFE0021164801F08B
:104B70008AFE0021144801F076FE0021124801F05F
:104B800041FE0021104801F035FE08210E4801F0D9
:104B900082FE04210C4801F06EFE0B4801F016FE67
:104BA00000220521262000F0FDFD40F205310648D7
:104BB00001F030FE0021044801F086FD024801F0BA
:104BC00005FE10BD000C02400044004070B50446D4
:104BD0000D462946204601F086FD70BD00BFFEE768
:104BE0004148007801287ED140480078012804D14E
:104BF0003E4840783E49086075E03C48007802280D
:104C000004D13A4840783B4908606CE03748007866
:104C1000032804D1354840783749086063E03348B9
:104C20000078042813D131484078012805D10020AC
:104C3000324908703249087055E02C484078022803
:104C400051D101202D4908702D4908704BE02748AB
:104C50000078052804D1254840782A49086042E0B8
:104C600022480078062804D1204840782649086068
:104C700039E01E480078072813D11C4840780128E5
:104C800005D1002021490870214908702BE0174800
:104C90004078022827D101201C4908701C4908705F
:104CA00021E01248007808281DD1104840780128DA
:104CB00005D10020174908701749087013E00B4808
:104CC0004078022805D10120124908701249087065
:104CD00009E006484078032805D102200D490870F4
:104CE00001200D4908707047380200207002002032
:104CF0009000002094000020140000200E000020EE
:104D00004B00002038000020180000200C0000207C
:104D1000490000200F0000204C00002038B515E0AD
:104D200069465220FEF73EFC044664B169465220B3
:104D3000FEF738FC044634B169465220FEF732FCD7
:104D4000044604B138BD0A2000F0C4F9E8E70000C9
:104D500010B540F6044000F031FF3C230022012151
:104D6000044800F04DFB3C2302220021014800F0E2
:104D70006EFB10BD001002402DE9F04106460D46C5
:104D80002021264800F02BFB1021244800F027FBAF
:104D90007E2000EA4607082417E007F0800020B1D3
:104DA00080211E4800F01DFB03E080211B4800F01D
:104DB00016FB2021194800F014FB7806070E20216D
:104DC000164800F00CFB601EC4B2002CE5DC082481
:104DD00017E005F0800020B18021104800F001FBB1
:104DE00003E080210D4800F0FAFA20210B4800F082
:104DF000F8FA6806050E2021084800F0F0FA601E57
:104E0000C4B2002CE5DC1021044800F0EAFA2021AD
:104E1000024800F0E6FABDE8F08100000000024020
:104E200003B401984100009850EAC12018BF042043
:104E30004A0D18BF40F0010040F2FF72B2EB515F23
:104E400008BF40F00200012808BF052002B07047EB
:104E500030380A2801D2012070470020704781684D
:104E600041F00801816000BF816801F0080100295C
:104E7000FAD1816841F00401816000BF816801F0CE
:104E800004010029FAD1704730B5012902D0022966
:104E900020D10FE06AB1102A0BD8C36A23F4700343
:104EA000C362C36A541E4FF4700505EA04542343D9
:104EB000C36210E06AB1042A0BD8836B23F4401359
:104EC0008363836B541E4FF4401505EA0454234357
:104ED000836300E000BF00BF30BD000006490968E1
:104EE00021F4E021054AC2F804131146D1F8041355
:104EF0000143C2F80413704704230140002001401D
:104F000021B1826842F40062826003E0826822F488
:104F100000628260704710B540F6081000F072FE23
:104F200040F6081000F05CFE10BD816841F480710D
:104F300081607047816841F40071816070478168C9
:104F400001F0010119B9816841F0010181607047E8
:104F5000012902D0022912D108E0836823F04053CE
:104F60008360836843EA0273836009E0836823F403
:104F700040138360836843EA0253836000E000BF0C
:104F800000BF7047F0B51D4606290CDA436B01EBF4
:104F900081071F26BE40B34301EB810602FA06F6E5
:104FA0003343436322E00C290EDA036B8E1F06EBBA
:104FB00086071F26BE40B3438E1F06EB860602FA05
:104FC00006F63343036311E010290FDAC36AA1F137
:104FD0000C0606EB86071F26BE40B343A1F10C0664
:104FE00006EB860602FA06F63343C3620A2A0CDA97
:104FF000046902EB42070726BE40B44302EB4206B7
:1050000005FA06F63443046111E0122A0FDCC46885
:10501000A2F10A0606EB46070726BE40B443A2F1FA
:105020000A0606EB460605FA06F63443C460F0BDF0
:10503000012902D002290AD104E0826842F08042AC
:10504000826005E0826842F48002826000E000BF76
:1050500000BF7047AAB101F480731BB1436843F4E9
:105060008073436001F480631BB1436843F4806341
:10507000436001F00203CBB1836843F00203836015
:1050800014E001F480731BB1436823F48073436020
:1050900001F480631BB1436823F48063436001F033
:1050A00002031BB1836823F0020383607047000092
:1050B0000649096821F01F01054AC2F80413114688
:1050C000D1F804130143C2F80413704704230140CC
:1050D000002001400349086000BF02490968002917
:1050E000FBD170470400002005E0202100E0491EAC
:1050F0000029FCD1401E0028F7D170470448006801
:1051000020B103480068401E014908607047000054
:105110000400002010B501EB4102D30000F11002A1
:10512000D25842F0010301EB4102D40000F1100219
:10513000135110BD10B501EB4102D30000F1100274
:10514000D25842F4807301EB4102D40000F1100206
:10515000135110BD10B501EB4102D30000F1100254
:10516000D25822F0010301EB4102D40000F11002F9
:105170001351002301EB4102D40000F1100213513E
:1051800001EB4102D40000F11402135101EB410282
:10519000D40000F11802135101EB4102D40000F1D8
:1051A0001C02135101EB4102D40000F12002135103
:1051B00001EB4102D40000F12402135104290CDA5E
:1051C00001EB41025300C1F3400203EB82033D2295
:1051D0009A4083681A4382600DE00A1FD1B201EB46
:1051E00041025300C1F3400203EB82033D229A4087
:1051F000C3681A43C26010BD70B501EB4104E500FD
:1052000000F12404645924F0040501EB4104E60094
:1052100000F12404A55101EB4104E60000F118045B
:105220001568A55101EB4104E60000F11C049568E6
:10523000A55101EB4104E60000F11404D569A55124
:1052400001EB4104E50000F1100463593F4C234099
:10525000146944EA8404156A2C4395692C4323435A
:1052600001EB4104E50000F110046351546874B986
:1052700001EB4104E50000F11004645944F40075A9
:1052800001EB4104E60000F11004A5511FE0546851
:10529000012C0ED101EB4104E50000F1100464592A
:1052A00024F4007501EB4104E60000F11004A5515F
:1052B0000DE001EB4104E50000F11004645944F4F1
:1052C000004501EB4104E60000F11004A551D4684B
:1052D00074B901EB4104E50000F11004645944F491
:1052E000806501EB4104E60000F11004A5510DE0DA
:1052F00001EB4104E50000F11004645924F48065D9
:1053000001EB4104E60000F11004A551546974B9A1
:1053100001EB4104E50000F11004645944F4807588
:1053200001EB4104E60000F11004A5510DE001EB92
:105330004104E50000F11004645924F4807501EB88
:105340004104E60000F11004A55170BD3F87FCFF49
:105350000149086070470000143C014001460748BD
:10536000006800EA010205481438006800EA0103F9
:1053700012B10BB1012070470020FCE7143C014042
:10538000F0B503461C6A5D6A00200DE001268640E8
:1053900016403EB187000F26BE40B443860001FA96
:1053A00006F63443461CB0B20828EFD3082011E0BB
:1053B0000126864016405EB1A0F10806B7000F2610
:1053C000BE40B543A0F10806B60001FA06F6354323
:1053D000461CB0B21028EBD31C625D62F0BD816246
:1053E0007047816170470AB1816100E08162704756
:1053F00002461069084008B1012070470020FCE710
:10540000F0B504460D4616462168E268002019E012
:10541000012787401F409FB14FEA400C032707FA3E
:105420000CF7B943470005FA07F739434FEA400C38
:10543000032707FA0CF7BA43470006FA07F73A437F
:10544000471CB8B21028E3D32160E260F0BDF0B58C
:105450000C461546012C03D146681E43466002E007
:1054600046689E434660826800210DE001268E401A
:105470001E403EB14F000326BE40B2434E0005FA27
:1054800006F632434E1CB1B21029EFD38260F0BD54
:10549000012904D1026842F48062026003E00268DC
:1054A00022F48062026070472DE9F05F04460E46E8
:1054B0009346022000F01EFA07462E48B7FBF0F88C
:1054C000B8F1320F01D34FF03208D4F804A02AF01B
:1054D0003F0A4AEA080AC4F804A02748864218D8B6
:1054E0002448B7FBF0F000F10109B9F1320F02D303
:1054F0003220206201E0C4F820907000B7FBF0F584
:10550000042D00D20425E069C5F30B010843E061D6
:105510002EE01A4886422BD84FF4967008FB00F014
:105520004FF47A71B0FBF1F0401C2062BBF1000F28
:1055300008D106EB4600B7FBF0F5E06920F48040A7
:10554000E06109E006EBC60000EB0610B7FBF0F5E2
:10555000E06940F48040E061C5F30B0008B945F014
:105560000105E06940F40040E061E0692843E06142
:10557000BDE8F09F40420F00A0860100801A06009F
:1055800001460869C0B27047CAB20261704701683B
:1055900041F001010160704710B540F201529142A3
:1055A00002D1426982690AE000EB9112126801F0AF
:1055B0001F040123A3409A4300EB91131A6010BD0E
:1055C00010B5024602EB9110006801F01F040123A0
:1055D000A340184008B1012010BD0020FCE712F1E3
:1055E000020F02D121F0010101E041F0010101614E
:1055F000704730B50C460021016821F002012143BB
:105600000160C3F3090342EA0305856030BD016808
:1056100041F4807101607047016841F400710160DC
:105620007047000010B5002208490948FFF73CFF09
:105630004623002211460648FFF7DBFF0448FFF728
:10564000A6FF01210248FFF723FF10BDA08601003D
:105650000054004010B540F6044000F0AFFA4FF49B
:105660006053012200210248FFF7CAFE10BD00006E
:105670000010024010B500244FF400612048FFF7ED
:10568000B7FE78B90F20FFF725FD00BF4FF400618A
:105690001B48FFF7ADFE0028F8D00F20FFF71AFDDA
:1056A00001242AE04FF480511548FFF7A1FE78B994
:1056B0000F20FFF70FFD00BF4FF480511048FFF798
:1056C00097FE0028F8D00F20FFF704FD022414E015
:1056D0004FF400510A48FFF78BFE70B90F20FFF717
:1056E000F9FC00BF4FF400510548FFF781FE002888
:1056F000F8D00F20FFF7EEFC0324204610BD000079
:105700000010024000F0A8FCFCF782FFFDF780F8D3
:10571000FCF7C0F8FDF73CF8FCF7CCFBFBF7FEFE0E
:10572000FFF716FBFCF788F8FCF74CF8FCF772F96A
:10573000FCF726FCFFF78EFFFEF73EFFFFF776F83B
:10574000FEF750FEFCF7CAFAFFF7D0F9FDF740F874
:1057500021E0FDF755FAFCF727FCFFF79DF8FFF76E
:105760003FFA0D48007801280DD10C4991ED000A4F
:10577000F2EE040A20EE200ABDEEC00A10EE101A66
:1057800008B2FEF7A1FD04480078022803D1E02109
:105790000348FCF7ADFFDCE748000020D000002004
:1057A000180100202DE9F04103460D46164600245D
:1057B0000027A0462A48006800F4E060B0F5E06FDA
:1057C00003D100BF4FF0040830E02548006800F422
:1057D000E060B0F5C06F03D101274FF0030825E06A
:1057E0001F48006800F4E060B0F5A06F02D1022706
:1057F000B8461BE01A48006800F4E060B0F5806F1E
:1058000003D103274FF0010810E01548006800F4A9
:10581000E060B0F5407F03D104274FF0000805E0B9
:105820004FF4A06000F020F80227B846C7F104004A
:1058300005FA00F4C8F104010F20C84030400443C9
:1058400024010848C45403F01F0101208840591165
:10585000890001F1E021C1F80001BDE8F0810000FC
:105860000CED00E000E400E002490143024A11604F
:10587000704700000000FA050CED00E010B502468C
:10588000012000E050430B1EA1F10104E1B2F9D167
:1058900010BD00000348006840F4807001490860B2
:1058A000704700000070004010B54FF4406000F0F9
:1058B00085F94FF46063002202210848FFF7A0FD3C
:1058C0004FF46063022200210448FFF7C0FD4FF44B
:1058D000606201210148FFF753FD10BD0000024046
:1058E0000348006840F0807001490860704700007C
:1058F000743802402DE9F04F8CB0064600200A9023
:105900003EA090E8004CC068CDE905BECDF810A0DF
:1059100007900FF2EC0ADAE9000ACDE9020A0FF269
:10592000E00ADAE9000ACDE9000A38480068C0F365
:1059300081000B900B9820B1012804D0022828D1B7
:1059400003E0334927E0334925E03048001F006871
:1059500000F03F072D48001F0068C0F3881C2B484B
:10596000001F0068C0F30140401C4FEA400927486F
:10597000001F006800F48008B8F5800F01D1254BA6
:1059800000E0234BB3FBF7F000FB0CF0B0FBF9F1A8
:1059900001E01F4900BF00BF1C480068C0F30314AA
:1059A00004A8055D21FA05F218480068C0F38224B6
:1059B00002A8055D22FA05F0099014480068C0F3BA
:1059C00042341DF8045022FA05F0089036B1012E39
:1059D00006D0022E06D0032E0AD106E00A9108E076
:1059E0000A9206E009980A9003E008980A9000E0FD
:1059F00000BF00BF0A980CB0BDE8F08F00000000A7
:105A000000000000010203040607080908380240EC
:105A10000024F40000127A000146074A02EB9110BC
:105A2000D0F8000801F01F0301229A40104008B18D
:105A3000012070470020FCE700300240074A02EBDB
:105A40009011D1F8001800F01F0301229A40114371
:105A5000024B03EB9012C2F800187047003002406E
:105A6000F0B506460024002700251C2E7DD007DC5B
:105A7000B6B3102E10D0182E67D01A2E76D176E03D
:105A8000B6F5E05F19D0B6F5E85F4CD0A6F540500A
:105A900010380028F2D134E004E01120FFF7BCFFF9
:105AA0000546641C1DB94FF6FF708442F5D11120E4
:105AB000FFF7B2FF00B101277AE005E041F60140AF
:105AC000FFF7AAFF0546641C1DB96FF070408442C1
:105AD000F4D141F60140FFF79FFF00B1012767E0D5
